{
  "contractName": "EnergyCredits",
  "abi": [
    {
      "inputs": [],
      "stateMutability": "nonpayable",
      "type": "constructor"
    },
    {
      "anonymous": false,
      "inputs": [
        {
          "indexed": true,
          "internalType": "address",
          "name": "tokenOwner",
          "type": "address"
        },
        {
          "indexed": true,
          "internalType": "address",
          "name": "spender",
          "type": "address"
        },
        {
          "indexed": false,
          "internalType": "uint256",
          "name": "tokens",
          "type": "uint256"
        }
      ],
      "name": "Approval",
      "type": "event"
    },
    {
      "anonymous": false,
      "inputs": [
        {
          "indexed": true,
          "internalType": "address",
          "name": "from",
          "type": "address"
        },
        {
          "indexed": false,
          "internalType": "uint256",
          "name": "value",
          "type": "uint256"
        }
      ],
      "name": "Burn",
      "type": "event"
    },
    {
      "anonymous": false,
      "inputs": [
        {
          "indexed": false,
          "internalType": "address",
          "name": "target",
          "type": "address"
        },
        {
          "indexed": false,
          "internalType": "bool",
          "name": "frozen",
          "type": "bool"
        }
      ],
      "name": "FrozenFunds",
      "type": "event"
    },
    {
      "anonymous": false,
      "inputs": [
        {
          "indexed": true,
          "internalType": "address",
          "name": "_from",
          "type": "address"
        },
        {
          "indexed": true,
          "internalType": "address",
          "name": "_to",
          "type": "address"
        }
      ],
      "name": "OwnershipTransferred",
      "type": "event"
    },
    {
      "anonymous": false,
      "inputs": [
        {
          "indexed": true,
          "internalType": "address",
          "name": "from",
          "type": "address"
        },
        {
          "indexed": true,
          "internalType": "address",
          "name": "to",
          "type": "address"
        },
        {
          "indexed": false,
          "internalType": "uint256",
          "name": "tokens",
          "type": "uint256"
        }
      ],
      "name": "Transfer",
      "type": "event"
    },
    {
      "inputs": [],
      "name": "acceptOwnership",
      "outputs": [],
      "stateMutability": "nonpayable",
      "type": "function"
    },
    {
      "inputs": [
        {
          "internalType": "address",
          "name": "",
          "type": "address"
        },
        {
          "internalType": "address",
          "name": "",
          "type": "address"
        }
      ],
      "name": "allowed",
      "outputs": [
        {
          "internalType": "uint256",
          "name": "",
          "type": "uint256"
        }
      ],
      "stateMutability": "view",
      "type": "function",
      "constant": true
    },
    {
      "inputs": [
        {
          "internalType": "address",
          "name": "",
          "type": "address"
        }
      ],
      "name": "balances",
      "outputs": [
        {
          "internalType": "uint256",
          "name": "",
          "type": "uint256"
        }
      ],
      "stateMutability": "view",
      "type": "function",
      "constant": true
    },
    {
      "inputs": [],
      "name": "decimals",
      "outputs": [
        {
          "internalType": "uint8",
          "name": "",
          "type": "uint8"
        }
      ],
      "stateMutability": "view",
      "type": "function",
      "constant": true
    },
    {
      "inputs": [
        {
          "internalType": "address",
          "name": "",
          "type": "address"
        }
      ],
      "name": "frozenAccount",
      "outputs": [
        {
          "internalType": "bool",
          "name": "",
          "type": "bool"
        }
      ],
      "stateMutability": "view",
      "type": "function",
      "constant": true
    },
    {
      "inputs": [],
      "name": "name",
      "outputs": [
        {
          "internalType": "string",
          "name": "",
          "type": "string"
        }
      ],
      "stateMutability": "view",
      "type": "function",
      "constant": true
    },
    {
      "inputs": [],
      "name": "newOwner",
      "outputs": [
        {
          "internalType": "address",
          "name": "",
          "type": "address"
        }
      ],
      "stateMutability": "view",
      "type": "function",
      "constant": true
    },
    {
      "inputs": [],
      "name": "owner",
      "outputs": [
        {
          "internalType": "address",
          "name": "",
          "type": "address"
        }
      ],
      "stateMutability": "view",
      "type": "function",
      "constant": true
    },
    {
      "inputs": [],
      "name": "symbol",
      "outputs": [
        {
          "internalType": "string",
          "name": "",
          "type": "string"
        }
      ],
      "stateMutability": "view",
      "type": "function",
      "constant": true
    },
    {
      "inputs": [
        {
          "internalType": "address",
          "name": "_newOwner",
          "type": "address"
        }
      ],
      "name": "transferOwnership",
      "outputs": [],
      "stateMutability": "nonpayable",
      "type": "function"
    },
    {
      "inputs": [],
      "name": "totalSupply",
      "outputs": [
        {
          "internalType": "uint256",
          "name": "",
          "type": "uint256"
        }
      ],
      "stateMutability": "view",
      "type": "function",
      "constant": true
    },
    {
      "inputs": [
        {
          "internalType": "address",
          "name": "tokenOwner",
          "type": "address"
        }
      ],
      "name": "balanceOf",
      "outputs": [
        {
          "internalType": "uint256",
          "name": "balance",
          "type": "uint256"
        }
      ],
      "stateMutability": "view",
      "type": "function",
      "constant": true
    },
    {
      "inputs": [
        {
          "internalType": "address",
          "name": "to",
          "type": "address"
        },
        {
          "internalType": "uint256",
          "name": "tokens",
          "type": "uint256"
        }
      ],
      "name": "transfer",
      "outputs": [
        {
          "internalType": "bool",
          "name": "success",
          "type": "bool"
        }
      ],
      "stateMutability": "nonpayable",
      "type": "function"
    },
    {
      "inputs": [
        {
          "internalType": "address",
          "name": "spender",
          "type": "address"
        },
        {
          "internalType": "uint256",
          "name": "tokens",
          "type": "uint256"
        }
      ],
      "name": "approve",
      "outputs": [
        {
          "internalType": "bool",
          "name": "success",
          "type": "bool"
        }
      ],
      "stateMutability": "nonpayable",
      "type": "function"
    },
    {
      "inputs": [
        {
          "internalType": "address",
          "name": "from",
          "type": "address"
        },
        {
          "internalType": "address",
          "name": "to",
          "type": "address"
        },
        {
          "internalType": "uint256",
          "name": "tokens",
          "type": "uint256"
        }
      ],
      "name": "transferFrom",
      "outputs": [
        {
          "internalType": "bool",
          "name": "success",
          "type": "bool"
        }
      ],
      "stateMutability": "nonpayable",
      "type": "function"
    },
    {
      "inputs": [
        {
          "internalType": "address",
          "name": "tokenOwner",
          "type": "address"
        },
        {
          "internalType": "address",
          "name": "spender",
          "type": "address"
        }
      ],
      "name": "allowance",
      "outputs": [
        {
          "internalType": "uint256",
          "name": "remaining",
          "type": "uint256"
        }
      ],
      "stateMutability": "view",
      "type": "function",
      "constant": true
    },
    {
      "inputs": [
        {
          "internalType": "address",
          "name": "target",
          "type": "address"
        },
        {
          "internalType": "uint256",
          "name": "amount",
          "type": "uint256"
        }
      ],
      "name": "mintToken",
      "outputs": [
        {
          "internalType": "bool",
          "name": "success",
          "type": "bool"
        }
      ],
      "stateMutability": "nonpayable",
      "type": "function"
    },
    {
      "inputs": [
        {
          "internalType": "uint256",
          "name": "_value",
          "type": "uint256"
        }
      ],
      "name": "burn",
      "outputs": [
        {
          "internalType": "bool",
          "name": "success",
          "type": "bool"
        }
      ],
      "stateMutability": "nonpayable",
      "type": "function"
    },
    {
      "inputs": [
        {
          "internalType": "address",
          "name": "target",
          "type": "address"
        },
        {
          "internalType": "bool",
          "name": "freeze",
          "type": "bool"
        }
      ],
      "name": "freezeAccount",
      "outputs": [
        {
          "internalType": "bool",
          "name": "success",
          "type": "bool"
        }
      ],
      "stateMutability": "nonpayable",
      "type": "function"
    },
    {
      "inputs": [
        {
          "internalType": "address",
          "name": "tokenAddress",
          "type": "address"
        },
        {
          "internalType": "uint256",
          "name": "tokens",
          "type": "uint256"
        }
      ],
      "name": "transferAnyERC20Token",
      "outputs": [
        {
          "internalType": "bool",
          "name": "success",
          "type": "bool"
        }
      ],
      "stateMutability": "nonpayable",
      "type": "function"
    }
  ],
  "bytecode": "0x60806040523480156200001157600080fd5b50336000806101000a81548173ffffffffffffffffffffffffffffffffffffffff021916908373ffffffffffffffffffffffffffffffffffffffff1602179055506040518060400160405280600281526020017f4543000000000000000000000000000000000000000000000000000000000000815250600290805190602001906200009f92919062000238565b506040518060400160405280600e81526020017f456e65726779204372656469747300000000000000000000000000000000000081525060039080519060200190620000ed92919062000238565b506003600460006101000a81548160ff021916908360ff160217905550600460009054906101000a900460ff1660ff16600a6200012b919062000371565b620f42406200013b9190620004ae565b600581905550600554600660008060009054906101000a900473ffffffffffffffffffffffffffffffffffffffff1673ffffffffffffffffffffffffffffffffffffffff1673ffffffffffffffffffffffffffffffffffffffff1681526020019081526020016000208190555060008054906101000a900473ffffffffffffffffffffffffffffffffffffffff1673ffffffffffffffffffffffffffffffffffffffff16600073ffffffffffffffffffffffffffffffffffffffff167fddf252ad1be2c89b69c2b068fc378daa952ba7f163c4a11628f55a4df523b3ef6005546040516200022a9190620002f9565b60405180910390a3620005ba565b828054620002469062000519565b90600052602060002090601f0160209004810192826200026a5760008555620002b6565b82601f106200028557805160ff1916838001178555620002b6565b82800160010185558215620002b6579182015b82811115620002b557825182559160200191906001019062000298565b5b509050620002c59190620002c9565b5090565b5b80821115620002e4576000816000905550600101620002ca565b5090565b620002f3816200050f565b82525050565b6000602082019050620003106000830184620002e8565b92915050565b6000808291508390505b6001851115620003685780860481111562000340576200033f6200054f565b5b6001851615620003505780820291505b80810290506200036085620005ad565b945062000320565b94509492505050565b60006200037e826200050f565b91506200038b836200050f565b9250620003ba7fffffffffffffffffffffffffffffffffffffffffffffffffffffffffffffffff8484620003c2565b905092915050565b600082620003d45760019050620004a7565b81620003e45760009050620004a7565b8160018114620003fd576002811462000408576200043e565b6001915050620004a7565b60ff8411156200041d576200041c6200054f565b5b8360020a9150848211156200043757620004366200054f565b5b50620004a7565b5060208310610133831016604e8410600b8410161715620004785782820a9050838111156200047257620004716200054f565b5b620004a7565b62000487848484600162000316565b92509050818404811115620004a157620004a06200054f565b5b81810290505b9392505050565b6000620004bb826200050f565b9150620004c8836200050f565b9250817fffffffffffffffffffffffffffffffffffffffffffffffffffffffffffffffff04831182151516156200050457620005036200054f565b5b828202905092915050565b6000819050919050565b600060028204905060018216806200053257607f821691505b602082108114156200054957620005486200057e565b5b50919050565b7f4e487b7100000000000000000000000000000000000000000000000000000000600052601160045260246000fd5b7f4e487b7100000000000000000000000000000000000000000000000000000000600052602260045260246000fd5b60008160011c9050919050565b611c9480620005ca6000396000f3fe608060405234801561001057600080fd5b506004361061012c5760003560e01c806379c65068116100ad578063d4ee1d9011610071578063d4ee1d9014610381578063dc39d06d1461039f578063dd62ed3e146103cf578063e724529c146103ff578063f2fde38b1461042f5761012c565b806379c65068146102b55780638da5cb5b146102e557806395d89b4114610303578063a9059cbb14610321578063b414d4b6146103515761012c565b8063313ce567116100f4578063313ce567146101fd57806342966c681461021b5780635c6581651461024b57806370a082311461027b57806379ba5097146102ab5761012c565b806306fdde0314610131578063095ea7b31461014f57806318160ddd1461017f57806323b872dd1461019d57806327e235e3146101cd575b600080fd5b61013961044b565b60405161014691906119f2565b60405180910390f35b61016960048036038101906101649190611867565b6104d9565b60405161017691906119d7565b60405180910390f35b6101876105cb565b6040516101949190611a14565b60405180910390f35b6101b760048036038101906101b291906117dc565b610626565b6040516101c491906119d7565b60405180910390f35b6101e760048036038101906101e29190611777565b6107d6565b6040516101f49190611a14565b60405180910390f35b6102056107ee565b6040516102129190611a2f565b60405180910390f35b610235600480360381019061023091906118cc565b610801565b60405161024291906119d7565b60405180910390f35b610265600480360381019061026091906117a0565b6109af565b6040516102729190611a14565b60405180910390f35b61029560048036038101906102909190611777565b6109d4565b6040516102a29190611a14565b60405180910390f35b6102b3610a1d565b005b6102cf60048036038101906102ca9190611867565b610bb9565b6040516102dc91906119d7565b60405180910390f35b6102ed610dd9565b6040516102fa919061196a565b60405180910390f35b61030b610dfd565b60405161031891906119f2565b60405180910390f35b61033b60048036038101906103369190611867565b610e8b565b60405161034891906119d7565b60405180910390f35b61036b60048036038101906103669190611777565b610ea2565b60405161037891906119d7565b60405180910390f35b610389610ec2565b604051610396919061196a565b60405180910390f35b6103b960048036038101906103b49190611867565b610ee8565b6040516103c691906119d7565b60405180910390f35b6103e960048036038101906103e491906117a0565b610ff8565b6040516103f69190611a14565b60405180910390f35b6104196004803603810190610414919061182b565b61107f565b60405161042691906119d7565b60405180910390f35b61044960048036038101906104449190611777565b611174565b005b6003805461045890611b78565b80601f016020809104026020016040519081016040528092919081815260200182805461048490611b78565b80156104d15780601f106104a6576101008083540402835291602001916104d1565b820191906000526020600020905b8154815290600101906020018083116104b457829003601f168201915b505050505081565b600081600760003373ffffffffffffffffffffffffffffffffffffffff1673ffffffffffffffffffffffffffffffffffffffff16815260200190815260200160002060008573ffffffffffffffffffffffffffffffffffffffff1673ffffffffffffffffffffffffffffffffffffffff168152602001908152602001600020819055508273ffffffffffffffffffffffffffffffffffffffff163373ffffffffffffffffffffffffffffffffffffffff167f8c5be1e5ebec7d5bd14f71427d1e84f3dd0314c0f7b2291e5b200ac8c7c3b925846040516105b99190611a14565b60405180910390a36001905092915050565b6000610621600660008073ffffffffffffffffffffffffffffffffffffffff1673ffffffffffffffffffffffffffffffffffffffff1681526020019081526020016000205460055461121090919063ffffffff16565b905090565b6000600760008573ffffffffffffffffffffffffffffffffffffffff1673ffffffffffffffffffffffffffffffffffffffff16815260200190815260200160002060003373ffffffffffffffffffffffffffffffffffffffff1673ffffffffffffffffffffffffffffffffffffffff168152602001908152602001600020548211156106b157600080fd5b61074082600760008773ffffffffffffffffffffffffffffffffffffffff1673ffffffffffffffffffffffffffffffffffffffff16815260200190815260200160002060003373ffffffffffffffffffffffffffffffffffffffff1673ffffffffffffffffffffffffffffffffffffffff1681526020019081526020016000205461121090919063ffffffff16565b600760008673ffffffffffffffffffffffffffffffffffffffff1673ffffffffffffffffffffffffffffffffffffffff16815260200190815260200160002060003373ffffffffffffffffffffffffffffffffffffffff1673ffffffffffffffffffffffffffffffffffffffff168152602001908152602001600020819055506107cb848484611233565b600190509392505050565b60066020528060005260406000206000915090505481565b600460009054906101000a900460ff1681565b60008060009054906101000a900473ffffffffffffffffffffffffffffffffffffffff1673ffffffffffffffffffffffffffffffffffffffff163373ffffffffffffffffffffffffffffffffffffffff161461085c57600080fd5b81600660003373ffffffffffffffffffffffffffffffffffffffff1673ffffffffffffffffffffffffffffffffffffffff1681526020019081526020016000205410156108a857600080fd5b6108fa82600660003373ffffffffffffffffffffffffffffffffffffffff1673ffffffffffffffffffffffffffffffffffffffff1681526020019081526020016000205461121090919063ffffffff16565b600660003373ffffffffffffffffffffffffffffffffffffffff1673ffffffffffffffffffffffffffffffffffffffff168152602001908152602001600020819055506109528260055461121090919063ffffffff16565b6005819055503373ffffffffffffffffffffffffffffffffffffffff167fcc16f5dbb4873280815c1ee09dbd06736cffcc184412cf7a71a0fdb75d397ca58360405161099e9190611a14565b60405180910390a260019050919050565b6007602052816000526040600020602052806000526040600020600091509150505481565b6000600660008373ffffffffffffffffffffffffffffffffffffffff1673ffffffffffffffffffffffffffffffffffffffff168152602001908152602001600020549050919050565b600160009054906101000a900473ffffffffffffffffffffffffffffffffffffffff1673ffffffffffffffffffffffffffffffffffffffff163373ffffffffffffffffffffffffffffffffffffffff1614610a7757600080fd5b600160009054906101000a900473ffffffffffffffffffffffffffffffffffffffff1673ffffffffffffffffffffffffffffffffffffffff1660008054906101000a900473ffffffffffffffffffffffffffffffffffffffff1673ffffffffffffffffffffffffffffffffffffffff167f8be0079c531659141344cd1fd0a4f28419497f9722a3daafe3b4186f6b6457e060405160405180910390a3600160009054906101000a900473ffffffffffffffffffffffffffffffffffffffff166000806101000a81548173ffffffffffffffffffffffffffffffffffffffff021916908373ffffffffffffffffffffffffffffffffffffffff1602179055506000600160006101000a81548173ffffffffffffffffffffffffffffffffffffffff021916908373ffffffffffffffffffffffffffffffffffffffff160217905550565b60008060009054906101000a900473ffffffffffffffffffffffffffffffffffffffff1673ffffffffffffffffffffffffffffffffffffffff163373ffffffffffffffffffffffffffffffffffffffff1614610c1457600080fd5b610c6682600660008673ffffffffffffffffffffffffffffffffffffffff1673ffffffffffffffffffffffffffffffffffffffff1681526020019081526020016000205461170090919063ffffffff16565b600660008573ffffffffffffffffffffffffffffffffffffffff1673ffffffffffffffffffffffffffffffffffffffff16815260200190815260200160002081905550610cbe8260055461170090919063ffffffff16565b60058190555060008054906101000a900473ffffffffffffffffffffffffffffffffffffffff1673ffffffffffffffffffffffffffffffffffffffff16600073ffffffffffffffffffffffffffffffffffffffff167fddf252ad1be2c89b69c2b068fc378daa952ba7f163c4a11628f55a4df523b3ef84604051610d429190611a14565b60405180910390a38273ffffffffffffffffffffffffffffffffffffffff1660008054906101000a900473ffffffffffffffffffffffffffffffffffffffff1673ffffffffffffffffffffffffffffffffffffffff167fddf252ad1be2c89b69c2b068fc378daa952ba7f163c4a11628f55a4df523b3ef84604051610dc79190611a14565b60405180910390a36001905092915050565b60008054906101000a900473ffffffffffffffffffffffffffffffffffffffff1681565b60028054610e0a90611b78565b80601f0160208091040260200160405190810160405280929190818152602001828054610e3690611b78565b8015610e835780601f10610e5857610100808354040283529160200191610e83565b820191906000526020600020905b815481529060010190602001808311610e6657829003601f168201915b505050505081565b6000610e98338484611233565b6001905092915050565b60086020528060005260406000206000915054906101000a900460ff1681565b600160009054906101000a900473ffffffffffffffffffffffffffffffffffffffff1681565b60008060009054906101000a900473ffffffffffffffffffffffffffffffffffffffff1673ffffffffffffffffffffffffffffffffffffffff163373ffffffffffffffffffffffffffffffffffffffff1614610f4357600080fd5b8273ffffffffffffffffffffffffffffffffffffffff1663a9059cbb60008054906101000a900473ffffffffffffffffffffffffffffffffffffffff16846040518363ffffffff1660e01b8152600401610f9e9291906119ae565b602060405180830381600087803b158015610fb857600080fd5b505af1158015610fcc573d6000803e3d6000fd5b505050506040513d601f19601f82011682018060405250810190610ff091906118a3565b905092915050565b6000600760008473ffffffffffffffffffffffffffffffffffffffff1673ffffffffffffffffffffffffffffffffffffffff16815260200190815260200160002060008373ffffffffffffffffffffffffffffffffffffffff1673ffffffffffffffffffffffffffffffffffffffff16815260200190815260200160002054905092915050565b60008060009054906101000a900473ffffffffffffffffffffffffffffffffffffffff1673ffffffffffffffffffffffffffffffffffffffff163373ffffffffffffffffffffffffffffffffffffffff16146110da57600080fd5b81600860008573ffffffffffffffffffffffffffffffffffffffff1673ffffffffffffffffffffffffffffffffffffffff16815260200190815260200160002060006101000a81548160ff0219169083151502179055507f48335238b4855f35377ed80f164e8c6f3c366e54ac00b96a6402d4a9814a03a58383604051611162929190611985565b60405180910390a16001905092915050565b60008054906101000a900473ffffffffffffffffffffffffffffffffffffffff1673ffffffffffffffffffffffffffffffffffffffff163373ffffffffffffffffffffffffffffffffffffffff16146111cc57600080fd5b80600160006101000a81548173ffffffffffffffffffffffffffffffffffffffff021916908373ffffffffffffffffffffffffffffffffffffffff16021790555050565b60008282111561121f57600080fd5b818361122b9190611abc565b905092915050565b600073ffffffffffffffffffffffffffffffffffffffff168273ffffffffffffffffffffffffffffffffffffffff16141561126d57600080fd5b80600660008573ffffffffffffffffffffffffffffffffffffffff1673ffffffffffffffffffffffffffffffffffffffff1681526020019081526020016000205410156112b957600080fd5b600081116112c657600080fd5b600660008373ffffffffffffffffffffffffffffffffffffffff1673ffffffffffffffffffffffffffffffffffffffff1681526020019081526020016000205461135882600660008673ffffffffffffffffffffffffffffffffffffffff1673ffffffffffffffffffffffffffffffffffffffff1681526020019081526020016000205461170090919063ffffffff16565b1161136257600080fd5b600860008473ffffffffffffffffffffffffffffffffffffffff1673ffffffffffffffffffffffffffffffffffffffff16815260200190815260200160002060009054906101000a900460ff16156113b957600080fd5b600860008373ffffffffffffffffffffffffffffffffffffffff1673ffffffffffffffffffffffffffffffffffffffff16815260200190815260200160002060009054906101000a900460ff161561141057600080fd5b60006114a3600660008573ffffffffffffffffffffffffffffffffffffffff1673ffffffffffffffffffffffffffffffffffffffff16815260200190815260200160002054600660008773ffffffffffffffffffffffffffffffffffffffff1673ffffffffffffffffffffffffffffffffffffffff1681526020019081526020016000205461170090919063ffffffff16565b90506114f782600660008773ffffffffffffffffffffffffffffffffffffffff1673ffffffffffffffffffffffffffffffffffffffff1681526020019081526020016000205461121090919063ffffffff16565b600660008673ffffffffffffffffffffffffffffffffffffffff1673ffffffffffffffffffffffffffffffffffffffff1681526020019081526020016000208190555061158c82600660008673ffffffffffffffffffffffffffffffffffffffff1673ffffffffffffffffffffffffffffffffffffffff1681526020019081526020016000205461170090919063ffffffff16565b600660008573ffffffffffffffffffffffffffffffffffffffff1673ffffffffffffffffffffffffffffffffffffffff1681526020019081526020016000208190555080611661600660008673ffffffffffffffffffffffffffffffffffffffff1673ffffffffffffffffffffffffffffffffffffffff16815260200190815260200160002054600660008873ffffffffffffffffffffffffffffffffffffffff1673ffffffffffffffffffffffffffffffffffffffff1681526020019081526020016000205461170090919063ffffffff16565b14611695577f4e487b7100000000000000000000000000000000000000000000000000000000600052600160045260246000fd5b8273ffffffffffffffffffffffffffffffffffffffff168473ffffffffffffffffffffffffffffffffffffffff167fddf252ad1be2c89b69c2b068fc378daa952ba7f163c4a11628f55a4df523b3ef846040516116f29190611a14565b60405180910390a350505050565b6000818361170e9190611a66565b90508281101561171d57600080fd5b92915050565b60008135905061173281611c19565b92915050565b60008135905061174781611c30565b92915050565b60008151905061175c81611c30565b92915050565b60008135905061177181611c47565b92915050565b60006020828403121561178957600080fd5b600061179784828501611723565b91505092915050565b600080604083850312156117b357600080fd5b60006117c185828601611723565b92505060206117d285828601611723565b9150509250929050565b6000806000606084860312156117f157600080fd5b60006117ff86828701611723565b935050602061181086828701611723565b925050604061182186828701611762565b9150509250925092565b6000806040838503121561183e57600080fd5b600061184c85828601611723565b925050602061185d85828601611738565b9150509250929050565b6000806040838503121561187a57600080fd5b600061188885828601611723565b925050602061189985828601611762565b9150509250929050565b6000602082840312156118b557600080fd5b60006118c38482850161174d565b91505092915050565b6000602082840312156118de57600080fd5b60006118ec84828501611762565b91505092915050565b6118fe81611af0565b82525050565b61190d81611b02565b82525050565b600061191e82611a4a565b6119288185611a55565b9350611938818560208601611b45565b61194181611c08565b840191505092915050565b61195581611b2e565b82525050565b61196481611b38565b82525050565b600060208201905061197f60008301846118f5565b92915050565b600060408201905061199a60008301856118f5565b6119a76020830184611904565b9392505050565b60006040820190506119c360008301856118f5565b6119d0602083018461194c565b9392505050565b60006020820190506119ec6000830184611904565b92915050565b60006020820190508181036000830152611a0c8184611913565b905092915050565b6000602082019050611a29600083018461194c565b92915050565b6000602082019050611a44600083018461195b565b92915050565b600081519050919050565b600082825260208201905092915050565b6000611a7182611b2e565b9150611a7c83611b2e565b9250827fffffffffffffffffffffffffffffffffffffffffffffffffffffffffffffffff03821115611ab157611ab0611baa565b5b828201905092915050565b6000611ac782611b2e565b9150611ad283611b2e565b925082821015611ae557611ae4611baa565b5b828203905092915050565b6000611afb82611b0e565b9050919050565b60008115159050919050565b600073ffffffffffffffffffffffffffffffffffffffff82169050919050565b6000819050919050565b600060ff82169050919050565b60005b83811015611b63578082015181840152602081019050611b48565b83811115611b72576000848401525b50505050565b60006002820490506001821680611b9057607f821691505b60208210811415611ba457611ba3611bd9565b5b50919050565b7f4e487b7100000000000000000000000000000000000000000000000000000000600052601160045260246000fd5b7f4e487b7100000000000000000000000000000000000000000000000000000000600052602260045260246000fd5b6000601f19601f8301169050919050565b611c2281611af0565b8114611c2d57600080fd5b50565b611c3981611b02565b8114611c4457600080fd5b50565b611c5081611b2e565b8114611c5b57600080fd5b5056fea264697066735822122051dafdfd010a4722c321cce76c96d0d01489ee5348de7f3169052ebd8aaddeb364736f6c63430008010033",
  "immutableReferences": {},
  "source": "pragma solidity >=0.8.1 <0.9.0;\n\n// ----------------------------------------------------------------------------\n// Energy Credits\n// ERC20 Standard Token\n// Represents electricity in kWh\n//\n// Symbol      : EC\n// Name        : Energy Credits\n// Total supply: 1,000,000.000\n// Decimals    : 3\n// ----------------------------------------------------------------------------\n\n\n// ----------------------------------------------------------------------------\n// Safe maths\n// ----------------------------------------------------------------------------\nlibrary SafeMath {\n    function add(uint a, uint b) internal pure returns (uint c) {\n        c = a + b;\n        require(c >= a);\n    }\n    function sub(uint a, uint b) internal pure returns (uint c) {\n        require(b <= a);\n        c = a - b;\n    }\n    function mul(uint a, uint b) internal pure returns (uint c) {\n        c = a * b;\n        require(a == 0 || c / a == b);\n    }\n    function div(uint a, uint b) internal pure returns (uint c) {\n        require(b > 0);\n        c = a / b;\n    }\n}\n\n\n// ----------------------------------------------------------------------------\n// ERC Token Standard #20 Interface\n// https://github.com/ethereum/EIPs/blob/master/EIPS/eip-20.md\n// ----------------------------------------------------------------------------\ninterface IERC20 {\n    function totalSupply() external view returns (uint256);\n    function balanceOf(address tokenOwner) external view returns (uint256);\n    function allowance(address tokenOwner, address spender) external view returns (uint remaining);\n    function transfer(address recipient, uint256 amount) external returns (bool);\n    function approve(address spender, uint tokens) external returns (bool success);\n    function transferFrom(address from, address to, uint tokens) external returns (bool success);\n\n    event Transfer(address indexed from, address indexed to, uint tokens);\n    event Approval(address indexed tokenOwner, address indexed spender, uint tokens);\n    event Burn(address indexed from, uint256 value);\n}\n\n// ----------------------------------------------------------------------------\n// Owned contract\n// ----------------------------------------------------------------------------\ncontract Owned {\n    address public owner;\n    address public newOwner;\n\n    event OwnershipTransferred(address indexed _from, address indexed _to);\n\n    constructor() {\n        owner = msg.sender;\n    }\n\n    modifier onlyOwner {\n        require(msg.sender == owner);\n        _;\n    }\n\n    function transferOwnership(address _newOwner) public onlyOwner {\n        newOwner = _newOwner;\n    }\n    function acceptOwnership() public {\n        require(msg.sender == newOwner);\n        emit OwnershipTransferred(owner, newOwner);\n        owner = newOwner;\n        newOwner = address(0);\n    }\n}\n\n\n// ----------------------------------------------------------------------------\n// ERC20 Token, with the addition of symbol, name and decimals and a\n// fixed supply\n// ----------------------------------------------------------------------------\ncontract EnergyCredits is IERC20, Owned {\n    using SafeMath for uint;\n\n    string public symbol;\n    string public  name;\n    uint8 public decimals;\n    uint _totalSupply;\n\n    mapping(address => uint) public balances;\n    mapping(address => mapping(address => uint)) public allowed;\n    mapping (address => bool) public frozenAccount;\n\n    event FrozenFunds(address target, bool frozen);\n\n\n    // ------------------------------------------------------------------------\n    // Constructor\n    // ------------------------------------------------------------------------\n    constructor() {\n        symbol = \"EC\";\n        name = \"Energy Credits\";\n        decimals = 3;\n        _totalSupply = 1000000 * 10**uint(decimals);\n        balances[owner] = _totalSupply;\n        emit Transfer(address(0), owner, _totalSupply);\n    }\n\n\n    // ------------------------------------------------------------------------\n    // Total supply\n    // ------------------------------------------------------------------------\n    function totalSupply() public view override returns (uint) {\n        return _totalSupply.sub(balances[address(0)]);\n    }\n\n\n    // ------------------------------------------------------------------------\n    // Get the token balance for account `tokenOwner`\n    // ------------------------------------------------------------------------\n    function balanceOf(address tokenOwner) public view override returns (uint balance) {\n        return balances[tokenOwner];\n    }\n\n    // ------------------------------------------------------------------------\n    // Internal transfer function with all requirements\n    // ------------------------------------------------------------------------\n    function _transfer(address _from, address _to, uint _value) internal {\n        // Prevent transfer to 0x0 address. Use burn() instead\n        require(_to != address(0));\n        // Check if the sender has enough\n        require(balances[_from] >= _value);\n        //Check for empty transfer\n        require(_value>0);\n        // Check for overflows\n        require(balances[_to].add(_value) > balances[_to]);\n        // Check if sender is frozen\n        require(!frozenAccount[_from]);\n        // Check if reciever is frozen\n        require(!frozenAccount[_to]);\n        // Save this for an assertion in the future\n        uint previousBalances = balances[_from].add(balances[_to]);\n        // Subtract from the sender\n        balances[_from] = balances[_from].sub(_value);\n        // Add the same to the recipient\n        balances[_to] = balances[_to].add(_value);\n        // Asserts are used to use static analysis to find bugs in your code. They should never fail\n        assert(balances[_from].add(balances[_to]) == previousBalances);\n\n        emit Transfer(_from, _to, _value);\n    }\n\n\n    // ------------------------------------------------------------------------\n    // Transfer the balance from token owner's account to `to` account\n    // ------------------------------------------------------------------------\n    function transfer(address to, uint tokens) public virtual override returns (bool success) {\n        _transfer(msg.sender,to,tokens);\n        return true;\n    }\n\n\n    // ------------------------------------------------------------------------\n    // Token owner can approve for `spender` to transferFrom(...) `tokens`\n    // from the token owner's account\n    // ------------------------------------------------------------------------\n    function approve(address spender, uint tokens) public virtual override returns (bool success) {\n        allowed[msg.sender][spender] = tokens;\n        emit Approval(msg.sender, spender, tokens);\n        return true;\n    }\n\n\n    // ------------------------------------------------------------------------\n    // Transfer `tokens` from the `from` account to the `to` account\n    //\n    // The calling account must already have sufficient tokens approve(...)-d\n    // for spending from the `from` account and\n    // ------------------------------------------------------------------------\n    function transferFrom(address from, address to, uint tokens) public virtual override returns (bool success) {\n        require(tokens <= allowed[from][msg.sender]);\n        allowed[from][msg.sender] = allowed[from][msg.sender].sub(tokens);\n        _transfer(from,to,tokens);\n        return true;\n    }\n\n\n    // ------------------------------------------------------------------------\n    // Returns the amount of tokens approved by the owner that can be\n    // transferred to the spender's account\n    // ------------------------------------------------------------------------\n    function allowance(address tokenOwner, address spender) public view override returns (uint remaining) {\n        return allowed[tokenOwner][spender];\n    }\n\n\n    // ------------------------------------------------------------------------\n    // Creates new tokens and puts them in targets account\n    // ------------------------------------------------------------------------\n    function mintToken(address target,uint amount) public onlyOwner returns(bool success){\n      balances[target] = balances[target].add(amount);\n      _totalSupply = _totalSupply.add(amount);\n      emit Transfer(address(0), owner, amount);\n      emit Transfer(owner, target, amount);\n      return true;\n    }\n\n    // ------------------------------------------------------------------------\n    // Burns tokens\n    // ------------------------------------------------------------------------\n    function burn(uint256 _value) public onlyOwner returns (bool success) {\n    require(balances[msg.sender] >= _value);\n    balances[msg.sender] = balances[msg.sender].sub(_value);\n    _totalSupply = _totalSupply.sub(_value);\n    emit Burn(msg.sender, _value);\n    return true;\n}\n\n\n    // ------------------------------------------------------------------------\n    // Freezes certain account. Tokens cannot be moved anymore\n    // ------------------------------------------------------------------------\n    function freezeAccount(address target, bool freeze) public onlyOwner returns(bool success){\n        frozenAccount[target] = freeze;\n        emit FrozenFunds(target, freeze);\n        return true;\n    }\n\n\n    // ------------------------------------------------------------------------\n    // Owner can transfer out any accidentally sent ERC20 tokens\n    // ------------------------------------------------------------------------\n    function transferAnyERC20Token(address tokenAddress, uint tokens) public onlyOwner returns (bool success) {\n        return IERC20(tokenAddress).transfer(owner, tokens);\n    }\n}\n",
  "sourcePath": "C:/Users/batub/Documents/Energy Credits/contracts/energycredits.sol",
  "compiler": {
    "name": "solc",
    "version": "0.8.1+commit.df193b15.Emscripten.clang"
  },
  "schemaVersion": "3.4.1",
  "updatedAt": "2021-07-30T20:58:29.906Z",
  "networkType": "ethereum",
  "devdoc": {
    "kind": "dev",
    "methods": {},
    "version": 1
  },
  "userdoc": {
    "kind": "user",
    "methods": {},
    "version": 1
  }
}