{
  "contractName": "EnergyMarket",
  "abi": [
    {
      "inputs": [
        {
          "internalType": "contract IERC20",
          "name": "credits",
          "type": "address"
        }
      ],
      "stateMutability": "nonpayable",
      "type": "constructor"
    },
    {
      "anonymous": false,
      "inputs": [
        {
          "indexed": false,
          "internalType": "address",
          "name": "asker",
          "type": "address"
        },
        {
          "indexed": false,
          "internalType": "uint256",
          "name": "amount",
          "type": "uint256"
        },
        {
          "indexed": false,
          "internalType": "uint256",
          "name": "price",
          "type": "uint256"
        },
        {
          "indexed": false,
          "internalType": "string",
          "name": "timestamp",
          "type": "string"
        },
        {
          "indexed": false,
          "internalType": "uint256",
          "name": "tick",
          "type": "uint256"
        }
      ],
      "name": "AskPlaced",
      "type": "event"
    },
    {
      "anonymous": false,
      "inputs": [
        {
          "indexed": false,
          "internalType": "address",
          "name": "bidder",
          "type": "address"
        },
        {
          "indexed": false,
          "internalType": "uint256",
          "name": "amount",
          "type": "uint256"
        },
        {
          "indexed": false,
          "internalType": "uint256",
          "name": "price",
          "type": "uint256"
        },
        {
          "indexed": false,
          "internalType": "string",
          "name": "timestamp",
          "type": "string"
        },
        {
          "indexed": false,
          "internalType": "uint256",
          "name": "tick",
          "type": "uint256"
        }
      ],
      "name": "BidPlaced",
      "type": "event"
    },
    {
      "anonymous": false,
      "inputs": [
        {
          "indexed": false,
          "internalType": "address",
          "name": "asker",
          "type": "address"
        },
        {
          "indexed": false,
          "internalType": "address",
          "name": "bidder",
          "type": "address"
        },
        {
          "indexed": false,
          "internalType": "uint256",
          "name": "amount",
          "type": "uint256"
        },
        {
          "indexed": false,
          "internalType": "string",
          "name": "timestamp",
          "type": "string"
        },
        {
          "indexed": false,
          "internalType": "uint256",
          "name": "tick",
          "type": "uint256"
        }
      ],
      "name": "MatchMade",
      "type": "event"
    },
    {
      "anonymous": false,
      "inputs": [
        {
          "indexed": false,
          "internalType": "address",
          "name": "from",
          "type": "address"
        },
        {
          "indexed": false,
          "internalType": "address",
          "name": "to",
          "type": "address"
        },
        {
          "indexed": false,
          "internalType": "string",
          "name": "what",
          "type": "string"
        },
        {
          "indexed": false,
          "internalType": "uint256",
          "name": "amount",
          "type": "uint256"
        },
        {
          "indexed": false,
          "internalType": "uint256",
          "name": "tick",
          "type": "uint256"
        }
      ],
      "name": "Transaction",
      "type": "event"
    },
    {
      "anonymous": false,
      "inputs": [
        {
          "indexed": false,
          "internalType": "uint256",
          "name": "uniformprice",
          "type": "uint256"
        },
        {
          "indexed": false,
          "internalType": "string",
          "name": "timestamp",
          "type": "string"
        },
        {
          "indexed": false,
          "internalType": "uint256",
          "name": "tick",
          "type": "uint256"
        }
      ],
      "name": "UniformPrice",
      "type": "event"
    },
    {
      "anonymous": false,
      "inputs": [
        {
          "indexed": false,
          "internalType": "uint256",
          "name": "oldprice",
          "type": "uint256"
        },
        {
          "indexed": false,
          "internalType": "uint256",
          "name": "newprice",
          "type": "uint256"
        },
        {
          "indexed": false,
          "internalType": "string",
          "name": "which",
          "type": "string"
        }
      ],
      "name": "UpdatePrice",
      "type": "event"
    },
    {
      "inputs": [
        {
          "internalType": "uint256",
          "name": "",
          "type": "uint256"
        }
      ],
      "name": "ask_ids",
      "outputs": [
        {
          "internalType": "address",
          "name": "",
          "type": "address"
        }
      ],
      "stateMutability": "view",
      "type": "function",
      "constant": true
    },
    {
      "inputs": [
        {
          "internalType": "uint256",
          "name": "",
          "type": "uint256"
        }
      ],
      "name": "bid_ids",
      "outputs": [
        {
          "internalType": "address",
          "name": "",
          "type": "address"
        }
      ],
      "stateMutability": "view",
      "type": "function",
      "constant": true
    },
    {
      "inputs": [
        {
          "internalType": "uint256",
          "name": "",
          "type": "uint256"
        }
      ],
      "name": "match_ids",
      "outputs": [
        {
          "internalType": "uint256",
          "name": "",
          "type": "uint256"
        }
      ],
      "stateMutability": "view",
      "type": "function",
      "constant": true
    },
    {
      "inputs": [],
      "name": "sendEther",
      "outputs": [
        {
          "internalType": "bool",
          "name": "success",
          "type": "bool"
        }
      ],
      "stateMutability": "payable",
      "type": "function",
      "payable": true
    },
    {
      "inputs": [
        {
          "internalType": "uint256",
          "name": "_amount",
          "type": "uint256"
        },
        {
          "internalType": "uint256",
          "name": "_price",
          "type": "uint256"
        }
      ],
      "name": "add_sell_order",
      "outputs": [],
      "stateMutability": "nonpayable",
      "type": "function"
    },
    {
      "inputs": [
        {
          "internalType": "uint256",
          "name": "_amount",
          "type": "uint256"
        },
        {
          "internalType": "uint256",
          "name": "_price",
          "type": "uint256"
        }
      ],
      "name": "add_buy_order",
      "outputs": [],
      "stateMutability": "payable",
      "type": "function",
      "payable": true
    },
    {
      "inputs": [],
      "name": "getAllBids",
      "outputs": [
        {
          "internalType": "address[]",
          "name": "",
          "type": "address[]"
        }
      ],
      "stateMutability": "view",
      "type": "function",
      "constant": true
    },
    {
      "inputs": [
        {
          "internalType": "address",
          "name": "_address",
          "type": "address"
        }
      ],
      "name": "getBidPrice",
      "outputs": [
        {
          "internalType": "uint256",
          "name": "",
          "type": "uint256"
        }
      ],
      "stateMutability": "view",
      "type": "function",
      "constant": true
    },
    {
      "inputs": [
        {
          "internalType": "address",
          "name": "_address",
          "type": "address"
        }
      ],
      "name": "getBidAmount",
      "outputs": [
        {
          "internalType": "uint256",
          "name": "",
          "type": "uint256"
        }
      ],
      "stateMutability": "view",
      "type": "function",
      "constant": true
    },
    {
      "inputs": [
        {
          "internalType": "address",
          "name": "_address",
          "type": "address"
        }
      ],
      "name": "getBidTimestamp",
      "outputs": [
        {
          "internalType": "string",
          "name": "",
          "type": "string"
        }
      ],
      "stateMutability": "view",
      "type": "function",
      "constant": true
    },
    {
      "inputs": [],
      "name": "getAllAsks",
      "outputs": [
        {
          "internalType": "address[]",
          "name": "",
          "type": "address[]"
        }
      ],
      "stateMutability": "view",
      "type": "function",
      "constant": true
    },
    {
      "inputs": [
        {
          "internalType": "address",
          "name": "_address",
          "type": "address"
        }
      ],
      "name": "getAskPrice",
      "outputs": [
        {
          "internalType": "uint256",
          "name": "",
          "type": "uint256"
        }
      ],
      "stateMutability": "view",
      "type": "function",
      "constant": true
    },
    {
      "inputs": [
        {
          "internalType": "address",
          "name": "_address",
          "type": "address"
        }
      ],
      "name": "getAskAmount",
      "outputs": [
        {
          "internalType": "uint256",
          "name": "",
          "type": "uint256"
        }
      ],
      "stateMutability": "view",
      "type": "function",
      "constant": true
    },
    {
      "inputs": [
        {
          "internalType": "address",
          "name": "_address",
          "type": "address"
        }
      ],
      "name": "getAskTimestamp",
      "outputs": [
        {
          "internalType": "string",
          "name": "",
          "type": "string"
        }
      ],
      "stateMutability": "view",
      "type": "function",
      "constant": true
    },
    {
      "inputs": [
        {
          "internalType": "address",
          "name": "_sender",
          "type": "address"
        }
      ],
      "name": "getremainingvalue",
      "outputs": [
        {
          "internalType": "uint256",
          "name": "",
          "type": "uint256"
        }
      ],
      "stateMutability": "view",
      "type": "function",
      "constant": true
    },
    {
      "inputs": [],
      "name": "getMatches",
      "outputs": [
        {
          "internalType": "uint256[]",
          "name": "",
          "type": "uint256[]"
        }
      ],
      "stateMutability": "view",
      "type": "function",
      "constant": true
    },
    {
      "inputs": [],
      "name": "getUniformprice",
      "outputs": [
        {
          "internalType": "uint256",
          "name": "",
          "type": "uint256"
        }
      ],
      "stateMutability": "view",
      "type": "function",
      "constant": true
    },
    {
      "inputs": [],
      "name": "getBoolean",
      "outputs": [
        {
          "internalType": "bool",
          "name": "value",
          "type": "bool"
        }
      ],
      "stateMutability": "view",
      "type": "function",
      "constant": true
    },
    {
      "inputs": [],
      "name": "start_auction",
      "outputs": [],
      "stateMutability": "nonpayable",
      "type": "function"
    }
  ],
  "bytecode": "0x6080604052611f4060005560006001556000600255600060035543600455600060055560006006553480156200003457600080fd5b5060405162003e3c38038062003e3c83398181016040528101906200005a9190620000b9565b80600760006101000a81548173ffffffffffffffffffffffffffffffffffffffff021916908373ffffffffffffffffffffffffffffffffffffffff1602179055505062000147565b600081519050620000b3816200012d565b92915050565b600060208284031215620000cc57600080fd5b6000620000dc84828501620000a2565b91505092915050565b6000620000f2826200010d565b9050919050565b60006200010682620000e5565b9050919050565b600073ffffffffffffffffffffffffffffffffffffffff82169050919050565b6200013881620000f9565b81146200014457600080fd5b50565b613ce580620001576000396000f3fe6080604052600436106101145760003560e01c806334033eb6116100a0578063874343191161006457806387434319146103e557806388d4e8f6146104225780638d0f6da31461044d578063b3cd484414610478578063f18ffff8146104b557610114565b806334033eb6146102e75780633d01b798146103245780636e1ebfdb1461034f5780636e32b2911461038c57806381d7fe8c146103c957610114565b80631e3de8d2116100e75780631e3de8d2146101ee5780631f3567171461022b57806329c7c5c9146102685780632c70120e146102915780632d1be94d146102bc57610114565b806302016b24146101195780630e29df221461015657806313b9b598146101745780631db45a42146101b1575b600080fd5b34801561012557600080fd5b50610140600480360381019061013b91906134a3565b6104cc565b60405161014d91906136c4565b60405180910390f35b61015e61050b565b60405161016b9190613837565b60405180910390f35b34801561018057600080fd5b5061019b60048036038101906101969190613451565b610514565b6040516101a89190613894565b60405180910390f35b3480156101bd57600080fd5b506101d860048036038101906101d39190613451565b610560565b6040516101e59190613852565b60405180910390f35b3480156101fa57600080fd5b5061021560048036038101906102109190613451565b610634565b6040516102229190613894565b60405180910390f35b34801561023757600080fd5b50610252600480360381019061024d9190613451565b610680565b60405161025f9190613894565b60405180910390f35b34801561027457600080fd5b5061028f600480360381019061028a91906134f5565b6106cc565b005b34801561029d57600080fd5b506102a6610a53565b6040516102b39190613815565b60405180910390f35b3480156102c857600080fd5b506102d1610aab565b6040516102de9190613837565b60405180910390f35b3480156102f357600080fd5b5061030e600480360381019061030991906134a3565b610ad0565b60405161031b91906136c4565b60405180910390f35b34801561033057600080fd5b50610339610b0f565b6040516103469190613894565b60405180910390f35b34801561035b57600080fd5b50610376600480360381019061037191906134a3565b610b19565b6040516103839190613894565b60405180910390f35b34801561039857600080fd5b506103b360048036038101906103ae9190613451565b610b3d565b6040516103c09190613894565b60405180910390f35b6103e360048036038101906103de91906134f5565b610b86565b005b3480156103f157600080fd5b5061040c60048036038101906104079190613451565b6111bd565b6040516104199190613852565b60405180910390f35b34801561042e57600080fd5b50610437611291565b60405161044491906137f3565b60405180910390f35b34801561045957600080fd5b5061046261131f565b60405161046f91906137f3565b60405180910390f35b34801561048457600080fd5b5061049f600480360381019061049a9190613451565b6113ad565b6040516104ac9190613894565b60405180910390f35b3480156104c157600080fd5b506104ca6113f9565b005b600b81815481106104dc57600080fd5b906000526020600020016000915054906101000a900473ffffffffffffffffffffffffffffffffffffffff1681565b60006001905090565b6000600a60008373ffffffffffffffffffffffffffffffffffffffff1673ffffffffffffffffffffffffffffffffffffffff168152602001908152602001600020600101549050919050565b6060600860008373ffffffffffffffffffffffffffffffffffffffff1673ffffffffffffffffffffffffffffffffffffffff16815260200190815260200160002060030180546105af90613af7565b80601f01602080910402602001604051908101604052809291908181526020018280546105db90613af7565b80156106285780601f106105fd57610100808354040283529160200191610628565b820191906000526020600020905b81548152906001019060200180831161060b57829003601f168201915b50505050509050919050565b6000600a60008373ffffffffffffffffffffffffffffffffffffffff1673ffffffffffffffffffffffffffffffffffffffff168152602001908152602001600020600201549050919050565b6000600860008373ffffffffffffffffffffffffffffffffffffffff1673ffffffffffffffffffffffffffffffffffffffff168152602001908152602001600020600201549050919050565b8180600e60003373ffffffffffffffffffffffffffffffffffffffff1673ffffffffffffffffffffffffffffffffffffffff16815260200190815260200160002054600760009054906101000a900473ffffffffffffffffffffffffffffffffffffffff1673ffffffffffffffffffffffffffffffffffffffff1663dd62ed3e33306040518363ffffffff1660e01b815260040161076b9291906136df565b60206040518083038186803b15801561078357600080fd5b505afa158015610797573d6000803e3d6000fd5b505050506040513d601f19601f820116820180604052508101906107bb91906134cc565b6107c5919061393d565b10156107d057600080fd5b60006107db42611446565b90506000600860003373ffffffffffffffffffffffffffffffffffffffff1673ffffffffffffffffffffffffffffffffffffffff1681526020019081526020016000209050338160000160006101000a81548173ffffffffffffffffffffffffffffffffffffffff021916908373ffffffffffffffffffffffffffffffffffffffff1602179055508481600101819055508381600201819055508181600301908051906020019061088d92919061328b565b506009339080600181540180825580915050600190039060005260206000200160009091909190916101000a81548173ffffffffffffffffffffffffffffffffffffffff021916908373ffffffffffffffffffffffffffffffffffffffff16021790555084600e60008360000160009054906101000a900473ffffffffffffffffffffffffffffffffffffffff1673ffffffffffffffffffffffffffffffffffffffff1673ffffffffffffffffffffffffffffffffffffffff16815260200190815260200160002081905550600760009054906101000a900473ffffffffffffffffffffffffffffffffffffffff1673ffffffffffffffffffffffffffffffffffffffff166323b872dd3330886040518463ffffffff1660e01b81526004016109b893929190613708565b602060405180830381600087803b1580156109d257600080fd5b505af11580156109e6573d6000803e3d6000fd5b505050506040513d601f19601f82011682018060405250810190610a0a919061347a565b507ff547d0a23c3d08128485e3178bd6f9dd1d0324581148aecfede2a6474c19dda333868685600354604051610a44959493929190613799565b60405180910390a15050505050565b6060600d805480602002602001604051908101604052809291908181526020018280548015610aa157602002820191906000526020600020905b815481526020019060010190808311610a8d575b5050505050905090565b6000600654600454610abd919061393d565b4310610acc5760019050610acd565b5b90565b60098181548110610ae057600080fd5b906000526020600020016000915054906101000a900473ffffffffffffffffffffffffffffffffffffffff1681565b6000600254905090565b600d8181548110610b2957600080fd5b906000526020600020016000915090505481565b6000600e60008373ffffffffffffffffffffffffffffffffffffffff1673ffffffffffffffffffffffffffffffffffffffff168152602001908152602001600020549050919050565b8181600a8282610b9691906139c4565b610ba091906139c4565b600e60003373ffffffffffffffffffffffffffffffffffffffff1673ffffffffffffffffffffffffffffffffffffffff1681526020019081526020016000205434610beb919061393d565b1015610c2c576040517f08c379a0000000000000000000000000000000000000000000000000000000008152600401610c2390613874565b60405180910390fd5b6000610c3742611446565b90506000600860003373ffffffffffffffffffffffffffffffffffffffff1673ffffffffffffffffffffffffffffffffffffffff1681526020019081526020016000206001015414610c8857600080fd5b6000600a60003373ffffffffffffffffffffffffffffffffffffffff1673ffffffffffffffffffffffffffffffffffffffff168152602001908152602001600020600101541415610e31576000600a60003373ffffffffffffffffffffffffffffffffffffffff1673ffffffffffffffffffffffffffffffffffffffff1681526020019081526020016000209050338160000160006101000a81548173ffffffffffffffffffffffffffffffffffffffff021916908373ffffffffffffffffffffffffffffffffffffffff16021790555085816001018190555084816002018190555081816003019080519060200190610d8392919061328b565b50600b339080600181540180825580915050600190039060005260206000200160009091909190916101000a81548173ffffffffffffffffffffffffffffffffffffffff021916908373ffffffffffffffffffffffffffffffffffffffff16021790555034600e60003373ffffffffffffffffffffffffffffffffffffffff1673ffffffffffffffffffffffffffffffffffffffff1681526020019081526020016000208190555050611175565b6000600a60003373ffffffffffffffffffffffffffffffffffffffff1673ffffffffffffffffffffffffffffffffffffffff168152602001908152602001600020905085816001018190555084816002018190555081816003019080519060200190610e9e92919061328b565b5080600a60003373ffffffffffffffffffffffffffffffffffffffff1673ffffffffffffffffffffffffffffffffffffffff1681526020019081526020016000206000820160009054906101000a900473ffffffffffffffffffffffffffffffffffffffff168160000160006101000a81548173ffffffffffffffffffffffffffffffffffffffff021916908373ffffffffffffffffffffffffffffffffffffffff16021790555060018201548160010155600282015481600201556003820181600301908054610f6e90613af7565b610f79929190613311565b50905050600e60003373ffffffffffffffffffffffffffffffffffffffff1673ffffffffffffffffffffffffffffffffffffffff1681526020019081526020016000205486600a87610fcb91906139c4565b610fd591906139c4565b10156110e4573373ffffffffffffffffffffffffffffffffffffffff166108fc876127108861100491906139c4565b61100e91906139c4565b600e60003373ffffffffffffffffffffffffffffffffffffffff1673ffffffffffffffffffffffffffffffffffffffff168152602001908152602001600020546110589190613a1e565b9081150290604051600060405180830381858888f19350505050158015611083573d6000803e3d6000fd5b5085600a8661109291906139c4565b61109c91906139c4565b600e60003373ffffffffffffffffffffffffffffffffffffffff1673ffffffffffffffffffffffffffffffffffffffff16815260200190815260200160002081905550611173565b34600e60003373ffffffffffffffffffffffffffffffffffffffff1673ffffffffffffffffffffffffffffffffffffffff1681526020019081526020016000205461112f919061393d565b600e60003373ffffffffffffffffffffffffffffffffffffffff1673ffffffffffffffffffffffffffffffffffffffff168152602001908152602001600020819055505b505b7f09917a68336a99192d8c02947db77f80f66a2983652444e115534c65c8543e42338686846003546040516111ae959493929190613799565b60405180910390a15050505050565b6060600a60008373ffffffffffffffffffffffffffffffffffffffff1673ffffffffffffffffffffffffffffffffffffffff168152602001908152602001600020600301805461120c90613af7565b80601f016020809104026020016040519081016040528092919081815260200182805461123890613af7565b80156112855780601f1061125a57610100808354040283529160200191611285565b820191906000526020600020905b81548152906001019060200180831161126857829003601f168201915b50505050509050919050565b6060600980548060200260200160405190810160405280929190818152602001828054801561131557602002820191906000526020600020905b8160009054906101000a900473ffffffffffffffffffffffffffffffffffffffff1673ffffffffffffffffffffffffffffffffffffffff16815260200190600101908083116112cb575b5050505050905090565b6060600b8054806020026020016040519081016040528092919081815260200182805480156113a357602002820191906000526020600020905b8160009054906101000a900473ffffffffffffffffffffffffffffffffffffffff1673ffffffffffffffffffffffffffffffffffffffff1681526020019060010190808311611359575b5050505050905090565b6000600860008373ffffffffffffffffffffffffffffffffffffffff1673ffffffffffffffffffffffffffffffffffffffff168152602001908152602001600020600101549050919050565b600654600454611409919061393d565b43101561141557600080fd5b436004819055506114246115f9565b61142c611619565b611434611928565b61143c612299565b611444613255565b565b6060600082141561148e576040518060400160405280600181526020017f300000000000000000000000000000000000000000000000000000000000000081525090506115f4565b600082905060005b600082146114c05780806114a990613b29565b915050600a826114b99190613993565b9150611496565b60008167ffffffffffffffff811115611502577f4e487b7100000000000000000000000000000000000000000000000000000000600052604160045260246000fd5b6040519080825280601f01601f1916602001820160405280156115345781602001600182028036833780820191505090505b50905060008290508593505b600084146115ec57600a846115559190613b72565b6030611561919061393d565b60f81b828261156f90613acd565b925082815181106115a9577f4e487b7100000000000000000000000000000000000000000000000000000000600052603260045260246000fd5b60200101907effffffffffffffffffffffffffffffffffffffffffffffffffffffffffffff1916908160001a905350600a846115e59190613993565b9350611540565b819450505050505b919050565b600d6000611607919061339e565b60006001819055506000600281905550565b6000600b80549050905060005b8181101561192457600060018261163d919061393d565b90505b82811015611910576116b5600b8281548110611685577f4e487b7100000000000000000000000000000000000000000000000000000000600052603260045260246000fd5b9060005260206000200160009054906101000a900473ffffffffffffffffffffffffffffffffffffffff16610634565b611722600b84815481106116f2577f4e487b7100000000000000000000000000000000000000000000000000000000600052603260045260246000fd5b9060005260206000200160009054906101000a900473ffffffffffffffffffffffffffffffffffffffff16610634565b11156118fd576000600b8381548110611764577f4e487b7100000000000000000000000000000000000000000000000000000000600052603260045260246000fd5b9060005260206000200160009054906101000a900473ffffffffffffffffffffffffffffffffffffffff169050600b82815481106117cb577f4e487b7100000000000000000000000000000000000000000000000000000000600052603260045260246000fd5b9060005260206000200160009054906101000a900473ffffffffffffffffffffffffffffffffffffffff16600b8481548110611830577f4e487b7100000000000000000000000000000000000000000000000000000000600052603260045260246000fd5b9060005260206000200160006101000a81548173ffffffffffffffffffffffffffffffffffffffff021916908373ffffffffffffffffffffffffffffffffffffffff16021790555080600b83815481106118b3577f4e487b7100000000000000000000000000000000000000000000000000000000600052603260045260246000fd5b9060005260206000200160006101000a81548173ffffffffffffffffffffffffffffffffffffffff021916908373ffffffffffffffffffffffffffffffffffffffff160217905550505b808061190890613b29565b915050611640565b50808061191c90613b29565b915050611626565b5050565b60005b600b805490508110156122965760005b6009805490508110156122825760006119b760098381548110611987577f4e487b7100000000000000000000000000000000000000000000000000000000600052603260045260246000fd5b9060005260206000200160009054906101000a900473ffffffffffffffffffffffffffffffffffffffff166113ad565b111561226f57611a2a600982815481106119fa577f4e487b7100000000000000000000000000000000000000000000000000000000600052603260045260246000fd5b9060005260206000200160009054906101000a900473ffffffffffffffffffffffffffffffffffffffff16610680565b611a97600b8481548110611a67577f4e487b7100000000000000000000000000000000000000000000000000000000600052603260045260246000fd5b9060005260206000200160009054906101000a900473ffffffffffffffffffffffffffffffffffffffff16610634565b1161226e57611b09600b8381548110611ad9577f4e487b7100000000000000000000000000000000000000000000000000000000600052603260045260246000fd5b9060005260206000200160009054906101000a900473ffffffffffffffffffffffffffffffffffffffff16610514565b611b7660098381548110611b46577f4e487b7100000000000000000000000000000000000000000000000000000000600052603260045260246000fd5b9060005260206000200160009054906101000a900473ffffffffffffffffffffffffffffffffffffffff166113ad565b11611bf357611be860098281548110611bb8577f4e487b7100000000000000000000000000000000000000000000000000000000600052603260045260246000fd5b9060005260206000200160009054906101000a900473ffffffffffffffffffffffffffffffffffffffff166113ad565b600581905550611c67565b611c60600b8381548110611c30577f4e487b7100000000000000000000000000000000000000000000000000000000600052603260045260246000fd5b9060005260206000200160009054906101000a900473ffffffffffffffffffffffffffffffffffffffff16610514565b6005819055505b6000600554111561226d576000600c600060015481526020019081526020016000209050600b8381548110611cc5577f4e487b7100000000000000000000000000000000000000000000000000000000600052603260045260246000fd5b9060005260206000200160009054906101000a900473ffffffffffffffffffffffffffffffffffffffff168160010160006101000a81548173ffffffffffffffffffffffffffffffffffffffff021916908373ffffffffffffffffffffffffffffffffffffffff16021790555060098281548110611d6c577f4e487b7100000000000000000000000000000000000000000000000000000000600052603260045260246000fd5b9060005260206000200160009054906101000a900473ffffffffffffffffffffffffffffffffffffffff168160000160006101000a81548173ffffffffffffffffffffffffffffffffffffffff021916908373ffffffffffffffffffffffffffffffffffffffff1602179055506005548160020181905550611e51600b8481548110611e21577f4e487b7100000000000000000000000000000000000000000000000000000000600052603260045260246000fd5b9060005260206000200160009054906101000a900473ffffffffffffffffffffffffffffffffffffffff166111bd565b816003019080519060200190611e6892919061328b565b50600554611ed960098481548110611ea9577f4e487b7100000000000000000000000000000000000000000000000000000000600052603260045260246000fd5b9060005260206000200160009054906101000a900473ffffffffffffffffffffffffffffffffffffffff166113ad565b611ee39190613a1e565b6008600060098581548110611f21577f4e487b7100000000000000000000000000000000000000000000000000000000600052603260045260246000fd5b9060005260206000200160009054906101000a900473ffffffffffffffffffffffffffffffffffffffff1673ffffffffffffffffffffffffffffffffffffffff1673ffffffffffffffffffffffffffffffffffffffff16815260200190815260200160002060010181905550600554611ffd600b8581548110611fcd577f4e487b7100000000000000000000000000000000000000000000000000000000600052603260045260246000fd5b9060005260206000200160009054906101000a900473ffffffffffffffffffffffffffffffffffffffff16610514565b6120079190613a1e565b600a6000600b8681548110612045577f4e487b7100000000000000000000000000000000000000000000000000000000600052603260045260246000fd5b9060005260206000200160009054906101000a900473ffffffffffffffffffffffffffffffffffffffff1673ffffffffffffffffffffffffffffffffffffffff1673ffffffffffffffffffffffffffffffffffffffff16815260200190815260200160002060010181905550600d6001549080600181540180825580915050600190039060005260206000200160009091909190915055600160008154809291906120ef90613b29565b91905055507fe3f5bacc77772aaf6927c3eb6e081dc61c95f4db128e4f8d14c4951b159bda47600b848154811061214f577f4e487b7100000000000000000000000000000000000000000000000000000000600052603260045260246000fd5b9060005260206000200160009054906101000a900473ffffffffffffffffffffffffffffffffffffffff16600984815481106121b4577f4e487b7100000000000000000000000000000000000000000000000000000000600052603260045260246000fd5b9060005260206000200160009054906101000a900473ffffffffffffffffffffffffffffffffffffffff1660055461224f600b888154811061221f577f4e487b7100000000000000000000000000000000000000000000000000000000600052603260045260246000fd5b9060005260206000200160009054906101000a900473ffffffffffffffffffffffffffffffffffffffff166111bd565b60035460405161226395949392919061373f565b60405180910390a1505b5b5b808061227a90613b29565b91505061193b565b50808061228e90613b29565b91505061192b565b50565b60005b600b80549050811015612a75576000612318600b83815481106122e8577f4e487b7100000000000000000000000000000000000000000000000000000000600052603260045260246000fd5b9060005260206000200160009054906101000a900473ffffffffffffffffffffffffffffffffffffffff16610514565b1115612a625761238b600b828154811061235b577f4e487b7100000000000000000000000000000000000000000000000000000000600052603260045260246000fd5b9060005260206000200160009054906101000a900473ffffffffffffffffffffffffffffffffffffffff16610514565b6005819055506000600c6000600154815260200190815260200160002090506000600860003073ffffffffffffffffffffffffffffffffffffffff1673ffffffffffffffffffffffffffffffffffffffff1681526020019081526020016000209050308160000160006101000a81548173ffffffffffffffffffffffffffffffffffffffff021916908373ffffffffffffffffffffffffffffffffffffffff160217905550600554816001018190555060005481600201819055506124b3600b8481548110612483577f4e487b7100000000000000000000000000000000000000000000000000000000600052603260045260246000fd5b9060005260206000200160009054906101000a900473ffffffffffffffffffffffffffffffffffffffff166111bd565b8160030190805190602001906124ca92919061328b565b506000600e60008360000160009054906101000a900473ffffffffffffffffffffffffffffffffffffffff1673ffffffffffffffffffffffffffffffffffffffff1673ffffffffffffffffffffffffffffffffffffffff168152602001908152602001600020819055507ff547d0a23c3d08128485e3178bd6f9dd1d0324581148aecfede2a6474c19dda3306005546000546125c9600b8881548110612599577f4e487b7100000000000000000000000000000000000000000000000000000000600052603260045260246000fd5b9060005260206000200160009054906101000a900473ffffffffffffffffffffffffffffffffffffffff166111bd565b6003546040516125dd959493929190613799565b60405180910390a1600b838154811061261f577f4e487b7100000000000000000000000000000000000000000000000000000000600052603260045260246000fd5b9060005260206000200160009054906101000a900473ffffffffffffffffffffffffffffffffffffffff168260010160006101000a81548173ffffffffffffffffffffffffffffffffffffffff021916908373ffffffffffffffffffffffffffffffffffffffff160217905550308260000160006101000a81548173ffffffffffffffffffffffffffffffffffffffff021916908373ffffffffffffffffffffffffffffffffffffffff1602179055506005548260020181905550612747600b8481548110612717577f4e487b7100000000000000000000000000000000000000000000000000000000600052603260045260246000fd5b9060005260206000200160009054906101000a900473ffffffffffffffffffffffffffffffffffffffff166111bd565b82600301908051906020019061275e92919061328b565b50600d60015490806001815401808255809150506001900390600052602060002001600090919091909150556005546127fa600b85815481106127ca577f4e487b7100000000000000000000000000000000000000000000000000000000600052603260045260246000fd5b9060005260206000200160009054906101000a900473ffffffffffffffffffffffffffffffffffffffff16610514565b6128049190613a1e565b600a6000600b8681548110612842577f4e487b7100000000000000000000000000000000000000000000000000000000600052603260045260246000fd5b9060005260206000200160009054906101000a900473ffffffffffffffffffffffffffffffffffffffff1673ffffffffffffffffffffffffffffffffffffffff1673ffffffffffffffffffffffffffffffffffffffff16815260200190815260200160002060010181905550600160008154809291906128c190613b29565b91905055507fe3f5bacc77772aaf6927c3eb6e081dc61c95f4db128e4f8d14c4951b159bda47600a6000600b8681548110612925577f4e487b7100000000000000000000000000000000000000000000000000000000600052603260045260246000fd5b9060005260206000200160009054906101000a900473ffffffffffffffffffffffffffffffffffffffff1673ffffffffffffffffffffffffffffffffffffffff1673ffffffffffffffffffffffffffffffffffffffff16815260200190815260200160002060000160009054906101000a900473ffffffffffffffffffffffffffffffffffffffff168260000160009054906101000a900473ffffffffffffffffffffffffffffffffffffffff16600554612a43600b8881548110612a13577f4e487b7100000000000000000000000000000000000000000000000000000000600052603260045260246000fd5b9060005260206000200160009054906101000a900473ffffffffffffffffffffffffffffffffffffffff166111bd565b600354604051612a5795949392919061373f565b60405180910390a150505b8080612a6d90613b29565b91505061229c565b5060005b600980549050811015613252576000612af560098381548110612ac5577f4e487b7100000000000000000000000000000000000000000000000000000000600052603260045260246000fd5b9060005260206000200160009054906101000a900473ffffffffffffffffffffffffffffffffffffffff166113ad565b111561323f57612b6860098281548110612b38577f4e487b7100000000000000000000000000000000000000000000000000000000600052603260045260246000fd5b9060005260206000200160009054906101000a900473ffffffffffffffffffffffffffffffffffffffff166113ad565b6005819055506000600c6000600154815260200190815260200160002090506000600a60003073ffffffffffffffffffffffffffffffffffffffff1673ffffffffffffffffffffffffffffffffffffffff1681526020019081526020016000209050308160000160006101000a81548173ffffffffffffffffffffffffffffffffffffffff021916908373ffffffffffffffffffffffffffffffffffffffff16021790555060055481600101819055506000548160020181905550612c9060098481548110612c60577f4e487b7100000000000000000000000000000000000000000000000000000000600052603260045260246000fd5b9060005260206000200160009054906101000a900473ffffffffffffffffffffffffffffffffffffffff16610560565b816003019080519060200190612ca792919061328b565b506000600e60008360000160009054906101000a900473ffffffffffffffffffffffffffffffffffffffff1673ffffffffffffffffffffffffffffffffffffffff1673ffffffffffffffffffffffffffffffffffffffff168152602001908152602001600020819055507f09917a68336a99192d8c02947db77f80f66a2983652444e115534c65c8543e4230600554600054612da660098881548110612d76577f4e487b7100000000000000000000000000000000000000000000000000000000600052603260045260246000fd5b9060005260206000200160009054906101000a900473ffffffffffffffffffffffffffffffffffffffff16610560565b600354604051612dba959493929190613799565b60405180910390a160098381548110612dfc577f4e487b7100000000000000000000000000000000000000000000000000000000600052603260045260246000fd5b9060005260206000200160009054906101000a900473ffffffffffffffffffffffffffffffffffffffff168260000160006101000a81548173ffffffffffffffffffffffffffffffffffffffff021916908373ffffffffffffffffffffffffffffffffffffffff160217905550308260010160006101000a81548173ffffffffffffffffffffffffffffffffffffffff021916908373ffffffffffffffffffffffffffffffffffffffff1602179055506005548260020181905550612f2460098481548110612ef4577f4e487b7100000000000000000000000000000000000000000000000000000000600052603260045260246000fd5b9060005260206000200160009054906101000a900473ffffffffffffffffffffffffffffffffffffffff16610560565b826003019080519060200190612f3b92919061328b565b50600d6001549080600181540180825580915050600190039060005260206000200160009091909190915055600554612fd760098581548110612fa7577f4e487b7100000000000000000000000000000000000000000000000000000000600052603260045260246000fd5b9060005260206000200160009054906101000a900473ffffffffffffffffffffffffffffffffffffffff166113ad565b612fe19190613a1e565b600860006009868154811061301f577f4e487b7100000000000000000000000000000000000000000000000000000000600052603260045260246000fd5b9060005260206000200160009054906101000a900473ffffffffffffffffffffffffffffffffffffffff1673ffffffffffffffffffffffffffffffffffffffff1673ffffffffffffffffffffffffffffffffffffffff168152602001908152602001600020600101819055506001600081548092919061309e90613b29565b91905055507fe3f5bacc77772aaf6927c3eb6e081dc61c95f4db128e4f8d14c4951b159bda478160000160009054906101000a900473ffffffffffffffffffffffffffffffffffffffff166008600060098781548110613127577f4e487b7100000000000000000000000000000000000000000000000000000000600052603260045260246000fd5b9060005260206000200160009054906101000a900473ffffffffffffffffffffffffffffffffffffffff1673ffffffffffffffffffffffffffffffffffffffff1673ffffffffffffffffffffffffffffffffffffffff16815260200190815260200160002060000160009054906101000a900473ffffffffffffffffffffffffffffffffffffffff16600554613220600988815481106131f0577f4e487b7100000000000000000000000000000000000000000000000000000000600052603260045260246000fd5b9060005260206000200160009054906101000a900473ffffffffffffffffffffffffffffffffffffffff16610560565b60035460405161323495949392919061373f565b60405180910390a150505b808061324a90613b29565b915050612a79565b50565b600b600061326391906133bf565b6009600061327191906133bf565b6003600081548092919061328490613b29565b9190505550565b82805461329790613af7565b90600052602060002090601f0160209004810192826132b95760008555613300565b82601f106132d257805160ff1916838001178555613300565b82800160010185558215613300579182015b828111156132ff5782518255916020019190600101906132e4565b5b50905061330d91906133e0565b5090565b82805461331d90613af7565b90600052602060002090601f01602090048101928261333f576000855561338d565b82601f10613350578054855561338d565b8280016001018555821561338d57600052602060002091601f016020900482015b8281111561338c578254825591600101919060010190613371565b5b50905061339a91906133e0565b5090565b50805460008255906000526020600020908101906133bc91906133e0565b50565b50805460008255906000526020600020908101906133dd91906133e0565b50565b5b808211156133f95760008160009055506001016133e1565b5090565b60008135905061340c81613c6a565b92915050565b60008151905061342181613c81565b92915050565b60008135905061343681613c98565b92915050565b60008151905061344b81613c98565b92915050565b60006020828403121561346357600080fd5b6000613471848285016133fd565b91505092915050565b60006020828403121561348c57600080fd5b600061349a84828501613412565b91505092915050565b6000602082840312156134b557600080fd5b60006134c384828501613427565b91505092915050565b6000602082840312156134de57600080fd5b60006134ec8482850161343c565b91505092915050565b6000806040838503121561350857600080fd5b600061351685828601613427565b925050602061352785828601613427565b9150509250929050565b600061353d8383613561565b60208301905092915050565b600061355583836136a6565b60208301905092915050565b61356a81613a52565b82525050565b61357981613a52565b82525050565b600061358a826138cf565b613594818561390a565b935061359f836138af565b8060005b838110156135d05781516135b78882613531565b97506135c2836138f0565b9250506001810190506135a3565b5085935050505092915050565b60006135e8826138da565b6135f2818561391b565b93506135fd836138bf565b8060005b8381101561362e5781516136158882613549565b9750613620836138fd565b925050600181019050613601565b5085935050505092915050565b61364481613a64565b82525050565b6000613655826138e5565b61365f818561392c565b935061366f818560208601613a9a565b61367881613c30565b840191505092915050565b600061369060108361392c565b915061369b82613c41565b602082019050919050565b6136af81613a90565b82525050565b6136be81613a90565b82525050565b60006020820190506136d96000830184613570565b92915050565b60006040820190506136f46000830185613570565b6137016020830184613570565b9392505050565b600060608201905061371d6000830186613570565b61372a6020830185613570565b61373760408301846136b5565b949350505050565b600060a0820190506137546000830188613570565b6137616020830187613570565b61376e60408301866136b5565b8181036060830152613780818561364a565b905061378f60808301846136b5565b9695505050505050565b600060a0820190506137ae6000830188613570565b6137bb60208301876136b5565b6137c860408301866136b5565b81810360608301526137da818561364a565b90506137e960808301846136b5565b9695505050505050565b6000602082019050818103600083015261380d818461357f565b905092915050565b6000602082019050818103600083015261382f81846135dd565b905092915050565b600060208201905061384c600083018461363b565b92915050565b6000602082019050818103600083015261386c818461364a565b905092915050565b6000602082019050818103600083015261388d81613683565b9050919050565b60006020820190506138a960008301846136b5565b92915050565b6000819050602082019050919050565b6000819050602082019050919050565b600081519050919050565b600081519050919050565b600081519050919050565b6000602082019050919050565b6000602082019050919050565b600082825260208201905092915050565b600082825260208201905092915050565b600082825260208201905092915050565b600061394882613a90565b915061395383613a90565b9250827fffffffffffffffffffffffffffffffffffffffffffffffffffffffffffffffff0382111561398857613987613ba3565b5b828201905092915050565b600061399e82613a90565b91506139a983613a90565b9250826139b9576139b8613bd2565b5b828204905092915050565b60006139cf82613a90565b91506139da83613a90565b9250817fffffffffffffffffffffffffffffffffffffffffffffffffffffffffffffffff0483118215151615613a1357613a12613ba3565b5b828202905092915050565b6000613a2982613a90565b9150613a3483613a90565b925082821015613a4757613a46613ba3565b5b828203905092915050565b6000613a5d82613a70565b9050919050565b60008115159050919050565b600073ffffffffffffffffffffffffffffffffffffffff82169050919050565b6000819050919050565b60005b83811015613ab8578082015181840152602081019050613a9d565b83811115613ac7576000848401525b50505050565b6000613ad882613a90565b91506000821415613aec57613aeb613ba3565b5b600182039050919050565b60006002820490506001821680613b0f57607f821691505b60208210811415613b2357613b22613c01565b5b50919050565b6000613b3482613a90565b91507fffffffffffffffffffffffffffffffffffffffffffffffffffffffffffffffff821415613b6757613b66613ba3565b5b600182019050919050565b6000613b7d82613a90565b9150613b8883613a90565b925082613b9857613b97613bd2565b5b828206905092915050565b7f4e487b7100000000000000000000000000000000000000000000000000000000600052601160045260246000fd5b7f4e487b7100000000000000000000000000000000000000000000000000000000600052601260045260246000fd5b7f4e487b7100000000000000000000000000000000000000000000000000000000600052602260045260246000fd5b6000601f19601f8301169050919050565b7f4e6f7420656e6f75676820657468657200000000000000000000000000000000600082015250565b613c7381613a52565b8114613c7e57600080fd5b50565b613c8a81613a64565b8114613c9557600080fd5b50565b613ca181613a90565b8114613cac57600080fd5b5056fea2646970667358221220e749ab2e159954dbf9c7060dfbdbf54a3c7f0565bc584f4a6b3f00e786c7ba6a64736f6c63430008010033",
  "immutableReferences": {},
  "source": "// SPDX-License-Identifier: MIT\r\n// ----------------------------------------------------------------------------\r\n// ERC Token Standard #20 Interface\r\n// https://github.com/ethereum/EIPs/blob/master/EIPS/eip-20.md\r\n// ----------------------------------------------------------------------------\r\npragma solidity ^0.8.1;\r\n\r\nimport \"@openzeppelin/contracts/token/ERC20/ERC20.sol\";\r\nimport \"@openzeppelin/contracts/token/ERC20/extensions/ERC20Burnable.sol\";\r\nimport \"@openzeppelin/contracts/access/Ownable.sol\";\r\n\r\ncontract EnergyCredits is ERC20, ERC20Burnable, Ownable {\r\n    constructor() ERC20(\"Energy Credits\", \"EC\") {\r\n        _mint(msg.sender, 50000 * 10**decimals());\r\n    }\r\n\r\n    function mint(address to, uint256 amount) public onlyOwner {\r\n        _mint(to, amount);\r\n    }\r\n}\r\n\r\ncontract EnergyMarket {\r\n    uint256 fallbackPrice = 8000;\r\n    uint256 match_id = 0;\r\n    uint256 uniformprice = 0;\r\n    uint256 tick = 0;\r\n    uint256 lastTriggerBlock = block.number;\r\n    uint256 matchAmount = 0;\r\n    uint256 trigger = 0;\r\n    IERC20 private _credits;\r\n\r\n    constructor(IERC20 credits) {\r\n        _credits = credits;\r\n    }\r\n\r\n    // Structs\r\n    struct Ask {\r\n        address asker;\r\n        uint256 amount;\r\n        uint256 price;\r\n        string timestamp;\r\n    }\r\n\r\n    struct Bid {\r\n        address bidder;\r\n        uint256 amount;\r\n        uint256 price;\r\n        string timestamp;\r\n    }\r\n\r\n    struct Match {\r\n        address askaddress;\r\n        address bidaddress;\r\n        uint256 amount;\r\n        string timestamp;\r\n    }\r\n\r\n    // Events\r\n    // event sTest(string s);\r\n    // event iTest(uint256 i);\r\n    // event aTest(address a);\r\n\r\n    event AskPlaced(\r\n        address asker,\r\n        uint256 amount,\r\n        uint256 price,\r\n        string timestamp,\r\n        uint256 tick\r\n    );\r\n    event BidPlaced(\r\n        address bidder,\r\n        uint256 amount,\r\n        uint256 price,\r\n        string timestamp,\r\n        uint256 tick\r\n    );\r\n    event UniformPrice(uint256 uniformprice, string timestamp, uint256 tick);\r\n    event MatchMade(\r\n        address asker,\r\n        address bidder,\r\n        uint256 amount,\r\n        string timestamp,\r\n        uint256 tick\r\n    );\r\n    event Transaction(\r\n        address from,\r\n        address to,\r\n        string what,\r\n        uint256 amount,\r\n        uint256 tick\r\n    );\r\n    event UpdatePrice(uint256 oldprice, uint256 newprice, string which);\r\n\r\n    // Mappings\r\n    // Every placed ask or bid is connected to the senders address and the addresses\r\n    // are stored in an array\r\n    mapping(address => Ask) asks;\r\n    address[] public ask_ids;\r\n\r\n    mapping(address => Bid) bids;\r\n    address[] public bid_ids;\r\n\r\n    //  Every match made is connected to an ID which is stored in an array\r\n    mapping(uint256 => Match) matches;\r\n    uint256[] public match_ids;\r\n\r\n    //  Locked value of all market participants is connected to their address\r\n    mapping(address => uint256) remainingLockedValue;\r\n\r\n    // Equip market place with more ether\r\n    function sendEther() public payable returns (bool success) {\r\n        return true;\r\n    }\r\n\r\n    //  Throws if Bid does not include sufficient amount of ether\r\n    modifier hasethBalance(uint256 _amount, uint256 _price) {\r\n        require(\r\n            (msg.value + remainingLockedValue[msg.sender]) >=\r\n                ((_price) * _amount) * (10**1),\r\n            \"Not enough ether\"\r\n        );\r\n        _;\r\n    }\r\n\r\n    //  Throws if Ask does not include sufficient amount of token\r\n    modifier hasCredits(uint256 _amount) {\r\n        require(\r\n            (_credits.allowance(msg.sender, address(this)) +\r\n                remainingLockedValue[msg.sender]) >= _amount\r\n        );\r\n        _;\r\n    }\r\n\r\n    //  Throws if minimal amount of blocks in between to two auctions\r\n    // has not been mined\r\n    modifier isTrigger() {\r\n        require(block.number >= lastTriggerBlock + trigger);\r\n        _;\r\n    }\r\n\r\n    function add_sell_order(uint256 _amount, uint256 _price)\r\n        public\r\n        hasCredits(_amount)\r\n    {\r\n        string memory _timestamp = uint2str(block.timestamp);\r\n        Ask storage ask = asks[msg.sender];\r\n        ask.asker = msg.sender;\r\n        ask.amount = _amount;\r\n        ask.price = _price;\r\n        ask.timestamp = _timestamp;\r\n        ask_ids.push(msg.sender);\r\n        remainingLockedValue[ask.asker] = _amount;\r\n        _credits.transferFrom(msg.sender, address(this), _amount);\r\n        emit AskPlaced(msg.sender, _amount, _price, _timestamp, tick);\r\n    }\r\n\r\n    //  Creation of a Bid\r\n    //  _amount of electricity,\r\n    //  _price is the reservation price for Energy,\r\n    //  A market participant can place an bid if no future ask has been made\r\n    //  in this trading period\r\n    function add_buy_order(uint256 _amount, uint256 _price)\r\n        public\r\n        payable\r\n        hasethBalance(_amount, _price)\r\n    {\r\n        string memory _timestamp = uint2str(block.timestamp);\r\n        require(asks[msg.sender].amount == 0);\r\n        if (bids[msg.sender].amount == 0) {\r\n            Bid storage bid = bids[msg.sender];\r\n            bid.bidder = msg.sender;\r\n            bid.amount = _amount;\r\n            bid.price = _price;\r\n            bid.timestamp = _timestamp;\r\n            bid_ids.push(msg.sender);\r\n            remainingLockedValue[msg.sender] = (msg.value);\r\n        } else {\r\n            Bid storage bidUpdate = bids[msg.sender];\r\n            bidUpdate.amount = _amount;\r\n            bidUpdate.price = _price;\r\n            bidUpdate.timestamp = _timestamp;\r\n            bids[msg.sender] = bidUpdate;\r\n            if ((_price * 10**1 * _amount) < remainingLockedValue[msg.sender]) {\r\n                payable(msg.sender).transfer(\r\n                    remainingLockedValue[msg.sender] -\r\n                        (_price * 10**4 * _amount)\r\n                );\r\n                remainingLockedValue[msg.sender] = (_price * 10**1 * _amount);\r\n            } else {\r\n                remainingLockedValue[msg.sender] = (remainingLockedValue[\r\n                    msg.sender\r\n                ] + msg.value);\r\n            }\r\n        }\r\n        emit BidPlaced(msg.sender, _amount, _price, _timestamp, tick);\r\n    }\r\n\r\n    // View functions\r\n    //  Shows all current bids\r\n    // @return array containing all bids\r\n    function getAllBids() public view returns (address[] memory) {\r\n        return bid_ids;\r\n    }\r\n\r\n    // // Shows price of bid\r\n    // // address of bidder\r\n    // // uint being his price in Cents*100\r\n    function getBidPrice(address _address) public view returns (uint256) {\r\n        return bids[_address].price;\r\n    }\r\n\r\n    // //  Shows electricity amount of bid\r\n    // //  address of bidder\r\n    // //  uint being the amount of electricity he wants to buy in kWh\r\n    function getBidAmount(address _address) public view returns (uint256) {\r\n        return bids[_address].amount;\r\n    }\r\n\r\n    // //  Shows point in time of bid\r\n    // //  address of bidder\r\n    // //  string reprensenting the timestamp of the bid\r\n    function getBidTimestamp(address _address)\r\n        public\r\n        view\r\n        returns (string memory)\r\n    {\r\n        return bids[_address].timestamp;\r\n    }\r\n\r\n    //  Shows all current asks\r\n    // @return array containing all asks\r\n    function getAllAsks() public view returns (address[] memory) {\r\n        return ask_ids;\r\n    }\r\n\r\n    // //  Shows preferred price of ask\r\n    // // @param address of asker\r\n    // // @return uint being the price preference in Cents*100\r\n    function getAskPrice(address _address) public view returns (uint256) {\r\n        return asks[_address].price;\r\n    }\r\n\r\n    // //  Shows electricity amount of ask\r\n    // // @param address of asker\r\n    // // @return uint being the amount of electricity he wants to sell in kWh\r\n    function getAskAmount(address _address) public view returns (uint256) {\r\n        return asks[_address].amount;\r\n    }\r\n\r\n    // Shows point in time of ask\r\n    // address of asker\r\n    // string reprensenting the timestamp of the bid\r\n    function getAskTimestamp(address _address)\r\n        public\r\n        view\r\n        returns (string memory)\r\n    {\r\n        return asks[_address].timestamp;\r\n    }\r\n\r\n    // Shows the remaining locked value\r\n    // address of bidder/bidder\r\n    // uint being the amount of electricity (asker) or the\r\n    // amount of ether that has been locked for the trading period\r\n    function getremainingvalue(address _sender) public view returns (uint256) {\r\n        return remainingLockedValue[_sender];\r\n    }\r\n\r\n    //  Shows all matches of trading period\r\n    //  array containing all match-IDs\r\n    function getMatches() public view returns (uint256[] memory) {\r\n        return match_ids;\r\n    }\r\n\r\n    //  uint being the uniformprice in cent*100\r\n    function getUniformprice() public view returns (uint256) {\r\n        return uniformprice;\r\n    }\r\n\r\n    // Function to check for bids and asks whether the auction should also be triggered\r\n    function getBoolean() public view returns (bool value) {\r\n        if (block.number >= lastTriggerBlock + trigger) {\r\n            return true;\r\n        }\r\n    }\r\n\r\n    //function to convert integer  to string\r\n    function uint2str(uint256 _i) internal pure returns (string memory str) {\r\n        if (_i == 0) {\r\n            return \"0\";\r\n        }\r\n        uint256 j = _i;\r\n        uint256 length;\r\n        while (j != 0) {\r\n            length++;\r\n            j /= 10;\r\n        }\r\n        bytes memory bstr = new bytes(length);\r\n        uint256 k = length;\r\n        j = _i;\r\n        while (j != 0) {\r\n            bstr[--k] = bytes1(uint8(48 + (j % 10)));\r\n            j /= 10;\r\n        }\r\n        str = string(bstr);\r\n    }\r\n\r\n    //  Sorting array of asks upwards\r\n    function sort_array() private {\r\n        uint256 l = bid_ids.length;\r\n        for (uint256 i = 0; i < l; i++) {\r\n            for (uint256 j = i + 1; j < l; j++) {\r\n                if (getBidPrice(bid_ids[i]) > getBidPrice(bid_ids[j])) {\r\n                    address temp = bid_ids[i];\r\n                    bid_ids[i] = bid_ids[j];\r\n                    bid_ids[j] = temp;\r\n                }\r\n            }\r\n        }\r\n    }\r\n\r\n    function start_auction() public isTrigger {\r\n        //Triggering the sorting of bids and asks, as well as triggering the auction\r\n        lastTriggerBlock = block.number; //if the auction is triggered, then we save the current block\r\n        reset_before();\r\n\r\n        sort_array();\r\n        pricematch();\r\n\r\n        rest_of_auction();\r\n        //matchingTransactions();\r\n        reset_after();\r\n    }\r\n\r\n    //Pricematching\r\n    function pricematch() private {\r\n        for (uint256 i = 0; i < bid_ids.length; i++) {\r\n            //go through all bids\r\n            for (uint256 j = 0; j < ask_ids.length; j++) {\r\n                //go through all the asks\r\n                if (getAskAmount(ask_ids[j]) > 0) {\r\n                    if (getBidPrice(bid_ids[i]) <= getAskPrice(ask_ids[j])) {\r\n                        //Offer price less than or equal to demand price\r\n                        if (\r\n                            getAskAmount(ask_ids[j]) <= getBidAmount(bid_ids[i])\r\n                        ) {\r\n                            //Demand quantity less than or equal to supply quantity\r\n                            matchAmount = getAskAmount(ask_ids[j]); //then the demand quantity is the matched quantity\r\n                        } else {\r\n                            matchAmount = getBidAmount(bid_ids[i]); //otherwise the demand will be partially filled with the remaining supply\r\n                        }\r\n                        if (matchAmount > 0) {\r\n                            //if matchamount> 0 a match is created\r\n                            Match storage _matchPV = matches[match_id];\r\n                            _matchPV.bidaddress = bid_ids[i];\r\n                            _matchPV.askaddress = ask_ids[j];\r\n                            _matchPV.amount = matchAmount;\r\n                            _matchPV.timestamp = getBidTimestamp(bid_ids[i]);\r\n                            asks[ask_ids[j]].amount =\r\n                                getAskAmount(ask_ids[j]) -\r\n                                matchAmount; //matchAmount von Ask Amount abziehen\r\n                            bids[bid_ids[i]].amount =\r\n                                getBidAmount(bid_ids[i]) -\r\n                                matchAmount; //matchAmount von Bid Amount abziehen\r\n                            match_ids.push(match_id);\r\n                            match_id++;\r\n\r\n                            emit MatchMade(\r\n                                bid_ids[i],\r\n                                ask_ids[j],\r\n                                matchAmount,\r\n                                getBidTimestamp(bid_ids[i]),\r\n                                tick\r\n                            );\r\n                        }\r\n                    }\r\n                }\r\n            }\r\n        }\r\n    }\r\n\r\n    function rest_of_auction() private {\r\n        //Matching in GreyMarket with the remaining offer quantities, Ask is provided here by GreyMarket\r\n        for (uint256 i = 0; i < bid_ids.length; i++) {\r\n            if (getBidAmount(bid_ids[i]) > 0) {\r\n                matchAmount = getBidAmount(bid_ids[i]);\r\n                Match storage matchGrey1 = matches[match_id];\r\n\r\n                Ask storage greyAsk = asks[address(this)];\r\n                greyAsk.asker = address(this);\r\n                greyAsk.amount = matchAmount;\r\n                greyAsk.price = fallbackPrice;\r\n                greyAsk.timestamp = getBidTimestamp(bid_ids[i]);\r\n                remainingLockedValue[greyAsk.asker] = 0;\r\n                emit AskPlaced(\r\n                    address(this),\r\n                    matchAmount,\r\n                    fallbackPrice,\r\n                    getBidTimestamp(bid_ids[i]),\r\n                    tick\r\n                );\r\n\r\n                matchGrey1.bidaddress = bid_ids[i];\r\n                matchGrey1.askaddress = address(this);\r\n                matchGrey1.amount = matchAmount;\r\n                matchGrey1.timestamp = getBidTimestamp(bid_ids[i]);\r\n                match_ids.push(match_id);\r\n                bids[bid_ids[i]].amount =\r\n                    getBidAmount(bid_ids[i]) -\r\n                    matchAmount;\r\n                match_id++;\r\n\r\n                emit MatchMade(\r\n                    bids[bid_ids[i]].bidder,\r\n                    greyAsk.asker,\r\n                    matchAmount,\r\n                    getBidTimestamp(bid_ids[i]),\r\n                    tick\r\n                );\r\n            }\r\n        }\r\n\r\n        //Matching in GreyMarket with the remaining demand, the bid is made here by GreyMarket\r\n        for (uint256 j = 0; j < ask_ids.length; j++) {\r\n            if (getAskAmount(ask_ids[j]) > 0) {\r\n                matchAmount = getAskAmount(ask_ids[j]);\r\n                Match storage matchGrey2 = matches[match_id];\r\n\r\n                Bid storage greyBid = bids[address(this)];\r\n                greyBid.bidder = address(this);\r\n                greyBid.amount = matchAmount;\r\n                greyBid.price = fallbackPrice;\r\n                greyBid.timestamp = getAskTimestamp(ask_ids[j]);\r\n                remainingLockedValue[greyBid.bidder] = 0;\r\n                emit BidPlaced(\r\n                    address(this),\r\n                    matchAmount,\r\n                    fallbackPrice,\r\n                    getAskTimestamp(ask_ids[j]),\r\n                    tick\r\n                );\r\n\r\n                matchGrey2.askaddress = ask_ids[j];\r\n                matchGrey2.bidaddress = address(this);\r\n                matchGrey2.amount = matchAmount;\r\n                matchGrey2.timestamp = getAskTimestamp(ask_ids[j]);\r\n                match_ids.push(match_id);\r\n                asks[ask_ids[j]].amount =\r\n                    getAskAmount(ask_ids[j]) -\r\n                    matchAmount;\r\n                match_id++;\r\n\r\n                emit MatchMade(\r\n                    greyBid.bidder,\r\n                    asks[ask_ids[j]].asker,\r\n                    matchAmount,\r\n                    getAskTimestamp(ask_ids[j]),\r\n                    tick\r\n                );\r\n            }\r\n        }\r\n    }\r\n\r\n    //divide by 100 possibly omit so there is no type force\r\n\r\n    //Transactions\r\n    function matchingTransactions() private {\r\n        for (uint256 z = 0; z < match_ids.length; z++) {\r\n            _credits.transfer(\r\n                matches[match_ids[z]].askaddress,\r\n                (matches[match_ids[z]].amount)\r\n            ); // Asker bekommt token vom contract (die wir vom Bidder bekommen haben)\r\n            payable(matches[match_ids[z]].bidaddress).transfer(\r\n                matches[match_ids[z]].amount * getUniformprice() * (10**14)\r\n            ); //Bidder bekommt eth vom contract (die wir vom Asker bekommen haben)\r\n            remainingLockedValue[matches[match_ids[z]].askaddress] =\r\n                remainingLockedValue[matches[match_ids[z]].askaddress] -\r\n                (matches[match_ids[z]].amount * getUniformprice() * (10**14)); //remainingLockedValue wird um Transaktionsvolumen reduziert\r\n            emit Transaction(\r\n                matches[match_ids[z]].askaddress,\r\n                matches[match_ids[z]].bidaddress,\r\n                \"Cent*100\",\r\n                matches[match_ids[z]].amount * getUniformprice(),\r\n                tick\r\n            );\r\n            remainingLockedValue[matches[match_ids[z]].bidaddress] =\r\n                remainingLockedValue[matches[match_ids[z]].bidaddress] -\r\n                (matches[match_ids[z]].amount); //remainingLockedValue wird um Transaktionsvolumen reduziert\r\n            emit Transaction(\r\n                matches[match_ids[z]].bidaddress,\r\n                matches[match_ids[z]].askaddress,\r\n                \"Token\",\r\n                matches[match_ids[z]].amount,\r\n                tick\r\n            );\r\n        }\r\n\r\n        //Refunds if the blocked amount is higher than the amount actually paid and the mappings & arrays are deleted\r\n        for (uint256 z = 0; z < match_ids.length; z++) {\r\n            if (remainingLockedValue[matches[match_ids[z]].askaddress] > 0) {\r\n                payable(matches[match_ids[z]].askaddress).transfer(\r\n                    remainingLockedValue[matches[match_ids[z]].askaddress]\r\n                );\r\n                emit Transaction(\r\n                    address(this),\r\n                    matches[match_ids[z]].askaddress,\r\n                    \"Repayment Wei\",\r\n                    remainingLockedValue[matches[match_ids[z]].askaddress],\r\n                    tick\r\n                );\r\n                remainingLockedValue[matches[match_ids[z]].askaddress] = 0;\r\n            }\r\n        }\r\n    }\r\n\r\n    function reset_after() private {\r\n        delete bid_ids;\r\n        delete ask_ids;\r\n        tick++;\r\n    }\r\n\r\n    function reset_before() private {\r\n        delete match_ids;\r\n        match_id = 0;\r\n        uniformprice = 0;\r\n    }\r\n}\r\n",
  "sourcePath": "C:\\Users\\batub\\Documents\\GitHub\\Energy-Credits\\contracts\\EC_Final.sol",
  "compiler": {
    "name": "solc",
    "version": "0.8.1+commit.df193b15.Emscripten.clang"
  },
  "schemaVersion": "3.4.2",
  "updatedAt": "2021-08-02T21:26:20.873Z",
  "networkType": "ethereum",
  "devdoc": {
    "kind": "dev",
    "methods": {},
    "version": 1
  },
  "userdoc": {
    "kind": "user",
    "methods": {},
    "version": 1
  }
}