{
  "contractName": "EnergyMarket",
  "abi": [
    {
      "inputs": [],
      "stateMutability": "nonpayable",
      "type": "constructor"
    },
    {
      "anonymous": false,
      "inputs": [
        {
          "indexed": false,
          "internalType": "address",
          "name": "asker",
          "type": "address"
        },
        {
          "indexed": false,
          "internalType": "uint256",
          "name": "amount",
          "type": "uint256"
        },
        {
          "indexed": false,
          "internalType": "uint256",
          "name": "price",
          "type": "uint256"
        },
        {
          "indexed": false,
          "internalType": "string",
          "name": "timestamp",
          "type": "string"
        },
        {
          "indexed": false,
          "internalType": "uint256",
          "name": "tick",
          "type": "uint256"
        }
      ],
      "name": "AskPlaced",
      "type": "event"
    },
    {
      "anonymous": false,
      "inputs": [
        {
          "indexed": false,
          "internalType": "address",
          "name": "bidder",
          "type": "address"
        },
        {
          "indexed": false,
          "internalType": "uint256",
          "name": "amount",
          "type": "uint256"
        },
        {
          "indexed": false,
          "internalType": "uint256",
          "name": "price",
          "type": "uint256"
        },
        {
          "indexed": false,
          "internalType": "string",
          "name": "timestamp",
          "type": "string"
        },
        {
          "indexed": false,
          "internalType": "uint256",
          "name": "tick",
          "type": "uint256"
        }
      ],
      "name": "BidPlaced",
      "type": "event"
    },
    {
      "anonymous": false,
      "inputs": [
        {
          "indexed": false,
          "internalType": "address",
          "name": "oldtoken",
          "type": "address"
        },
        {
          "indexed": false,
          "internalType": "address",
          "name": "ckaddress",
          "type": "address"
        }
      ],
      "name": "ChangeofToken",
      "type": "event"
    },
    {
      "anonymous": false,
      "inputs": [
        {
          "indexed": false,
          "internalType": "address",
          "name": "asker",
          "type": "address"
        },
        {
          "indexed": false,
          "internalType": "address",
          "name": "bidder",
          "type": "address"
        },
        {
          "indexed": false,
          "internalType": "uint256",
          "name": "amount",
          "type": "uint256"
        },
        {
          "indexed": false,
          "internalType": "string",
          "name": "timestamp",
          "type": "string"
        },
        {
          "indexed": false,
          "internalType": "uint256",
          "name": "tick",
          "type": "uint256"
        }
      ],
      "name": "MatchMade",
      "type": "event"
    },
    {
      "anonymous": false,
      "inputs": [
        {
          "indexed": true,
          "internalType": "address",
          "name": "previousOwner",
          "type": "address"
        },
        {
          "indexed": true,
          "internalType": "address",
          "name": "newOwner",
          "type": "address"
        }
      ],
      "name": "OwnershipTransferred",
      "type": "event"
    },
    {
      "anonymous": false,
      "inputs": [
        {
          "indexed": false,
          "internalType": "address",
          "name": "from",
          "type": "address"
        },
        {
          "indexed": false,
          "internalType": "address",
          "name": "to",
          "type": "address"
        },
        {
          "indexed": false,
          "internalType": "string",
          "name": "what",
          "type": "string"
        },
        {
          "indexed": false,
          "internalType": "uint256",
          "name": "amount",
          "type": "uint256"
        },
        {
          "indexed": false,
          "internalType": "uint256",
          "name": "tick",
          "type": "uint256"
        }
      ],
      "name": "Transaction",
      "type": "event"
    },
    {
      "anonymous": false,
      "inputs": [
        {
          "indexed": false,
          "internalType": "uint256",
          "name": "uniformprice",
          "type": "uint256"
        },
        {
          "indexed": false,
          "internalType": "string",
          "name": "timestamp",
          "type": "string"
        },
        {
          "indexed": false,
          "internalType": "uint256",
          "name": "tick",
          "type": "uint256"
        }
      ],
      "name": "UniformPrice",
      "type": "event"
    },
    {
      "anonymous": false,
      "inputs": [
        {
          "indexed": false,
          "internalType": "uint256",
          "name": "oldprice",
          "type": "uint256"
        },
        {
          "indexed": false,
          "internalType": "uint256",
          "name": "newprice",
          "type": "uint256"
        },
        {
          "indexed": false,
          "internalType": "string",
          "name": "which",
          "type": "string"
        }
      ],
      "name": "UpdatePrice",
      "type": "event"
    },
    {
      "inputs": [
        {
          "internalType": "uint256",
          "name": "",
          "type": "uint256"
        }
      ],
      "name": "ask_ids",
      "outputs": [
        {
          "internalType": "address",
          "name": "",
          "type": "address"
        }
      ],
      "stateMutability": "view",
      "type": "function",
      "constant": true
    },
    {
      "inputs": [
        {
          "internalType": "uint256",
          "name": "",
          "type": "uint256"
        }
      ],
      "name": "bid_ids",
      "outputs": [
        {
          "internalType": "address",
          "name": "",
          "type": "address"
        }
      ],
      "stateMutability": "view",
      "type": "function",
      "constant": true
    },
    {
      "inputs": [],
      "name": "isOwner",
      "outputs": [
        {
          "internalType": "bool",
          "name": "",
          "type": "bool"
        }
      ],
      "stateMutability": "view",
      "type": "function",
      "constant": true
    },
    {
      "inputs": [
        {
          "internalType": "uint256",
          "name": "",
          "type": "uint256"
        }
      ],
      "name": "match_ids",
      "outputs": [
        {
          "internalType": "uint256",
          "name": "",
          "type": "uint256"
        }
      ],
      "stateMutability": "view",
      "type": "function",
      "constant": true
    },
    {
      "inputs": [],
      "name": "owner",
      "outputs": [
        {
          "internalType": "address",
          "name": "",
          "type": "address"
        }
      ],
      "stateMutability": "view",
      "type": "function",
      "constant": true
    },
    {
      "inputs": [],
      "name": "renounceOwnership",
      "outputs": [],
      "stateMutability": "nonpayable",
      "type": "function"
    },
    {
      "inputs": [
        {
          "internalType": "address",
          "name": "newOwner",
          "type": "address"
        }
      ],
      "name": "transferOwnership",
      "outputs": [],
      "stateMutability": "nonpayable",
      "type": "function"
    },
    {
      "inputs": [],
      "name": "sendEther",
      "outputs": [
        {
          "internalType": "bool",
          "name": "success",
          "type": "bool"
        }
      ],
      "stateMutability": "payable",
      "type": "function",
      "payable": true
    },
    {
      "inputs": [
        {
          "internalType": "uint256",
          "name": "_amount",
          "type": "uint256"
        },
        {
          "internalType": "uint256",
          "name": "_price",
          "type": "uint256"
        },
        {
          "internalType": "string",
          "name": "_timestamp",
          "type": "string"
        }
      ],
      "name": "addAsk",
      "outputs": [],
      "stateMutability": "nonpayable",
      "type": "function"
    },
    {
      "inputs": [
        {
          "internalType": "uint256",
          "name": "_amount",
          "type": "uint256"
        },
        {
          "internalType": "uint256",
          "name": "_price",
          "type": "uint256"
        },
        {
          "internalType": "string",
          "name": "_timestamp",
          "type": "string"
        }
      ],
      "name": "addBid",
      "outputs": [],
      "stateMutability": "payable",
      "type": "function",
      "payable": true
    },
    {
      "inputs": [
        {
          "internalType": "address",
          "name": "_token",
          "type": "address"
        }
      ],
      "name": "changeTokenAddress",
      "outputs": [
        {
          "internalType": "bool",
          "name": "",
          "type": "bool"
        }
      ],
      "stateMutability": "nonpayable",
      "type": "function"
    },
    {
      "inputs": [],
      "name": "getAllBids",
      "outputs": [
        {
          "internalType": "address[]",
          "name": "",
          "type": "address[]"
        }
      ],
      "stateMutability": "view",
      "type": "function",
      "constant": true
    },
    {
      "inputs": [
        {
          "internalType": "address",
          "name": "_address",
          "type": "address"
        }
      ],
      "name": "getBidPrice",
      "outputs": [
        {
          "internalType": "uint256",
          "name": "",
          "type": "uint256"
        }
      ],
      "stateMutability": "view",
      "type": "function",
      "constant": true
    },
    {
      "inputs": [
        {
          "internalType": "address",
          "name": "_address",
          "type": "address"
        }
      ],
      "name": "getBidAmount",
      "outputs": [
        {
          "internalType": "uint256",
          "name": "",
          "type": "uint256"
        }
      ],
      "stateMutability": "view",
      "type": "function",
      "constant": true
    },
    {
      "inputs": [
        {
          "internalType": "address",
          "name": "_address",
          "type": "address"
        }
      ],
      "name": "getBidTimestamp",
      "outputs": [
        {
          "internalType": "string",
          "name": "",
          "type": "string"
        }
      ],
      "stateMutability": "view",
      "type": "function",
      "constant": true
    },
    {
      "inputs": [],
      "name": "getAllAsks",
      "outputs": [
        {
          "internalType": "address[]",
          "name": "",
          "type": "address[]"
        }
      ],
      "stateMutability": "view",
      "type": "function",
      "constant": true
    },
    {
      "inputs": [
        {
          "internalType": "address",
          "name": "_address",
          "type": "address"
        }
      ],
      "name": "getAskPrice",
      "outputs": [
        {
          "internalType": "uint256",
          "name": "",
          "type": "uint256"
        }
      ],
      "stateMutability": "view",
      "type": "function",
      "constant": true
    },
    {
      "inputs": [
        {
          "internalType": "address",
          "name": "_address",
          "type": "address"
        }
      ],
      "name": "getAskAmount",
      "outputs": [
        {
          "internalType": "uint256",
          "name": "",
          "type": "uint256"
        }
      ],
      "stateMutability": "view",
      "type": "function",
      "constant": true
    },
    {
      "inputs": [
        {
          "internalType": "address",
          "name": "_address",
          "type": "address"
        }
      ],
      "name": "getAskTimestamp",
      "outputs": [
        {
          "internalType": "string",
          "name": "",
          "type": "string"
        }
      ],
      "stateMutability": "view",
      "type": "function",
      "constant": true
    },
    {
      "inputs": [
        {
          "internalType": "address",
          "name": "_sender",
          "type": "address"
        }
      ],
      "name": "getremainingvalue",
      "outputs": [
        {
          "internalType": "uint256",
          "name": "",
          "type": "uint256"
        }
      ],
      "stateMutability": "view",
      "type": "function",
      "constant": true
    },
    {
      "inputs": [],
      "name": "getfallbackPriceHigh",
      "outputs": [
        {
          "internalType": "uint256",
          "name": "",
          "type": "uint256"
        }
      ],
      "stateMutability": "view",
      "type": "function",
      "constant": true
    },
    {
      "inputs": [],
      "name": "getfallbackPriceLow",
      "outputs": [
        {
          "internalType": "uint256",
          "name": "",
          "type": "uint256"
        }
      ],
      "stateMutability": "view",
      "type": "function",
      "constant": true
    },
    {
      "inputs": [],
      "name": "getMatches",
      "outputs": [
        {
          "internalType": "uint256[]",
          "name": "",
          "type": "uint256[]"
        }
      ],
      "stateMutability": "view",
      "type": "function",
      "constant": true
    },
    {
      "inputs": [],
      "name": "getUniformprice",
      "outputs": [
        {
          "internalType": "uint256",
          "name": "",
          "type": "uint256"
        }
      ],
      "stateMutability": "view",
      "type": "function",
      "constant": true
    },
    {
      "inputs": [],
      "name": "getBoolean",
      "outputs": [
        {
          "internalType": "bool",
          "name": "",
          "type": "bool"
        }
      ],
      "stateMutability": "view",
      "type": "function",
      "constant": true
    },
    {
      "inputs": [
        {
          "internalType": "uint256",
          "name": "_fallbackpricehigh",
          "type": "uint256"
        }
      ],
      "name": "updateFallbackPriceHigh",
      "outputs": [
        {
          "internalType": "bool",
          "name": "",
          "type": "bool"
        }
      ],
      "stateMutability": "nonpayable",
      "type": "function"
    },
    {
      "inputs": [
        {
          "internalType": "uint256",
          "name": "_fallbackpricelow",
          "type": "uint256"
        }
      ],
      "name": "updateFallbackPriceLow",
      "outputs": [
        {
          "internalType": "bool",
          "name": "",
          "type": "bool"
        }
      ],
      "stateMutability": "nonpayable",
      "type": "function"
    },
    {
      "inputs": [
        {
          "internalType": "uint256",
          "name": "t",
          "type": "uint256"
        }
      ],
      "name": "setTrigger",
      "outputs": [
        {
          "internalType": "bool",
          "name": "",
          "type": "bool"
        }
      ],
      "stateMutability": "nonpayable",
      "type": "function"
    },
    {
      "inputs": [],
      "name": "try_to_auction",
      "outputs": [],
      "stateMutability": "nonpayable",
      "type": "function"
    }
  ],
  "bytecode": "0x608060405261093f6001556104b060025560006003556000600455600060055560006006556000600760006101000a81548160ff021916908360ff1602179055506000600760016101000a81548160ff021916908360ff1602179055504360085560006009556000600a556000600b60006101000a81548173ffffffffffffffffffffffffffffffffffffffff021916908373ffffffffffffffffffffffffffffffffffffffff160217905550600b60009054906101000a900473ffffffffffffffffffffffffffffffffffffffff16601360006101000a81548173ffffffffffffffffffffffffffffffffffffffff021916908373ffffffffffffffffffffffffffffffffffffffff16021790555034801561011b57600080fd5b50336000806101000a81548173ffffffffffffffffffffffffffffffffffffffff021916908373ffffffffffffffffffffffffffffffffffffffff16021790555060008054906101000a900473ffffffffffffffffffffffffffffffffffffffff1673ffffffffffffffffffffffffffffffffffffffff16600073ffffffffffffffffffffffffffffffffffffffff167f8be0079c531659141344cd1fd0a4f28419497f9722a3daafe3b4186f6b6457e060405160405180910390a3614899806101e66000396000f3fe6080604052600436106101c25760003560e01c80636e1ebfdb116100f75780638da5cb5b11610095578063da6a451611610064578063da6a4516146106ad578063e73341d7146106c9578063f2fde38b146106f4578063fea487891461071d576101c2565b80638da5cb5b146105dd5780638f32d59b14610608578063b3cd484414610633578063c9cda91f14610670576101c2565b8063715018a6116100d1578063715018a614610533578063874343191461054a57806388d4e8f6146105875780638d0f6da3146105b2576101c2565b80636e1ebfdb146104a25780636e32b291146104df5780636ec2f4731461051c576101c2565b8063215b8af6116101645780632d279cb81161013e5780632d279cb8146103e657806334033eb6146104115780633d01b7981461044e5780633d4d051314610479576101c2565b8063215b8af6146103535780632c70120e146103905780632d1be94d146103bb576101c2565b806313b9b598116101a057806313b9b5981461025f5780631db45a421461029c5780631e3de8d2146102d95780631f35671714610316576101c2565b806302016b24146101c757806304c9fd4f146102045780630e29df2214610241575b600080fd5b3480156101d357600080fd5b506101ee60048036038101906101e99190613f55565b61075a565b6040516101fb91906141c4565b60405180910390f35b34801561021057600080fd5b5061022b60048036038101906102269190613f55565b610799565b6040516102389190614360565b60405180910390f35b6102496107ff565b6040516102569190614360565b60405180910390f35b34801561026b57600080fd5b5061028660048036038101906102819190613f03565b610808565b604051610293919061439d565b60405180910390f35b3480156102a857600080fd5b506102c360048036038101906102be9190613f03565b610854565b6040516102d0919061437b565b60405180910390f35b3480156102e557600080fd5b5061030060048036038101906102fb9190613f03565b610928565b60405161030d919061439d565b60405180910390f35b34801561032257600080fd5b5061033d60048036038101906103389190613f03565b610974565b60405161034a919061439d565b60405180910390f35b34801561035f57600080fd5b5061037a60048036038101906103759190613f55565b6109c0565b6040516103879190614360565b60405180910390f35b34801561039c57600080fd5b506103a5610a26565b6040516103b2919061433e565b60405180910390f35b3480156103c757600080fd5b506103d0610a7e565b6040516103dd9190614360565b60405180910390f35b3480156103f257600080fd5b506103fb610aa3565b604051610408919061439d565b60405180910390f35b34801561041d57600080fd5b5061043860048036038101906104339190613f55565b610aad565b60405161044591906141c4565b60405180910390f35b34801561045a57600080fd5b50610463610aec565b604051610470919061439d565b60405180910390f35b34801561048557600080fd5b506104a0600480360381019061049b9190613fa7565b610af6565b005b3480156104ae57600080fd5b506104c960048036038101906104c49190613f55565b6112f3565b6040516104d6919061439d565b60405180910390f35b3480156104eb57600080fd5b5061050660048036038101906105019190613f03565b611317565b604051610513919061439d565b60405180910390f35b34801561052857600080fd5b50610531611360565b005b34801561053f57600080fd5b506105486113ef565b005b34801561055657600080fd5b50610571600480360381019061056c9190613f03565b6114be565b60405161057e919061437b565b60405180910390f35b34801561059357600080fd5b5061059c611592565b6040516105a9919061431c565b60405180910390f35b3480156105be57600080fd5b506105c7611620565b6040516105d4919061431c565b60405180910390f35b3480156105e957600080fd5b506105f26116ae565b6040516105ff91906141c4565b60405180910390f35b34801561061457600080fd5b5061061d6116d7565b60405161062a9190614360565b60405180910390f35b34801561063f57600080fd5b5061065a60048036038101906106559190613f03565b61172e565b604051610667919061439d565b60405180910390f35b34801561067c57600080fd5b5061069760048036038101906106929190613f03565b61177a565b6040516106a49190614360565b60405180910390f35b6106c760048036038101906106c29190613fa7565b61185a565b005b3480156106d557600080fd5b506106de611ee6565b6040516106eb919061439d565b60405180910390f35b34801561070057600080fd5b5061071b60048036038101906107169190613f03565b611ef0565b005b34801561072957600080fd5b50610744600480360381019061073f9190613f55565b611f0d565b6040516107519190614360565b60405180910390f35b600f818154811061076a57600080fd5b906000526020600020016000915054906101000a900473ffffffffffffffffffffffffffffffffffffffff1681565b60006107a36116d7565b6107ac57600080fd5b60006002549050826002819055507f7d8462783e03c4379a0577e1a3f30961c05eb0d51ce363b6c13e0e1e828c5ff2816002546040516107ed9291906143f4565b60405180910390a16001915050919050565b60006001905090565b6000600e60008373ffffffffffffffffffffffffffffffffffffffff1673ffffffffffffffffffffffffffffffffffffffff168152602001908152602001600020600101549050919050565b6060600c60008373ffffffffffffffffffffffffffffffffffffffff1673ffffffffffffffffffffffffffffffffffffffff16815260200190815260200160002060030180546108a390614682565b80601f01602080910402602001604051908101604052809291908181526020018280546108cf90614682565b801561091c5780601f106108f15761010080835404028352916020019161091c565b820191906000526020600020905b8154815290600101906020018083116108ff57829003601f168201915b50505050509050919050565b6000600e60008373ffffffffffffffffffffffffffffffffffffffff1673ffffffffffffffffffffffffffffffffffffffff168152602001908152602001600020600201549050919050565b6000600c60008373ffffffffffffffffffffffffffffffffffffffff1673ffffffffffffffffffffffffffffffffffffffff168152602001908152602001600020600201549050919050565b60006109ca6116d7565b6109d357600080fd5b60006001549050826001819055507f7d8462783e03c4379a0577e1a3f30961c05eb0d51ce363b6c13e0e1e828c5ff281600154604051610a149291906143b8565b60405180910390a16001915050919050565b60606011805480602002602001604051908101604052809291908181526020018280548015610a7457602002820191906000526020600020905b815481526020019060010190808311610a60575b5050505050905090565b6000600a54600854610a909190614514565b4310610a9f5760019050610aa0565b5b90565b6000600254905090565b600d8181548110610abd57600080fd5b906000526020600020016000915054906101000a900473ffffffffffffffffffffffffffffffffffffffff1681565b6000600454905090565b8280601260003373ffffffffffffffffffffffffffffffffffffffff1673ffffffffffffffffffffffffffffffffffffffff16815260200190815260200160002054601360009054906101000a900473ffffffffffffffffffffffffffffffffffffffff1673ffffffffffffffffffffffffffffffffffffffff1663dd62ed3e33306040518363ffffffff1660e01b8152600401610b959291906141df565b602060405180830381600087803b158015610baf57600080fd5b505af1158015610bc3573d6000803e3d6000fd5b505050506040513d601f19601f82011682018060405250810190610be79190613f7e565b610bf19190614514565b1015610bfc57600080fd5b6000600e60003373ffffffffffffffffffffffffffffffffffffffff1673ffffffffffffffffffffffffffffffffffffffff1681526020019081526020016000206001015414610c4b57600080fd5b60008411610c5857600080fd5b6000600c60003373ffffffffffffffffffffffffffffffffffffffff1673ffffffffffffffffffffffffffffffffffffffff168152602001908152602001600020600101541415610ed7576000600c60003373ffffffffffffffffffffffffffffffffffffffff1673ffffffffffffffffffffffffffffffffffffffff1681526020019081526020016000209050338160000160006101000a81548173ffffffffffffffffffffffffffffffffffffffff021916908373ffffffffffffffffffffffffffffffffffffffff16021790555084816001018190555083816002018190555082816003019080519060200190610d53929190613cd5565b50600d339080600181540180825580915050600190039060005260206000200160009091909190916101000a81548173ffffffffffffffffffffffffffffffffffffffff021916908373ffffffffffffffffffffffffffffffffffffffff16021790555084601260008360000160009054906101000a900473ffffffffffffffffffffffffffffffffffffffff1673ffffffffffffffffffffffffffffffffffffffff1673ffffffffffffffffffffffffffffffffffffffff16815260200190815260200160002081905550601360009054906101000a900473ffffffffffffffffffffffffffffffffffffffff1673ffffffffffffffffffffffffffffffffffffffff166323b872dd3330886040518463ffffffff1660e01b8152600401610e7e93929190614208565b602060405180830381600087803b158015610e9857600080fd5b505af1158015610eac573d6000803e3d6000fd5b505050506040513d601f19601f82011682018060405250810190610ed09190613f2c565b50506112ac565b6000600c60003373ffffffffffffffffffffffffffffffffffffffff1673ffffffffffffffffffffffffffffffffffffffff168152602001908152602001600020905084816001018190555083816002018190555082816003019080519060200190610f44929190613cd5565b5080600c60003373ffffffffffffffffffffffffffffffffffffffff1673ffffffffffffffffffffffffffffffffffffffff1681526020019081526020016000206000820160009054906101000a900473ffffffffffffffffffffffffffffffffffffffff168160000160006101000a81548173ffffffffffffffffffffffffffffffffffffffff021916908373ffffffffffffffffffffffffffffffffffffffff1602179055506001820154816001015560028201548160020155600382018160030190805461101490614682565b61101f929190613d5b565b50905050601260003373ffffffffffffffffffffffffffffffffffffffff1673ffffffffffffffffffffffffffffffffffffffff1681526020019081526020016000205485111561116b57601360009054906101000a900473ffffffffffffffffffffffffffffffffffffffff1673ffffffffffffffffffffffffffffffffffffffff166323b872dd3330601260003373ffffffffffffffffffffffffffffffffffffffff1673ffffffffffffffffffffffffffffffffffffffff16815260200190815260200160002054896110f591906145c4565b6040518463ffffffff1660e01b815260040161111393929190614208565b602060405180830381600087803b15801561112d57600080fd5b505af1158015611141573d6000803e3d6000fd5b505050506040513d601f19601f820116820180604052508101906111659190613f2c565b50611266565b601360009054906101000a900473ffffffffffffffffffffffffffffffffffffffff1673ffffffffffffffffffffffffffffffffffffffff1663a9059cbb3387601260003373ffffffffffffffffffffffffffffffffffffffff1673ffffffffffffffffffffffffffffffffffffffff168152602001908152602001600020546111f591906145c4565b6040518363ffffffff1660e01b8152600401611212929190614299565b602060405180830381600087803b15801561122c57600080fd5b505af1158015611240573d6000803e3d6000fd5b505050506040513d601f19601f820116820180604052508101906112649190613f2c565b505b84601260003373ffffffffffffffffffffffffffffffffffffffff1673ffffffffffffffffffffffffffffffffffffffff16815260200190815260200160002081905550505b7ff547d0a23c3d08128485e3178bd6f9dd1d0324581148aecfede2a6474c19dda3338585856006546040516112e59594939291906142c2565b60405180910390a150505050565b6011818154811061130357600080fd5b906000526020600020016000915090505481565b6000601260008373ffffffffffffffffffffffffffffffffffffffff1673ffffffffffffffffffffffffffffffffffffffff168152602001908152602001600020549050919050565b600a546008546113709190614514565b43101561137c57600080fd5b4360088190555061138b611f30565b600760009054906101000a900460ff1660ff16600760019054906101000a900460ff1660ff1611156113cc576113bf611f50565b6113c761225f565b6113dd565b6113d4611f50565b6113dc61225f565b5b6113e5612bd0565b6113ed613b8c565b565b6113f76116d7565b61140057600080fd5b600073ffffffffffffffffffffffffffffffffffffffff1660008054906101000a900473ffffffffffffffffffffffffffffffffffffffff1673ffffffffffffffffffffffffffffffffffffffff167f8be0079c531659141344cd1fd0a4f28419497f9722a3daafe3b4186f6b6457e060405160405180910390a360008060006101000a81548173ffffffffffffffffffffffffffffffffffffffff021916908373ffffffffffffffffffffffffffffffffffffffff160217905550565b6060600e60008373ffffffffffffffffffffffffffffffffffffffff1673ffffffffffffffffffffffffffffffffffffffff168152602001908152602001600020600301805461150d90614682565b80601f016020809104026020016040519081016040528092919081815260200182805461153990614682565b80156115865780601f1061155b57610100808354040283529160200191611586565b820191906000526020600020905b81548152906001019060200180831161156957829003601f168201915b50505050509050919050565b6060600d80548060200260200160405190810160405280929190818152602001828054801561161657602002820191906000526020600020905b8160009054906101000a900473ffffffffffffffffffffffffffffffffffffffff1673ffffffffffffffffffffffffffffffffffffffff16815260200190600101908083116115cc575b5050505050905090565b6060600f8054806020026020016040519081016040528092919081815260200182805480156116a457602002820191906000526020600020905b8160009054906101000a900473ffffffffffffffffffffffffffffffffffffffff1673ffffffffffffffffffffffffffffffffffffffff168152602001906001019080831161165a575b5050505050905090565b60008060009054906101000a900473ffffffffffffffffffffffffffffffffffffffff16905090565b60008060009054906101000a900473ffffffffffffffffffffffffffffffffffffffff1673ffffffffffffffffffffffffffffffffffffffff163373ffffffffffffffffffffffffffffffffffffffff1614905090565b6000600c60008373ffffffffffffffffffffffffffffffffffffffff1673ffffffffffffffffffffffffffffffffffffffff168152602001908152602001600020600101549050919050565b60006117846116d7565b61178d57600080fd5b6000600b60009054906101000a900473ffffffffffffffffffffffffffffffffffffffff16905082600b60006101000a81548173ffffffffffffffffffffffffffffffffffffffff021916908373ffffffffffffffffffffffffffffffffffffffff1602179055507f57f279b06411d4cedcd2561e2ee5d60ef13a90ce7f97b138abac8d7b5e3249ce81600b60009054906101000a900473ffffffffffffffffffffffffffffffffffffffff166040516118489291906141df565b60405180910390a16001915050919050565b82828060015411156118e057655af3107a40008260015461187b919061456a565b611885919061456a565b601260003373ffffffffffffffffffffffffffffffffffffffff1673ffffffffffffffffffffffffffffffffffffffff16815260200190815260200160002054346118d09190614514565b10156118db57600080fd5b611954565b655af3107a400082826118f3919061456a565b6118fd919061456a565b601260003373ffffffffffffffffffffffffffffffffffffffff1673ffffffffffffffffffffffffffffffffffffffff16815260200190815260200160002054346119489190614514565b101561195357600080fd5b5b6000600c60003373ffffffffffffffffffffffffffffffffffffffff1673ffffffffffffffffffffffffffffffffffffffff16815260200190815260200160002060010154146119a357600080fd5b6000600e60003373ffffffffffffffffffffffffffffffffffffffff1673ffffffffffffffffffffffffffffffffffffffff168152602001908152602001600020600101541415611b4c576000600e60003373ffffffffffffffffffffffffffffffffffffffff1673ffffffffffffffffffffffffffffffffffffffff1681526020019081526020016000209050338160000160006101000a81548173ffffffffffffffffffffffffffffffffffffffff021916908373ffffffffffffffffffffffffffffffffffffffff16021790555085816001018190555084816002018190555083816003019080519060200190611a9e929190613cd5565b50600f339080600181540180825580915050600190039060005260206000200160009091909190916101000a81548173ffffffffffffffffffffffffffffffffffffffff021916908373ffffffffffffffffffffffffffffffffffffffff16021790555034601260003373ffffffffffffffffffffffffffffffffffffffff1673ffffffffffffffffffffffffffffffffffffffff1681526020019081526020016000208190555050611e9e565b6000600e60003373ffffffffffffffffffffffffffffffffffffffff1673ffffffffffffffffffffffffffffffffffffffff168152602001908152602001600020905085816001018190555084816002018190555083816003019080519060200190611bb9929190613cd5565b5080600e60003373ffffffffffffffffffffffffffffffffffffffff1673ffffffffffffffffffffffffffffffffffffffff1681526020019081526020016000206000820160009054906101000a900473ffffffffffffffffffffffffffffffffffffffff168160000160006101000a81548173ffffffffffffffffffffffffffffffffffffffff021916908373ffffffffffffffffffffffffffffffffffffffff16021790555060018201548160010155600282015481600201556003820181600301908054611c8990614682565b611c94929190613d5b565b50905050601260003373ffffffffffffffffffffffffffffffffffffffff1673ffffffffffffffffffffffffffffffffffffffff1681526020019081526020016000205486655af3107a400087611ceb919061456a565b611cf5919061456a565b1015611e0d573373ffffffffffffffffffffffffffffffffffffffff166108fc87655af3107a400088611d28919061456a565b611d32919061456a565b601260003373ffffffffffffffffffffffffffffffffffffffff1673ffffffffffffffffffffffffffffffffffffffff16815260200190815260200160002054611d7c91906145c4565b9081150290604051600060405180830381858888f19350505050158015611da7573d6000803e3d6000fd5b5085655af3107a400086611dbb919061456a565b611dc5919061456a565b601260003373ffffffffffffffffffffffffffffffffffffffff1673ffffffffffffffffffffffffffffffffffffffff16815260200190815260200160002081905550611e9c565b34601260003373ffffffffffffffffffffffffffffffffffffffff1673ffffffffffffffffffffffffffffffffffffffff16815260200190815260200160002054611e589190614514565b601260003373ffffffffffffffffffffffffffffffffffffffff1673ffffffffffffffffffffffffffffffffffffffff168152602001908152602001600020819055505b505b7f09917a68336a99192d8c02947db77f80f66a2983652444e115534c65c8543e4233868686600654604051611ed79594939291906142c2565b60405180910390a15050505050565b6000600154905090565b611ef86116d7565b611f0157600080fd5b611f0a81613bde565b50565b6000611f176116d7565b611f2057600080fd5b81600a8190555060019050919050565b60116000611f3e9190613de8565b60006003819055506000600481905550565b6000600f80549050905060005b8181101561225b576000600182611f749190614514565b90505b8281101561224757611fec600f8281548110611fbc577f4e487b7100000000000000000000000000000000000000000000000000000000600052603260045260246000fd5b9060005260206000200160009054906101000a900473ffffffffffffffffffffffffffffffffffffffff16610928565b612059600f8481548110612029577f4e487b7100000000000000000000000000000000000000000000000000000000600052603260045260246000fd5b9060005260206000200160009054906101000a900473ffffffffffffffffffffffffffffffffffffffff16610928565b1115612234576000600f838154811061209b577f4e487b7100000000000000000000000000000000000000000000000000000000600052603260045260246000fd5b9060005260206000200160009054906101000a900473ffffffffffffffffffffffffffffffffffffffff169050600f8281548110612102577f4e487b7100000000000000000000000000000000000000000000000000000000600052603260045260246000fd5b9060005260206000200160009054906101000a900473ffffffffffffffffffffffffffffffffffffffff16600f8481548110612167577f4e487b7100000000000000000000000000000000000000000000000000000000600052603260045260246000fd5b9060005260206000200160006101000a81548173ffffffffffffffffffffffffffffffffffffffff021916908373ffffffffffffffffffffffffffffffffffffffff16021790555080600f83815481106121ea577f4e487b7100000000000000000000000000000000000000000000000000000000600052603260045260246000fd5b9060005260206000200160006101000a81548173ffffffffffffffffffffffffffffffffffffffff021916908373ffffffffffffffffffffffffffffffffffffffff160217905550505b808061223f906146e5565b915050611f77565b508080612253906146e5565b915050611f5d565b5050565b60005b600f80549050811015612bcd5760005b600d80549050811015612bb95760006122ee600d83815481106122be577f4e487b7100000000000000000000000000000000000000000000000000000000600052603260045260246000fd5b9060005260206000200160009054906101000a900473ffffffffffffffffffffffffffffffffffffffff1661172e565b1115612ba657612361600d8281548110612331577f4e487b7100000000000000000000000000000000000000000000000000000000600052603260045260246000fd5b9060005260206000200160009054906101000a900473ffffffffffffffffffffffffffffffffffffffff16610974565b6123ce600f848154811061239e577f4e487b7100000000000000000000000000000000000000000000000000000000600052603260045260246000fd5b9060005260206000200160009054906101000a900473ffffffffffffffffffffffffffffffffffffffff16610928565b11612ba557612440600f8381548110612410577f4e487b7100000000000000000000000000000000000000000000000000000000600052603260045260246000fd5b9060005260206000200160009054906101000a900473ffffffffffffffffffffffffffffffffffffffff16610808565b6124ad600d838154811061247d577f4e487b7100000000000000000000000000000000000000000000000000000000600052603260045260246000fd5b9060005260206000200160009054906101000a900473ffffffffffffffffffffffffffffffffffffffff1661172e565b1161252a5761251f600d82815481106124ef577f4e487b7100000000000000000000000000000000000000000000000000000000600052603260045260246000fd5b9060005260206000200160009054906101000a900473ffffffffffffffffffffffffffffffffffffffff1661172e565b60098190555061259e565b612597600f8381548110612567577f4e487b7100000000000000000000000000000000000000000000000000000000600052603260045260246000fd5b9060005260206000200160009054906101000a900473ffffffffffffffffffffffffffffffffffffffff16610808565b6009819055505b60006009541115612ba45760006010600060035481526020019081526020016000209050600f83815481106125fc577f4e487b7100000000000000000000000000000000000000000000000000000000600052603260045260246000fd5b9060005260206000200160009054906101000a900473ffffffffffffffffffffffffffffffffffffffff168160010160006101000a81548173ffffffffffffffffffffffffffffffffffffffff021916908373ffffffffffffffffffffffffffffffffffffffff160217905550600d82815481106126a3577f4e487b7100000000000000000000000000000000000000000000000000000000600052603260045260246000fd5b9060005260206000200160009054906101000a900473ffffffffffffffffffffffffffffffffffffffff168160000160006101000a81548173ffffffffffffffffffffffffffffffffffffffff021916908373ffffffffffffffffffffffffffffffffffffffff1602179055506009548160020181905550612788600f8481548110612758577f4e487b7100000000000000000000000000000000000000000000000000000000600052603260045260246000fd5b9060005260206000200160009054906101000a900473ffffffffffffffffffffffffffffffffffffffff166114be565b81600301908051906020019061279f929190613cd5565b50600954612810600d84815481106127e0577f4e487b7100000000000000000000000000000000000000000000000000000000600052603260045260246000fd5b9060005260206000200160009054906101000a900473ffffffffffffffffffffffffffffffffffffffff1661172e565b61281a91906145c4565b600c6000600d8581548110612858577f4e487b7100000000000000000000000000000000000000000000000000000000600052603260045260246000fd5b9060005260206000200160009054906101000a900473ffffffffffffffffffffffffffffffffffffffff1673ffffffffffffffffffffffffffffffffffffffff1673ffffffffffffffffffffffffffffffffffffffff16815260200190815260200160002060010181905550600954612934600f8581548110612904577f4e487b7100000000000000000000000000000000000000000000000000000000600052603260045260246000fd5b9060005260206000200160009054906101000a900473ffffffffffffffffffffffffffffffffffffffff16610808565b61293e91906145c4565b600e6000600f868154811061297c577f4e487b7100000000000000000000000000000000000000000000000000000000600052603260045260246000fd5b9060005260206000200160009054906101000a900473ffffffffffffffffffffffffffffffffffffffff1673ffffffffffffffffffffffffffffffffffffffff1673ffffffffffffffffffffffffffffffffffffffff168152602001908152602001600020600101819055506011600354908060018154018082558091505060019003906000526020600020016000909190919091505560036000815480929190612a26906146e5565b91905055507fe3f5bacc77772aaf6927c3eb6e081dc61c95f4db128e4f8d14c4951b159bda47600f8481548110612a86577f4e487b7100000000000000000000000000000000000000000000000000000000600052603260045260246000fd5b9060005260206000200160009054906101000a900473ffffffffffffffffffffffffffffffffffffffff16600d8481548110612aeb577f4e487b7100000000000000000000000000000000000000000000000000000000600052603260045260246000fd5b9060005260206000200160009054906101000a900473ffffffffffffffffffffffffffffffffffffffff16600954612b86600f8881548110612b56577f4e487b7100000000000000000000000000000000000000000000000000000000600052603260045260246000fd5b9060005260206000200160009054906101000a900473ffffffffffffffffffffffffffffffffffffffff166114be565b600654604051612b9a95949392919061423f565b60405180910390a1505b5b5b8080612bb1906146e5565b915050612272565b508080612bc5906146e5565b915050612262565b50565b60005b600f805490508110156133ac576000612c4f600f8381548110612c1f577f4e487b7100000000000000000000000000000000000000000000000000000000600052603260045260246000fd5b9060005260206000200160009054906101000a900473ffffffffffffffffffffffffffffffffffffffff16610808565b111561339957612cc2600f8281548110612c92577f4e487b7100000000000000000000000000000000000000000000000000000000600052603260045260246000fd5b9060005260206000200160009054906101000a900473ffffffffffffffffffffffffffffffffffffffff16610808565b600981905550600060106000600354815260200190815260200160002090506000600c60003073ffffffffffffffffffffffffffffffffffffffff1673ffffffffffffffffffffffffffffffffffffffff1681526020019081526020016000209050308160000160006101000a81548173ffffffffffffffffffffffffffffffffffffffff021916908373ffffffffffffffffffffffffffffffffffffffff16021790555060095481600101819055506002548160020181905550612dea600f8481548110612dba577f4e487b7100000000000000000000000000000000000000000000000000000000600052603260045260246000fd5b9060005260206000200160009054906101000a900473ffffffffffffffffffffffffffffffffffffffff166114be565b816003019080519060200190612e01929190613cd5565b506000601260008360000160009054906101000a900473ffffffffffffffffffffffffffffffffffffffff1673ffffffffffffffffffffffffffffffffffffffff1673ffffffffffffffffffffffffffffffffffffffff168152602001908152602001600020819055507ff547d0a23c3d08128485e3178bd6f9dd1d0324581148aecfede2a6474c19dda330600954600254612f00600f8881548110612ed0577f4e487b7100000000000000000000000000000000000000000000000000000000600052603260045260246000fd5b9060005260206000200160009054906101000a900473ffffffffffffffffffffffffffffffffffffffff166114be565b600654604051612f149594939291906142c2565b60405180910390a1600f8381548110612f56577f4e487b7100000000000000000000000000000000000000000000000000000000600052603260045260246000fd5b9060005260206000200160009054906101000a900473ffffffffffffffffffffffffffffffffffffffff168260010160006101000a81548173ffffffffffffffffffffffffffffffffffffffff021916908373ffffffffffffffffffffffffffffffffffffffff160217905550308260000160006101000a81548173ffffffffffffffffffffffffffffffffffffffff021916908373ffffffffffffffffffffffffffffffffffffffff160217905550600954826002018190555061307e600f848154811061304e577f4e487b7100000000000000000000000000000000000000000000000000000000600052603260045260246000fd5b9060005260206000200160009054906101000a900473ffffffffffffffffffffffffffffffffffffffff166114be565b826003019080519060200190613095929190613cd5565b5060116003549080600181540180825580915050600190039060005260206000200160009091909190915055600954613131600f8581548110613101577f4e487b7100000000000000000000000000000000000000000000000000000000600052603260045260246000fd5b9060005260206000200160009054906101000a900473ffffffffffffffffffffffffffffffffffffffff16610808565b61313b91906145c4565b600e6000600f8681548110613179577f4e487b7100000000000000000000000000000000000000000000000000000000600052603260045260246000fd5b9060005260206000200160009054906101000a900473ffffffffffffffffffffffffffffffffffffffff1673ffffffffffffffffffffffffffffffffffffffff1673ffffffffffffffffffffffffffffffffffffffff16815260200190815260200160002060010181905550600360008154809291906131f8906146e5565b91905055507fe3f5bacc77772aaf6927c3eb6e081dc61c95f4db128e4f8d14c4951b159bda47600e6000600f868154811061325c577f4e487b7100000000000000000000000000000000000000000000000000000000600052603260045260246000fd5b9060005260206000200160009054906101000a900473ffffffffffffffffffffffffffffffffffffffff1673ffffffffffffffffffffffffffffffffffffffff1673ffffffffffffffffffffffffffffffffffffffff16815260200190815260200160002060000160009054906101000a900473ffffffffffffffffffffffffffffffffffffffff168260000160009054906101000a900473ffffffffffffffffffffffffffffffffffffffff1660095461337a600f888154811061334a577f4e487b7100000000000000000000000000000000000000000000000000000000600052603260045260246000fd5b9060005260206000200160009054906101000a900473ffffffffffffffffffffffffffffffffffffffff166114be565b60065460405161338e95949392919061423f565b60405180910390a150505b80806133a4906146e5565b915050612bd3565b5060005b600d80549050811015613b8957600061342c600d83815481106133fc577f4e487b7100000000000000000000000000000000000000000000000000000000600052603260045260246000fd5b9060005260206000200160009054906101000a900473ffffffffffffffffffffffffffffffffffffffff1661172e565b1115613b765761349f600d828154811061346f577f4e487b7100000000000000000000000000000000000000000000000000000000600052603260045260246000fd5b9060005260206000200160009054906101000a900473ffffffffffffffffffffffffffffffffffffffff1661172e565b600981905550600060106000600354815260200190815260200160002090506000600e60003073ffffffffffffffffffffffffffffffffffffffff1673ffffffffffffffffffffffffffffffffffffffff1681526020019081526020016000209050308160000160006101000a81548173ffffffffffffffffffffffffffffffffffffffff021916908373ffffffffffffffffffffffffffffffffffffffff160217905550600954816001018190555060015481600201819055506135c7600d8481548110613597577f4e487b7100000000000000000000000000000000000000000000000000000000600052603260045260246000fd5b9060005260206000200160009054906101000a900473ffffffffffffffffffffffffffffffffffffffff16610854565b8160030190805190602001906135de929190613cd5565b506000601260008360000160009054906101000a900473ffffffffffffffffffffffffffffffffffffffff1673ffffffffffffffffffffffffffffffffffffffff1673ffffffffffffffffffffffffffffffffffffffff168152602001908152602001600020819055507f09917a68336a99192d8c02947db77f80f66a2983652444e115534c65c8543e42306009546001546136dd600d88815481106136ad577f4e487b7100000000000000000000000000000000000000000000000000000000600052603260045260246000fd5b9060005260206000200160009054906101000a900473ffffffffffffffffffffffffffffffffffffffff16610854565b6006546040516136f19594939291906142c2565b60405180910390a1600d8381548110613733577f4e487b7100000000000000000000000000000000000000000000000000000000600052603260045260246000fd5b9060005260206000200160009054906101000a900473ffffffffffffffffffffffffffffffffffffffff168260000160006101000a81548173ffffffffffffffffffffffffffffffffffffffff021916908373ffffffffffffffffffffffffffffffffffffffff160217905550308260010160006101000a81548173ffffffffffffffffffffffffffffffffffffffff021916908373ffffffffffffffffffffffffffffffffffffffff160217905550600954826002018190555061385b600d848154811061382b577f4e487b7100000000000000000000000000000000000000000000000000000000600052603260045260246000fd5b9060005260206000200160009054906101000a900473ffffffffffffffffffffffffffffffffffffffff16610854565b826003019080519060200190613872929190613cd5565b506011600354908060018154018082558091505060019003906000526020600020016000909190919091505560095461390e600d85815481106138de577f4e487b7100000000000000000000000000000000000000000000000000000000600052603260045260246000fd5b9060005260206000200160009054906101000a900473ffffffffffffffffffffffffffffffffffffffff1661172e565b61391891906145c4565b600c6000600d8681548110613956577f4e487b7100000000000000000000000000000000000000000000000000000000600052603260045260246000fd5b9060005260206000200160009054906101000a900473ffffffffffffffffffffffffffffffffffffffff1673ffffffffffffffffffffffffffffffffffffffff1673ffffffffffffffffffffffffffffffffffffffff16815260200190815260200160002060010181905550600360008154809291906139d5906146e5565b91905055507fe3f5bacc77772aaf6927c3eb6e081dc61c95f4db128e4f8d14c4951b159bda478160000160009054906101000a900473ffffffffffffffffffffffffffffffffffffffff16600c6000600d8781548110613a5e577f4e487b7100000000000000000000000000000000000000000000000000000000600052603260045260246000fd5b9060005260206000200160009054906101000a900473ffffffffffffffffffffffffffffffffffffffff1673ffffffffffffffffffffffffffffffffffffffff1673ffffffffffffffffffffffffffffffffffffffff16815260200190815260200160002060000160009054906101000a900473ffffffffffffffffffffffffffffffffffffffff16600954613b57600d8881548110613b27577f4e487b7100000000000000000000000000000000000000000000000000000000600052603260045260246000fd5b9060005260206000200160009054906101000a900473ffffffffffffffffffffffffffffffffffffffff16610854565b600654604051613b6b95949392919061423f565b60405180910390a150505b8080613b81906146e5565b9150506133b0565b50565b600f6000613b9a9190613e09565b600d6000613ba89190613e09565b6000600760006101000a81548160ff021916908360ff16021790555060066000815480929190613bd7906146e5565b9190505550565b600073ffffffffffffffffffffffffffffffffffffffff168173ffffffffffffffffffffffffffffffffffffffff161415613c1857600080fd5b8073ffffffffffffffffffffffffffffffffffffffff1660008054906101000a900473ffffffffffffffffffffffffffffffffffffffff1673ffffffffffffffffffffffffffffffffffffffff167f8be0079c531659141344cd1fd0a4f28419497f9722a3daafe3b4186f6b6457e060405160405180910390a3806000806101000a81548173ffffffffffffffffffffffffffffffffffffffff021916908373ffffffffffffffffffffffffffffffffffffffff16021790555050565b828054613ce190614682565b90600052602060002090601f016020900481019282613d035760008555613d4a565b82601f10613d1c57805160ff1916838001178555613d4a565b82800160010185558215613d4a579182015b82811115613d49578251825591602001919060010190613d2e565b5b509050613d579190613e2a565b5090565b828054613d6790614682565b90600052602060002090601f016020900481019282613d895760008555613dd7565b82601f10613d9a5780548555613dd7565b82800160010185558215613dd757600052602060002091601f016020900482015b82811115613dd6578254825591600101919060010190613dbb565b5b509050613de49190613e2a565b5090565b5080546000825590600052602060002090810190613e069190613e2a565b50565b5080546000825590600052602060002090810190613e279190613e2a565b50565b5b80821115613e43576000816000905550600101613e2b565b5090565b6000613e5a613e5584614455565b614430565b905082815260208101848484011115613e7257600080fd5b613e7d848285614640565b509392505050565b600081359050613e948161481e565b92915050565b600081519050613ea981614835565b92915050565b600082601f830112613ec057600080fd5b8135613ed0848260208601613e47565b91505092915050565b600081359050613ee88161484c565b92915050565b600081519050613efd8161484c565b92915050565b600060208284031215613f1557600080fd5b6000613f2384828501613e85565b91505092915050565b600060208284031215613f3e57600080fd5b6000613f4c84828501613e9a565b91505092915050565b600060208284031215613f6757600080fd5b6000613f7584828501613ed9565b91505092915050565b600060208284031215613f9057600080fd5b6000613f9e84828501613eee565b91505092915050565b600080600060608486031215613fbc57600080fd5b6000613fca86828701613ed9565b9350506020613fdb86828701613ed9565b925050604084013567ffffffffffffffff811115613ff857600080fd5b61400486828701613eaf565b9150509250925092565b600061401a838361403e565b60208301905092915050565b600061403283836141a6565b60208301905092915050565b614047816145f8565b82525050565b614056816145f8565b82525050565b6000614067826144a6565b61407181856144e1565b935061407c83614486565b8060005b838110156140ad578151614094888261400e565b975061409f836144c7565b925050600181019050614080565b5085935050505092915050565b60006140c5826144b1565b6140cf81856144f2565b93506140da83614496565b8060005b8381101561410b5781516140f28882614026565b97506140fd836144d4565b9250506001810190506140de565b5085935050505092915050565b6141218161460a565b82525050565b6000614132826144bc565b61413c8185614503565b935061414c81856020860161464f565b614155816147bb565b840191505092915050565b600061416d601183614503565b9150614178826147cc565b602082019050919050565b6000614190601083614503565b915061419b826147f5565b602082019050919050565b6141af81614636565b82525050565b6141be81614636565b82525050565b60006020820190506141d9600083018461404d565b92915050565b60006040820190506141f4600083018561404d565b614201602083018461404d565b9392505050565b600060608201905061421d600083018661404d565b61422a602083018561404d565b61423760408301846141b5565b949350505050565b600060a082019050614254600083018861404d565b614261602083018761404d565b61426e60408301866141b5565b81810360608301526142808185614127565b905061428f60808301846141b5565b9695505050505050565b60006040820190506142ae600083018561404d565b6142bb60208301846141b5565b9392505050565b600060a0820190506142d7600083018861404d565b6142e460208301876141b5565b6142f160408301866141b5565b81810360608301526143038185614127565b905061431260808301846141b5565b9695505050505050565b60006020820190508181036000830152614336818461405c565b905092915050565b6000602082019050818103600083015261435881846140ba565b905092915050565b60006020820190506143756000830184614118565b92915050565b600060208201905081810360008301526143958184614127565b905092915050565b60006020820190506143b260008301846141b5565b92915050565b60006060820190506143cd60008301856141b5565b6143da60208301846141b5565b81810360408301526143eb81614160565b90509392505050565b600060608201905061440960008301856141b5565b61441660208301846141b5565b818103604083015261442781614183565b90509392505050565b600061443a61444b565b905061444682826146b4565b919050565b6000604051905090565b600067ffffffffffffffff8211156144705761446f61478c565b5b614479826147bb565b9050602081019050919050565b6000819050602082019050919050565b6000819050602082019050919050565b600081519050919050565b600081519050919050565b600081519050919050565b6000602082019050919050565b6000602082019050919050565b600082825260208201905092915050565b600082825260208201905092915050565b600082825260208201905092915050565b600061451f82614636565b915061452a83614636565b9250827fffffffffffffffffffffffffffffffffffffffffffffffffffffffffffffffff0382111561455f5761455e61472e565b5b828201905092915050565b600061457582614636565b915061458083614636565b9250817fffffffffffffffffffffffffffffffffffffffffffffffffffffffffffffffff04831182151516156145b9576145b861472e565b5b828202905092915050565b60006145cf82614636565b91506145da83614636565b9250828210156145ed576145ec61472e565b5b828203905092915050565b600061460382614616565b9050919050565b60008115159050919050565b600073ffffffffffffffffffffffffffffffffffffffff82169050919050565b6000819050919050565b82818337600083830152505050565b60005b8381101561466d578082015181840152602081019050614652565b8381111561467c576000848401525b50505050565b6000600282049050600182168061469a57607f821691505b602082108114156146ae576146ad61475d565b5b50919050565b6146bd826147bb565b810181811067ffffffffffffffff821117156146dc576146db61478c565b5b80604052505050565b60006146f082614636565b91507fffffffffffffffffffffffffffffffffffffffffffffffffffffffffffffffff8214156147235761472261472e565b5b600182019050919050565b7f4e487b7100000000000000000000000000000000000000000000000000000000600052601160045260246000fd5b7f4e487b7100000000000000000000000000000000000000000000000000000000600052602260045260246000fd5b7f4e487b7100000000000000000000000000000000000000000000000000000000600052604160045260246000fd5b6000601f19601f8301169050919050565b7f66616c6c6261636b707269636568696768000000000000000000000000000000600082015250565b7f66616c6c6261636b70726963656c6f7700000000000000000000000000000000600082015250565b614827816145f8565b811461483257600080fd5b50565b61483e8161460a565b811461484957600080fd5b50565b61485581614636565b811461486057600080fd5b5056fea2646970667358221220b211dc0bc8def259ab3926da015ed5a31279faea93cf378e261deea15dd60e0164736f6c63430008010033",
  "immutableReferences": {},
  "source": "pragma solidity >=0.8.1 <0.9.0;\r\n\r\n//  allowing the market mechanism to use functions of the Energy Credits\r\ninterface EnergyCreditsInterface{\r\n  function totalSupply() external returns (uint);\r\n  function balanceOf(address tokenOwner) external returns (uint balance);\r\n  function transfer(address to, uint tokens) external returns (bool success);\r\n  function approve(address spender, uint tokens) external returns (bool success);\r\n  function transferFrom(address from, address to, uint tokens) external returns (bool success);\r\n  function allowance(address tokenOwner, address spender) external returns (uint remaining);\r\n  }\r\n// ----------------------------------------------------------------------------\r\n// @title Ownable\r\n//  The Ownable contract has an owner address, and provides basic authorization control\r\n// functions, this simplifies the implementation of \"user permissions\".\r\n// ----------------------------------------------------------------------------\r\ncontract Ownable {\r\n  address private _owner;\r\n\r\n  event OwnershipTransferred(address indexed previousOwner,address indexed newOwner);\r\n\r\n\r\n  //  The Ownable constructor sets the original `owner` of the contract to the sender\r\n  // account.\r\n  constructor() {\r\n    _owner = msg.sender;\r\n    emit OwnershipTransferred(address(0), _owner);\r\n  }\r\n\r\n\r\n  // @return the address of the owner.\r\n  function owner() public view returns(address) {\r\n    return _owner;\r\n  }\r\n\r\n\r\n  //  Throws if called by any account other than the owner.\r\n  modifier onlyOwner() {\r\n    require(isOwner());\r\n    _;\r\n  }\r\n\r\n\r\n  // @return true if `msg.sender` is the owner of the contract.\r\n  function isOwner() public view returns(bool) {\r\n    return msg.sender == _owner;\r\n  }\r\n\r\n\r\n  //  Allows the current owner to relinquish control of the contract.\r\n  // @notice Renouncing to ownership will leave the contract without an owner.\r\n  // It will not be possible to call the functions with the `onlyOwner`\r\n  // modifier anymore.\r\n  function renounceOwnership() public onlyOwner {\r\n    emit OwnershipTransferred(_owner, address(0));\r\n    _owner = address(0);\r\n  }\r\n\r\n\r\n  //  Allows the current owner to transfer control of the contract to a newOwner.\r\n  // @param newOwner The address to transfer ownership to.\r\n  function transferOwnership(address newOwner) public onlyOwner {\r\n    _transferOwnership(newOwner);\r\n  }\r\n\r\n\r\n  //  Transfers control of the contract to a newOwner.\r\n  // @param newOwner The address to transfer ownership to.\r\n  function _transferOwnership(address newOwner) internal {\r\n    require(newOwner != address(0));\r\n    emit OwnershipTransferred(_owner, newOwner);\r\n    _owner = newOwner;\r\n  }\r\n  }\r\n\r\ncontract EnergyMarket is Ownable{\r\nuint fallbackPriceHigh = 2367;  // 23,67 Cent\r\nuint fallbackPriceLow = 1200;   //12,00 Cent\r\nuint match_id=0;\r\nuint uniformprice = 0;\r\nuint uniformPriceBHKW = 0;\r\nuint tick = 0;\r\nuint8 pv  = 0;\r\nuint8 bhkw = 0;\r\nuint lastTriggerBlock = block.number;\r\nuint matchAmount = 0;\r\nuint trigger = 0;\r\naddress ckaddress = address(0); // <-- manually change the address to your token address\r\n\r\n\r\n// Structs\r\nstruct Ask {\r\n  address asker;\r\n  uint amount;\r\n  uint price;\r\n  string timestamp;\r\n  }\r\n\r\nstruct Bid {\r\n  address bidder;\r\n  uint amount;\r\n  uint price;\r\n  string timestamp;\r\n  }\r\n\r\nstruct Match{\r\n  address askaddress;\r\n  address bidaddress;\r\n  uint amount;\r\n  string timestamp;\r\n  }\r\n\r\n\r\n// Events\r\nevent AskPlaced (address asker, uint amount, uint price, string timestamp, uint tick);\r\nevent BidPlaced (address bidder, uint amount, uint price, string timestamp, uint tick);\r\nevent UniformPrice (uint uniformprice, string timestamp, uint tick);\r\nevent MatchMade (address asker, address bidder, uint amount, string timestamp, uint tick);\r\nevent Transaction(address from, address to, string what, uint amount, uint tick);\r\nevent UpdatePrice(uint oldprice, uint newprice, string which);\r\nevent ChangeofToken(address oldtoken, address ckaddress);\r\n\r\n\r\n// Mappings\r\n// Every placed ask or bid is connected to the senders address and the addresses\r\n// are stored in an array\r\nmapping(address => Ask) asks;\r\naddress[] public ask_ids;\r\n\r\nmapping(address => Bid) bids;\r\naddress[] public bid_ids;\r\n\r\n//  Every match made is connected to an ID which is stored in an array\r\nmapping(uint => Match) matches;\r\nuint[] public match_ids;\r\n\r\n//  Locked value of all market participants is connected to their address\r\nmapping(address => uint) remainingLockedValue;\r\n\r\n// Links KITEnergyTokenInterface to specific smart contract\r\nEnergyCreditsInterface EnergyCredits = EnergyCreditsInterface(ckaddress);\r\n\r\n//  Constructor of contract to equip the market place with ether\r\nconstructor() {}\r\n\r\n// Equip market place with more ether\r\nfunction sendEther() public payable returns (bool success){\r\n  return true;\r\n  }\r\n\r\n//  Throws if Bid does not include sufficient amount of ether\r\nmodifier hasethBalance(uint _amount, uint _price){\r\n    if(fallbackPriceHigh>_price){\r\n      require((msg.value + remainingLockedValue[msg.sender])>=((fallbackPriceHigh)*_amount)*(10**14));\r\n    }\r\n    else{\r\n      require((msg.value + remainingLockedValue[msg.sender])>=((_price)*_amount)*(10**14));\r\n      }\r\n      _;\r\n    }\r\n\r\n//  Throws if Ask does not include sufficient amount of token\r\nmodifier hastokenBalance(uint _amount){\r\n      require((EnergyCredits.allowance(msg.sender,address(this)) + remainingLockedValue[msg.sender])>=_amount);\r\n  _;\r\n  }\r\n\r\n//  Throws if minimal amount of blocks in between to two auctions\r\n// has not been mined\r\nmodifier isTrigger(){\r\n  require(block.number>=lastTriggerBlock+trigger);\r\n  _;\r\n  }\r\n\r\n// Creation of an Ask\r\n// _price which is asked for\r\n// _timestamp of ask\r\n// @notice A market participant can place an ask if no future bid has been made in\r\n// this trading period, empty asks are forbidden to be protected against DOS attacks\r\nfunction addAsk (uint _amount, uint _price, string memory _timestamp) public hastokenBalance(_amount){\r\n  require(bids[msg.sender].amount==0);\r\n  require(_amount > 0);\r\n  if(asks[msg.sender].amount==0){\r\n    Ask storage ask = asks[msg.sender];\r\n    ask.asker = msg.sender;\r\n    ask.amount = _amount;\r\n    ask.price = _price;\r\n    ask.timestamp = _timestamp;\r\n    ask_ids.push(msg.sender);\r\n    remainingLockedValue[ask.asker]=_amount;\r\n    EnergyCredits.transferFrom(msg.sender,address(this),_amount);\r\n  }\r\n  else {\r\n    Ask storage askUpdate = asks[msg.sender];\r\n    askUpdate.amount = _amount;\r\n    askUpdate.price = _price;\r\n    askUpdate.timestamp = _timestamp;\r\n    asks[msg.sender] = askUpdate;\r\n\r\n    if (_amount > remainingLockedValue[msg.sender]){\r\n      EnergyCredits.transferFrom(msg.sender,address(this),(_amount-remainingLockedValue[msg.sender]));\r\n    }\r\n    else{\r\n      EnergyCredits.transfer(msg.sender,(remainingLockedValue[msg.sender]-_amount));\r\n    }\r\n    remainingLockedValue[msg.sender]=_amount;\r\n    }\r\n    emit AskPlaced(msg.sender, _amount, _price,_timestamp,tick);\r\n  }\r\n\r\n//  Creation of a Bid\r\n// @param _amount of electricity, _price is the reservation price for PV-Energy,\r\n// _pricebhkw is the reservation price for CHP-Energy, _timestamp of bid\r\n// @notice A market participant can place an bid if no future ask has been made in t\r\n// his trading period, empty asks are forbidden to be protected against DOS attacks\r\nfunction addBid (uint _amount, uint _price, string memory _timestamp) public payable hasethBalance(_amount,_price) {\r\n    require(asks[msg.sender].amount==0);\r\n    if(bids[msg.sender].amount==0){\r\n      Bid storage bid = bids[msg.sender];\r\n      bid.bidder = msg.sender;\r\n      bid.amount = _amount;\r\n      bid.price = _price;\r\n      bid.timestamp = _timestamp;\r\n      bid_ids.push(msg.sender);\r\n      remainingLockedValue[msg.sender]=(msg.value);\r\n    }\r\n    else {\r\n      Bid storage bidUpdate= bids[msg.sender];\r\n      bidUpdate.amount = _amount;\r\n      bidUpdate.price = _price;\r\n      bidUpdate.timestamp = _timestamp;\r\n      bids[msg.sender] = bidUpdate;\r\n      if ((_price * 10**14 * _amount) < remainingLockedValue[msg.sender]){\r\n        payable(msg.sender).transfer(remainingLockedValue[msg.sender] - (_price * 10**14 * _amount));\r\n        remainingLockedValue[msg.sender]= (_price * 10**14 * _amount);\r\n      }\r\n      else{\r\n        remainingLockedValue[msg.sender]=(remainingLockedValue[msg.sender]+msg.value);\r\n      }\r\n    }\r\n    emit BidPlaced (msg.sender, _amount, _price, _timestamp, tick);\r\n  }\r\n\r\n//Update Functions\r\nfunction changeTokenAddress(address _token) public onlyOwner returns (bool){\r\n  address oldtoken = ckaddress;\r\n  ckaddress = _token;\r\n  emit ChangeofToken(oldtoken,ckaddress);\r\n  return true;\r\n}\r\n\r\n// View functions\r\n//  Shows all current bids\r\n// @return array containing all bids\r\nfunction getAllBids() public view returns (address[] memory){\r\n  return bid_ids;\r\n  }\r\n\r\n// //  Shows PV-price of bid\r\n// // @param address of bidder\r\n// // @return uint being his PV-price in Cents*100\r\nfunction getBidPrice(address _address) public view returns (uint){\r\n  return bids[_address].price;\r\n  }\r\n\r\n// //  Shows electricity amount of bid\r\n// // @param address of bidder\r\n// // @return uint being the amount of electricity he wants to buy in kWh\r\nfunction getBidAmount(address _address) public view returns (uint){\r\n  return bids[_address].amount;\r\n  } \r\n\r\n// //  Shows point in time of bid\r\n// // @param address of bidder\r\n// // @return string reprensenting the timestamp of the bid\r\nfunction getBidTimestamp(address _address) public view returns (string memory){\r\n  return bids[_address].timestamp;\r\n}\r\n\r\n//  Shows all current asks\r\n// @return array containing all asks\r\nfunction getAllAsks() public view returns (address[] memory){\r\n      return ask_ids;\r\n    }\r\n\r\n// //  Shows preferred price of ask\r\n// // @param address of asker\r\n// // @return uint being the price preference in Cents*100\r\nfunction getAskPrice(address _address) public view returns (uint){\r\n  return asks[_address].price;\r\n  }\r\n\r\n// //  Shows electricity amount of ask\r\n// // @param address of asker\r\n// // @return uint being the amount of electricity he wants to sell in kWh\r\nfunction getAskAmount(address _address) public view returns (uint){\r\n  return asks[_address].amount;\r\n  }\r\n\r\n\r\n// //  Shows point in time of ask\r\n// // @param address of asker\r\n// // @return string reprensenting the timestamp of the bid\r\nfunction getAskTimestamp(address _address) public view returns (string memory){\r\n  return asks[_address].timestamp;\r\n}\r\n\r\n// //  Shows the remaining locked value\r\n// // @param address of bidder/bidder\r\n// // @return uint being the amount of electricity (asker) or the\r\n// // amount of ether that has been locked for the trading period\r\nfunction getremainingvalue (address _sender) public view returns(uint){\r\n  return remainingLockedValue[_sender];\r\n  }\r\n\r\n//  Shows the fallbackprice for buyers\r\n// @return the current fallbackprichigh in cent*100\r\nfunction getfallbackPriceHigh() public view returns(uint){\r\n  return fallbackPriceHigh;\r\n  }\r\n\r\n//  Shows the fallbackprice for sellers\r\n// @return the current fallbackpricelow in cent*100\r\nfunction getfallbackPriceLow() public view returns(uint){\r\n  return fallbackPriceLow;\r\n  }\r\n\r\n//  Shows all matches of trading period\r\n// @return array containing all match-IDs\r\nfunction getMatches() public view returns (uint[] memory){\r\n  return match_ids;\r\n  }\r\n\r\n//  Shows UniformPrice for PV of this trading period\r\n// @return uint being the uniformprice in cent*100\r\nfunction getUniformprice () public view returns (uint) {\r\n  return uniformprice;\r\n  }\r\n\r\n//function um bei Bids und Asks zu prfen, ob auch die Auction getriggered werden soll\r\nfunction getBoolean() public view returns(bool){\r\n    if(block.number>=lastTriggerBlock+trigger){\r\n        return true;\r\n    }\r\n  }\r\n\r\nfunction updateFallbackPriceHigh(uint _fallbackpricehigh) public onlyOwner returns (bool){ //reihenfolge checken und owner implementieren\r\n    uint r = fallbackPriceHigh;\r\n    fallbackPriceHigh = _fallbackpricehigh;\r\n    emit UpdatePrice(r,fallbackPriceHigh,\"fallbackpricehigh\");\r\n    return true;\r\n  }\r\n\r\nfunction updateFallbackPriceLow(uint _fallbackpricelow) public onlyOwner returns (bool) { //reihenfolge checken und owner implementieren\r\n    uint r = fallbackPriceLow;\r\n    fallbackPriceLow = _fallbackpricelow;\r\n    emit UpdatePrice(r,fallbackPriceLow,\"fallbackpricelow\");\r\n    return true;\r\n  }\r\n\r\n//Adjustment of the distance between two auctions\r\nfunction setTrigger(uint t) public onlyOwner returns(bool) {\r\n  trigger = t;\r\n  return true;\r\n  }\r\n\r\n\r\n//  Sorting array of asks upwards\r\nfunction sort_array() private{\r\n    uint256 l = bid_ids.length;\r\n    for(uint i = 0; i < l; i++) {\r\n        for(uint j = i+1; j < l ;j++) {\r\n            if(getBidPrice(bid_ids[i]) > getBidPrice(bid_ids[j])) {\r\n                address temp = bid_ids[i];\r\n                bid_ids[i] = bid_ids[j];\r\n                bid_ids[j] = temp;\r\n            }\r\n        }\r\n    }\r\n  }\r\n\r\nfunction try_to_auction() public isTrigger{\r\n  //Triggering the sorting of bids and asks, as well as triggering the auction\r\n  lastTriggerBlock=block.number;  //if the auction is triggered, then we save the current block\r\n  reset_before();\r\n  if(bhkw > pv){\r\n    sort_array(); // with function then call is trigger? But then the part here is executed every time. not like that!\r\n    pvmatching();\r\n    }\r\n  else{\r\n    sort_array();\r\n    pvmatching();\r\n    }\r\n  rest_of_auction();\r\n  //matchingTransactions();\r\n  reset_after();\r\n    }\r\n\r\n//Matching in the PV market\r\nfunction pvmatching() private{\r\n  for (uint i=0; i<bid_ids.length; i++) { //go through all bids\r\n      for(uint j = 0; j< ask_ids.length; j++){  //go through all the asks\r\n          if(getAskAmount(ask_ids[j]) > 0){\r\n          if(getBidPrice(bid_ids[i]) <= getAskPrice(ask_ids[j])){ //Offer price less than or equal to demand price\r\n             if(getAskAmount(ask_ids[j]) <= getBidAmount(bid_ids[i])){  //Demand quantity less than or equal to supply quantity\r\n                 matchAmount = getAskAmount(ask_ids[j]);  //then the demand quantity is the matched quantity\r\n             }else{\r\n                 matchAmount = getBidAmount(bid_ids[i]);  //otherwise the demand will be partially filled with the remaining supply\r\n             }\r\n             if(matchAmount > 0){ //if matchamount> 0 a match is created\r\n                 Match storage _matchPV = matches[match_id];\r\n                 _matchPV.bidaddress = bid_ids[i];\r\n                 _matchPV.askaddress = ask_ids[j];\r\n                 _matchPV.amount = matchAmount;\r\n                 _matchPV.timestamp = getBidTimestamp(bid_ids[i]);\r\n                 asks[ask_ids[j]].amount = getAskAmount(ask_ids[j]) - matchAmount; //matchAmount von Ask Amount abziehen\r\n                 bids[bid_ids[i]].amount = getBidAmount(bid_ids[i]) - matchAmount; //matchAmount von Bid Amount abziehen\r\n                 match_ids.push(match_id);\r\n                 match_id++;\r\n\r\n                 emit MatchMade(bid_ids[i],ask_ids[j],matchAmount,getBidTimestamp(bid_ids[i]),tick);\r\n             }\r\n          }\r\n          }\r\n      }\r\n    }\r\n  }\r\n\r\nfunction rest_of_auction() private{\r\n  //Matching in GreyMarket with the remaining offer quantities, Ask is provided here by GreyMarket\r\n  for(uint i = 0; i < bid_ids.length; i++){\r\n    if(getBidAmount(bid_ids[i]) > 0){\r\n      matchAmount = getBidAmount(bid_ids[i]);\r\n      Match storage matchGrey1 = matches[match_id];\r\n\r\n      Ask storage greyAsk = asks[address(this)];\r\n      greyAsk.asker = address(this);\r\n      greyAsk.amount = matchAmount;\r\n      greyAsk.price = fallbackPriceLow;\r\n      greyAsk.timestamp = getBidTimestamp(bid_ids[i]);\r\n      remainingLockedValue[greyAsk.asker] = 0;\r\n      emit AskPlaced(address(this),matchAmount,fallbackPriceLow,getBidTimestamp(bid_ids[i]),tick);\r\n\r\n      matchGrey1.bidaddress = bid_ids[i];\r\n      matchGrey1.askaddress = address(this);\r\n      matchGrey1.amount = matchAmount;\r\n      matchGrey1.timestamp = getBidTimestamp(bid_ids[i]);\r\n      match_ids.push(match_id);\r\n      bids[bid_ids[i]].amount = getBidAmount(bid_ids[i]) - matchAmount;\r\n      match_id++;\r\n\r\n      emit MatchMade(bids[bid_ids[i]].bidder,greyAsk.asker,matchAmount,getBidTimestamp(bid_ids[i]),tick);\r\n      }\r\n    }\r\n\r\n  //Matching in GreyMarket with the remaining demand, the bid is made here by GreyMarket\r\n  for(uint j = 0; j < ask_ids.length; j++){\r\n    if(getAskAmount(ask_ids[j]) > 0){\r\n      matchAmount = getAskAmount(ask_ids[j]);\r\n      Match storage matchGrey2 = matches[match_id];\r\n\r\n      Bid storage greyBid = bids[address(this)];\r\n      greyBid.bidder = address(this);\r\n      greyBid.amount = matchAmount;\r\n      greyBid.price = fallbackPriceHigh;\r\n      greyBid.timestamp = getAskTimestamp(ask_ids[j]);\r\n      remainingLockedValue[greyBid.bidder]=0;\r\n      emit BidPlaced(address(this),matchAmount,fallbackPriceHigh,getAskTimestamp(ask_ids[j]),tick);\r\n\r\n      matchGrey2.askaddress = ask_ids[j];\r\n      matchGrey2.bidaddress = address(this);\r\n      matchGrey2.amount = matchAmount;\r\n      matchGrey2.timestamp = getAskTimestamp(ask_ids[j]);\r\n      match_ids.push(match_id);\r\n      asks[ask_ids[j]].amount = getAskAmount(ask_ids[j]) - matchAmount;\r\n      match_id++;\r\n\r\n      emit MatchMade(greyBid.bidder,asks[ask_ids[j]].asker,matchAmount,getAskTimestamp(ask_ids[j]),tick);\r\n\r\n      }\r\n    }\r\n  }\r\n\r\n\r\n//divide by 100 possibly omit so there is no type force\r\n\r\n\r\n//Transactions\r\nfunction matchingTransactions() private {\r\n    //Transactions for PV\r\n    for(uint z = 0; z < match_ids.length; z++){\r\n        EnergyCredits.transfer(matches[match_ids[z]].askaddress,(matches[match_ids[z]].amount)); // Asker bekommt token vom contract (die wir vom Bidder bekommen haben)\r\n        payable(matches[match_ids[z]].bidaddress).transfer(matches[match_ids[z]].amount*getUniformprice()*(10**14)); //Bidder bekommt eth vom contract (die wir vom Asker bekommen haben)\r\n        remainingLockedValue[matches[match_ids[z]].askaddress] = remainingLockedValue[matches[match_ids[z]].askaddress] - (matches[match_ids[z]].amount * getUniformprice()* (10**14)); //remainingLockedValue wird um Transaktionsvolumen reduziert\r\n        emit Transaction(matches[match_ids[z]].askaddress,matches[match_ids[z]].bidaddress,\"Cent*100\",matches[match_ids[z]].amount*getUniformprice(),tick);\r\n        remainingLockedValue[matches[match_ids[z]].bidaddress] = remainingLockedValue[matches[match_ids[z]].bidaddress] - (matches[match_ids[z]].amount); //remainingLockedValue wird um Transaktionsvolumen reduziert\r\n        emit Transaction(matches[match_ids[z]].bidaddress,matches[match_ids[z]].askaddress,\"Token\",matches[match_ids[z]].amount,tick);\r\n      \r\n    }\r\n\r\n    //Transactions for Gray at GreyMarket as Ask\r\n    // for(uint z = 0; z < match_ids.length; z++){\r\n    //   if(getMatchPreference(z)==1){\r\n    //     emit Transaction(matches[match_ids[z]].bidaddress,matches[match_ids[z]].askaddress,\"Token\",matches[match_ids[z]].amount,tick);\r\n    //     matches[match_ids[z]].bidaddress.transfer(matches[match_ids[z]].amount*fallbackPriceLow*(10**14));\r\n    //     remainingLockedValue[matches[match_ids[z]].bidaddress] = remainingLockedValue[matches[match_ids[z]].bidaddress] - (matches[match_ids[z]].amount);\r\n    //     emit Transaction(matches[match_ids[z]].askaddress,matches[match_ids[z]].bidaddress,\"Cent*100\",matches[match_ids[z]].amount*fallbackPriceLow,tick);\r\n    //   }\r\n    // }\r\n\r\n    // //Transactions for Gray at GreyMarket as a bid\r\n    // for(uint z = 0; z < match_ids.length; z++){\r\n    //   if(getMatchPreference(z)==4){\r\n    //     energytoken.transfer(matches[match_ids[z]].askaddress,(matches[match_ids[z]].amount));\r\n    //     remainingLockedValue[matches[match_ids[z]].askaddress] = remainingLockedValue[matches[match_ids[z]].askaddress] - (matches[match_ids[z]].amount*fallbackPriceHigh*(10**14));\r\n    //     emit Transaction(matches[match_ids[z]].bidaddress,matches[match_ids[z]].askaddress,\"Token\",matches[match_ids[z]].amount,tick);\r\n    //     emit Transaction(matches[match_ids[z]].askaddress,matches[match_ids[z]].bidaddress,\"Cent*100\",matches[match_ids[z]].amount*fallbackPriceHigh,tick);\r\n    //   }\r\n    // }\r\n    \r\n\r\n\r\n    //Refunds if the blocked amount is higher than the amount actually paid and the mappings & arrays are deleted\r\n    for(uint z = 0; z < match_ids.length; z++){\r\n         if(remainingLockedValue[matches[match_ids[z]].askaddress]>0){\r\n           payable(matches[match_ids[z]].askaddress).transfer(remainingLockedValue[matches[match_ids[z]].askaddress]);\r\n           emit Transaction(address(this),matches[match_ids[z]].askaddress,\"Repayment Wei\",remainingLockedValue[matches[match_ids[z]].askaddress],tick);\r\n           remainingLockedValue[matches[match_ids[z]].askaddress] = 0;\r\n         }\r\n       }\r\n    }\r\n\r\nfunction reset_after() private {\r\n    delete bid_ids;\r\n    delete ask_ids;\r\n    pv = 0;\r\n    tick++;\r\n  }\r\n\r\nfunction reset_before() private{\r\n    delete match_ids;\r\n    match_id = 0;\r\n    uniformprice = 0;\r\n\r\n}\r\n\r\n}\r\n",
  "sourcePath": "C:\\Users\\27PDM0\\Documents\\GitHub\\Energy-Credits\\contracts\\energymarket.sol",
  "compiler": {
    "name": "solc",
    "version": "0.8.1+commit.df193b15.Emscripten.clang"
  },
  "schemaVersion": "3.4.2",
  "updatedAt": "2021-08-01T10:25:35.592Z",
  "networkType": "ethereum",
  "devdoc": {
    "kind": "dev",
    "methods": {},
    "version": 1
  },
  "userdoc": {
    "kind": "user",
    "methods": {},
    "version": 1
  }
}