{
  "contractName": "EnergyMarket",
  "abi": [
    {
      "inputs": [
        {
          "internalType": "contract IERC20",
          "name": "credits",
          "type": "address"
        }
      ],
      "stateMutability": "nonpayable",
      "type": "constructor"
    },
    {
      "anonymous": false,
      "inputs": [
        {
          "indexed": false,
          "internalType": "address",
          "name": "bidder",
          "type": "address"
        },
        {
          "indexed": false,
          "internalType": "uint256",
          "name": "amount",
          "type": "uint256"
        },
        {
          "indexed": false,
          "internalType": "uint256",
          "name": "price",
          "type": "uint256"
        },
        {
          "indexed": false,
          "internalType": "string",
          "name": "timestamp",
          "type": "string"
        },
        {
          "indexed": false,
          "internalType": "uint256",
          "name": "tick",
          "type": "uint256"
        }
      ],
      "name": "BuyOrderPlaced",
      "type": "event"
    },
    {
      "anonymous": false,
      "inputs": [
        {
          "indexed": false,
          "internalType": "address",
          "name": "asker",
          "type": "address"
        },
        {
          "indexed": false,
          "internalType": "address",
          "name": "bidder",
          "type": "address"
        },
        {
          "indexed": false,
          "internalType": "uint256",
          "name": "amount",
          "type": "uint256"
        },
        {
          "indexed": false,
          "internalType": "string",
          "name": "timestamp",
          "type": "string"
        },
        {
          "indexed": false,
          "internalType": "uint256",
          "name": "tick",
          "type": "uint256"
        }
      ],
      "name": "MatchMade",
      "type": "event"
    },
    {
      "anonymous": false,
      "inputs": [
        {
          "indexed": false,
          "internalType": "address",
          "name": "asker",
          "type": "address"
        },
        {
          "indexed": false,
          "internalType": "uint256",
          "name": "amount",
          "type": "uint256"
        },
        {
          "indexed": false,
          "internalType": "uint256",
          "name": "price",
          "type": "uint256"
        },
        {
          "indexed": false,
          "internalType": "string",
          "name": "timestamp",
          "type": "string"
        },
        {
          "indexed": false,
          "internalType": "uint256",
          "name": "tick",
          "type": "uint256"
        }
      ],
      "name": "SellOrderPlaced",
      "type": "event"
    },
    {
      "anonymous": false,
      "inputs": [
        {
          "indexed": false,
          "internalType": "uint256",
          "name": "standardPrice",
          "type": "uint256"
        },
        {
          "indexed": false,
          "internalType": "string",
          "name": "timestamp",
          "type": "string"
        },
        {
          "indexed": false,
          "internalType": "uint256",
          "name": "tick",
          "type": "uint256"
        }
      ],
      "name": "StandardPrice",
      "type": "event"
    },
    {
      "anonymous": false,
      "inputs": [
        {
          "indexed": false,
          "internalType": "address",
          "name": "from",
          "type": "address"
        },
        {
          "indexed": false,
          "internalType": "address",
          "name": "to",
          "type": "address"
        },
        {
          "indexed": false,
          "internalType": "string",
          "name": "what",
          "type": "string"
        },
        {
          "indexed": false,
          "internalType": "uint256",
          "name": "amount",
          "type": "uint256"
        },
        {
          "indexed": false,
          "internalType": "uint256",
          "name": "tick",
          "type": "uint256"
        }
      ],
      "name": "Transaction",
      "type": "event"
    },
    {
      "inputs": [
        {
          "internalType": "uint256",
          "name": "",
          "type": "uint256"
        }
      ],
      "name": "ask_ids",
      "outputs": [
        {
          "internalType": "address",
          "name": "",
          "type": "address"
        }
      ],
      "stateMutability": "view",
      "type": "function"
    },
    {
      "inputs": [
        {
          "internalType": "uint256",
          "name": "",
          "type": "uint256"
        }
      ],
      "name": "bid_ids",
      "outputs": [
        {
          "internalType": "address",
          "name": "",
          "type": "address"
        }
      ],
      "stateMutability": "view",
      "type": "function"
    },
    {
      "inputs": [
        {
          "internalType": "uint256",
          "name": "",
          "type": "uint256"
        }
      ],
      "name": "match_ids",
      "outputs": [
        {
          "internalType": "uint256",
          "name": "",
          "type": "uint256"
        }
      ],
      "stateMutability": "view",
      "type": "function"
    },
    {
      "inputs": [],
      "name": "sendEther",
      "outputs": [
        {
          "internalType": "bool",
          "name": "success",
          "type": "bool"
        }
      ],
      "stateMutability": "payable",
      "type": "function"
    },
    {
      "inputs": [
        {
          "internalType": "uint256",
          "name": "_amount",
          "type": "uint256"
        },
        {
          "internalType": "uint256",
          "name": "_price",
          "type": "uint256"
        }
      ],
      "name": "add_sell_order",
      "outputs": [],
      "stateMutability": "nonpayable",
      "type": "function"
    },
    {
      "inputs": [
        {
          "internalType": "uint256",
          "name": "_amount",
          "type": "uint256"
        },
        {
          "internalType": "uint256",
          "name": "_price",
          "type": "uint256"
        }
      ],
      "name": "add_buy_order",
      "outputs": [],
      "stateMutability": "payable",
      "type": "function"
    },
    {
      "inputs": [],
      "name": "getAllBuyOrders",
      "outputs": [
        {
          "internalType": "address[]",
          "name": "",
          "type": "address[]"
        }
      ],
      "stateMutability": "view",
      "type": "function"
    },
    {
      "inputs": [
        {
          "internalType": "address",
          "name": "_address",
          "type": "address"
        }
      ],
      "name": "getBuyPrice",
      "outputs": [
        {
          "internalType": "uint256",
          "name": "",
          "type": "uint256"
        }
      ],
      "stateMutability": "view",
      "type": "function"
    },
    {
      "inputs": [
        {
          "internalType": "address",
          "name": "_address",
          "type": "address"
        }
      ],
      "name": "getBuyAmount",
      "outputs": [
        {
          "internalType": "uint256",
          "name": "",
          "type": "uint256"
        }
      ],
      "stateMutability": "view",
      "type": "function"
    },
    {
      "inputs": [
        {
          "internalType": "address",
          "name": "_address",
          "type": "address"
        }
      ],
      "name": "getBuyTimestamp",
      "outputs": [
        {
          "internalType": "string",
          "name": "",
          "type": "string"
        }
      ],
      "stateMutability": "view",
      "type": "function"
    },
    {
      "inputs": [],
      "name": "getAllSellOrders",
      "outputs": [
        {
          "internalType": "address[]",
          "name": "",
          "type": "address[]"
        }
      ],
      "stateMutability": "view",
      "type": "function"
    },
    {
      "inputs": [
        {
          "internalType": "address",
          "name": "_address",
          "type": "address"
        }
      ],
      "name": "getSellPrice",
      "outputs": [
        {
          "internalType": "uint256",
          "name": "",
          "type": "uint256"
        }
      ],
      "stateMutability": "view",
      "type": "function"
    },
    {
      "inputs": [
        {
          "internalType": "address",
          "name": "_address",
          "type": "address"
        }
      ],
      "name": "getSellAmount",
      "outputs": [
        {
          "internalType": "uint256",
          "name": "",
          "type": "uint256"
        }
      ],
      "stateMutability": "view",
      "type": "function"
    },
    {
      "inputs": [
        {
          "internalType": "address",
          "name": "_address",
          "type": "address"
        }
      ],
      "name": "getSellTimestamp",
      "outputs": [
        {
          "internalType": "string",
          "name": "",
          "type": "string"
        }
      ],
      "stateMutability": "view",
      "type": "function"
    },
    {
      "inputs": [
        {
          "internalType": "address",
          "name": "_sender",
          "type": "address"
        }
      ],
      "name": "getRemainingValue",
      "outputs": [
        {
          "internalType": "uint256",
          "name": "",
          "type": "uint256"
        }
      ],
      "stateMutability": "view",
      "type": "function"
    },
    {
      "inputs": [],
      "name": "getMatches",
      "outputs": [
        {
          "internalType": "uint256[]",
          "name": "",
          "type": "uint256[]"
        }
      ],
      "stateMutability": "view",
      "type": "function"
    },
    {
      "inputs": [],
      "name": "getUniformprice",
      "outputs": [
        {
          "internalType": "uint256",
          "name": "",
          "type": "uint256"
        }
      ],
      "stateMutability": "view",
      "type": "function"
    },
    {
      "inputs": [],
      "name": "getBoolean",
      "outputs": [
        {
          "internalType": "bool",
          "name": "value",
          "type": "bool"
        }
      ],
      "stateMutability": "view",
      "type": "function"
    },
    {
      "inputs": [],
      "name": "start_auction",
      "outputs": [],
      "stateMutability": "nonpayable",
      "type": "function"
    }
  ],
  "bytecode": "0x6080604052611f4060005560006001556000600255600060035543600455600060055560006006553480156200003457600080fd5b5060405162003fb938038062003fb983398181016040528101906200005a9190620000b9565b80600760006101000a81548173ffffffffffffffffffffffffffffffffffffffff021916908373ffffffffffffffffffffffffffffffffffffffff1602179055505062000147565b600081519050620000b3816200012d565b92915050565b600060208284031215620000cc57600080fd5b6000620000dc84828501620000a2565b91505092915050565b6000620000f2826200010d565b9050919050565b60006200010682620000e5565b9050919050565b600073ffffffffffffffffffffffffffffffffffffffff82169050919050565b6200013881620000f9565b81146200014457600080fd5b50565b613e6280620001576000396000f3fe6080604052600436106101145760003560e01c80633d01b798116100a057806381d7fe8c1161006457806381d7fe8c146103e2578063a311dc9d146103fe578063b5dce28e1461043b578063cedc727714610478578063f18ffff8146104b557610114565b80633d01b798146102d55780635f4dfa03146103005780636e1ebfdb1461033d578063730412e81461037a57806380f2fa03146103a557610114565b80632c70120e116100e75780632c70120e146101da5780632d1be94d146102055780632e98613e1461023057806334033eb61461025b57806335b4e4521461029857610114565b806302016b24146101195780630e29df221461015657806310e65c641461017457806329c7c5c9146101b1575b600080fd5b34801561012557600080fd5b50610140600480360381019061013b919061339f565b6104cc565b60405161014d919061364c565b60405180910390f35b61015e61050b565b60405161016b91906138f0565b60405180910390f35b34801561018057600080fd5b5061019b6004803603810190610196919061334d565b610514565b6040516101a8919061396d565b60405180910390f35b3480156101bd57600080fd5b506101d860048036038101906101d391906133f1565b610560565b005b3480156101e657600080fd5b506101ef61091d565b6040516101fc91906138ce565b60405180910390f35b34801561021157600080fd5b5061021a610975565b60405161022791906138f0565b60405180910390f35b34801561023c57600080fd5b5061024561099a565b60405161025291906138ac565b60405180910390f35b34801561026757600080fd5b50610282600480360381019061027d919061339f565b610a28565b60405161028f919061364c565b60405180910390f35b3480156102a457600080fd5b506102bf60048036038101906102ba919061334d565b610a67565b6040516102cc919061390b565b60405180910390f35b3480156102e157600080fd5b506102ea610b3b565b6040516102f7919061396d565b60405180910390f35b34801561030c57600080fd5b506103276004803603810190610322919061334d565b610b45565b604051610334919061396d565b60405180910390f35b34801561034957600080fd5b50610364600480360381019061035f919061339f565b610b91565b604051610371919061396d565b60405180910390f35b34801561038657600080fd5b5061038f610bb5565b60405161039c91906138ac565b60405180910390f35b3480156103b157600080fd5b506103cc60048036038101906103c7919061334d565b610c43565b6040516103d9919061396d565b60405180910390f35b6103fc60048036038101906103f791906133f1565b610c8f565b005b34801561040a57600080fd5b506104256004803603810190610420919061334d565b6112c7565b604051610432919061390b565b60405180910390f35b34801561044757600080fd5b50610462600480360381019061045d919061334d565b61139b565b60405161046f919061396d565b60405180910390f35b34801561048457600080fd5b5061049f600480360381019061049a919061334d565b6113e4565b6040516104ac919061396d565b60405180910390f35b3480156104c157600080fd5b506104ca611430565b005b600b81815481106104dc57600080fd5b906000526020600020016000915054906101000a900473ffffffffffffffffffffffffffffffffffffffff1681565b60006001905090565b6000600860008373ffffffffffffffffffffffffffffffffffffffff1673ffffffffffffffffffffffffffffffffffffffff168152602001908152602001600020600101549050919050565b8180600e60003373ffffffffffffffffffffffffffffffffffffffff1673ffffffffffffffffffffffffffffffffffffffff16815260200190815260200160002054600760009054906101000a900473ffffffffffffffffffffffffffffffffffffffff1673ffffffffffffffffffffffffffffffffffffffff1663dd62ed3e33306040518363ffffffff1660e01b81526004016105ff929190613667565b60206040518083038186803b15801561061757600080fd5b505afa15801561062b573d6000803e3d6000fd5b505050506040513d601f19601f8201168201806040525081019061064f91906133c8565b6106599190613a16565b101561069a576040517f08c379a00000000000000000000000000000000000000000000000000000000081526004016106919061394d565b60405180910390fd5b60006106a54261147d565b90506000600860003373ffffffffffffffffffffffffffffffffffffffff1673ffffffffffffffffffffffffffffffffffffffff1681526020019081526020016000209050338160000160006101000a81548173ffffffffffffffffffffffffffffffffffffffff021916908373ffffffffffffffffffffffffffffffffffffffff16021790555084816001018190555083816002018190555081816003019080519060200190610757929190613187565b506009339080600181540180825580915050600190039060005260206000200160009091909190916101000a81548173ffffffffffffffffffffffffffffffffffffffff021916908373ffffffffffffffffffffffffffffffffffffffff16021790555084600e60008360000160009054906101000a900473ffffffffffffffffffffffffffffffffffffffff1673ffffffffffffffffffffffffffffffffffffffff1673ffffffffffffffffffffffffffffffffffffffff16815260200190815260200160002081905550600760009054906101000a900473ffffffffffffffffffffffffffffffffffffffff1673ffffffffffffffffffffffffffffffffffffffff166323b872dd3330886040518463ffffffff1660e01b815260040161088293929190613798565b602060405180830381600087803b15801561089c57600080fd5b505af11580156108b0573d6000803e3d6000fd5b505050506040513d601f19601f820116820180604052508101906108d49190613376565b507ff8fe42e04f74c2d7f5fbbedaf88e54a52b1522581b3b3dd92ac198307c79d6b13386868560035460405161090e959493929190613852565b60405180910390a15050505050565b6060600d80548060200260200160405190810160405280929190818152602001828054801561096b57602002820191906000526020600020905b815481526020019060010190808311610957575b5050505050905090565b60006006546004546109879190613a16565b43106109965760019050610997565b5b90565b6060600b805480602002602001604051908101604052809291908181526020018280548015610a1e57602002820191906000526020600020905b8160009054906101000a900473ffffffffffffffffffffffffffffffffffffffff1673ffffffffffffffffffffffffffffffffffffffff16815260200190600101908083116109d4575b5050505050905090565b60098181548110610a3857600080fd5b906000526020600020016000915054906101000a900473ffffffffffffffffffffffffffffffffffffffff1681565b6060600860008373ffffffffffffffffffffffffffffffffffffffff1673ffffffffffffffffffffffffffffffffffffffff1681526020019081526020016000206003018054610ab690613bd0565b80601f0160208091040260200160405190810160405280929190818152602001828054610ae290613bd0565b8015610b2f5780601f10610b0457610100808354040283529160200191610b2f565b820191906000526020600020905b815481529060010190602001808311610b1257829003601f168201915b50505050509050919050565b6000600254905090565b6000600a60008373ffffffffffffffffffffffffffffffffffffffff1673ffffffffffffffffffffffffffffffffffffffff168152602001908152602001600020600101549050919050565b600d8181548110610ba157600080fd5b906000526020600020016000915090505481565b60606009805480602002602001604051908101604052809291908181526020018280548015610c3957602002820191906000526020600020905b8160009054906101000a900473ffffffffffffffffffffffffffffffffffffffff1673ffffffffffffffffffffffffffffffffffffffff1681526020019060010190808311610bef575b5050505050905090565b6000600860008373ffffffffffffffffffffffffffffffffffffffff1673ffffffffffffffffffffffffffffffffffffffff168152602001908152602001600020600201549050919050565b8181600a8282610c9f9190613a9d565b610ca99190613a9d565b600e60003373ffffffffffffffffffffffffffffffffffffffff1673ffffffffffffffffffffffffffffffffffffffff1681526020019081526020016000205434610cf49190613a16565b1015610d35576040517f08c379a0000000000000000000000000000000000000000000000000000000008152600401610d2c9061392d565b60405180910390fd5b6000610d404261147d565b90506000600860003373ffffffffffffffffffffffffffffffffffffffff1673ffffffffffffffffffffffffffffffffffffffff1681526020019081526020016000206001015414610d9157600080fd5b6000600a60003373ffffffffffffffffffffffffffffffffffffffff1673ffffffffffffffffffffffffffffffffffffffff168152602001908152602001600020600101541415610f3a576000600a60003373ffffffffffffffffffffffffffffffffffffffff1673ffffffffffffffffffffffffffffffffffffffff1681526020019081526020016000209050338160000160006101000a81548173ffffffffffffffffffffffffffffffffffffffff021916908373ffffffffffffffffffffffffffffffffffffffff16021790555085816001018190555084816002018190555081816003019080519060200190610e8c929190613187565b50600b339080600181540180825580915050600190039060005260206000200160009091909190916101000a81548173ffffffffffffffffffffffffffffffffffffffff021916908373ffffffffffffffffffffffffffffffffffffffff16021790555034600e60003373ffffffffffffffffffffffffffffffffffffffff1673ffffffffffffffffffffffffffffffffffffffff168152602001908152602001600020819055505061127f565b6000600a60003373ffffffffffffffffffffffffffffffffffffffff1673ffffffffffffffffffffffffffffffffffffffff168152602001908152602001600020905085816001018190555084816002018190555081816003019080519060200190610fa7929190613187565b5080600a60003373ffffffffffffffffffffffffffffffffffffffff1673ffffffffffffffffffffffffffffffffffffffff1681526020019081526020016000206000820160009054906101000a900473ffffffffffffffffffffffffffffffffffffffff168160000160006101000a81548173ffffffffffffffffffffffffffffffffffffffff021916908373ffffffffffffffffffffffffffffffffffffffff1602179055506001820154816001015560028201548160020155600382018160030190805461107790613bd0565b61108292919061320d565b50905050600e60003373ffffffffffffffffffffffffffffffffffffffff1673ffffffffffffffffffffffffffffffffffffffff1681526020019081526020016000205486612710876110d59190613a9d565b6110df9190613a9d565b10156111ee573373ffffffffffffffffffffffffffffffffffffffff166108fc87600a8861110d9190613a9d565b6111179190613a9d565b600e60003373ffffffffffffffffffffffffffffffffffffffff1673ffffffffffffffffffffffffffffffffffffffff168152602001908152602001600020546111619190613af7565b9081150290604051600060405180830381858888f1935050505015801561118c573d6000803e3d6000fd5b50856127108661119c9190613a9d565b6111a69190613a9d565b600e60003373ffffffffffffffffffffffffffffffffffffffff1673ffffffffffffffffffffffffffffffffffffffff1681526020019081526020016000208190555061127d565b34600e60003373ffffffffffffffffffffffffffffffffffffffff1673ffffffffffffffffffffffffffffffffffffffff168152602001908152602001600020546112399190613a16565b600e60003373ffffffffffffffffffffffffffffffffffffffff1673ffffffffffffffffffffffffffffffffffffffff168152602001908152602001600020819055505b505b7f92f663fcfe511bb6219b046d94e44390b2780d38316c2a552faea9efab70144f338686846003546040516112b8959493929190613852565b60405180910390a15050505050565b6060600a60008373ffffffffffffffffffffffffffffffffffffffff1673ffffffffffffffffffffffffffffffffffffffff168152602001908152602001600020600301805461131690613bd0565b80601f016020809104026020016040519081016040528092919081815260200182805461134290613bd0565b801561138f5780601f106113645761010080835404028352916020019161138f565b820191906000526020600020905b81548152906001019060200180831161137257829003601f168201915b50505050509050919050565b6000600e60008373ffffffffffffffffffffffffffffffffffffffff1673ffffffffffffffffffffffffffffffffffffffff168152602001908152602001600020549050919050565b6000600a60008373ffffffffffffffffffffffffffffffffffffffff1673ffffffffffffffffffffffffffffffffffffffff168152602001908152602001600020600201549050919050565b6006546004546114409190613a16565b43101561144c57600080fd5b4360048190555061145b611630565b611463611650565b61146b61195f565b6114736122d0565b61147b613151565b565b606060008214156114c5576040518060400160405280600181526020017f3000000000000000000000000000000000000000000000000000000000000000815250905061162b565b600082905060005b600082146114f75780806114e090613c02565b915050600a826114f09190613a6c565b91506114cd565b60008167ffffffffffffffff811115611539577f4e487b7100000000000000000000000000000000000000000000000000000000600052604160045260246000fd5b6040519080825280601f01601f19166020018201604052801561156b5781602001600182028036833780820191505090505b50905060008290508593505b6000841461162357600a8461158c9190613c4b565b60306115989190613a16565b60f81b82826115a690613ba6565b925082815181106115e0577f4e487b7100000000000000000000000000000000000000000000000000000000600052603260045260246000fd5b60200101907effffffffffffffffffffffffffffffffffffffffffffffffffffffffffffff1916908160001a905350600a8461161c9190613a6c565b9350611577565b819450505050505b919050565b600d600061163e919061329a565b60006001819055506000600281905550565b6000600b80549050905060005b8181101561195b5760006001826116749190613a16565b90505b82811015611947576116ec600b82815481106116bc577f4e487b7100000000000000000000000000000000000000000000000000000000600052603260045260246000fd5b9060005260206000200160009054906101000a900473ffffffffffffffffffffffffffffffffffffffff166113e4565b611759600b8481548110611729577f4e487b7100000000000000000000000000000000000000000000000000000000600052603260045260246000fd5b9060005260206000200160009054906101000a900473ffffffffffffffffffffffffffffffffffffffff166113e4565b1115611934576000600b838154811061179b577f4e487b7100000000000000000000000000000000000000000000000000000000600052603260045260246000fd5b9060005260206000200160009054906101000a900473ffffffffffffffffffffffffffffffffffffffff169050600b8281548110611802577f4e487b7100000000000000000000000000000000000000000000000000000000600052603260045260246000fd5b9060005260206000200160009054906101000a900473ffffffffffffffffffffffffffffffffffffffff16600b8481548110611867577f4e487b7100000000000000000000000000000000000000000000000000000000600052603260045260246000fd5b9060005260206000200160006101000a81548173ffffffffffffffffffffffffffffffffffffffff021916908373ffffffffffffffffffffffffffffffffffffffff16021790555080600b83815481106118ea577f4e487b7100000000000000000000000000000000000000000000000000000000600052603260045260246000fd5b9060005260206000200160006101000a81548173ffffffffffffffffffffffffffffffffffffffff021916908373ffffffffffffffffffffffffffffffffffffffff160217905550505b808061193f90613c02565b915050611677565b50808061195390613c02565b91505061165d565b5050565b60005b600b805490508110156122cd5760005b6009805490508110156122b95760006119ee600983815481106119be577f4e487b7100000000000000000000000000000000000000000000000000000000600052603260045260246000fd5b9060005260206000200160009054906101000a900473ffffffffffffffffffffffffffffffffffffffff16610514565b11156122a657611a6160098281548110611a31577f4e487b7100000000000000000000000000000000000000000000000000000000600052603260045260246000fd5b9060005260206000200160009054906101000a900473ffffffffffffffffffffffffffffffffffffffff16610c43565b611ace600b8481548110611a9e577f4e487b7100000000000000000000000000000000000000000000000000000000600052603260045260246000fd5b9060005260206000200160009054906101000a900473ffffffffffffffffffffffffffffffffffffffff166113e4565b116122a557611b40600b8381548110611b10577f4e487b7100000000000000000000000000000000000000000000000000000000600052603260045260246000fd5b9060005260206000200160009054906101000a900473ffffffffffffffffffffffffffffffffffffffff16610b45565b611bad60098381548110611b7d577f4e487b7100000000000000000000000000000000000000000000000000000000600052603260045260246000fd5b9060005260206000200160009054906101000a900473ffffffffffffffffffffffffffffffffffffffff16610514565b11611c2a57611c1f60098281548110611bef577f4e487b7100000000000000000000000000000000000000000000000000000000600052603260045260246000fd5b9060005260206000200160009054906101000a900473ffffffffffffffffffffffffffffffffffffffff16610514565b600581905550611c9e565b611c97600b8381548110611c67577f4e487b7100000000000000000000000000000000000000000000000000000000600052603260045260246000fd5b9060005260206000200160009054906101000a900473ffffffffffffffffffffffffffffffffffffffff16610b45565b6005819055505b600060055411156122a4576000600c600060015481526020019081526020016000209050600b8381548110611cfc577f4e487b7100000000000000000000000000000000000000000000000000000000600052603260045260246000fd5b9060005260206000200160009054906101000a900473ffffffffffffffffffffffffffffffffffffffff168160010160006101000a81548173ffffffffffffffffffffffffffffffffffffffff021916908373ffffffffffffffffffffffffffffffffffffffff16021790555060098281548110611da3577f4e487b7100000000000000000000000000000000000000000000000000000000600052603260045260246000fd5b9060005260206000200160009054906101000a900473ffffffffffffffffffffffffffffffffffffffff168160000160006101000a81548173ffffffffffffffffffffffffffffffffffffffff021916908373ffffffffffffffffffffffffffffffffffffffff1602179055506005548160020181905550611e88600b8481548110611e58577f4e487b7100000000000000000000000000000000000000000000000000000000600052603260045260246000fd5b9060005260206000200160009054906101000a900473ffffffffffffffffffffffffffffffffffffffff166112c7565b816003019080519060200190611e9f929190613187565b50600554611f1060098481548110611ee0577f4e487b7100000000000000000000000000000000000000000000000000000000600052603260045260246000fd5b9060005260206000200160009054906101000a900473ffffffffffffffffffffffffffffffffffffffff16610514565b611f1a9190613af7565b6008600060098581548110611f58577f4e487b7100000000000000000000000000000000000000000000000000000000600052603260045260246000fd5b9060005260206000200160009054906101000a900473ffffffffffffffffffffffffffffffffffffffff1673ffffffffffffffffffffffffffffffffffffffff1673ffffffffffffffffffffffffffffffffffffffff16815260200190815260200160002060010181905550600554612034600b8581548110612004577f4e487b7100000000000000000000000000000000000000000000000000000000600052603260045260246000fd5b9060005260206000200160009054906101000a900473ffffffffffffffffffffffffffffffffffffffff16610b45565b61203e9190613af7565b600a6000600b868154811061207c577f4e487b7100000000000000000000000000000000000000000000000000000000600052603260045260246000fd5b9060005260206000200160009054906101000a900473ffffffffffffffffffffffffffffffffffffffff1673ffffffffffffffffffffffffffffffffffffffff1673ffffffffffffffffffffffffffffffffffffffff16815260200190815260200160002060010181905550600d60015490806001815401808255809150506001900390600052602060002001600090919091909150556001600081548092919061212690613c02565b91905055507fe3f5bacc77772aaf6927c3eb6e081dc61c95f4db128e4f8d14c4951b159bda47600b8481548110612186577f4e487b7100000000000000000000000000000000000000000000000000000000600052603260045260246000fd5b9060005260206000200160009054906101000a900473ffffffffffffffffffffffffffffffffffffffff16600984815481106121eb577f4e487b7100000000000000000000000000000000000000000000000000000000600052603260045260246000fd5b9060005260206000200160009054906101000a900473ffffffffffffffffffffffffffffffffffffffff16600554612286600b8881548110612256577f4e487b7100000000000000000000000000000000000000000000000000000000600052603260045260246000fd5b9060005260206000200160009054906101000a900473ffffffffffffffffffffffffffffffffffffffff166112c7565b60035460405161229a9594939291906137cf565b60405180910390a1505b5b5b80806122b190613c02565b915050611972565b5080806122c590613c02565b915050611962565b50565b60005b600d80549050811015612cbc57600760009054906101000a900473ffffffffffffffffffffffffffffffffffffffff1673ffffffffffffffffffffffffffffffffffffffff1663a9059cbb600c6000600d858154811061235c577f4e487b7100000000000000000000000000000000000000000000000000000000600052603260045260246000fd5b9060005260206000200154815260200190815260200160002060000160009054906101000a900473ffffffffffffffffffffffffffffffffffffffff16600c6000600d86815481106123d7577f4e487b7100000000000000000000000000000000000000000000000000000000600052603260045260246000fd5b90600052602060002001548152602001908152602001600020600201546040518363ffffffff1660e01b8152600401612411929190613829565b602060405180830381600087803b15801561242b57600080fd5b505af115801561243f573d6000803e3d6000fd5b505050506040513d601f19601f820116820180604052508101906124639190613376565b50600c6000600d83815481106124a2577f4e487b7100000000000000000000000000000000000000000000000000000000600052603260045260246000fd5b9060005260206000200154815260200190815260200160002060010160009054906101000a900473ffffffffffffffffffffffffffffffffffffffff1673ffffffffffffffffffffffffffffffffffffffff166108fc655af3107a4000612507610b3b565b600c6000600d8781548110612545577f4e487b7100000000000000000000000000000000000000000000000000000000600052603260045260246000fd5b906000526020600020015481526020019081526020016000206002015461256c9190613a9d565b6125769190613a9d565b9081150290604051600060405180830381858888f193505050501580156125a1573d6000803e3d6000fd5b50655af3107a40006125b1610b3b565b600c6000600d85815481106125ef577f4e487b7100000000000000000000000000000000000000000000000000000000600052603260045260246000fd5b90600052602060002001548152602001908152602001600020600201546126169190613a9d565b6126209190613a9d565b600e6000600c6000600d8681548110612662577f4e487b7100000000000000000000000000000000000000000000000000000000600052603260045260246000fd5b9060005260206000200154815260200190815260200160002060000160009054906101000a900473ffffffffffffffffffffffffffffffffffffffff1673ffffffffffffffffffffffffffffffffffffffff1673ffffffffffffffffffffffffffffffffffffffff168152602001908152602001600020546126e49190613af7565b600e6000600c6000600d8681548110612726577f4e487b7100000000000000000000000000000000000000000000000000000000600052603260045260246000fd5b9060005260206000200154815260200190815260200160002060000160009054906101000a900473ffffffffffffffffffffffffffffffffffffffff1673ffffffffffffffffffffffffffffffffffffffff1673ffffffffffffffffffffffffffffffffffffffff168152602001908152602001600020819055507f03bf3bd6f276c409c4c8022a0ff3dd09f857cf66dca531a946dbefaae32cc4ed600c6000600d8481548110612800577f4e487b7100000000000000000000000000000000000000000000000000000000600052603260045260246000fd5b9060005260206000200154815260200190815260200160002060000160009054906101000a900473ffffffffffffffffffffffffffffffffffffffff16600c6000600d858154811061287b577f4e487b7100000000000000000000000000000000000000000000000000000000600052603260045260246000fd5b9060005260206000200154815260200190815260200160002060010160009054906101000a900473ffffffffffffffffffffffffffffffffffffffff166128c0610b3b565b600c6000600d87815481106128fe577f4e487b7100000000000000000000000000000000000000000000000000000000600052603260045260246000fd5b90600052602060002001548152602001908152602001600020600201546129259190613a9d565b60035460405161293894939291906136e8565b60405180910390a1600c6000600d838154811061297e577f4e487b7100000000000000000000000000000000000000000000000000000000600052603260045260246000fd5b9060005260206000200154815260200190815260200160002060020154600e6000600c6000600d86815481106129dd577f4e487b7100000000000000000000000000000000000000000000000000000000600052603260045260246000fd5b9060005260206000200154815260200190815260200160002060010160009054906101000a900473ffffffffffffffffffffffffffffffffffffffff1673ffffffffffffffffffffffffffffffffffffffff1673ffffffffffffffffffffffffffffffffffffffff16815260200190815260200160002054612a5f9190613af7565b600e6000600c6000600d8681548110612aa1577f4e487b7100000000000000000000000000000000000000000000000000000000600052603260045260246000fd5b9060005260206000200154815260200190815260200160002060010160009054906101000a900473ffffffffffffffffffffffffffffffffffffffff1673ffffffffffffffffffffffffffffffffffffffff1673ffffffffffffffffffffffffffffffffffffffff168152602001908152602001600020819055507f03bf3bd6f276c409c4c8022a0ff3dd09f857cf66dca531a946dbefaae32cc4ed600c6000600d8481548110612b7b577f4e487b7100000000000000000000000000000000000000000000000000000000600052603260045260246000fd5b9060005260206000200154815260200190815260200160002060010160009054906101000a900473ffffffffffffffffffffffffffffffffffffffff16600c6000600d8581548110612bf6577f4e487b7100000000000000000000000000000000000000000000000000000000600052603260045260246000fd5b9060005260206000200154815260200190815260200160002060000160009054906101000a900473ffffffffffffffffffffffffffffffffffffffff16600c6000600d8681548110612c71577f4e487b7100000000000000000000000000000000000000000000000000000000600052603260045260246000fd5b9060005260206000200154815260200190815260200160002060020154600354604051612ca19493929190613690565b60405180910390a18080612cb490613c02565b9150506122d3565b5060005b600d8054905081101561314e576000600e6000600c6000600d8681548110612d11577f4e487b7100000000000000000000000000000000000000000000000000000000600052603260045260246000fd5b9060005260206000200154815260200190815260200160002060000160009054906101000a900473ffffffffffffffffffffffffffffffffffffffff1673ffffffffffffffffffffffffffffffffffffffff1673ffffffffffffffffffffffffffffffffffffffff16815260200190815260200160002054111561313b57600c6000600d8381548110612dcd577f4e487b7100000000000000000000000000000000000000000000000000000000600052603260045260246000fd5b9060005260206000200154815260200190815260200160002060000160009054906101000a900473ffffffffffffffffffffffffffffffffffffffff1673ffffffffffffffffffffffffffffffffffffffff166108fc600e6000600c6000600d8781548110612e65577f4e487b7100000000000000000000000000000000000000000000000000000000600052603260045260246000fd5b9060005260206000200154815260200190815260200160002060000160009054906101000a900473ffffffffffffffffffffffffffffffffffffffff1673ffffffffffffffffffffffffffffffffffffffff1673ffffffffffffffffffffffffffffffffffffffff168152602001908152602001600020549081150290604051600060405180830381858888f19350505050158015612f08573d6000803e3d6000fd5b507f03bf3bd6f276c409c4c8022a0ff3dd09f857cf66dca531a946dbefaae32cc4ed30600c6000600d8581548110612f69577f4e487b7100000000000000000000000000000000000000000000000000000000600052603260045260246000fd5b9060005260206000200154815260200190815260200160002060000160009054906101000a900473ffffffffffffffffffffffffffffffffffffffff16600e6000600c6000600d8881548110612fe8577f4e487b7100000000000000000000000000000000000000000000000000000000600052603260045260246000fd5b9060005260206000200154815260200190815260200160002060000160009054906101000a900473ffffffffffffffffffffffffffffffffffffffff1673ffffffffffffffffffffffffffffffffffffffff1673ffffffffffffffffffffffffffffffffffffffff168152602001908152602001600020546003546040516130739493929190613740565b60405180910390a16000600e6000600c6000600d86815481106130bf577f4e487b7100000000000000000000000000000000000000000000000000000000600052603260045260246000fd5b9060005260206000200154815260200190815260200160002060000160009054906101000a900473ffffffffffffffffffffffffffffffffffffffff1673ffffffffffffffffffffffffffffffffffffffff1673ffffffffffffffffffffffffffffffffffffffff168152602001908152602001600020819055505b808061314690613c02565b915050612cc0565b50565b600b600061315f91906132bb565b6009600061316d91906132bb565b6003600081548092919061318090613c02565b9190505550565b82805461319390613bd0565b90600052602060002090601f0160209004810192826131b557600085556131fc565b82601f106131ce57805160ff19168380011785556131fc565b828001600101855582156131fc579182015b828111156131fb5782518255916020019190600101906131e0565b5b50905061320991906132dc565b5090565b82805461321990613bd0565b90600052602060002090601f01602090048101928261323b5760008555613289565b82601f1061324c5780548555613289565b8280016001018555821561328957600052602060002091601f016020900482015b8281111561328857825482559160010191906001019061326d565b5b50905061329691906132dc565b5090565b50805460008255906000526020600020908101906132b891906132dc565b50565b50805460008255906000526020600020908101906132d991906132dc565b50565b5b808211156132f55760008160009055506001016132dd565b5090565b60008135905061330881613de7565b92915050565b60008151905061331d81613dfe565b92915050565b60008135905061333281613e15565b92915050565b60008151905061334781613e15565b92915050565b60006020828403121561335f57600080fd5b600061336d848285016132f9565b91505092915050565b60006020828403121561338857600080fd5b60006133968482850161330e565b91505092915050565b6000602082840312156133b157600080fd5b60006133bf84828501613323565b91505092915050565b6000602082840312156133da57600080fd5b60006133e884828501613338565b91505092915050565b6000806040838503121561340457600080fd5b600061341285828601613323565b925050602061342385828601613323565b9150509250929050565b6000613439838361345d565b60208301905092915050565b6000613451838361362e565b60208301905092915050565b61346681613b2b565b82525050565b61347581613b2b565b82525050565b6000613486826139a8565b61349081856139e3565b935061349b83613988565b8060005b838110156134cc5781516134b3888261342d565b97506134be836139c9565b92505060018101905061349f565b5085935050505092915050565b60006134e4826139b3565b6134ee81856139f4565b93506134f983613998565b8060005b8381101561352a5781516135118882613445565b975061351c836139d6565b9250506001810190506134fd565b5085935050505092915050565b61354081613b3d565b82525050565b6000613551826139be565b61355b8185613a05565b935061356b818560208601613b73565b61357481613d09565b840191505092915050565b600061358c600583613a05565b915061359782613d1a565b602082019050919050565b60006135af601083613a05565b91506135ba82613d43565b602082019050919050565b60006135d2601283613a05565b91506135dd82613d6c565b602082019050919050565b60006135f5600883613a05565b915061360082613d95565b602082019050919050565b6000613618600d83613a05565b915061362382613dbe565b602082019050919050565b61363781613b69565b82525050565b61364681613b69565b82525050565b6000602082019050613661600083018461346c565b92915050565b600060408201905061367c600083018561346c565b613689602083018461346c565b9392505050565b600060a0820190506136a5600083018761346c565b6136b2602083018661346c565b81810360408301526136c38161357f565b90506136d2606083018561363d565b6136df608083018461363d565b95945050505050565b600060a0820190506136fd600083018761346c565b61370a602083018661346c565b818103604083015261371b816135e8565b905061372a606083018561363d565b613737608083018461363d565b95945050505050565b600060a082019050613755600083018761346c565b613762602083018661346c565b81810360408301526137738161360b565b9050613782606083018561363d565b61378f608083018461363d565b95945050505050565b60006060820190506137ad600083018661346c565b6137ba602083018561346c565b6137c7604083018461363d565b949350505050565b600060a0820190506137e4600083018861346c565b6137f1602083018761346c565b6137fe604083018661363d565b81810360608301526138108185613546565b905061381f608083018461363d565b9695505050505050565b600060408201905061383e600083018561346c565b61384b602083018461363d565b9392505050565b600060a082019050613867600083018861346c565b613874602083018761363d565b613881604083018661363d565b81810360608301526138938185613546565b90506138a2608083018461363d565b9695505050505050565b600060208201905081810360008301526138c6818461347b565b905092915050565b600060208201905081810360008301526138e881846134d9565b905092915050565b60006020820190506139056000830184613537565b92915050565b600060208201905081810360008301526139258184613546565b905092915050565b60006020820190508181036000830152613946816135a2565b9050919050565b60006020820190508181036000830152613966816135c5565b9050919050565b6000602082019050613982600083018461363d565b92915050565b6000819050602082019050919050565b6000819050602082019050919050565b600081519050919050565b600081519050919050565b600081519050919050565b6000602082019050919050565b6000602082019050919050565b600082825260208201905092915050565b600082825260208201905092915050565b600082825260208201905092915050565b6000613a2182613b69565b9150613a2c83613b69565b9250827fffffffffffffffffffffffffffffffffffffffffffffffffffffffffffffffff03821115613a6157613a60613c7c565b5b828201905092915050565b6000613a7782613b69565b9150613a8283613b69565b925082613a9257613a91613cab565b5b828204905092915050565b6000613aa882613b69565b9150613ab383613b69565b9250817fffffffffffffffffffffffffffffffffffffffffffffffffffffffffffffffff0483118215151615613aec57613aeb613c7c565b5b828202905092915050565b6000613b0282613b69565b9150613b0d83613b69565b925082821015613b2057613b1f613c7c565b5b828203905092915050565b6000613b3682613b49565b9050919050565b60008115159050919050565b600073ffffffffffffffffffffffffffffffffffffffff82169050919050565b6000819050919050565b60005b83811015613b91578082015181840152602081019050613b76565b83811115613ba0576000848401525b50505050565b6000613bb182613b69565b91506000821415613bc557613bc4613c7c565b5b600182039050919050565b60006002820490506001821680613be857607f821691505b60208210811415613bfc57613bfb613cda565b5b50919050565b6000613c0d82613b69565b91507fffffffffffffffffffffffffffffffffffffffffffffffffffffffffffffffff821415613c4057613c3f613c7c565b5b600182019050919050565b6000613c5682613b69565b9150613c6183613b69565b925082613c7157613c70613cab565b5b828206905092915050565b7f4e487b7100000000000000000000000000000000000000000000000000000000600052601160045260246000fd5b7f4e487b7100000000000000000000000000000000000000000000000000000000600052601260045260246000fd5b7f4e487b7100000000000000000000000000000000000000000000000000000000600052602260045260246000fd5b6000601f19601f8301169050919050565b7f546f6b656e000000000000000000000000000000000000000000000000000000600082015250565b7f4e6f7420656e6f75676820657468657200000000000000000000000000000000600082015250565b7f4e6f7420656e6f75676820637265646974730000000000000000000000000000600082015250565b7f43656e742a313030000000000000000000000000000000000000000000000000600082015250565b7f52657061796d656e742057656900000000000000000000000000000000000000600082015250565b613df081613b2b565b8114613dfb57600080fd5b50565b613e0781613b3d565b8114613e1257600080fd5b50565b613e1e81613b69565b8114613e2957600080fd5b5056fea2646970667358221220e7e1d00b175ceb5854326fac103b86386437143062115467c5fddbef06086d9664736f6c63430008020033",
  "immutableReferences": {},
  "source": "// SPDX-License-Identifier: MIT\r\n// ----------------------------------------------------------------------------\r\n// ERC Token Standard #20 Interface\r\n// https://github.com/ethereum/EIPs/blob/master/EIPS/eip-20.md\r\n// ----------------------------------------------------------------------------\r\npragma solidity ^0.8.2;\r\n\r\nimport \"@openzeppelin/contracts/token/ERC20/ERC20.sol\";\r\nimport \"@openzeppelin/contracts/token/ERC20/extensions/ERC20Burnable.sol\";\r\nimport \"@openzeppelin/contracts/access/Ownable.sol\";\r\n\r\ncontract EnergyCredits is ERC20, ERC20Burnable, Ownable {\r\n    constructor() ERC20(\"Energy Credits\", \"EC\") {\r\n        _mint(msg.sender, 50000 * 10**decimals());\r\n    }\r\n\r\n    function mint(address to, uint256 amount) public onlyOwner {\r\n        _mint(to, amount);\r\n    }\r\n}\r\n\r\ncontract EnergyMarket {\r\n    uint256 fallbackPrice = 8000;\r\n    uint256 match_id = 0;\r\n    uint256 standardPrice = 0;\r\n    uint256 tick = 0;\r\n    uint256 lastTriggerBlock = block.number;\r\n    uint256 matchAmount = 0;\r\n    uint256 trigger = 0;\r\n    IERC20 private _credits;\r\n\r\n    constructor(IERC20 credits) {\r\n        _credits = credits;\r\n    }\r\n\r\n    // Structs\r\n    struct Ask {\r\n        address asker;\r\n        uint256 amount;\r\n        uint256 price;\r\n        string timestamp;\r\n    }\r\n\r\n    struct Bid {\r\n        address bidder;\r\n        uint256 amount;\r\n        uint256 price;\r\n        string timestamp;\r\n    }\r\n\r\n    struct Match {\r\n        address askaddress;\r\n        address bidaddress;\r\n        uint256 amount;\r\n        string timestamp;\r\n    }\r\n\r\n    // Events\r\n    // event sTest(string s);\r\n    // event iTest(uint256 i);\r\n    // event aTest(address a);\r\n\r\n    event SellOrderPlaced(\r\n        address asker,\r\n        uint256 amount,\r\n        uint256 price,\r\n        string timestamp,\r\n        uint256 tick\r\n    );\r\n    event BuyOrderPlaced(\r\n        address bidder,\r\n        uint256 amount,\r\n        uint256 price,\r\n        string timestamp,\r\n        uint256 tick\r\n    );\r\n    event StandardPrice(uint256 standardPrice, string timestamp, uint256 tick);\r\n    event MatchMade(\r\n        address asker,\r\n        address bidder,\r\n        uint256 amount,\r\n        string timestamp,\r\n        uint256 tick\r\n    );\r\n    event Transaction(\r\n        address from,\r\n        address to,\r\n        string what,\r\n        uint256 amount,\r\n        uint256 tick\r\n    );\r\n\r\n    // Mappings\r\n    // Every placed sell or buy is connected to the senders address \r\n    // and the addresses are stored in asks and buys\r\n    mapping(address => Ask) asks;\r\n    address[] public ask_ids;\r\n\r\n    mapping(address => Bid) bids;\r\n    address[] public bid_ids;\r\n\r\n    //  Every match made is connected to an ID which is stored in an array\r\n    mapping(uint256 => Match) matches;\r\n    uint256[] public match_ids;\r\n\r\n    //  Locked value of all market participants is connected to their address\r\n    mapping(address => uint256) remainingLockedValue;\r\n\r\n    // Equip market place with more ether\r\n    function sendEther() public payable returns (bool success) {\r\n        return true;\r\n    }\r\n\r\n    //  Throws if buy does not include sufficient amount of ether\r\n    modifier hasethBalance(uint256 _amount, uint256 _price) {\r\n        require(\r\n            (msg.value + remainingLockedValue[msg.sender]) >=\r\n                ((_price) * _amount) * (10**1),\r\n            \"Not enough ether\"\r\n        );\r\n        _;\r\n    }\r\n\r\n    //  Throws if sell does not include sufficient amount of token\r\n    modifier hasCredits(uint256 _amount) {\r\n        require(\r\n            (_credits.allowance(msg.sender, address(this)) +\r\n                remainingLockedValue[msg.sender]) >= _amount,\r\n            \"Not enough credits\"\r\n        );\r\n        _;\r\n    }\r\n\r\n    //  Throws if minimal amount of blocks in between to two auctions\r\n    // has not been mined\r\n    modifier isTrigger() {\r\n        require(block.number >= lastTriggerBlock + trigger);\r\n        _;\r\n    }\r\n\r\n    //  Creation of a sell order\r\n    //  _amount of electricity,\r\n    //  _price is the reservation price for Energy,\r\n    function add_sell_order(uint256 _amount, uint256 _price)\r\n        public\r\n        hasCredits(_amount)\r\n    {\r\n        string memory _timestamp = uint2str(block.timestamp);\r\n        Ask storage ask = asks[msg.sender];\r\n        ask.asker = msg.sender;\r\n        ask.amount = _amount;\r\n        ask.price = _price;\r\n        ask.timestamp = _timestamp;\r\n        ask_ids.push(msg.sender);\r\n        remainingLockedValue[ask.asker] = _amount;\r\n        _credits.transferFrom(msg.sender, address(this), _amount);\r\n        emit SellOrderPlaced(msg.sender, _amount, _price, _timestamp, tick);\r\n    }\r\n\r\n    //  Creation of a Buy order\r\n    //  _amount of electricity,\r\n    //  _price is the reservation price for Energy,\r\n    function add_buy_order(uint256 _amount, uint256 _price)\r\n        public\r\n        payable\r\n        hasethBalance(_amount, _price)\r\n    {\r\n        string memory _timestamp = uint2str(block.timestamp);\r\n        require(asks[msg.sender].amount == 0);\r\n        if (bids[msg.sender].amount == 0) {\r\n            Bid storage bid = bids[msg.sender];\r\n            bid.bidder = msg.sender;\r\n            bid.amount = _amount;\r\n            bid.price = _price;\r\n            bid.timestamp = _timestamp;\r\n            bid_ids.push(msg.sender);\r\n            remainingLockedValue[msg.sender] = (msg.value);\r\n        } else {\r\n            Bid storage bidUpdate = bids[msg.sender];\r\n            bidUpdate.amount = _amount;\r\n            bidUpdate.price = _price;\r\n            bidUpdate.timestamp = _timestamp;\r\n            bids[msg.sender] = bidUpdate;\r\n            if ((_price * 10**4 * _amount) < remainingLockedValue[msg.sender]) {\r\n                payable(msg.sender).transfer(\r\n                    remainingLockedValue[msg.sender] -\r\n                        (_price * 10**1 * _amount)\r\n                );\r\n                remainingLockedValue[msg.sender] = (_price * 10**4 * _amount);\r\n            } else {\r\n                remainingLockedValue[msg.sender] = (remainingLockedValue[\r\n                    msg.sender\r\n                ] + msg.value);\r\n            }\r\n        }\r\n        emit BuyOrderPlaced(msg.sender, _amount, _price, _timestamp, tick);\r\n    }\r\n\r\n    //  View functions\r\n    //  Shows all current buys\r\n    //  array containing all buys\r\n    function getAllBuyOrders() public view returns (address[] memory) {\r\n        return bid_ids;\r\n    }\r\n\r\n    // Shows price of buy\r\n    // address of buyer\r\n    // uint being his price in Cents*100\r\n    function getBuyPrice(address _address) public view returns (uint256) {\r\n        return bids[_address].price;\r\n    }\r\n\r\n    //  Shows electricity amount of buy\r\n    //  address of buyer\r\n    //  uint being the amount of electricity he wants to buy in kWh\r\n    function getBuyAmount(address _address) public view returns (uint256) {\r\n        return bids[_address].amount;\r\n    }\r\n\r\n    //  Shows point in time of bid\r\n    //  address of bidder\r\n    //  string reprensenting the timestamp of the bid\r\n    function getBuyTimestamp(address _address)\r\n        public\r\n        view\r\n        returns (string memory)\r\n    {\r\n        return bids[_address].timestamp;\r\n    }\r\n\r\n    //  Shows all current sales\r\n    //  array containing all sales\r\n    function getAllSellOrders() public view returns (address[] memory) {\r\n        return ask_ids;\r\n    }\r\n\r\n    //  Shows preferred price of sale\r\n    //  address of asker\r\n    //  uint being the price preference in Cents*100\r\n    function getSellPrice(address _address) public view returns (uint256) {\r\n        return asks[_address].price;\r\n    }\r\n\r\n    // Shows electricity amount of sale\r\n    // address of seller\r\n    // uint being the amount of electricity he wants to sell in kWh\r\n    function getSellAmount(address _address) public view returns (uint256) {\r\n        return asks[_address].amount;\r\n    }\r\n\r\n    // Shows point in time of ask\r\n    // address of seller\r\n    // string reprensenting the timestamp of the bid\r\n    function getSellTimestamp(address _address)\r\n        public\r\n        view\r\n        returns (string memory)\r\n    {\r\n        return asks[_address].timestamp;\r\n    }\r\n\r\n    // Shows the remaining locked value\r\n    // address of buyer\r\n    // uint being the amount of electricity (seller) or the\r\n    // amount of ether that has been locked for the trading period\r\n    function getRemainingValue(address _sender) public view returns (uint256) {\r\n        return remainingLockedValue[_sender];\r\n    }\r\n\r\n    //  Shows all matches of trading period\r\n    //  array containing all match-IDs\r\n    function getMatches() public view returns (uint256[] memory) {\r\n        return match_ids;\r\n    }\r\n\r\n    //  uint being the standardPrice in cent*100\r\n    function getUniformprice() public view returns (uint256) {\r\n        return standardPrice;\r\n    }\r\n\r\n    //  Function to check for bids and asks whether the auction should also be triggered\r\n    function getBoolean() public view returns (bool value) {\r\n        if (block.number >= lastTriggerBlock + trigger) {\r\n            return true;\r\n        }\r\n    }\r\n\r\n    //  Function to convert integer to string for timestamp\r\n    function uint2str(uint256 _i) internal pure returns (string memory str) {\r\n        if (_i == 0) {\r\n            return \"0\";\r\n        }\r\n        uint256 j = _i;\r\n        uint256 length;\r\n        while (j != 0) {\r\n            length++;\r\n            j /= 10;\r\n        }\r\n        bytes memory bstr = new bytes(length);\r\n        uint256 k = length;\r\n        j = _i;\r\n        while (j != 0) {\r\n            bstr[--k] = bytes1(uint8(48 + (j % 10)));\r\n            j /= 10;\r\n        }\r\n        str = string(bstr);\r\n    }\r\n\r\n    //Sorts buys from highest to lowest\r\n    function sort_array() private {\r\n        uint256 l = bid_ids.length;\r\n        for (uint256 i = 0; i < l; i++) {\r\n            for (uint256 j = i + 1; j < l; j++) {\r\n                if (getBuyPrice(bid_ids[i]) > getBuyPrice(bid_ids[j])) {\r\n                    address temp = bid_ids[i];\r\n                    bid_ids[i] = bid_ids[j];\r\n                    bid_ids[j] = temp;\r\n                }\r\n            }\r\n        }\r\n    }\r\n\r\n    function start_auction() public isTrigger {\r\n        //Triggering the sorting of bids and asks, as well as triggering the auction\r\n        lastTriggerBlock = block.number; //if the auction is triggered, then we save the current block\r\n        reset_before();\r\n\r\n        sort_array();\r\n        pricematch();\r\n\r\n        //rest_of_auction();\r\n        matchingTransactions();\r\n        reset_after();\r\n    }\r\n\r\n    //Pricematching\r\n    function pricematch() private {\r\n        for (uint256 i = 0; i < bid_ids.length; i++) {\r\n            //go through all bids\r\n            for (uint256 j = 0; j < ask_ids.length; j++) {\r\n                //go through all the asks\r\n                if (getSellAmount(ask_ids[j]) > 0) {\r\n                    if (getBuyPrice(bid_ids[i]) <= getSellPrice(ask_ids[j])) {\r\n                        //Offer price less than or equal to demand price\r\n                        if (\r\n                            getSellAmount(ask_ids[j]) <=\r\n                            getBuyAmount(bid_ids[i])\r\n                        ) {\r\n                            //Demand quantity less than or equal to supply quantity\r\n                            matchAmount = getSellAmount(ask_ids[j]); //then the demand quantity is the matched quantity\r\n                        } else {\r\n                            matchAmount = getBuyAmount(bid_ids[i]); //otherwise the demand will be partially filled with the remaining supply\r\n                        }\r\n                        if (matchAmount > 0) {\r\n                            //if matchamount> 0, a match is created\r\n                            Match storage _match = matches[match_id];\r\n                            _match.bidaddress = bid_ids[i];\r\n                            _match.askaddress = ask_ids[j];\r\n                            _match.amount = matchAmount;\r\n                            _match.timestamp = getBuyTimestamp(bid_ids[i]);\r\n                            asks[ask_ids[j]].amount =\r\n                                //Subtract matchAmount from Ask Amount\r\n                                getSellAmount(ask_ids[j]) -\r\n                                matchAmount;\r\n                            bids[bid_ids[i]].amount =\r\n                                //Subtract matchAmount from Bid Amount\r\n                                getBuyAmount(bid_ids[i]) -\r\n                                matchAmount;\r\n                            match_ids.push(match_id);\r\n                            match_id++;\r\n\r\n                            emit MatchMade(\r\n                                bid_ids[i],\r\n                                ask_ids[j],\r\n                                matchAmount,\r\n                                getBuyTimestamp(bid_ids[i]),\r\n                                tick\r\n                            );\r\n                        }\r\n                    }\r\n                }\r\n            }\r\n        }\r\n    }\r\n\r\n    //Transactions\r\n    function matchingTransactions() private {\r\n        for (uint256 z = 0; z < match_ids.length; z++) {\r\n            _credits.transfer(\r\n                matches[match_ids[z]].askaddress,\r\n                (matches[match_ids[z]].amount)\r\n            ); // Seller gets token from the contract (which we got from the buyer)\r\n            payable(matches[match_ids[z]].bidaddress).transfer(\r\n                matches[match_ids[z]].amount * getUniformprice() * (10**14)\r\n            ); //Buyer gets eth from the contract (which we got from the seller)\r\n            remainingLockedValue[matches[match_ids[z]].askaddress] =\r\n                remainingLockedValue[matches[match_ids[z]].askaddress] -\r\n                (matches[match_ids[z]].amount * getUniformprice() * (10**14)); //remainingLockedValue wird um Transaktionsvolumen reduziert\r\n            emit Transaction(\r\n                matches[match_ids[z]].askaddress,\r\n                matches[match_ids[z]].bidaddress,\r\n                \"Cent*100\",\r\n                matches[match_ids[z]].amount * getUniformprice(),\r\n                tick\r\n            );\r\n            remainingLockedValue[matches[match_ids[z]].bidaddress] =\r\n                remainingLockedValue[matches[match_ids[z]].bidaddress] -\r\n                (matches[match_ids[z]].amount); //remainingLockedValue wird um Transaktionsvolumen reduziert\r\n            emit Transaction(\r\n                matches[match_ids[z]].bidaddress,\r\n                matches[match_ids[z]].askaddress,\r\n                \"Token\",\r\n                matches[match_ids[z]].amount,\r\n                tick\r\n            );\r\n        }\r\n\r\n        //Refunds if the blocked amount is higher than the amount actually paid and the mappings & arrays are deleted\r\n        for (uint256 z = 0; z < match_ids.length; z++) {\r\n            if (remainingLockedValue[matches[match_ids[z]].askaddress] > 0) {\r\n                payable(matches[match_ids[z]].askaddress).transfer(\r\n                    remainingLockedValue[matches[match_ids[z]].askaddress]\r\n                );\r\n                emit Transaction(\r\n                    address(this),\r\n                    matches[match_ids[z]].askaddress,\r\n                    \"Repayment Wei\",\r\n                    remainingLockedValue[matches[match_ids[z]].askaddress],\r\n                    tick\r\n                );\r\n                remainingLockedValue[matches[match_ids[z]].askaddress] = 0;\r\n            }\r\n        }\r\n    }\r\n\r\n    function reset_after() private {\r\n        delete bid_ids;\r\n        delete ask_ids;\r\n        tick++;\r\n    }\r\n\r\n    function reset_before() private {\r\n        delete match_ids;\r\n        match_id = 0;\r\n        standardPrice = 0;\r\n    }\r\n}\r\n",
  "sourcePath": "C:\\Users\\batub\\Documents\\GitHub\\Energy-Credits\\contracts\\EC_Final.sol",
  "compiler": {
    "name": "solc",
    "version": "0.8.2+commit.661d1103.Emscripten.clang"
  },
  "schemaVersion": "3.4.2",
  "updatedAt": "2021-08-03T08:07:54.145Z",
  "devdoc": {
    "kind": "dev",
    "methods": {},
    "version": 1
  },
  "userdoc": {
    "kind": "user",
    "methods": {},
    "version": 1
  }
}