{
  "contractName": "EnergyMarket",
  "abi": [
    {
      "inputs": [],
      "stateMutability": "nonpayable",
      "type": "constructor"
    },
    {
      "anonymous": false,
      "inputs": [
        {
          "indexed": false,
          "internalType": "address",
          "name": "asker",
          "type": "address"
        },
        {
          "indexed": false,
          "internalType": "uint256",
          "name": "amount",
          "type": "uint256"
        },
        {
          "indexed": false,
          "internalType": "uint256",
          "name": "price",
          "type": "uint256"
        },
        {
          "indexed": false,
          "internalType": "string",
          "name": "timestamp",
          "type": "string"
        },
        {
          "indexed": false,
          "internalType": "uint256",
          "name": "tick",
          "type": "uint256"
        }
      ],
      "name": "AskPlaced",
      "type": "event"
    },
    {
      "anonymous": false,
      "inputs": [
        {
          "indexed": false,
          "internalType": "address",
          "name": "bidder",
          "type": "address"
        },
        {
          "indexed": false,
          "internalType": "uint256",
          "name": "amount",
          "type": "uint256"
        },
        {
          "indexed": false,
          "internalType": "uint256",
          "name": "price",
          "type": "uint256"
        },
        {
          "indexed": false,
          "internalType": "string",
          "name": "timestamp",
          "type": "string"
        },
        {
          "indexed": false,
          "internalType": "uint256",
          "name": "tick",
          "type": "uint256"
        }
      ],
      "name": "BidPlaced",
      "type": "event"
    },
    {
      "anonymous": false,
      "inputs": [
        {
          "indexed": false,
          "internalType": "address",
          "name": "oldtoken",
          "type": "address"
        },
        {
          "indexed": false,
          "internalType": "address",
          "name": "ckaddress",
          "type": "address"
        }
      ],
      "name": "ChangeofToken",
      "type": "event"
    },
    {
      "anonymous": false,
      "inputs": [
        {
          "indexed": false,
          "internalType": "address",
          "name": "asker",
          "type": "address"
        },
        {
          "indexed": false,
          "internalType": "address",
          "name": "bidder",
          "type": "address"
        },
        {
          "indexed": false,
          "internalType": "uint256",
          "name": "amount",
          "type": "uint256"
        },
        {
          "indexed": false,
          "internalType": "string",
          "name": "timestamp",
          "type": "string"
        },
        {
          "indexed": false,
          "internalType": "uint256",
          "name": "tick",
          "type": "uint256"
        }
      ],
      "name": "MatchMade",
      "type": "event"
    },
    {
      "anonymous": false,
      "inputs": [
        {
          "indexed": true,
          "internalType": "address",
          "name": "previousOwner",
          "type": "address"
        },
        {
          "indexed": true,
          "internalType": "address",
          "name": "newOwner",
          "type": "address"
        }
      ],
      "name": "OwnershipTransferred",
      "type": "event"
    },
    {
      "anonymous": false,
      "inputs": [
        {
          "indexed": false,
          "internalType": "address",
          "name": "from",
          "type": "address"
        },
        {
          "indexed": false,
          "internalType": "address",
          "name": "to",
          "type": "address"
        },
        {
          "indexed": false,
          "internalType": "string",
          "name": "what",
          "type": "string"
        },
        {
          "indexed": false,
          "internalType": "uint256",
          "name": "amount",
          "type": "uint256"
        },
        {
          "indexed": false,
          "internalType": "uint256",
          "name": "tick",
          "type": "uint256"
        }
      ],
      "name": "Transaction",
      "type": "event"
    },
    {
      "anonymous": false,
      "inputs": [
        {
          "indexed": false,
          "internalType": "uint256",
          "name": "uniformprice",
          "type": "uint256"
        },
        {
          "indexed": false,
          "internalType": "string",
          "name": "timestamp",
          "type": "string"
        },
        {
          "indexed": false,
          "internalType": "uint256",
          "name": "tick",
          "type": "uint256"
        }
      ],
      "name": "UniformPrice",
      "type": "event"
    },
    {
      "anonymous": false,
      "inputs": [
        {
          "indexed": false,
          "internalType": "uint256",
          "name": "oldprice",
          "type": "uint256"
        },
        {
          "indexed": false,
          "internalType": "uint256",
          "name": "newprice",
          "type": "uint256"
        },
        {
          "indexed": false,
          "internalType": "string",
          "name": "which",
          "type": "string"
        }
      ],
      "name": "UpdatePrice",
      "type": "event"
    },
    {
      "inputs": [
        {
          "internalType": "uint256",
          "name": "",
          "type": "uint256"
        }
      ],
      "name": "ask_ids",
      "outputs": [
        {
          "internalType": "address",
          "name": "",
          "type": "address"
        }
      ],
      "stateMutability": "view",
      "type": "function"
    },
    {
      "inputs": [
        {
          "internalType": "uint256",
          "name": "",
          "type": "uint256"
        }
      ],
      "name": "bid_ids",
      "outputs": [
        {
          "internalType": "address",
          "name": "",
          "type": "address"
        }
      ],
      "stateMutability": "view",
      "type": "function"
    },
    {
      "inputs": [],
      "name": "isOwner",
      "outputs": [
        {
          "internalType": "bool",
          "name": "",
          "type": "bool"
        }
      ],
      "stateMutability": "view",
      "type": "function"
    },
    {
      "inputs": [
        {
          "internalType": "uint256",
          "name": "",
          "type": "uint256"
        }
      ],
      "name": "match_ids",
      "outputs": [
        {
          "internalType": "uint256",
          "name": "",
          "type": "uint256"
        }
      ],
      "stateMutability": "view",
      "type": "function"
    },
    {
      "inputs": [],
      "name": "owner",
      "outputs": [
        {
          "internalType": "address",
          "name": "",
          "type": "address"
        }
      ],
      "stateMutability": "view",
      "type": "function"
    },
    {
      "inputs": [],
      "name": "renounceOwnership",
      "outputs": [],
      "stateMutability": "nonpayable",
      "type": "function"
    },
    {
      "inputs": [
        {
          "internalType": "address",
          "name": "newOwner",
          "type": "address"
        }
      ],
      "name": "transferOwnership",
      "outputs": [],
      "stateMutability": "nonpayable",
      "type": "function"
    },
    {
      "inputs": [],
      "name": "sendEther",
      "outputs": [
        {
          "internalType": "bool",
          "name": "success",
          "type": "bool"
        }
      ],
      "stateMutability": "payable",
      "type": "function"
    },
    {
      "inputs": [
        {
          "internalType": "uint256",
          "name": "_amount",
          "type": "uint256"
        },
        {
          "internalType": "uint256",
          "name": "_price",
          "type": "uint256"
        }
      ],
      "name": "addAsk",
      "outputs": [],
      "stateMutability": "nonpayable",
      "type": "function"
    },
    {
      "inputs": [
        {
          "internalType": "uint256",
          "name": "_amount",
          "type": "uint256"
        },
        {
          "internalType": "uint256",
          "name": "_price",
          "type": "uint256"
        }
      ],
      "name": "addBid",
      "outputs": [],
      "stateMutability": "payable",
      "type": "function"
    },
    {
      "inputs": [
        {
          "internalType": "address",
          "name": "_token",
          "type": "address"
        }
      ],
      "name": "changeTokenAddress",
      "outputs": [
        {
          "internalType": "bool",
          "name": "",
          "type": "bool"
        }
      ],
      "stateMutability": "nonpayable",
      "type": "function"
    },
    {
      "inputs": [],
      "name": "getAllBids",
      "outputs": [
        {
          "internalType": "address[]",
          "name": "",
          "type": "address[]"
        }
      ],
      "stateMutability": "view",
      "type": "function"
    },
    {
      "inputs": [
        {
          "internalType": "address",
          "name": "_address",
          "type": "address"
        }
      ],
      "name": "getBidPrice",
      "outputs": [
        {
          "internalType": "uint256",
          "name": "",
          "type": "uint256"
        }
      ],
      "stateMutability": "view",
      "type": "function"
    },
    {
      "inputs": [
        {
          "internalType": "address",
          "name": "_address",
          "type": "address"
        }
      ],
      "name": "getBidAmount",
      "outputs": [
        {
          "internalType": "uint256",
          "name": "",
          "type": "uint256"
        }
      ],
      "stateMutability": "view",
      "type": "function"
    },
    {
      "inputs": [
        {
          "internalType": "address",
          "name": "_address",
          "type": "address"
        }
      ],
      "name": "getBidTimestamp",
      "outputs": [
        {
          "internalType": "string",
          "name": "",
          "type": "string"
        }
      ],
      "stateMutability": "view",
      "type": "function"
    },
    {
      "inputs": [],
      "name": "getAllAsks",
      "outputs": [
        {
          "internalType": "address[]",
          "name": "",
          "type": "address[]"
        }
      ],
      "stateMutability": "view",
      "type": "function"
    },
    {
      "inputs": [
        {
          "internalType": "address",
          "name": "_address",
          "type": "address"
        }
      ],
      "name": "getAskPrice",
      "outputs": [
        {
          "internalType": "uint256",
          "name": "",
          "type": "uint256"
        }
      ],
      "stateMutability": "view",
      "type": "function"
    },
    {
      "inputs": [
        {
          "internalType": "address",
          "name": "_address",
          "type": "address"
        }
      ],
      "name": "getAskAmount",
      "outputs": [
        {
          "internalType": "uint256",
          "name": "",
          "type": "uint256"
        }
      ],
      "stateMutability": "view",
      "type": "function"
    },
    {
      "inputs": [
        {
          "internalType": "address",
          "name": "_address",
          "type": "address"
        }
      ],
      "name": "getAskTimestamp",
      "outputs": [
        {
          "internalType": "string",
          "name": "",
          "type": "string"
        }
      ],
      "stateMutability": "view",
      "type": "function"
    },
    {
      "inputs": [
        {
          "internalType": "address",
          "name": "_sender",
          "type": "address"
        }
      ],
      "name": "getremainingvalue",
      "outputs": [
        {
          "internalType": "uint256",
          "name": "",
          "type": "uint256"
        }
      ],
      "stateMutability": "view",
      "type": "function"
    },
    {
      "inputs": [],
      "name": "getfallbackPriceHigh",
      "outputs": [
        {
          "internalType": "uint256",
          "name": "",
          "type": "uint256"
        }
      ],
      "stateMutability": "view",
      "type": "function"
    },
    {
      "inputs": [],
      "name": "getfallbackPriceLow",
      "outputs": [
        {
          "internalType": "uint256",
          "name": "",
          "type": "uint256"
        }
      ],
      "stateMutability": "view",
      "type": "function"
    },
    {
      "inputs": [],
      "name": "getMatches",
      "outputs": [
        {
          "internalType": "uint256[]",
          "name": "",
          "type": "uint256[]"
        }
      ],
      "stateMutability": "view",
      "type": "function"
    },
    {
      "inputs": [],
      "name": "getUniformprice",
      "outputs": [
        {
          "internalType": "uint256",
          "name": "",
          "type": "uint256"
        }
      ],
      "stateMutability": "view",
      "type": "function"
    },
    {
      "inputs": [],
      "name": "getBoolean",
      "outputs": [
        {
          "internalType": "bool",
          "name": "",
          "type": "bool"
        }
      ],
      "stateMutability": "view",
      "type": "function"
    },
    {
      "inputs": [
        {
          "internalType": "uint256",
          "name": "_fallbackpricehigh",
          "type": "uint256"
        }
      ],
      "name": "updateFallbackPriceHigh",
      "outputs": [
        {
          "internalType": "bool",
          "name": "",
          "type": "bool"
        }
      ],
      "stateMutability": "nonpayable",
      "type": "function"
    },
    {
      "inputs": [
        {
          "internalType": "uint256",
          "name": "_fallbackpricelow",
          "type": "uint256"
        }
      ],
      "name": "updateFallbackPriceLow",
      "outputs": [
        {
          "internalType": "bool",
          "name": "",
          "type": "bool"
        }
      ],
      "stateMutability": "nonpayable",
      "type": "function"
    },
    {
      "inputs": [
        {
          "internalType": "uint256",
          "name": "t",
          "type": "uint256"
        }
      ],
      "name": "setTrigger",
      "outputs": [
        {
          "internalType": "bool",
          "name": "",
          "type": "bool"
        }
      ],
      "stateMutability": "nonpayable",
      "type": "function"
    },
    {
      "inputs": [],
      "name": "try_to_auction",
      "outputs": [],
      "stateMutability": "nonpayable",
      "type": "function"
    }
  ],
  "bytecode": "0x608060405261093f6001556104b060025560006003556000600455600060055560006006556000600760006101000a81548160ff021916908360ff1602179055506000600760016101000a81548160ff021916908360ff1602179055504360085560006009556000600a556000600b60006101000a81548173ffffffffffffffffffffffffffffffffffffffff021916908373ffffffffffffffffffffffffffffffffffffffff160217905550600b60009054906101000a900473ffffffffffffffffffffffffffffffffffffffff16601360006101000a81548173ffffffffffffffffffffffffffffffffffffffff021916908373ffffffffffffffffffffffffffffffffffffffff16021790555034801561011b57600080fd5b50336000806101000a81548173ffffffffffffffffffffffffffffffffffffffff021916908373ffffffffffffffffffffffffffffffffffffffff16021790555060008054906101000a900473ffffffffffffffffffffffffffffffffffffffff1673ffffffffffffffffffffffffffffffffffffffff16600073ffffffffffffffffffffffffffffffffffffffff167f8be0079c531659141344cd1fd0a4f28419497f9722a3daafe3b4186f6b6457e060405160405180910390a3614b0d806101e66000396000f3fe6080604052600436106101c25760003560e01c80636e1ebfdb116100f75780638d0f6da311610095578063c9cda91f11610064578063c9cda91f1461068c578063e73341d7146106c9578063f2fde38b146106f4578063fea487891461071d576101c2565b80638d0f6da3146105ce5780638da5cb5b146105f95780638f32d59b14610624578063b3cd48441461064f576101c2565b8063715018a6116100d1578063715018a614610526578063874343191461053d57806388d4e8f61461057a5780638b9b55e6146105a5576101c2565b80636e1ebfdb146104955780636e32b291146104d25780636ec2f4731461050f576101c2565b8063215b8af6116101645780632d1be94d1161013e5780632d1be94d146103d75780632d279cb81461040257806334033eb61461042d5780633d01b7981461046a576101c2565b8063215b8af61461035357806321b23f04146103905780632c70120e146103ac576101c2565b806313b9b598116101a057806313b9b5981461025f5780631db45a421461029c5780631e3de8d2146102d95780631f35671714610316576101c2565b806302016b24146101c757806304c9fd4f146102045780630e29df2214610241575b600080fd5b3480156101d357600080fd5b506101ee60048036038101906101e99190614126565b61075a565b6040516101fb91906143b0565b60405180910390f35b34801561021057600080fd5b5061022b60048036038101906102269190614126565b610799565b604051610238919061454c565b60405180910390f35b6102496107ff565b604051610256919061454c565b60405180910390f35b34801561026b57600080fd5b50610286600480360381019061028191906140d4565b610808565b60405161029391906145c9565b60405180910390f35b3480156102a857600080fd5b506102c360048036038101906102be91906140d4565b610854565b6040516102d09190614567565b60405180910390f35b3480156102e557600080fd5b5061030060048036038101906102fb91906140d4565b610928565b60405161030d91906145c9565b60405180910390f35b34801561032257600080fd5b5061033d600480360381019061033891906140d4565b610974565b60405161034a91906145c9565b60405180910390f35b34801561035f57600080fd5b5061037a60048036038101906103759190614126565b6109c0565b604051610387919061454c565b60405180910390f35b6103aa60048036038101906103a59190614178565b610a26565b005b3480156103b857600080fd5b506103c16110bf565b6040516103ce919061452a565b60405180910390f35b3480156103e357600080fd5b506103ec611117565b6040516103f9919061454c565b60405180910390f35b34801561040e57600080fd5b5061041761113c565b60405161042491906145c9565b60405180910390f35b34801561043957600080fd5b50610454600480360381019061044f9190614126565b611146565b60405161046191906143b0565b60405180910390f35b34801561047657600080fd5b5061047f611185565b60405161048c91906145c9565b60405180910390f35b3480156104a157600080fd5b506104bc60048036038101906104b79190614126565b61118f565b6040516104c991906145c9565b60405180910390f35b3480156104de57600080fd5b506104f960048036038101906104f491906140d4565b6111b3565b60405161050691906145c9565b60405180910390f35b34801561051b57600080fd5b506105246111fc565b005b34801561053257600080fd5b5061053b61128b565b005b34801561054957600080fd5b50610564600480360381019061055f91906140d4565b61135a565b6040516105719190614567565b60405180910390f35b34801561058657600080fd5b5061058f61142e565b60405161059c9190614508565b60405180910390f35b3480156105b157600080fd5b506105cc60048036038101906105c79190614178565b6114bc565b005b3480156105da57600080fd5b506105e3611d32565b6040516105f09190614508565b60405180910390f35b34801561060557600080fd5b5061060e611dc0565b60405161061b91906143b0565b60405180910390f35b34801561063057600080fd5b50610639611de9565b604051610646919061454c565b60405180910390f35b34801561065b57600080fd5b50610676600480360381019061067191906140d4565b611e40565b60405161068391906145c9565b60405180910390f35b34801561069857600080fd5b506106b360048036038101906106ae91906140d4565b611e8c565b6040516106c0919061454c565b60405180910390f35b3480156106d557600080fd5b506106de611f6c565b6040516106eb91906145c9565b60405180910390f35b34801561070057600080fd5b5061071b600480360381019061071691906140d4565b611f76565b005b34801561072957600080fd5b50610744600480360381019061073f9190614126565b611f93565b604051610751919061454c565b60405180910390f35b600f818154811061076a57600080fd5b906000526020600020016000915054906101000a900473ffffffffffffffffffffffffffffffffffffffff1681565b60006107a3611de9565b6107ac57600080fd5b60006002549050826002819055507f7d8462783e03c4379a0577e1a3f30961c05eb0d51ce363b6c13e0e1e828c5ff2816002546040516107ed929190614620565b60405180910390a16001915050919050565b60006001905090565b6000600e60008373ffffffffffffffffffffffffffffffffffffffff1673ffffffffffffffffffffffffffffffffffffffff168152602001908152602001600020600101549050919050565b6060600c60008373ffffffffffffffffffffffffffffffffffffffff1673ffffffffffffffffffffffffffffffffffffffff16815260200190815260200160002060030180546108a3906148a4565b80601f01602080910402602001604051908101604052809291908181526020018280546108cf906148a4565b801561091c5780601f106108f15761010080835404028352916020019161091c565b820191906000526020600020905b8154815290600101906020018083116108ff57829003601f168201915b50505050509050919050565b6000600e60008373ffffffffffffffffffffffffffffffffffffffff1673ffffffffffffffffffffffffffffffffffffffff168152602001908152602001600020600201549050919050565b6000600c60008373ffffffffffffffffffffffffffffffffffffffff1673ffffffffffffffffffffffffffffffffffffffff168152602001908152602001600020600201549050919050565b60006109ca611de9565b6109d357600080fd5b60006001549050826001819055507f7d8462783e03c4379a0577e1a3f30961c05eb0d51ce363b6c13e0e1e828c5ff281600154604051610a149291906145e4565b60405180910390a16001915050919050565b8181806001541115610aac57655af3107a400082600154610a479190614771565b610a519190614771565b601260003373ffffffffffffffffffffffffffffffffffffffff1673ffffffffffffffffffffffffffffffffffffffff1681526020019081526020016000205434610a9c91906146ea565b1015610aa757600080fd5b610b20565b655af3107a40008282610abf9190614771565b610ac99190614771565b601260003373ffffffffffffffffffffffffffffffffffffffff1673ffffffffffffffffffffffffffffffffffffffff1681526020019081526020016000205434610b1491906146ea565b1015610b1f57600080fd5b5b6000610b2b42611fb6565b90506000600c60003373ffffffffffffffffffffffffffffffffffffffff1673ffffffffffffffffffffffffffffffffffffffff1681526020019081526020016000206001015414610b7c57600080fd5b6000600e60003373ffffffffffffffffffffffffffffffffffffffff1673ffffffffffffffffffffffffffffffffffffffff168152602001908152602001600020600101541415610d25576000600e60003373ffffffffffffffffffffffffffffffffffffffff1673ffffffffffffffffffffffffffffffffffffffff1681526020019081526020016000209050338160000160006101000a81548173ffffffffffffffffffffffffffffffffffffffff021916908373ffffffffffffffffffffffffffffffffffffffff16021790555085816001018190555084816002018190555081816003019080519060200190610c77929190613f0e565b50600f339080600181540180825580915050600190039060005260206000200160009091909190916101000a81548173ffffffffffffffffffffffffffffffffffffffff021916908373ffffffffffffffffffffffffffffffffffffffff16021790555034601260003373ffffffffffffffffffffffffffffffffffffffff1673ffffffffffffffffffffffffffffffffffffffff1681526020019081526020016000208190555050611077565b6000600e60003373ffffffffffffffffffffffffffffffffffffffff1673ffffffffffffffffffffffffffffffffffffffff168152602001908152602001600020905085816001018190555084816002018190555081816003019080519060200190610d92929190613f0e565b5080600e60003373ffffffffffffffffffffffffffffffffffffffff1673ffffffffffffffffffffffffffffffffffffffff1681526020019081526020016000206000820160009054906101000a900473ffffffffffffffffffffffffffffffffffffffff168160000160006101000a81548173ffffffffffffffffffffffffffffffffffffffff021916908373ffffffffffffffffffffffffffffffffffffffff16021790555060018201548160010155600282015481600201556003820181600301908054610e62906148a4565b610e6d929190613f94565b50905050601260003373ffffffffffffffffffffffffffffffffffffffff1673ffffffffffffffffffffffffffffffffffffffff1681526020019081526020016000205486655af3107a400087610ec49190614771565b610ece9190614771565b1015610fe6573373ffffffffffffffffffffffffffffffffffffffff166108fc87655af3107a400088610f019190614771565b610f0b9190614771565b601260003373ffffffffffffffffffffffffffffffffffffffff1673ffffffffffffffffffffffffffffffffffffffff16815260200190815260200160002054610f5591906147cb565b9081150290604051600060405180830381858888f19350505050158015610f80573d6000803e3d6000fd5b5085655af3107a400086610f949190614771565b610f9e9190614771565b601260003373ffffffffffffffffffffffffffffffffffffffff1673ffffffffffffffffffffffffffffffffffffffff16815260200190815260200160002081905550611075565b34601260003373ffffffffffffffffffffffffffffffffffffffff1673ffffffffffffffffffffffffffffffffffffffff1681526020019081526020016000205461103191906146ea565b601260003373ffffffffffffffffffffffffffffffffffffffff1673ffffffffffffffffffffffffffffffffffffffff168152602001908152602001600020819055505b505b7f09917a68336a99192d8c02947db77f80f66a2983652444e115534c65c8543e42338686846006546040516110b09594939291906144ae565b60405180910390a15050505050565b6060601180548060200260200160405190810160405280929190818152602001828054801561110d57602002820191906000526020600020905b8154815260200190600101908083116110f9575b5050505050905090565b6000600a5460085461112991906146ea565b43106111385760019050611139565b5b90565b6000600254905090565b600d818154811061115657600080fd5b906000526020600020016000915054906101000a900473ffffffffffffffffffffffffffffffffffffffff1681565b6000600454905090565b6011818154811061119f57600080fd5b906000526020600020016000915090505481565b6000601260008373ffffffffffffffffffffffffffffffffffffffff1673ffffffffffffffffffffffffffffffffffffffff168152602001908152602001600020549050919050565b600a5460085461120c91906146ea565b43101561121857600080fd5b43600881905550611227612169565b600760009054906101000a900460ff1660ff16600760019054906101000a900460ff1660ff1611156112685761125b612189565b611263612498565b611279565b611270612189565b611278612498565b5b611281612e09565b611289613dc5565b565b611293611de9565b61129c57600080fd5b600073ffffffffffffffffffffffffffffffffffffffff1660008054906101000a900473ffffffffffffffffffffffffffffffffffffffff1673ffffffffffffffffffffffffffffffffffffffff167f8be0079c531659141344cd1fd0a4f28419497f9722a3daafe3b4186f6b6457e060405160405180910390a360008060006101000a81548173ffffffffffffffffffffffffffffffffffffffff021916908373ffffffffffffffffffffffffffffffffffffffff160217905550565b6060600e60008373ffffffffffffffffffffffffffffffffffffffff1673ffffffffffffffffffffffffffffffffffffffff16815260200190815260200160002060030180546113a9906148a4565b80601f01602080910402602001604051908101604052809291908181526020018280546113d5906148a4565b80156114225780601f106113f757610100808354040283529160200191611422565b820191906000526020600020905b81548152906001019060200180831161140557829003601f168201915b50505050509050919050565b6060600d8054806020026020016040519081016040528092919081815260200182805480156114b257602002820191906000526020600020905b8160009054906101000a900473ffffffffffffffffffffffffffffffffffffffff1673ffffffffffffffffffffffffffffffffffffffff1681526020019060010190808311611468575b5050505050905090565b8180601260003373ffffffffffffffffffffffffffffffffffffffff1673ffffffffffffffffffffffffffffffffffffffff16815260200190815260200160002054601360009054906101000a900473ffffffffffffffffffffffffffffffffffffffff1673ffffffffffffffffffffffffffffffffffffffff1663dd62ed3e33306040518363ffffffff1660e01b815260040161155b9291906143cb565b602060405180830381600087803b15801561157557600080fd5b505af1158015611589573d6000803e3d6000fd5b505050506040513d601f19601f820116820180604052508101906115ad919061414f565b6115b791906146ea565b10156115c257600080fd5b60006115cd42611fb6565b90506000600e60003373ffffffffffffffffffffffffffffffffffffffff1673ffffffffffffffffffffffffffffffffffffffff1681526020019081526020016000206001015414611654576040517f08c379a000000000000000000000000000000000000000000000000000000000815260040161164b90614589565b60405180910390fd5b60008411611697576040517f08c379a000000000000000000000000000000000000000000000000000000000815260040161168e906145a9565b60405180910390fd5b6000600c60003373ffffffffffffffffffffffffffffffffffffffff1673ffffffffffffffffffffffffffffffffffffffff168152602001908152602001600020600101541415611916576000600c60003373ffffffffffffffffffffffffffffffffffffffff1673ffffffffffffffffffffffffffffffffffffffff1681526020019081526020016000209050338160000160006101000a81548173ffffffffffffffffffffffffffffffffffffffff021916908373ffffffffffffffffffffffffffffffffffffffff16021790555084816001018190555083816002018190555081816003019080519060200190611792929190613f0e565b50600d339080600181540180825580915050600190039060005260206000200160009091909190916101000a81548173ffffffffffffffffffffffffffffffffffffffff021916908373ffffffffffffffffffffffffffffffffffffffff16021790555084601260008360000160009054906101000a900473ffffffffffffffffffffffffffffffffffffffff1673ffffffffffffffffffffffffffffffffffffffff1673ffffffffffffffffffffffffffffffffffffffff16815260200190815260200160002081905550601360009054906101000a900473ffffffffffffffffffffffffffffffffffffffff1673ffffffffffffffffffffffffffffffffffffffff166323b872dd3330886040518463ffffffff1660e01b81526004016118bd939291906143f4565b602060405180830381600087803b1580156118d757600080fd5b505af11580156118eb573d6000803e3d6000fd5b505050506040513d601f19601f8201168201806040525081019061190f91906140fd565b5050611ceb565b6000600c60003373ffffffffffffffffffffffffffffffffffffffff1673ffffffffffffffffffffffffffffffffffffffff168152602001908152602001600020905084816001018190555083816002018190555081816003019080519060200190611983929190613f0e565b5080600c60003373ffffffffffffffffffffffffffffffffffffffff1673ffffffffffffffffffffffffffffffffffffffff1681526020019081526020016000206000820160009054906101000a900473ffffffffffffffffffffffffffffffffffffffff168160000160006101000a81548173ffffffffffffffffffffffffffffffffffffffff021916908373ffffffffffffffffffffffffffffffffffffffff16021790555060018201548160010155600282015481600201556003820181600301908054611a53906148a4565b611a5e929190613f94565b50905050601260003373ffffffffffffffffffffffffffffffffffffffff1673ffffffffffffffffffffffffffffffffffffffff16815260200190815260200160002054851115611baa57601360009054906101000a900473ffffffffffffffffffffffffffffffffffffffff1673ffffffffffffffffffffffffffffffffffffffff166323b872dd3330601260003373ffffffffffffffffffffffffffffffffffffffff1673ffffffffffffffffffffffffffffffffffffffff1681526020019081526020016000205489611b3491906147cb565b6040518463ffffffff1660e01b8152600401611b52939291906143f4565b602060405180830381600087803b158015611b6c57600080fd5b505af1158015611b80573d6000803e3d6000fd5b505050506040513d601f19601f82011682018060405250810190611ba491906140fd565b50611ca5565b601360009054906101000a900473ffffffffffffffffffffffffffffffffffffffff1673ffffffffffffffffffffffffffffffffffffffff1663a9059cbb3387601260003373ffffffffffffffffffffffffffffffffffffffff1673ffffffffffffffffffffffffffffffffffffffff16815260200190815260200160002054611c3491906147cb565b6040518363ffffffff1660e01b8152600401611c51929190614485565b602060405180830381600087803b158015611c6b57600080fd5b505af1158015611c7f573d6000803e3d6000fd5b505050506040513d601f19601f82011682018060405250810190611ca391906140fd565b505b84601260003373ffffffffffffffffffffffffffffffffffffffff1673ffffffffffffffffffffffffffffffffffffffff16815260200190815260200160002081905550505b7ff547d0a23c3d08128485e3178bd6f9dd1d0324581148aecfede2a6474c19dda333858584600654604051611d249594939291906144ae565b60405180910390a150505050565b6060600f805480602002602001604051908101604052809291908181526020018280548015611db657602002820191906000526020600020905b8160009054906101000a900473ffffffffffffffffffffffffffffffffffffffff1673ffffffffffffffffffffffffffffffffffffffff1681526020019060010190808311611d6c575b5050505050905090565b60008060009054906101000a900473ffffffffffffffffffffffffffffffffffffffff16905090565b60008060009054906101000a900473ffffffffffffffffffffffffffffffffffffffff1673ffffffffffffffffffffffffffffffffffffffff163373ffffffffffffffffffffffffffffffffffffffff1614905090565b6000600c60008373ffffffffffffffffffffffffffffffffffffffff1673ffffffffffffffffffffffffffffffffffffffff168152602001908152602001600020600101549050919050565b6000611e96611de9565b611e9f57600080fd5b6000600b60009054906101000a900473ffffffffffffffffffffffffffffffffffffffff16905082600b60006101000a81548173ffffffffffffffffffffffffffffffffffffffff021916908373ffffffffffffffffffffffffffffffffffffffff1602179055507f57f279b06411d4cedcd2561e2ee5d60ef13a90ce7f97b138abac8d7b5e3249ce81600b60009054906101000a900473ffffffffffffffffffffffffffffffffffffffff16604051611f5a9291906143cb565b60405180910390a16001915050919050565b6000600154905090565b611f7e611de9565b611f8757600080fd5b611f9081613e17565b50565b6000611f9d611de9565b611fa657600080fd5b81600a8190555060019050919050565b60606000821415611ffe576040518060400160405280600181526020017f30000000000000000000000000000000000000000000000000000000000000008152509050612164565b600082905060005b60008214612030578080612019906148d6565b915050600a826120299190614740565b9150612006565b60008167ffffffffffffffff811115612072577f4e487b7100000000000000000000000000000000000000000000000000000000600052604160045260246000fd5b6040519080825280601f01601f1916602001820160405280156120a45781602001600182028036833780820191505090505b50905060008290508593505b6000841461215c57600a846120c5919061491f565b60306120d191906146ea565b60f81b82826120df9061487a565b92508281518110612119577f4e487b7100000000000000000000000000000000000000000000000000000000600052603260045260246000fd5b60200101907effffffffffffffffffffffffffffffffffffffffffffffffffffffffffffff1916908160001a905350600a846121559190614740565b93506120b0565b819450505050505b919050565b601160006121779190614021565b60006003819055506000600481905550565b6000600f80549050905060005b818110156124945760006001826121ad91906146ea565b90505b8281101561248057612225600f82815481106121f5577f4e487b7100000000000000000000000000000000000000000000000000000000600052603260045260246000fd5b9060005260206000200160009054906101000a900473ffffffffffffffffffffffffffffffffffffffff16610928565b612292600f8481548110612262577f4e487b7100000000000000000000000000000000000000000000000000000000600052603260045260246000fd5b9060005260206000200160009054906101000a900473ffffffffffffffffffffffffffffffffffffffff16610928565b111561246d576000600f83815481106122d4577f4e487b7100000000000000000000000000000000000000000000000000000000600052603260045260246000fd5b9060005260206000200160009054906101000a900473ffffffffffffffffffffffffffffffffffffffff169050600f828154811061233b577f4e487b7100000000000000000000000000000000000000000000000000000000600052603260045260246000fd5b9060005260206000200160009054906101000a900473ffffffffffffffffffffffffffffffffffffffff16600f84815481106123a0577f4e487b7100000000000000000000000000000000000000000000000000000000600052603260045260246000fd5b9060005260206000200160006101000a81548173ffffffffffffffffffffffffffffffffffffffff021916908373ffffffffffffffffffffffffffffffffffffffff16021790555080600f8381548110612423577f4e487b7100000000000000000000000000000000000000000000000000000000600052603260045260246000fd5b9060005260206000200160006101000a81548173ffffffffffffffffffffffffffffffffffffffff021916908373ffffffffffffffffffffffffffffffffffffffff160217905550505b8080612478906148d6565b9150506121b0565b50808061248c906148d6565b915050612196565b5050565b60005b600f80549050811015612e065760005b600d80549050811015612df2576000612527600d83815481106124f7577f4e487b7100000000000000000000000000000000000000000000000000000000600052603260045260246000fd5b9060005260206000200160009054906101000a900473ffffffffffffffffffffffffffffffffffffffff16611e40565b1115612ddf5761259a600d828154811061256a577f4e487b7100000000000000000000000000000000000000000000000000000000600052603260045260246000fd5b9060005260206000200160009054906101000a900473ffffffffffffffffffffffffffffffffffffffff16610974565b612607600f84815481106125d7577f4e487b7100000000000000000000000000000000000000000000000000000000600052603260045260246000fd5b9060005260206000200160009054906101000a900473ffffffffffffffffffffffffffffffffffffffff16610928565b11612dde57612679600f8381548110612649577f4e487b7100000000000000000000000000000000000000000000000000000000600052603260045260246000fd5b9060005260206000200160009054906101000a900473ffffffffffffffffffffffffffffffffffffffff16610808565b6126e6600d83815481106126b6577f4e487b7100000000000000000000000000000000000000000000000000000000600052603260045260246000fd5b9060005260206000200160009054906101000a900473ffffffffffffffffffffffffffffffffffffffff16611e40565b1161276357612758600d8281548110612728577f4e487b7100000000000000000000000000000000000000000000000000000000600052603260045260246000fd5b9060005260206000200160009054906101000a900473ffffffffffffffffffffffffffffffffffffffff16611e40565b6009819055506127d7565b6127d0600f83815481106127a0577f4e487b7100000000000000000000000000000000000000000000000000000000600052603260045260246000fd5b9060005260206000200160009054906101000a900473ffffffffffffffffffffffffffffffffffffffff16610808565b6009819055505b60006009541115612ddd5760006010600060035481526020019081526020016000209050600f8381548110612835577f4e487b7100000000000000000000000000000000000000000000000000000000600052603260045260246000fd5b9060005260206000200160009054906101000a900473ffffffffffffffffffffffffffffffffffffffff168160010160006101000a81548173ffffffffffffffffffffffffffffffffffffffff021916908373ffffffffffffffffffffffffffffffffffffffff160217905550600d82815481106128dc577f4e487b7100000000000000000000000000000000000000000000000000000000600052603260045260246000fd5b9060005260206000200160009054906101000a900473ffffffffffffffffffffffffffffffffffffffff168160000160006101000a81548173ffffffffffffffffffffffffffffffffffffffff021916908373ffffffffffffffffffffffffffffffffffffffff16021790555060095481600201819055506129c1600f8481548110612991577f4e487b7100000000000000000000000000000000000000000000000000000000600052603260045260246000fd5b9060005260206000200160009054906101000a900473ffffffffffffffffffffffffffffffffffffffff1661135a565b8160030190805190602001906129d8929190613f0e565b50600954612a49600d8481548110612a19577f4e487b7100000000000000000000000000000000000000000000000000000000600052603260045260246000fd5b9060005260206000200160009054906101000a900473ffffffffffffffffffffffffffffffffffffffff16611e40565b612a5391906147cb565b600c6000600d8581548110612a91577f4e487b7100000000000000000000000000000000000000000000000000000000600052603260045260246000fd5b9060005260206000200160009054906101000a900473ffffffffffffffffffffffffffffffffffffffff1673ffffffffffffffffffffffffffffffffffffffff1673ffffffffffffffffffffffffffffffffffffffff16815260200190815260200160002060010181905550600954612b6d600f8581548110612b3d577f4e487b7100000000000000000000000000000000000000000000000000000000600052603260045260246000fd5b9060005260206000200160009054906101000a900473ffffffffffffffffffffffffffffffffffffffff16610808565b612b7791906147cb565b600e6000600f8681548110612bb5577f4e487b7100000000000000000000000000000000000000000000000000000000600052603260045260246000fd5b9060005260206000200160009054906101000a900473ffffffffffffffffffffffffffffffffffffffff1673ffffffffffffffffffffffffffffffffffffffff1673ffffffffffffffffffffffffffffffffffffffff168152602001908152602001600020600101819055506011600354908060018154018082558091505060019003906000526020600020016000909190919091505560036000815480929190612c5f906148d6565b91905055507fe3f5bacc77772aaf6927c3eb6e081dc61c95f4db128e4f8d14c4951b159bda47600f8481548110612cbf577f4e487b7100000000000000000000000000000000000000000000000000000000600052603260045260246000fd5b9060005260206000200160009054906101000a900473ffffffffffffffffffffffffffffffffffffffff16600d8481548110612d24577f4e487b7100000000000000000000000000000000000000000000000000000000600052603260045260246000fd5b9060005260206000200160009054906101000a900473ffffffffffffffffffffffffffffffffffffffff16600954612dbf600f8881548110612d8f577f4e487b7100000000000000000000000000000000000000000000000000000000600052603260045260246000fd5b9060005260206000200160009054906101000a900473ffffffffffffffffffffffffffffffffffffffff1661135a565b600654604051612dd395949392919061442b565b60405180910390a1505b5b5b8080612dea906148d6565b9150506124ab565b508080612dfe906148d6565b91505061249b565b50565b60005b600f805490508110156135e5576000612e88600f8381548110612e58577f4e487b7100000000000000000000000000000000000000000000000000000000600052603260045260246000fd5b9060005260206000200160009054906101000a900473ffffffffffffffffffffffffffffffffffffffff16610808565b11156135d257612efb600f8281548110612ecb577f4e487b7100000000000000000000000000000000000000000000000000000000600052603260045260246000fd5b9060005260206000200160009054906101000a900473ffffffffffffffffffffffffffffffffffffffff16610808565b600981905550600060106000600354815260200190815260200160002090506000600c60003073ffffffffffffffffffffffffffffffffffffffff1673ffffffffffffffffffffffffffffffffffffffff1681526020019081526020016000209050308160000160006101000a81548173ffffffffffffffffffffffffffffffffffffffff021916908373ffffffffffffffffffffffffffffffffffffffff16021790555060095481600101819055506002548160020181905550613023600f8481548110612ff3577f4e487b7100000000000000000000000000000000000000000000000000000000600052603260045260246000fd5b9060005260206000200160009054906101000a900473ffffffffffffffffffffffffffffffffffffffff1661135a565b81600301908051906020019061303a929190613f0e565b506000601260008360000160009054906101000a900473ffffffffffffffffffffffffffffffffffffffff1673ffffffffffffffffffffffffffffffffffffffff1673ffffffffffffffffffffffffffffffffffffffff168152602001908152602001600020819055507ff547d0a23c3d08128485e3178bd6f9dd1d0324581148aecfede2a6474c19dda330600954600254613139600f8881548110613109577f4e487b7100000000000000000000000000000000000000000000000000000000600052603260045260246000fd5b9060005260206000200160009054906101000a900473ffffffffffffffffffffffffffffffffffffffff1661135a565b60065460405161314d9594939291906144ae565b60405180910390a1600f838154811061318f577f4e487b7100000000000000000000000000000000000000000000000000000000600052603260045260246000fd5b9060005260206000200160009054906101000a900473ffffffffffffffffffffffffffffffffffffffff168260010160006101000a81548173ffffffffffffffffffffffffffffffffffffffff021916908373ffffffffffffffffffffffffffffffffffffffff160217905550308260000160006101000a81548173ffffffffffffffffffffffffffffffffffffffff021916908373ffffffffffffffffffffffffffffffffffffffff16021790555060095482600201819055506132b7600f8481548110613287577f4e487b7100000000000000000000000000000000000000000000000000000000600052603260045260246000fd5b9060005260206000200160009054906101000a900473ffffffffffffffffffffffffffffffffffffffff1661135a565b8260030190805190602001906132ce929190613f0e565b506011600354908060018154018082558091505060019003906000526020600020016000909190919091505560095461336a600f858154811061333a577f4e487b7100000000000000000000000000000000000000000000000000000000600052603260045260246000fd5b9060005260206000200160009054906101000a900473ffffffffffffffffffffffffffffffffffffffff16610808565b61337491906147cb565b600e6000600f86815481106133b2577f4e487b7100000000000000000000000000000000000000000000000000000000600052603260045260246000fd5b9060005260206000200160009054906101000a900473ffffffffffffffffffffffffffffffffffffffff1673ffffffffffffffffffffffffffffffffffffffff1673ffffffffffffffffffffffffffffffffffffffff1681526020019081526020016000206001018190555060036000815480929190613431906148d6565b91905055507fe3f5bacc77772aaf6927c3eb6e081dc61c95f4db128e4f8d14c4951b159bda47600e6000600f8681548110613495577f4e487b7100000000000000000000000000000000000000000000000000000000600052603260045260246000fd5b9060005260206000200160009054906101000a900473ffffffffffffffffffffffffffffffffffffffff1673ffffffffffffffffffffffffffffffffffffffff1673ffffffffffffffffffffffffffffffffffffffff16815260200190815260200160002060000160009054906101000a900473ffffffffffffffffffffffffffffffffffffffff168260000160009054906101000a900473ffffffffffffffffffffffffffffffffffffffff166009546135b3600f8881548110613583577f4e487b7100000000000000000000000000000000000000000000000000000000600052603260045260246000fd5b9060005260206000200160009054906101000a900473ffffffffffffffffffffffffffffffffffffffff1661135a565b6006546040516135c795949392919061442b565b60405180910390a150505b80806135dd906148d6565b915050612e0c565b5060005b600d80549050811015613dc2576000613665600d8381548110613635577f4e487b7100000000000000000000000000000000000000000000000000000000600052603260045260246000fd5b9060005260206000200160009054906101000a900473ffffffffffffffffffffffffffffffffffffffff16611e40565b1115613daf576136d8600d82815481106136a8577f4e487b7100000000000000000000000000000000000000000000000000000000600052603260045260246000fd5b9060005260206000200160009054906101000a900473ffffffffffffffffffffffffffffffffffffffff16611e40565b600981905550600060106000600354815260200190815260200160002090506000600e60003073ffffffffffffffffffffffffffffffffffffffff1673ffffffffffffffffffffffffffffffffffffffff1681526020019081526020016000209050308160000160006101000a81548173ffffffffffffffffffffffffffffffffffffffff021916908373ffffffffffffffffffffffffffffffffffffffff16021790555060095481600101819055506001548160020181905550613800600d84815481106137d0577f4e487b7100000000000000000000000000000000000000000000000000000000600052603260045260246000fd5b9060005260206000200160009054906101000a900473ffffffffffffffffffffffffffffffffffffffff16610854565b816003019080519060200190613817929190613f0e565b506000601260008360000160009054906101000a900473ffffffffffffffffffffffffffffffffffffffff1673ffffffffffffffffffffffffffffffffffffffff1673ffffffffffffffffffffffffffffffffffffffff168152602001908152602001600020819055507f09917a68336a99192d8c02947db77f80f66a2983652444e115534c65c8543e4230600954600154613916600d88815481106138e6577f4e487b7100000000000000000000000000000000000000000000000000000000600052603260045260246000fd5b9060005260206000200160009054906101000a900473ffffffffffffffffffffffffffffffffffffffff16610854565b60065460405161392a9594939291906144ae565b60405180910390a1600d838154811061396c577f4e487b7100000000000000000000000000000000000000000000000000000000600052603260045260246000fd5b9060005260206000200160009054906101000a900473ffffffffffffffffffffffffffffffffffffffff168260000160006101000a81548173ffffffffffffffffffffffffffffffffffffffff021916908373ffffffffffffffffffffffffffffffffffffffff160217905550308260010160006101000a81548173ffffffffffffffffffffffffffffffffffffffff021916908373ffffffffffffffffffffffffffffffffffffffff1602179055506009548260020181905550613a94600d8481548110613a64577f4e487b7100000000000000000000000000000000000000000000000000000000600052603260045260246000fd5b9060005260206000200160009054906101000a900473ffffffffffffffffffffffffffffffffffffffff16610854565b826003019080519060200190613aab929190613f0e565b5060116003549080600181540180825580915050600190039060005260206000200160009091909190915055600954613b47600d8581548110613b17577f4e487b7100000000000000000000000000000000000000000000000000000000600052603260045260246000fd5b9060005260206000200160009054906101000a900473ffffffffffffffffffffffffffffffffffffffff16611e40565b613b5191906147cb565b600c6000600d8681548110613b8f577f4e487b7100000000000000000000000000000000000000000000000000000000600052603260045260246000fd5b9060005260206000200160009054906101000a900473ffffffffffffffffffffffffffffffffffffffff1673ffffffffffffffffffffffffffffffffffffffff1673ffffffffffffffffffffffffffffffffffffffff1681526020019081526020016000206001018190555060036000815480929190613c0e906148d6565b91905055507fe3f5bacc77772aaf6927c3eb6e081dc61c95f4db128e4f8d14c4951b159bda478160000160009054906101000a900473ffffffffffffffffffffffffffffffffffffffff16600c6000600d8781548110613c97577f4e487b7100000000000000000000000000000000000000000000000000000000600052603260045260246000fd5b9060005260206000200160009054906101000a900473ffffffffffffffffffffffffffffffffffffffff1673ffffffffffffffffffffffffffffffffffffffff1673ffffffffffffffffffffffffffffffffffffffff16815260200190815260200160002060000160009054906101000a900473ffffffffffffffffffffffffffffffffffffffff16600954613d90600d8881548110613d60577f4e487b7100000000000000000000000000000000000000000000000000000000600052603260045260246000fd5b9060005260206000200160009054906101000a900473ffffffffffffffffffffffffffffffffffffffff16610854565b600654604051613da495949392919061442b565b60405180910390a150505b8080613dba906148d6565b9150506135e9565b50565b600f6000613dd39190614042565b600d6000613de19190614042565b6000600760006101000a81548160ff021916908360ff16021790555060066000815480929190613e10906148d6565b9190505550565b600073ffffffffffffffffffffffffffffffffffffffff168173ffffffffffffffffffffffffffffffffffffffff161415613e5157600080fd5b8073ffffffffffffffffffffffffffffffffffffffff1660008054906101000a900473ffffffffffffffffffffffffffffffffffffffff1673ffffffffffffffffffffffffffffffffffffffff167f8be0079c531659141344cd1fd0a4f28419497f9722a3daafe3b4186f6b6457e060405160405180910390a3806000806101000a81548173ffffffffffffffffffffffffffffffffffffffff021916908373ffffffffffffffffffffffffffffffffffffffff16021790555050565b828054613f1a906148a4565b90600052602060002090601f016020900481019282613f3c5760008555613f83565b82601f10613f5557805160ff1916838001178555613f83565b82800160010185558215613f83579182015b82811115613f82578251825591602001919060010190613f67565b5b509050613f909190614063565b5090565b828054613fa0906148a4565b90600052602060002090601f016020900481019282613fc25760008555614010565b82601f10613fd35780548555614010565b8280016001018555821561401057600052602060002091601f016020900482015b8281111561400f578254825591600101919060010190613ff4565b5b50905061401d9190614063565b5090565b508054600082559060005260206000209081019061403f9190614063565b50565b50805460008255906000526020600020908101906140609190614063565b50565b5b8082111561407c576000816000905550600101614064565b5090565b60008135905061408f81614a92565b92915050565b6000815190506140a481614aa9565b92915050565b6000813590506140b981614ac0565b92915050565b6000815190506140ce81614ac0565b92915050565b6000602082840312156140e657600080fd5b60006140f484828501614080565b91505092915050565b60006020828403121561410f57600080fd5b600061411d84828501614095565b91505092915050565b60006020828403121561413857600080fd5b6000614146848285016140aa565b91505092915050565b60006020828403121561416157600080fd5b600061416f848285016140bf565b91505092915050565b6000806040838503121561418b57600080fd5b6000614199858286016140aa565b92505060206141aa858286016140aa565b9150509250929050565b60006141c083836141e4565b60208301905092915050565b60006141d88383614392565b60208301905092915050565b6141ed816147ff565b82525050565b6141fc816147ff565b82525050565b600061420d8261467c565b61421781856146b7565b93506142228361465c565b8060005b8381101561425357815161423a88826141b4565b97506142458361469d565b925050600181019050614226565b5085935050505092915050565b600061426b82614687565b61427581856146c8565b93506142808361466c565b8060005b838110156142b157815161429888826141cc565b97506142a3836146aa565b925050600181019050614284565b5085935050505092915050565b6142c781614811565b82525050565b60006142d882614692565b6142e281856146d9565b93506142f2818560208601614847565b6142fb816149dd565b840191505092915050565b60006143136011836146d9565b915061431e826149ee565b602082019050919050565b60006143366008836146d9565b915061434182614a17565b602082019050919050565b60006143596010836146d9565b915061436482614a40565b602082019050919050565b600061437c600a836146d9565b915061438782614a69565b602082019050919050565b61439b8161483d565b82525050565b6143aa8161483d565b82525050565b60006020820190506143c560008301846141f3565b92915050565b60006040820190506143e060008301856141f3565b6143ed60208301846141f3565b9392505050565b600060608201905061440960008301866141f3565b61441660208301856141f3565b61442360408301846143a1565b949350505050565b600060a08201905061444060008301886141f3565b61444d60208301876141f3565b61445a60408301866143a1565b818103606083015261446c81856142cd565b905061447b60808301846143a1565b9695505050505050565b600060408201905061449a60008301856141f3565b6144a760208301846143a1565b9392505050565b600060a0820190506144c360008301886141f3565b6144d060208301876143a1565b6144dd60408301866143a1565b81810360608301526144ef81856142cd565b90506144fe60808301846143a1565b9695505050505050565b600060208201905081810360008301526145228184614202565b905092915050565b600060208201905081810360008301526145448184614260565b905092915050565b600060208201905061456160008301846142be565b92915050565b6000602082019050818103600083015261458181846142cd565b905092915050565b600060208201905081810360008301526145a281614329565b9050919050565b600060208201905081810360008301526145c28161436f565b9050919050565b60006020820190506145de60008301846143a1565b92915050565b60006060820190506145f960008301856143a1565b61460660208301846143a1565b818103604083015261461781614306565b90509392505050565b600060608201905061463560008301856143a1565b61464260208301846143a1565b81810360408301526146538161434c565b90509392505050565b6000819050602082019050919050565b6000819050602082019050919050565b600081519050919050565b600081519050919050565b600081519050919050565b6000602082019050919050565b6000602082019050919050565b600082825260208201905092915050565b600082825260208201905092915050565b600082825260208201905092915050565b60006146f58261483d565b91506147008361483d565b9250827fffffffffffffffffffffffffffffffffffffffffffffffffffffffffffffffff0382111561473557614734614950565b5b828201905092915050565b600061474b8261483d565b91506147568361483d565b9250826147665761476561497f565b5b828204905092915050565b600061477c8261483d565b91506147878361483d565b9250817fffffffffffffffffffffffffffffffffffffffffffffffffffffffffffffffff04831182151516156147c0576147bf614950565b5b828202905092915050565b60006147d68261483d565b91506147e18361483d565b9250828210156147f4576147f3614950565b5b828203905092915050565b600061480a8261481d565b9050919050565b60008115159050919050565b600073ffffffffffffffffffffffffffffffffffffffff82169050919050565b6000819050919050565b60005b8381101561486557808201518184015260208101905061484a565b83811115614874576000848401525b50505050565b60006148858261483d565b9150600082141561489957614898614950565b5b600182039050919050565b600060028204905060018216806148bc57607f821691505b602082108114156148d0576148cf6149ae565b5b50919050565b60006148e18261483d565b91507fffffffffffffffffffffffffffffffffffffffffffffffffffffffffffffffff82141561491457614913614950565b5b600182019050919050565b600061492a8261483d565b91506149358361483d565b9250826149455761494461497f565b5b828206905092915050565b7f4e487b7100000000000000000000000000000000000000000000000000000000600052601160045260246000fd5b7f4e487b7100000000000000000000000000000000000000000000000000000000600052601260045260246000fd5b7f4e487b7100000000000000000000000000000000000000000000000000000000600052602260045260246000fd5b6000601f19601f8301169050919050565b7f66616c6c6261636b707269636568696768000000000000000000000000000000600082015250565b7f62696420213d2030000000000000000000000000000000000000000000000000600082015250565b7f66616c6c6261636b70726963656c6f7700000000000000000000000000000000600082015250565b7f616d6f756e74203d203000000000000000000000000000000000000000000000600082015250565b614a9b816147ff565b8114614aa657600080fd5b50565b614ab281614811565b8114614abd57600080fd5b50565b614ac98161483d565b8114614ad457600080fd5b5056fea26469706673582212204863c5a50e6ca6d8331d94b200cd8575ecb7cdd614e49bcc09bf4636c7e6875664736f6c63430008010033",
  "immutableReferences": {},
  "source": "pragma solidity >=0.8.1 <0.9.0;\r\n\r\n//  allowing the market mechanism to use functions of the Energy Credits\r\ninterface EnergyCreditsInterface{\r\n  function totalSupply() external returns (uint);\r\n  function balanceOf(address tokenOwner) external returns (uint balance);\r\n  function transfer(address to, uint tokens) external returns (bool success);\r\n  function approve(address spender, uint tokens) external returns (bool success);\r\n  function transferFrom(address from, address to, uint tokens) external returns (bool success);\r\n  function allowance(address tokenOwner, address spender) external returns (uint remaining);\r\n  }\r\n// ----------------------------------------------------------------------------\r\n// @title Ownable\r\n//  The Ownable contract has an owner address, and provides basic authorization control\r\n// functions, this simplifies the implementation of \"user permissions\".\r\n// ----------------------------------------------------------------------------\r\ncontract Ownable {\r\n  address private _owner;\r\n\r\n  event OwnershipTransferred(address indexed previousOwner,address indexed newOwner);\r\n\r\n\r\n  //  The Ownable constructor sets the original `owner` of the contract to the sender\r\n  // account.\r\n  constructor() {\r\n    _owner = msg.sender;\r\n    emit OwnershipTransferred(address(0), _owner);\r\n  }\r\n\r\n\r\n  // @return the address of the owner.\r\n  function owner() public view returns(address) {\r\n    return _owner;\r\n  }\r\n\r\n\r\n  //  Throws if called by any account other than the owner.\r\n  modifier onlyOwner() {\r\n    require(isOwner());\r\n    _;\r\n  }\r\n\r\n\r\n  // @return true if `msg.sender` is the owner of the contract.\r\n  function isOwner() public view returns(bool) {\r\n    return msg.sender == _owner;\r\n  }\r\n\r\n\r\n  //  Allows the current owner to relinquish control of the contract.\r\n  // @notice Renouncing to ownership will leave the contract without an owner.\r\n  // It will not be possible to call the functions with the `onlyOwner`\r\n  // modifier anymore.\r\n  function renounceOwnership() public onlyOwner {\r\n    emit OwnershipTransferred(_owner, address(0));\r\n    _owner = address(0);\r\n  }\r\n\r\n\r\n  //  Allows the current owner to transfer control of the contract to a newOwner.\r\n  // @param newOwner The address to transfer ownership to.\r\n  function transferOwnership(address newOwner) public onlyOwner {\r\n    _transferOwnership(newOwner);\r\n  }\r\n\r\n\r\n  //  Transfers control of the contract to a newOwner.\r\n  // @param newOwner The address to transfer ownership to.\r\n  function _transferOwnership(address newOwner) internal {\r\n    require(newOwner != address(0));\r\n    emit OwnershipTransferred(_owner, newOwner);\r\n    _owner = newOwner;\r\n  }\r\n  }\r\n\r\ncontract EnergyMarket is Ownable{\r\nuint fallbackPriceHigh = 2367;  // 23,67 Cent\r\nuint fallbackPriceLow = 1200;   //12,00 Cent\r\nuint match_id=0;\r\nuint uniformprice = 0;\r\nuint uniformPriceBHKW = 0;\r\nuint tick = 0;\r\nuint8 pv  = 0;\r\nuint8 bhkw = 0;\r\nuint lastTriggerBlock = block.number;\r\nuint matchAmount = 0;\r\nuint trigger = 0;\r\naddress ckaddress = address(0); // <-- manually change the address to your token address\r\n\r\n\r\n// Structs\r\nstruct Ask {\r\n  address asker;\r\n  uint amount;\r\n  uint price;\r\n  string timestamp;\r\n  }\r\n\r\nstruct Bid {\r\n  address bidder;\r\n  uint amount;\r\n  uint price;\r\n  string timestamp;\r\n  }\r\n\r\nstruct Match{\r\n  address askaddress;\r\n  address bidaddress;\r\n  uint amount;\r\n  string timestamp;\r\n  }\r\n\r\n\r\n// Events\r\nevent AskPlaced (address asker, uint amount, uint price, string timestamp, uint tick);\r\nevent BidPlaced (address bidder, uint amount, uint price, string timestamp, uint tick);\r\nevent UniformPrice (uint uniformprice, string timestamp, uint tick);\r\nevent MatchMade (address asker, address bidder, uint amount, string timestamp, uint tick);\r\nevent Transaction(address from, address to, string what, uint amount, uint tick);\r\nevent UpdatePrice(uint oldprice, uint newprice, string which);\r\nevent ChangeofToken(address oldtoken, address ckaddress);\r\n\r\n\r\n// Mappings\r\n// Every placed ask or bid is connected to the senders address and the addresses\r\n// are stored in an array\r\nmapping(address => Ask) asks;\r\naddress[] public ask_ids;\r\n\r\nmapping(address => Bid) bids;\r\naddress[] public bid_ids;\r\n\r\n//  Every match made is connected to an ID which is stored in an array\r\nmapping(uint => Match) matches;\r\nuint[] public match_ids;\r\n\r\n//  Locked value of all market participants is connected to their address\r\nmapping(address => uint) remainingLockedValue;\r\n\r\n// Links KITEnergyTokenInterface to specific smart contract\r\nEnergyCreditsInterface EnergyCredits = EnergyCreditsInterface(ckaddress);\r\n\r\n//  Constructor of contract to equip the market place with ether\r\nconstructor() {}\r\n\r\n// Equip market place with more ether\r\nfunction sendEther() public payable returns (bool success){\r\n  return true;\r\n  }\r\n\r\n//  Throws if Bid does not include sufficient amount of ether\r\nmodifier hasethBalance(uint _amount, uint _price){\r\n    if(fallbackPriceHigh>_price){\r\n      require((msg.value + remainingLockedValue[msg.sender])>=((fallbackPriceHigh)*_amount)*(10**14));\r\n    }\r\n    else{\r\n      require((msg.value + remainingLockedValue[msg.sender])>=((_price)*_amount)*(10**14));\r\n      }\r\n      _;\r\n    }\r\n\r\n//  Throws if Ask does not include sufficient amount of token\r\nmodifier hastokenBalance(uint _amount){\r\n      require((EnergyCredits.allowance(msg.sender,address(this)) + remainingLockedValue[msg.sender])>=_amount);\r\n  _;\r\n  }\r\n\r\n//  Throws if minimal amount of blocks in between to two auctions\r\n// has not been mined\r\nmodifier isTrigger(){\r\n  require(block.number>=lastTriggerBlock+trigger);\r\n  _;\r\n  }\r\n\r\n// Creation of an Ask\r\n// _price which is asked for\r\n// _timestamp of ask\r\n// @notice A market participant can place an ask if no future bid has been made in\r\n// this trading period, empty asks are forbidden to be protected against DOS attacks\r\nfunction addAsk (uint _amount, uint _price) public hastokenBalance(_amount){\r\n    string memory _timestamp = uint2str(block.timestamp);\r\n  require(bids[msg.sender].amount==0, \"bid != 0\");\r\n  require(_amount > 0, \"amount = 0\");\r\n  if(asks[msg.sender].amount==0){\r\n    Ask storage ask = asks[msg.sender];\r\n    ask.asker = msg.sender;\r\n    ask.amount = _amount;\r\n    ask.price = _price;\r\n    ask.timestamp = _timestamp;\r\n    ask_ids.push(msg.sender);\r\n    remainingLockedValue[ask.asker]=_amount;\r\n    EnergyCredits.transferFrom(msg.sender,address(this),_amount);\r\n  }\r\n  else {\r\n    Ask storage askUpdate = asks[msg.sender];\r\n    askUpdate.amount = _amount;\r\n    askUpdate.price = _price;\r\n    askUpdate.timestamp = _timestamp;\r\n    asks[msg.sender] = askUpdate;\r\n\r\n    if (_amount > remainingLockedValue[msg.sender]){\r\n      EnergyCredits.transferFrom(msg.sender,address(this),(_amount-remainingLockedValue[msg.sender]));\r\n    }\r\n    else{\r\n      EnergyCredits.transfer(msg.sender,(remainingLockedValue[msg.sender]-_amount));\r\n    }\r\n    remainingLockedValue[msg.sender]=_amount;\r\n    }\r\n    emit AskPlaced(msg.sender, _amount, _price,_timestamp,tick);\r\n  }\r\n\r\n//  Creation of a Bid\r\n// @param _amount of electricity, _price is the reservation price for PV-Energy,\r\n// _pricebhkw is the reservation price for CHP-Energy, _timestamp of bid\r\n// @notice A market participant can place an bid if no future ask has been made in t\r\n// his trading period, empty asks are forbidden to be protected against DOS attacks\r\nfunction addBid (uint _amount, uint _price) public payable hasethBalance(_amount,_price) {\r\n    string memory _timestamp = uint2str(block.timestamp);\r\n    require(asks[msg.sender].amount==0);\r\n    if(bids[msg.sender].amount==0){\r\n      Bid storage bid = bids[msg.sender];\r\n      bid.bidder = msg.sender;\r\n      bid.amount = _amount;\r\n      bid.price = _price;\r\n      bid.timestamp = _timestamp;\r\n      bid_ids.push(msg.sender);\r\n      remainingLockedValue[msg.sender]=(msg.value);\r\n    }\r\n    else {\r\n      Bid storage bidUpdate= bids[msg.sender];\r\n      bidUpdate.amount = _amount;\r\n      bidUpdate.price = _price;\r\n      bidUpdate.timestamp = _timestamp;\r\n      bids[msg.sender] = bidUpdate;\r\n      if ((_price * 10**14 * _amount) < remainingLockedValue[msg.sender]){\r\n        payable(msg.sender).transfer(remainingLockedValue[msg.sender] - (_price * 10**14 * _amount));\r\n        remainingLockedValue[msg.sender]= (_price * 10**14 * _amount);\r\n      }\r\n      else{\r\n        remainingLockedValue[msg.sender]=(remainingLockedValue[msg.sender]+msg.value);\r\n      }\r\n    }\r\n    emit BidPlaced (msg.sender, _amount, _price, _timestamp, tick);\r\n  }\r\n\r\n//Update Functions\r\nfunction changeTokenAddress(address _token) public onlyOwner returns (bool){\r\n  address oldtoken = ckaddress;\r\n  ckaddress = _token;\r\n  emit ChangeofToken(oldtoken,ckaddress);\r\n  return true;\r\n}\r\n\r\n// View functions\r\n//  Shows all current bids\r\n// @return array containing all bids\r\nfunction getAllBids() public view returns (address[] memory){\r\n  return bid_ids;\r\n  }\r\n\r\n// //  Shows PV-price of bid\r\n// // @param address of bidder\r\n// // @return uint being his PV-price in Cents*100\r\nfunction getBidPrice(address _address) public view returns (uint){\r\n  return bids[_address].price;\r\n  }\r\n\r\n// //  Shows electricity amount of bid\r\n// // @param address of bidder\r\n// // @return uint being the amount of electricity he wants to buy in kWh\r\nfunction getBidAmount(address _address) public view returns (uint){\r\n  return bids[_address].amount;\r\n  } \r\n\r\n// //  Shows point in time of bid\r\n// // @param address of bidder\r\n// // @return string reprensenting the timestamp of the bid\r\nfunction getBidTimestamp(address _address) public view returns (string memory){\r\n  return bids[_address].timestamp;\r\n}\r\n\r\n//  Shows all current asks\r\n// @return array containing all asks\r\nfunction getAllAsks() public view returns (address[] memory){\r\n      return ask_ids;\r\n    }\r\n\r\n// //  Shows preferred price of ask\r\n// // @param address of asker\r\n// // @return uint being the price preference in Cents*100\r\nfunction getAskPrice(address _address) public view returns (uint){\r\n  return asks[_address].price;\r\n  }\r\n\r\n// //  Shows electricity amount of ask\r\n// // @param address of asker\r\n// // @return uint being the amount of electricity he wants to sell in kWh\r\nfunction getAskAmount(address _address) public view returns (uint){\r\n  return asks[_address].amount;\r\n  }\r\n\r\n\r\n// //  Shows point in time of ask\r\n// // @param address of asker\r\n// // @return string reprensenting the timestamp of the bid\r\nfunction getAskTimestamp(address _address) public view returns (string memory){\r\n  return asks[_address].timestamp;\r\n}\r\n\r\n// //  Shows the remaining locked value\r\n// // @param address of bidder/bidder\r\n// // @return uint being the amount of electricity (asker) or the\r\n// // amount of ether that has been locked for the trading period\r\nfunction getremainingvalue (address _sender) public view returns(uint){\r\n  return remainingLockedValue[_sender];\r\n  }\r\n\r\n//  Shows the fallbackprice for buyers\r\n// @return the current fallbackprichigh in cent*100\r\nfunction getfallbackPriceHigh() public view returns(uint){\r\n  return fallbackPriceHigh;\r\n  }\r\n\r\n//  Shows the fallbackprice for sellers\r\n// @return the current fallbackpricelow in cent*100\r\nfunction getfallbackPriceLow() public view returns(uint){\r\n  return fallbackPriceLow;\r\n  }\r\n\r\n//  Shows all matches of trading period\r\n// @return array containing all match-IDs\r\nfunction getMatches() public view returns (uint[] memory){\r\n  return match_ids;\r\n  }\r\n\r\n//  Shows UniformPrice for PV of this trading period\r\n// @return uint being the uniformprice in cent*100\r\nfunction getUniformprice () public view returns (uint) {\r\n  return uniformprice;\r\n  }\r\n\r\n//function um bei Bids und Asks zu prfen, ob auch die Auction getriggered werden soll\r\nfunction getBoolean() public view returns(bool){\r\n    if(block.number>=lastTriggerBlock+trigger){\r\n        return true;\r\n    }\r\n  }\r\n\r\nfunction uint2str(\r\n  uint256 _i\r\n)\r\n  internal\r\n  pure\r\n  returns (string memory str)\r\n{\r\n  if (_i == 0)\r\n  {\r\n    return \"0\";\r\n  }\r\n  uint256 j = _i;\r\n  uint256 length;\r\n  while (j != 0)\r\n  {\r\n    length++;\r\n    j /= 10;\r\n  }\r\n  bytes memory bstr = new bytes(length);\r\n  uint256 k = length;\r\n  j = _i;\r\n  while (j != 0)\r\n  {\r\n    bstr[--k] = bytes1(uint8(48 + j % 10));\r\n    j /= 10;\r\n  }\r\n  str = string(bstr);\r\n}\r\n\r\nfunction updateFallbackPriceHigh(uint _fallbackpricehigh) public onlyOwner returns (bool){ //reihenfolge checken und owner implementieren\r\n    uint r = fallbackPriceHigh;\r\n    fallbackPriceHigh = _fallbackpricehigh;\r\n    emit UpdatePrice(r,fallbackPriceHigh,\"fallbackpricehigh\");\r\n    return true;\r\n  }\r\n\r\nfunction updateFallbackPriceLow(uint _fallbackpricelow) public onlyOwner returns (bool) { //reihenfolge checken und owner implementieren\r\n    uint r = fallbackPriceLow;\r\n    fallbackPriceLow = _fallbackpricelow;\r\n    emit UpdatePrice(r,fallbackPriceLow,\"fallbackpricelow\");\r\n    return true;\r\n  }\r\n\r\n//Adjustment of the distance between two auctions\r\nfunction setTrigger(uint t) public onlyOwner returns(bool) {\r\n  trigger = t;\r\n  return true;\r\n  }\r\n\r\n\r\n//  Sorting array of asks upwards\r\nfunction sort_array() private{\r\n    uint256 l = bid_ids.length;\r\n    for(uint i = 0; i < l; i++) {\r\n        for(uint j = i+1; j < l ;j++) {\r\n            if(getBidPrice(bid_ids[i]) > getBidPrice(bid_ids[j])) {\r\n                address temp = bid_ids[i];\r\n                bid_ids[i] = bid_ids[j];\r\n                bid_ids[j] = temp;\r\n            }\r\n        }\r\n    }\r\n  }\r\n\r\nfunction try_to_auction() public isTrigger{\r\n  //Triggering the sorting of bids and asks, as well as triggering the auction\r\n  lastTriggerBlock=block.number;  //if the auction is triggered, then we save the current block\r\n  reset_before();\r\n  if(bhkw > pv){\r\n    sort_array(); // with function then call is trigger? But then the part here is executed every time. not like that!\r\n    pvmatching();\r\n    }\r\n  else{\r\n    sort_array();\r\n    pvmatching();\r\n    }\r\n  rest_of_auction();\r\n  //matchingTransactions();\r\n  reset_after();\r\n    }\r\n\r\n//Matching in the PV market\r\nfunction pvmatching() private{\r\n  for (uint i=0; i<bid_ids.length; i++) { //go through all bids\r\n      for(uint j = 0; j< ask_ids.length; j++){  //go through all the asks\r\n          if(getAskAmount(ask_ids[j]) > 0){\r\n          if(getBidPrice(bid_ids[i]) <= getAskPrice(ask_ids[j])){ //Offer price less than or equal to demand price\r\n             if(getAskAmount(ask_ids[j]) <= getBidAmount(bid_ids[i])){  //Demand quantity less than or equal to supply quantity\r\n                 matchAmount = getAskAmount(ask_ids[j]);  //then the demand quantity is the matched quantity\r\n             }else{\r\n                 matchAmount = getBidAmount(bid_ids[i]);  //otherwise the demand will be partially filled with the remaining supply\r\n             }\r\n             if(matchAmount > 0){ //if matchamount> 0 a match is created\r\n                 Match storage _matchPV = matches[match_id];\r\n                 _matchPV.bidaddress = bid_ids[i];\r\n                 _matchPV.askaddress = ask_ids[j];\r\n                 _matchPV.amount = matchAmount;\r\n                 _matchPV.timestamp = getBidTimestamp(bid_ids[i]);\r\n                 asks[ask_ids[j]].amount = getAskAmount(ask_ids[j]) - matchAmount; //matchAmount von Ask Amount abziehen\r\n                 bids[bid_ids[i]].amount = getBidAmount(bid_ids[i]) - matchAmount; //matchAmount von Bid Amount abziehen\r\n                 match_ids.push(match_id);\r\n                 match_id++;\r\n\r\n                 emit MatchMade(bid_ids[i],ask_ids[j],matchAmount,getBidTimestamp(bid_ids[i]),tick);\r\n             }\r\n          }\r\n          }\r\n      }\r\n    }\r\n  }\r\n\r\nfunction rest_of_auction() private{\r\n  //Matching in GreyMarket with the remaining offer quantities, Ask is provided here by GreyMarket\r\n  for(uint i = 0; i < bid_ids.length; i++){\r\n    if(getBidAmount(bid_ids[i]) > 0){\r\n      matchAmount = getBidAmount(bid_ids[i]);\r\n      Match storage matchGrey1 = matches[match_id];\r\n\r\n      Ask storage greyAsk = asks[address(this)];\r\n      greyAsk.asker = address(this);\r\n      greyAsk.amount = matchAmount;\r\n      greyAsk.price = fallbackPriceLow;\r\n      greyAsk.timestamp = getBidTimestamp(bid_ids[i]);\r\n      remainingLockedValue[greyAsk.asker] = 0;\r\n      emit AskPlaced(address(this),matchAmount,fallbackPriceLow,getBidTimestamp(bid_ids[i]),tick);\r\n\r\n      matchGrey1.bidaddress = bid_ids[i];\r\n      matchGrey1.askaddress = address(this);\r\n      matchGrey1.amount = matchAmount;\r\n      matchGrey1.timestamp = getBidTimestamp(bid_ids[i]);\r\n      match_ids.push(match_id);\r\n      bids[bid_ids[i]].amount = getBidAmount(bid_ids[i]) - matchAmount;\r\n      match_id++;\r\n\r\n      emit MatchMade(bids[bid_ids[i]].bidder,greyAsk.asker,matchAmount,getBidTimestamp(bid_ids[i]),tick);\r\n      }\r\n    }\r\n\r\n  //Matching in GreyMarket with the remaining demand, the bid is made here by GreyMarket\r\n  for(uint j = 0; j < ask_ids.length; j++){\r\n    if(getAskAmount(ask_ids[j]) > 0){\r\n      matchAmount = getAskAmount(ask_ids[j]);\r\n      Match storage matchGrey2 = matches[match_id];\r\n\r\n      Bid storage greyBid = bids[address(this)];\r\n      greyBid.bidder = address(this);\r\n      greyBid.amount = matchAmount;\r\n      greyBid.price = fallbackPriceHigh;\r\n      greyBid.timestamp = getAskTimestamp(ask_ids[j]);\r\n      remainingLockedValue[greyBid.bidder]=0;\r\n      emit BidPlaced(address(this),matchAmount,fallbackPriceHigh,getAskTimestamp(ask_ids[j]),tick);\r\n\r\n      matchGrey2.askaddress = ask_ids[j];\r\n      matchGrey2.bidaddress = address(this);\r\n      matchGrey2.amount = matchAmount;\r\n      matchGrey2.timestamp = getAskTimestamp(ask_ids[j]);\r\n      match_ids.push(match_id);\r\n      asks[ask_ids[j]].amount = getAskAmount(ask_ids[j]) - matchAmount;\r\n      match_id++;\r\n\r\n      emit MatchMade(greyBid.bidder,asks[ask_ids[j]].asker,matchAmount,getAskTimestamp(ask_ids[j]),tick);\r\n\r\n      }\r\n    }\r\n  }\r\n\r\n\r\n//divide by 100 possibly omit so there is no type force\r\n\r\n\r\n//Transactions\r\nfunction matchingTransactions() private {\r\n    //Transactions for PV\r\n    for(uint z = 0; z < match_ids.length; z++){\r\n        EnergyCredits.transfer(matches[match_ids[z]].askaddress,(matches[match_ids[z]].amount)); // Asker bekommt token vom contract (die wir vom Bidder bekommen haben)\r\n        payable(matches[match_ids[z]].bidaddress).transfer(matches[match_ids[z]].amount*getUniformprice()*(10**14)); //Bidder bekommt eth vom contract (die wir vom Asker bekommen haben)\r\n        remainingLockedValue[matches[match_ids[z]].askaddress] = remainingLockedValue[matches[match_ids[z]].askaddress] - (matches[match_ids[z]].amount * getUniformprice()* (10**14)); //remainingLockedValue wird um Transaktionsvolumen reduziert\r\n        emit Transaction(matches[match_ids[z]].askaddress,matches[match_ids[z]].bidaddress,\"Cent*100\",matches[match_ids[z]].amount*getUniformprice(),tick);\r\n        remainingLockedValue[matches[match_ids[z]].bidaddress] = remainingLockedValue[matches[match_ids[z]].bidaddress] - (matches[match_ids[z]].amount); //remainingLockedValue wird um Transaktionsvolumen reduziert\r\n        emit Transaction(matches[match_ids[z]].bidaddress,matches[match_ids[z]].askaddress,\"Token\",matches[match_ids[z]].amount,tick);\r\n      \r\n    }\r\n\r\n    //Transactions for Gray at GreyMarket as Ask\r\n    // for(uint z = 0; z < match_ids.length; z++){\r\n    //   if(getMatchPreference(z)==1){\r\n    //     emit Transaction(matches[match_ids[z]].bidaddress,matches[match_ids[z]].askaddress,\"Token\",matches[match_ids[z]].amount,tick);\r\n    //     matches[match_ids[z]].bidaddress.transfer(matches[match_ids[z]].amount*fallbackPriceLow*(10**14));\r\n    //     remainingLockedValue[matches[match_ids[z]].bidaddress] = remainingLockedValue[matches[match_ids[z]].bidaddress] - (matches[match_ids[z]].amount);\r\n    //     emit Transaction(matches[match_ids[z]].askaddress,matches[match_ids[z]].bidaddress,\"Cent*100\",matches[match_ids[z]].amount*fallbackPriceLow,tick);\r\n    //   }\r\n    // }\r\n\r\n    // //Transactions for Gray at GreyMarket as a bid\r\n    // for(uint z = 0; z < match_ids.length; z++){\r\n    //   if(getMatchPreference(z)==4){\r\n    //     energytoken.transfer(matches[match_ids[z]].askaddress,(matches[match_ids[z]].amount));\r\n    //     remainingLockedValue[matches[match_ids[z]].askaddress] = remainingLockedValue[matches[match_ids[z]].askaddress] - (matches[match_ids[z]].amount*fallbackPriceHigh*(10**14));\r\n    //     emit Transaction(matches[match_ids[z]].bidaddress,matches[match_ids[z]].askaddress,\"Token\",matches[match_ids[z]].amount,tick);\r\n    //     emit Transaction(matches[match_ids[z]].askaddress,matches[match_ids[z]].bidaddress,\"Cent*100\",matches[match_ids[z]].amount*fallbackPriceHigh,tick);\r\n    //   }\r\n    // }\r\n    \r\n\r\n\r\n    //Refunds if the blocked amount is higher than the amount actually paid and the mappings & arrays are deleted\r\n    for(uint z = 0; z < match_ids.length; z++){\r\n         if(remainingLockedValue[matches[match_ids[z]].askaddress]>0){\r\n           payable(matches[match_ids[z]].askaddress).transfer(remainingLockedValue[matches[match_ids[z]].askaddress]);\r\n           emit Transaction(address(this),matches[match_ids[z]].askaddress,\"Repayment Wei\",remainingLockedValue[matches[match_ids[z]].askaddress],tick);\r\n           remainingLockedValue[matches[match_ids[z]].askaddress] = 0;\r\n         }\r\n       }\r\n    }\r\n\r\nfunction reset_after() private {\r\n    delete bid_ids;\r\n    delete ask_ids;\r\n    pv = 0;\r\n    tick++;\r\n  }\r\n\r\nfunction reset_before() private{\r\n    delete match_ids;\r\n    match_id = 0;\r\n    uniformprice = 0;\r\n\r\n}\r\n\r\n}\r\n",
  "sourcePath": "C:\\Users\\batub\\Documents\\GitHub\\Energy-Credits\\contracts\\energymarket.sol",
  "compiler": {
    "name": "solc",
    "version": "0.8.1+commit.df193b15.Emscripten.clang"
  },
  "schemaVersion": "3.4.2",
  "updatedAt": "2021-08-01T18:12:55.594Z",
  "devdoc": {
    "kind": "dev",
    "methods": {},
    "version": 1
  },
  "userdoc": {
    "kind": "user",
    "methods": {},
    "version": 1
  }
}