{
  "contractName": "EnergyMarket",
  "abi": [
    {
      "inputs": [],
      "stateMutability": "payable",
      "type": "constructor",
      "payable": true
    },
    {
      "anonymous": false,
      "inputs": [
        {
          "indexed": false,
          "internalType": "address",
          "name": "asker",
          "type": "address"
        },
        {
          "indexed": false,
          "internalType": "uint256",
          "name": "amount",
          "type": "uint256"
        },
        {
          "indexed": false,
          "internalType": "uint256",
          "name": "price",
          "type": "uint256"
        },
        {
          "indexed": false,
          "internalType": "string",
          "name": "timestamp",
          "type": "string"
        },
        {
          "indexed": false,
          "internalType": "uint256",
          "name": "tick",
          "type": "uint256"
        }
      ],
      "name": "AskPlaced",
      "type": "event"
    },
    {
      "anonymous": false,
      "inputs": [
        {
          "indexed": false,
          "internalType": "address",
          "name": "bidder",
          "type": "address"
        },
        {
          "indexed": false,
          "internalType": "uint256",
          "name": "amount",
          "type": "uint256"
        },
        {
          "indexed": false,
          "internalType": "uint256",
          "name": "price",
          "type": "uint256"
        },
        {
          "indexed": false,
          "internalType": "string",
          "name": "timestamp",
          "type": "string"
        },
        {
          "indexed": false,
          "internalType": "uint256",
          "name": "tick",
          "type": "uint256"
        }
      ],
      "name": "BidPlaced",
      "type": "event"
    },
    {
      "anonymous": false,
      "inputs": [
        {
          "indexed": false,
          "internalType": "address",
          "name": "oldtoken",
          "type": "address"
        },
        {
          "indexed": false,
          "internalType": "address",
          "name": "ckaddress",
          "type": "address"
        }
      ],
      "name": "ChangeofToken",
      "type": "event"
    },
    {
      "anonymous": false,
      "inputs": [
        {
          "indexed": false,
          "internalType": "address",
          "name": "asker",
          "type": "address"
        },
        {
          "indexed": false,
          "internalType": "address",
          "name": "bidder",
          "type": "address"
        },
        {
          "indexed": false,
          "internalType": "uint256",
          "name": "amount",
          "type": "uint256"
        },
        {
          "indexed": false,
          "internalType": "string",
          "name": "timestamp",
          "type": "string"
        },
        {
          "indexed": false,
          "internalType": "uint256",
          "name": "tick",
          "type": "uint256"
        }
      ],
      "name": "MatchMade",
      "type": "event"
    },
    {
      "anonymous": false,
      "inputs": [
        {
          "indexed": true,
          "internalType": "address",
          "name": "previousOwner",
          "type": "address"
        },
        {
          "indexed": true,
          "internalType": "address",
          "name": "newOwner",
          "type": "address"
        }
      ],
      "name": "OwnershipTransferred",
      "type": "event"
    },
    {
      "anonymous": false,
      "inputs": [
        {
          "indexed": false,
          "internalType": "address",
          "name": "from",
          "type": "address"
        },
        {
          "indexed": false,
          "internalType": "address",
          "name": "to",
          "type": "address"
        },
        {
          "indexed": false,
          "internalType": "string",
          "name": "what",
          "type": "string"
        },
        {
          "indexed": false,
          "internalType": "uint256",
          "name": "amount",
          "type": "uint256"
        },
        {
          "indexed": false,
          "internalType": "uint256",
          "name": "tick",
          "type": "uint256"
        }
      ],
      "name": "Transaction",
      "type": "event"
    },
    {
      "anonymous": false,
      "inputs": [
        {
          "indexed": false,
          "internalType": "uint256",
          "name": "uniformprice",
          "type": "uint256"
        },
        {
          "indexed": false,
          "internalType": "string",
          "name": "timestamp",
          "type": "string"
        },
        {
          "indexed": false,
          "internalType": "uint256",
          "name": "tick",
          "type": "uint256"
        }
      ],
      "name": "UniformPrice",
      "type": "event"
    },
    {
      "anonymous": false,
      "inputs": [
        {
          "indexed": false,
          "internalType": "uint256",
          "name": "oldprice",
          "type": "uint256"
        },
        {
          "indexed": false,
          "internalType": "uint256",
          "name": "newprice",
          "type": "uint256"
        },
        {
          "indexed": false,
          "internalType": "string",
          "name": "which",
          "type": "string"
        }
      ],
      "name": "UpdatePrice",
      "type": "event"
    },
    {
      "inputs": [
        {
          "internalType": "uint256",
          "name": "",
          "type": "uint256"
        }
      ],
      "name": "ask_ids",
      "outputs": [
        {
          "internalType": "address",
          "name": "",
          "type": "address"
        }
      ],
      "stateMutability": "view",
      "type": "function",
      "constant": true
    },
    {
      "inputs": [
        {
          "internalType": "uint256",
          "name": "",
          "type": "uint256"
        }
      ],
      "name": "bid_ids",
      "outputs": [
        {
          "internalType": "address",
          "name": "",
          "type": "address"
        }
      ],
      "stateMutability": "view",
      "type": "function",
      "constant": true
    },
    {
      "inputs": [],
      "name": "isOwner",
      "outputs": [
        {
          "internalType": "bool",
          "name": "",
          "type": "bool"
        }
      ],
      "stateMutability": "view",
      "type": "function",
      "constant": true
    },
    {
      "inputs": [
        {
          "internalType": "uint256",
          "name": "",
          "type": "uint256"
        }
      ],
      "name": "match_ids",
      "outputs": [
        {
          "internalType": "uint256",
          "name": "",
          "type": "uint256"
        }
      ],
      "stateMutability": "view",
      "type": "function",
      "constant": true
    },
    {
      "inputs": [],
      "name": "owner",
      "outputs": [
        {
          "internalType": "address",
          "name": "",
          "type": "address"
        }
      ],
      "stateMutability": "view",
      "type": "function",
      "constant": true
    },
    {
      "inputs": [],
      "name": "renounceOwnership",
      "outputs": [],
      "stateMutability": "nonpayable",
      "type": "function"
    },
    {
      "inputs": [
        {
          "internalType": "address",
          "name": "newOwner",
          "type": "address"
        }
      ],
      "name": "transferOwnership",
      "outputs": [],
      "stateMutability": "nonpayable",
      "type": "function"
    },
    {
      "inputs": [],
      "name": "sendEther",
      "outputs": [
        {
          "internalType": "bool",
          "name": "success",
          "type": "bool"
        }
      ],
      "stateMutability": "payable",
      "type": "function",
      "payable": true
    },
    {
      "inputs": [
        {
          "internalType": "uint256",
          "name": "_amount",
          "type": "uint256"
        },
        {
          "internalType": "uint256",
          "name": "_price",
          "type": "uint256"
        },
        {
          "internalType": "string",
          "name": "_timestamp",
          "type": "string"
        }
      ],
      "name": "addAsk",
      "outputs": [],
      "stateMutability": "nonpayable",
      "type": "function"
    },
    {
      "inputs": [
        {
          "internalType": "uint256",
          "name": "_amount",
          "type": "uint256"
        },
        {
          "internalType": "uint256",
          "name": "_price",
          "type": "uint256"
        },
        {
          "internalType": "uint256",
          "name": "_pricebhkw",
          "type": "uint256"
        },
        {
          "internalType": "string",
          "name": "_timestamp",
          "type": "string"
        }
      ],
      "name": "addBid",
      "outputs": [],
      "stateMutability": "payable",
      "type": "function",
      "payable": true
    },
    {
      "inputs": [
        {
          "internalType": "address",
          "name": "_token",
          "type": "address"
        }
      ],
      "name": "changeTokenAddress",
      "outputs": [
        {
          "internalType": "bool",
          "name": "",
          "type": "bool"
        }
      ],
      "stateMutability": "nonpayable",
      "type": "function"
    },
    {
      "inputs": [],
      "name": "getAllBids",
      "outputs": [
        {
          "internalType": "address[]",
          "name": "",
          "type": "address[]"
        }
      ],
      "stateMutability": "view",
      "type": "function",
      "constant": true
    },
    {
      "inputs": [
        {
          "internalType": "address",
          "name": "_address",
          "type": "address"
        }
      ],
      "name": "getBidPrice",
      "outputs": [
        {
          "internalType": "uint256",
          "name": "",
          "type": "uint256"
        }
      ],
      "stateMutability": "view",
      "type": "function",
      "constant": true
    },
    {
      "inputs": [
        {
          "internalType": "address",
          "name": "_address",
          "type": "address"
        }
      ],
      "name": "getBidAmount",
      "outputs": [
        {
          "internalType": "uint256",
          "name": "",
          "type": "uint256"
        }
      ],
      "stateMutability": "view",
      "type": "function",
      "constant": true
    },
    {
      "inputs": [
        {
          "internalType": "address",
          "name": "_address",
          "type": "address"
        }
      ],
      "name": "getBidTimestamp",
      "outputs": [
        {
          "internalType": "string",
          "name": "",
          "type": "string"
        }
      ],
      "stateMutability": "view",
      "type": "function",
      "constant": true
    },
    {
      "inputs": [],
      "name": "getAllAsks",
      "outputs": [
        {
          "internalType": "address[]",
          "name": "",
          "type": "address[]"
        }
      ],
      "stateMutability": "view",
      "type": "function",
      "constant": true
    },
    {
      "inputs": [
        {
          "internalType": "address",
          "name": "_address",
          "type": "address"
        }
      ],
      "name": "getAskPrice",
      "outputs": [
        {
          "internalType": "uint256",
          "name": "",
          "type": "uint256"
        }
      ],
      "stateMutability": "view",
      "type": "function",
      "constant": true
    },
    {
      "inputs": [
        {
          "internalType": "address",
          "name": "_address",
          "type": "address"
        }
      ],
      "name": "getAskAmount",
      "outputs": [
        {
          "internalType": "uint256",
          "name": "",
          "type": "uint256"
        }
      ],
      "stateMutability": "view",
      "type": "function",
      "constant": true
    },
    {
      "inputs": [
        {
          "internalType": "address",
          "name": "_address",
          "type": "address"
        }
      ],
      "name": "getAskTimestamp",
      "outputs": [
        {
          "internalType": "string",
          "name": "",
          "type": "string"
        }
      ],
      "stateMutability": "view",
      "type": "function",
      "constant": true
    },
    {
      "inputs": [
        {
          "internalType": "address",
          "name": "_sender",
          "type": "address"
        }
      ],
      "name": "getremainingvalue",
      "outputs": [
        {
          "internalType": "uint256",
          "name": "",
          "type": "uint256"
        }
      ],
      "stateMutability": "view",
      "type": "function",
      "constant": true
    },
    {
      "inputs": [],
      "name": "getfallbackPriceHigh",
      "outputs": [
        {
          "internalType": "uint256",
          "name": "",
          "type": "uint256"
        }
      ],
      "stateMutability": "view",
      "type": "function",
      "constant": true
    },
    {
      "inputs": [],
      "name": "getfallbackPriceLow",
      "outputs": [
        {
          "internalType": "uint256",
          "name": "",
          "type": "uint256"
        }
      ],
      "stateMutability": "view",
      "type": "function",
      "constant": true
    },
    {
      "inputs": [],
      "name": "getMatches",
      "outputs": [
        {
          "internalType": "uint256[]",
          "name": "",
          "type": "uint256[]"
        }
      ],
      "stateMutability": "view",
      "type": "function",
      "constant": true
    },
    {
      "inputs": [],
      "name": "getUniformprice",
      "outputs": [
        {
          "internalType": "uint256",
          "name": "",
          "type": "uint256"
        }
      ],
      "stateMutability": "view",
      "type": "function",
      "constant": true
    },
    {
      "inputs": [],
      "name": "getBoolean",
      "outputs": [
        {
          "internalType": "bool",
          "name": "",
          "type": "bool"
        }
      ],
      "stateMutability": "view",
      "type": "function",
      "constant": true
    },
    {
      "inputs": [
        {
          "internalType": "uint256",
          "name": "_fallbackpricehigh",
          "type": "uint256"
        }
      ],
      "name": "updateFallbackPriceHigh",
      "outputs": [
        {
          "internalType": "bool",
          "name": "",
          "type": "bool"
        }
      ],
      "stateMutability": "nonpayable",
      "type": "function"
    },
    {
      "inputs": [
        {
          "internalType": "uint256",
          "name": "_fallbackpricelow",
          "type": "uint256"
        }
      ],
      "name": "updateFallbackPriceLow",
      "outputs": [
        {
          "internalType": "bool",
          "name": "",
          "type": "bool"
        }
      ],
      "stateMutability": "nonpayable",
      "type": "function"
    },
    {
      "inputs": [
        {
          "internalType": "uint256",
          "name": "t",
          "type": "uint256"
        }
      ],
      "name": "setTrigger",
      "outputs": [
        {
          "internalType": "bool",
          "name": "",
          "type": "bool"
        }
      ],
      "stateMutability": "nonpayable",
      "type": "function"
    },
    {
      "inputs": [],
      "name": "try_to_auction",
      "outputs": [],
      "stateMutability": "nonpayable",
      "type": "function"
    }
  ],
  "bytecode": "0x608060405261093f6001556104b060025560006003556000600455600060055560006006556000600760006101000a81548160ff021916908360ff1602179055506000600760016101000a81548160ff021916908360ff1602179055504360085560006009556000600a556000600b60006101000a81548173ffffffffffffffffffffffffffffffffffffffff021916908373ffffffffffffffffffffffffffffffffffffffff160217905550600b60009054906101000a900473ffffffffffffffffffffffffffffffffffffffff16601360006101000a81548173ffffffffffffffffffffffffffffffffffffffff021916908373ffffffffffffffffffffffffffffffffffffffff160217905550336000806101000a81548173ffffffffffffffffffffffffffffffffffffffff021916908373ffffffffffffffffffffffffffffffffffffffff16021790555060008054906101000a900473ffffffffffffffffffffffffffffffffffffffff1673ffffffffffffffffffffffffffffffffffffffff16600073ffffffffffffffffffffffffffffffffffffffff167f8be0079c531659141344cd1fd0a4f28419497f9722a3daafe3b4186f6b6457e060405160405180910390a3614b05806101d96000396000f3fe6080604052600436106101c25760003560e01c80636e1ebfdb116100f75780638da5cb5b11610095578063c9cda91f11610064578063c9cda91f1461068c578063e73341d7146106c9578063f2fde38b146106f4578063fea487891461071d576101c2565b80638da5cb5b146105dd5780638f32d59b14610608578063b3cd484414610633578063b61819c314610670576101c2565b8063715018a6116100d1578063715018a614610533578063874343191461054a57806388d4e8f6146105875780638d0f6da3146105b2576101c2565b80636e1ebfdb146104a25780636e32b291146104df5780636ec2f4731461051c576101c2565b8063215b8af6116101645780632d279cb81161013e5780632d279cb8146103e657806334033eb6146104115780633d01b7981461044e5780633d4d051314610479576101c2565b8063215b8af6146103535780632c70120e146103905780632d1be94d146103bb576101c2565b806313b9b598116101a057806313b9b5981461025f5780631db45a421461029c5780631e3de8d2146102d95780631f35671714610316576101c2565b806302016b24146101c757806304c9fd4f146102045780630e29df2214610241575b600080fd5b3480156101d357600080fd5b506101ee60048036038101906101e991906140e5565b61075a565b6040516101fb91906143cf565b60405180910390f35b34801561021057600080fd5b5061022b600480360381019061022691906140e5565b610799565b604051610238919061456b565b60405180910390f35b6102496107ff565b604051610256919061456b565b60405180910390f35b34801561026b57600080fd5b5061028660048036038101906102819190614093565b610808565b60405161029391906145a8565b60405180910390f35b3480156102a857600080fd5b506102c360048036038101906102be9190614093565b610854565b6040516102d09190614586565b60405180910390f35b3480156102e557600080fd5b5061030060048036038101906102fb9190614093565b610928565b60405161030d91906145a8565b60405180910390f35b34801561032257600080fd5b5061033d60048036038101906103389190614093565b610974565b60405161034a91906145a8565b60405180910390f35b34801561035f57600080fd5b5061037a600480360381019061037591906140e5565b6109c0565b604051610387919061456b565b60405180910390f35b34801561039c57600080fd5b506103a5610a26565b6040516103b29190614549565b60405180910390f35b3480156103c757600080fd5b506103d0610a7e565b6040516103dd919061456b565b60405180910390f35b3480156103f257600080fd5b506103fb610aa3565b60405161040891906145a8565b60405180910390f35b34801561041d57600080fd5b50610438600480360381019061043391906140e5565b610aad565b60405161044591906143cf565b60405180910390f35b34801561045a57600080fd5b50610463610aec565b60405161047091906145a8565b60405180910390f35b34801561048557600080fd5b506104a0600480360381019061049b9190614137565b610af6565b005b3480156104ae57600080fd5b506104c960048036038101906104c491906140e5565b6112f3565b6040516104d691906145a8565b60405180910390f35b3480156104eb57600080fd5b5061050660048036038101906105019190614093565b611317565b60405161051391906145a8565b60405180910390f35b34801561052857600080fd5b50610531611360565b005b34801561053f57600080fd5b506105486113ef565b005b34801561055657600080fd5b50610571600480360381019061056c9190614093565b6114be565b60405161057e9190614586565b60405180910390f35b34801561059357600080fd5b5061059c611592565b6040516105a99190614527565b60405180910390f35b3480156105be57600080fd5b506105c7611620565b6040516105d49190614527565b60405180910390f35b3480156105e957600080fd5b506105f26116ae565b6040516105ff91906143cf565b60405180910390f35b34801561061457600080fd5b5061061d6116d7565b60405161062a919061456b565b60405180910390f35b34801561063f57600080fd5b5061065a60048036038101906106559190614093565b61172e565b60405161066791906145a8565b60405180910390f35b61068a6004803603810190610685919061419e565b61177a565b005b34801561069857600080fd5b506106b360048036038101906106ae9190614093565b611f96565b6040516106c0919061456b565b60405180910390f35b3480156106d557600080fd5b506106de612076565b6040516106eb91906145a8565b60405180910390f35b34801561070057600080fd5b5061071b60048036038101906107169190614093565b612080565b005b34801561072957600080fd5b50610744600480360381019061073f91906140e5565b61209d565b604051610751919061456b565b60405180910390f35b600f818154811061076a57600080fd5b906000526020600020016000915054906101000a900473ffffffffffffffffffffffffffffffffffffffff1681565b60006107a36116d7565b6107ac57600080fd5b60006002549050826002819055507f7d8462783e03c4379a0577e1a3f30961c05eb0d51ce363b6c13e0e1e828c5ff2816002546040516107ed9291906145ff565b60405180910390a16001915050919050565b60006001905090565b6000600e60008373ffffffffffffffffffffffffffffffffffffffff1673ffffffffffffffffffffffffffffffffffffffff168152602001908152602001600020600101549050919050565b6060600c60008373ffffffffffffffffffffffffffffffffffffffff1673ffffffffffffffffffffffffffffffffffffffff16815260200190815260200160002060030180546108a3906148c4565b80601f01602080910402602001604051908101604052809291908181526020018280546108cf906148c4565b801561091c5780601f106108f15761010080835404028352916020019161091c565b820191906000526020600020905b8154815290600101906020018083116108ff57829003601f168201915b50505050509050919050565b6000600e60008373ffffffffffffffffffffffffffffffffffffffff1673ffffffffffffffffffffffffffffffffffffffff168152602001908152602001600020600201549050919050565b6000600c60008373ffffffffffffffffffffffffffffffffffffffff1673ffffffffffffffffffffffffffffffffffffffff168152602001908152602001600020600201549050919050565b60006109ca6116d7565b6109d357600080fd5b60006001549050826001819055507f7d8462783e03c4379a0577e1a3f30961c05eb0d51ce363b6c13e0e1e828c5ff281600154604051610a149291906145c3565b60405180910390a16001915050919050565b60606011805480602002602001604051908101604052809291908181526020018280548015610a7457602002820191906000526020600020905b815481526020019060010190808311610a60575b5050505050905090565b6000600a54600854610a90919061471f565b4310610a9f5760019050610aa0565b5b90565b6000600254905090565b600d8181548110610abd57600080fd5b906000526020600020016000915054906101000a900473ffffffffffffffffffffffffffffffffffffffff1681565b6000600454905090565b8280601260003373ffffffffffffffffffffffffffffffffffffffff1673ffffffffffffffffffffffffffffffffffffffff16815260200190815260200160002054601360009054906101000a900473ffffffffffffffffffffffffffffffffffffffff1673ffffffffffffffffffffffffffffffffffffffff1663dd62ed3e33306040518363ffffffff1660e01b8152600401610b959291906143ea565b602060405180830381600087803b158015610baf57600080fd5b505af1158015610bc3573d6000803e3d6000fd5b505050506040513d601f19601f82011682018060405250810190610be7919061410e565b610bf1919061471f565b1015610bfc57600080fd5b6000600e60003373ffffffffffffffffffffffffffffffffffffffff1673ffffffffffffffffffffffffffffffffffffffff1681526020019081526020016000206001015414610c4b57600080fd5b60008411610c5857600080fd5b6000600c60003373ffffffffffffffffffffffffffffffffffffffff1673ffffffffffffffffffffffffffffffffffffffff168152602001908152602001600020600101541415610ed7576000600c60003373ffffffffffffffffffffffffffffffffffffffff1673ffffffffffffffffffffffffffffffffffffffff1681526020019081526020016000209050338160000160006101000a81548173ffffffffffffffffffffffffffffffffffffffff021916908373ffffffffffffffffffffffffffffffffffffffff16021790555084816001018190555083816002018190555082816003019080519060200190610d53929190613e65565b50600d339080600181540180825580915050600190039060005260206000200160009091909190916101000a81548173ffffffffffffffffffffffffffffffffffffffff021916908373ffffffffffffffffffffffffffffffffffffffff16021790555084601260008360000160009054906101000a900473ffffffffffffffffffffffffffffffffffffffff1673ffffffffffffffffffffffffffffffffffffffff1673ffffffffffffffffffffffffffffffffffffffff16815260200190815260200160002081905550601360009054906101000a900473ffffffffffffffffffffffffffffffffffffffff1673ffffffffffffffffffffffffffffffffffffffff166323b872dd3330886040518463ffffffff1660e01b8152600401610e7e93929190614413565b602060405180830381600087803b158015610e9857600080fd5b505af1158015610eac573d6000803e3d6000fd5b505050506040513d601f19601f82011682018060405250810190610ed091906140bc565b50506112ac565b6000600c60003373ffffffffffffffffffffffffffffffffffffffff1673ffffffffffffffffffffffffffffffffffffffff168152602001908152602001600020905084816001018190555083816002018190555082816003019080519060200190610f44929190613e65565b5080600c60003373ffffffffffffffffffffffffffffffffffffffff1673ffffffffffffffffffffffffffffffffffffffff1681526020019081526020016000206000820160009054906101000a900473ffffffffffffffffffffffffffffffffffffffff168160000160006101000a81548173ffffffffffffffffffffffffffffffffffffffff021916908373ffffffffffffffffffffffffffffffffffffffff16021790555060018201548160010155600282015481600201556003820181600301908054611014906148c4565b61101f929190613eeb565b50905050601260003373ffffffffffffffffffffffffffffffffffffffff1673ffffffffffffffffffffffffffffffffffffffff1681526020019081526020016000205485111561116b57601360009054906101000a900473ffffffffffffffffffffffffffffffffffffffff1673ffffffffffffffffffffffffffffffffffffffff166323b872dd3330601260003373ffffffffffffffffffffffffffffffffffffffff1673ffffffffffffffffffffffffffffffffffffffff16815260200190815260200160002054896110f591906147cf565b6040518463ffffffff1660e01b815260040161111393929190614413565b602060405180830381600087803b15801561112d57600080fd5b505af1158015611141573d6000803e3d6000fd5b505050506040513d601f19601f8201168201806040525081019061116591906140bc565b50611266565b601360009054906101000a900473ffffffffffffffffffffffffffffffffffffffff1673ffffffffffffffffffffffffffffffffffffffff1663a9059cbb3387601260003373ffffffffffffffffffffffffffffffffffffffff1673ffffffffffffffffffffffffffffffffffffffff168152602001908152602001600020546111f591906147cf565b6040518363ffffffff1660e01b81526004016112129291906144a4565b602060405180830381600087803b15801561122c57600080fd5b505af1158015611240573d6000803e3d6000fd5b505050506040513d601f19601f8201168201806040525081019061126491906140bc565b505b84601260003373ffffffffffffffffffffffffffffffffffffffff1673ffffffffffffffffffffffffffffffffffffffff16815260200190815260200160002081905550505b7ff547d0a23c3d08128485e3178bd6f9dd1d0324581148aecfede2a6474c19dda3338585856006546040516112e59594939291906144cd565b60405180910390a150505050565b6011818154811061130357600080fd5b906000526020600020016000915090505481565b6000601260008373ffffffffffffffffffffffffffffffffffffffff1673ffffffffffffffffffffffffffffffffffffffff168152602001908152602001600020549050919050565b600a54600854611370919061471f565b43101561137c57600080fd5b4360088190555061138b6120c0565b600760009054906101000a900460ff1660ff16600760019054906101000a900460ff1660ff1611156113cc576113bf6120e0565b6113c76123ef565b6113dd565b6113d46120e0565b6113dc6123ef565b5b6113e5612d60565b6113ed613d1c565b565b6113f76116d7565b61140057600080fd5b600073ffffffffffffffffffffffffffffffffffffffff1660008054906101000a900473ffffffffffffffffffffffffffffffffffffffff1673ffffffffffffffffffffffffffffffffffffffff167f8be0079c531659141344cd1fd0a4f28419497f9722a3daafe3b4186f6b6457e060405160405180910390a360008060006101000a81548173ffffffffffffffffffffffffffffffffffffffff021916908373ffffffffffffffffffffffffffffffffffffffff160217905550565b6060600e60008373ffffffffffffffffffffffffffffffffffffffff1673ffffffffffffffffffffffffffffffffffffffff168152602001908152602001600020600301805461150d906148c4565b80601f0160208091040260200160405190810160405280929190818152602001828054611539906148c4565b80156115865780601f1061155b57610100808354040283529160200191611586565b820191906000526020600020905b81548152906001019060200180831161156957829003601f168201915b50505050509050919050565b6060600d80548060200260200160405190810160405280929190818152602001828054801561161657602002820191906000526020600020905b8160009054906101000a900473ffffffffffffffffffffffffffffffffffffffff1673ffffffffffffffffffffffffffffffffffffffff16815260200190600101908083116115cc575b5050505050905090565b6060600f8054806020026020016040519081016040528092919081815260200182805480156116a457602002820191906000526020600020905b8160009054906101000a900473ffffffffffffffffffffffffffffffffffffffff1673ffffffffffffffffffffffffffffffffffffffff168152602001906001019080831161165a575b5050505050905090565b60008060009054906101000a900473ffffffffffffffffffffffffffffffffffffffff16905090565b60008060009054906101000a900473ffffffffffffffffffffffffffffffffffffffff1673ffffffffffffffffffffffffffffffffffffffff163373ffffffffffffffffffffffffffffffffffffffff1614905090565b6000600c60008373ffffffffffffffffffffffffffffffffffffffff1673ffffffffffffffffffffffffffffffffffffffff168152602001908152602001600020600101549050919050565b83838380915081600154111561180457655af3107a40008360015461179f9190614775565b6117a99190614775565b601260003373ffffffffffffffffffffffffffffffffffffffff1673ffffffffffffffffffffffffffffffffffffffff16815260200190815260200160002054346117f4919061471f565b10156117ff57600080fd5b611878565b655af3107a400083836118179190614775565b6118219190614775565b601260003373ffffffffffffffffffffffffffffffffffffffff1673ffffffffffffffffffffffffffffffffffffffff168152602001908152602001600020543461186c919061471f565b101561187757600080fd5b5b6000600c60003373ffffffffffffffffffffffffffffffffffffffff1673ffffffffffffffffffffffffffffffffffffffff16815260200190815260200160002060010154146118c757600080fd5b6000600e60003373ffffffffffffffffffffffffffffffffffffffff1673ffffffffffffffffffffffffffffffffffffffff168152602001908152602001600020600101541415611af2576000600e60003373ffffffffffffffffffffffffffffffffffffffff1673ffffffffffffffffffffffffffffffffffffffff1681526020019081526020016000209050338160000160006101000a81548173ffffffffffffffffffffffffffffffffffffffff021916908373ffffffffffffffffffffffffffffffffffffffff160217905550878160010181905550868160020181905550848160030190805190602001906119c2929190613e65565b5086861115611a04576007600181819054906101000a900460ff16809291906119ea90614970565b91906101000a81548160ff021916908360ff160217905550505b85871115611a45576007600081819054906101000a900460ff1680929190611a2b90614970565b91906101000a81548160ff021916908360ff160217905550505b600f339080600181540180825580915050600190039060005260206000200160009091909190916101000a81548173ffffffffffffffffffffffffffffffffffffffff021916908373ffffffffffffffffffffffffffffffffffffffff16021790555034601260003373ffffffffffffffffffffffffffffffffffffffff1673ffffffffffffffffffffffffffffffffffffffff1681526020019081526020016000208190555050611f4c565b6000600e60003373ffffffffffffffffffffffffffffffffffffffff1673ffffffffffffffffffffffffffffffffffffffff168152602001908152602001600020905087816001018190555086816002018190555084816003019080519060200190611b5f929190613e65565b5086861115611bd9576007600181819054906101000a900460ff1680929190611b8790614970565b91906101000a81548160ff021916908360ff160217905550506007600081819054906101000a900460ff1680929190611bbf9061489a565b91906101000a81548160ff021916908360ff160217905550505b86861015611c52576007600081819054906101000a900460ff1680929190611c0090614970565b91906101000a81548160ff021916908360ff160217905550506007600181819054906101000a900460ff1680929190611c389061489a565b91906101000a81548160ff021916908360ff160217905550505b80600e60003373ffffffffffffffffffffffffffffffffffffffff1673ffffffffffffffffffffffffffffffffffffffff1681526020019081526020016000206000820160009054906101000a900473ffffffffffffffffffffffffffffffffffffffff168160000160006101000a81548173ffffffffffffffffffffffffffffffffffffffff021916908373ffffffffffffffffffffffffffffffffffffffff16021790555060018201548160010155600282015481600201556003820181600301908054611d21906148c4565b611d2c929190613eeb565b509050506000869050806001541115611d455760015490505b601260003373ffffffffffffffffffffffffffffffffffffffff1673ffffffffffffffffffffffffffffffffffffffff1681526020019081526020016000205489655af3107a400083611d989190614775565b611da29190614775565b1015611eba573373ffffffffffffffffffffffffffffffffffffffff166108fc8a655af3107a400084611dd59190614775565b611ddf9190614775565b601260003373ffffffffffffffffffffffffffffffffffffffff1673ffffffffffffffffffffffffffffffffffffffff16815260200190815260200160002054611e2991906147cf565b9081150290604051600060405180830381858888f19350505050158015611e54573d6000803e3d6000fd5b5088655af3107a400082611e689190614775565b611e729190614775565b601260003373ffffffffffffffffffffffffffffffffffffffff1673ffffffffffffffffffffffffffffffffffffffff16815260200190815260200160002081905550611f49565b34601260003373ffffffffffffffffffffffffffffffffffffffff1673ffffffffffffffffffffffffffffffffffffffff16815260200190815260200160002054611f05919061471f565b601260003373ffffffffffffffffffffffffffffffffffffffff1673ffffffffffffffffffffffffffffffffffffffff168152602001908152602001600020819055505b50505b7f09917a68336a99192d8c02947db77f80f66a2983652444e115534c65c8543e4233888887600654604051611f859594939291906144cd565b60405180910390a150505050505050565b6000611fa06116d7565b611fa957600080fd5b6000600b60009054906101000a900473ffffffffffffffffffffffffffffffffffffffff16905082600b60006101000a81548173ffffffffffffffffffffffffffffffffffffffff021916908373ffffffffffffffffffffffffffffffffffffffff1602179055507f57f279b06411d4cedcd2561e2ee5d60ef13a90ce7f97b138abac8d7b5e3249ce81600b60009054906101000a900473ffffffffffffffffffffffffffffffffffffffff166040516120649291906143ea565b60405180910390a16001915050919050565b6000600154905090565b6120886116d7565b61209157600080fd5b61209a81613d6e565b50565b60006120a76116d7565b6120b057600080fd5b81600a8190555060019050919050565b601160006120ce9190613f78565b60006003819055506000600481905550565b6000600f80549050905060005b818110156123eb576000600182612104919061471f565b90505b828110156123d75761217c600f828154811061214c577f4e487b7100000000000000000000000000000000000000000000000000000000600052603260045260246000fd5b9060005260206000200160009054906101000a900473ffffffffffffffffffffffffffffffffffffffff16610928565b6121e9600f84815481106121b9577f4e487b7100000000000000000000000000000000000000000000000000000000600052603260045260246000fd5b9060005260206000200160009054906101000a900473ffffffffffffffffffffffffffffffffffffffff16610928565b11156123c4576000600f838154811061222b577f4e487b7100000000000000000000000000000000000000000000000000000000600052603260045260246000fd5b9060005260206000200160009054906101000a900473ffffffffffffffffffffffffffffffffffffffff169050600f8281548110612292577f4e487b7100000000000000000000000000000000000000000000000000000000600052603260045260246000fd5b9060005260206000200160009054906101000a900473ffffffffffffffffffffffffffffffffffffffff16600f84815481106122f7577f4e487b7100000000000000000000000000000000000000000000000000000000600052603260045260246000fd5b9060005260206000200160006101000a81548173ffffffffffffffffffffffffffffffffffffffff021916908373ffffffffffffffffffffffffffffffffffffffff16021790555080600f838154811061237a577f4e487b7100000000000000000000000000000000000000000000000000000000600052603260045260246000fd5b9060005260206000200160006101000a81548173ffffffffffffffffffffffffffffffffffffffff021916908373ffffffffffffffffffffffffffffffffffffffff160217905550505b80806123cf90614927565b915050612107565b5080806123e390614927565b9150506120ed565b5050565b60005b600f80549050811015612d5d5760005b600d80549050811015612d4957600061247e600d838154811061244e577f4e487b7100000000000000000000000000000000000000000000000000000000600052603260045260246000fd5b9060005260206000200160009054906101000a900473ffffffffffffffffffffffffffffffffffffffff1661172e565b1115612d36576124f1600d82815481106124c1577f4e487b7100000000000000000000000000000000000000000000000000000000600052603260045260246000fd5b9060005260206000200160009054906101000a900473ffffffffffffffffffffffffffffffffffffffff16610974565b61255e600f848154811061252e577f4e487b7100000000000000000000000000000000000000000000000000000000600052603260045260246000fd5b9060005260206000200160009054906101000a900473ffffffffffffffffffffffffffffffffffffffff16610928565b11612d35576125d0600f83815481106125a0577f4e487b7100000000000000000000000000000000000000000000000000000000600052603260045260246000fd5b9060005260206000200160009054906101000a900473ffffffffffffffffffffffffffffffffffffffff16610808565b61263d600d838154811061260d577f4e487b7100000000000000000000000000000000000000000000000000000000600052603260045260246000fd5b9060005260206000200160009054906101000a900473ffffffffffffffffffffffffffffffffffffffff1661172e565b116126ba576126af600d828154811061267f577f4e487b7100000000000000000000000000000000000000000000000000000000600052603260045260246000fd5b9060005260206000200160009054906101000a900473ffffffffffffffffffffffffffffffffffffffff1661172e565b60098190555061272e565b612727600f83815481106126f7577f4e487b7100000000000000000000000000000000000000000000000000000000600052603260045260246000fd5b9060005260206000200160009054906101000a900473ffffffffffffffffffffffffffffffffffffffff16610808565b6009819055505b60006009541115612d345760006010600060035481526020019081526020016000209050600f838154811061278c577f4e487b7100000000000000000000000000000000000000000000000000000000600052603260045260246000fd5b9060005260206000200160009054906101000a900473ffffffffffffffffffffffffffffffffffffffff168160010160006101000a81548173ffffffffffffffffffffffffffffffffffffffff021916908373ffffffffffffffffffffffffffffffffffffffff160217905550600d8281548110612833577f4e487b7100000000000000000000000000000000000000000000000000000000600052603260045260246000fd5b9060005260206000200160009054906101000a900473ffffffffffffffffffffffffffffffffffffffff168160000160006101000a81548173ffffffffffffffffffffffffffffffffffffffff021916908373ffffffffffffffffffffffffffffffffffffffff1602179055506009548160020181905550612918600f84815481106128e8577f4e487b7100000000000000000000000000000000000000000000000000000000600052603260045260246000fd5b9060005260206000200160009054906101000a900473ffffffffffffffffffffffffffffffffffffffff166114be565b81600301908051906020019061292f929190613e65565b506009546129a0600d8481548110612970577f4e487b7100000000000000000000000000000000000000000000000000000000600052603260045260246000fd5b9060005260206000200160009054906101000a900473ffffffffffffffffffffffffffffffffffffffff1661172e565b6129aa91906147cf565b600c6000600d85815481106129e8577f4e487b7100000000000000000000000000000000000000000000000000000000600052603260045260246000fd5b9060005260206000200160009054906101000a900473ffffffffffffffffffffffffffffffffffffffff1673ffffffffffffffffffffffffffffffffffffffff1673ffffffffffffffffffffffffffffffffffffffff16815260200190815260200160002060010181905550600954612ac4600f8581548110612a94577f4e487b7100000000000000000000000000000000000000000000000000000000600052603260045260246000fd5b9060005260206000200160009054906101000a900473ffffffffffffffffffffffffffffffffffffffff16610808565b612ace91906147cf565b600e6000600f8681548110612b0c577f4e487b7100000000000000000000000000000000000000000000000000000000600052603260045260246000fd5b9060005260206000200160009054906101000a900473ffffffffffffffffffffffffffffffffffffffff1673ffffffffffffffffffffffffffffffffffffffff1673ffffffffffffffffffffffffffffffffffffffff168152602001908152602001600020600101819055506011600354908060018154018082558091505060019003906000526020600020016000909190919091505560036000815480929190612bb690614927565b91905055507fe3f5bacc77772aaf6927c3eb6e081dc61c95f4db128e4f8d14c4951b159bda47600f8481548110612c16577f4e487b7100000000000000000000000000000000000000000000000000000000600052603260045260246000fd5b9060005260206000200160009054906101000a900473ffffffffffffffffffffffffffffffffffffffff16600d8481548110612c7b577f4e487b7100000000000000000000000000000000000000000000000000000000600052603260045260246000fd5b9060005260206000200160009054906101000a900473ffffffffffffffffffffffffffffffffffffffff16600954612d16600f8881548110612ce6577f4e487b7100000000000000000000000000000000000000000000000000000000600052603260045260246000fd5b9060005260206000200160009054906101000a900473ffffffffffffffffffffffffffffffffffffffff166114be565b600654604051612d2a95949392919061444a565b60405180910390a1505b5b5b8080612d4190614927565b915050612402565b508080612d5590614927565b9150506123f2565b50565b60005b600f8054905081101561353c576000612ddf600f8381548110612daf577f4e487b7100000000000000000000000000000000000000000000000000000000600052603260045260246000fd5b9060005260206000200160009054906101000a900473ffffffffffffffffffffffffffffffffffffffff16610808565b111561352957612e52600f8281548110612e22577f4e487b7100000000000000000000000000000000000000000000000000000000600052603260045260246000fd5b9060005260206000200160009054906101000a900473ffffffffffffffffffffffffffffffffffffffff16610808565b600981905550600060106000600354815260200190815260200160002090506000600c60003073ffffffffffffffffffffffffffffffffffffffff1673ffffffffffffffffffffffffffffffffffffffff1681526020019081526020016000209050308160000160006101000a81548173ffffffffffffffffffffffffffffffffffffffff021916908373ffffffffffffffffffffffffffffffffffffffff16021790555060095481600101819055506002548160020181905550612f7a600f8481548110612f4a577f4e487b7100000000000000000000000000000000000000000000000000000000600052603260045260246000fd5b9060005260206000200160009054906101000a900473ffffffffffffffffffffffffffffffffffffffff166114be565b816003019080519060200190612f91929190613e65565b506000601260008360000160009054906101000a900473ffffffffffffffffffffffffffffffffffffffff1673ffffffffffffffffffffffffffffffffffffffff1673ffffffffffffffffffffffffffffffffffffffff168152602001908152602001600020819055507ff547d0a23c3d08128485e3178bd6f9dd1d0324581148aecfede2a6474c19dda330600954600254613090600f8881548110613060577f4e487b7100000000000000000000000000000000000000000000000000000000600052603260045260246000fd5b9060005260206000200160009054906101000a900473ffffffffffffffffffffffffffffffffffffffff166114be565b6006546040516130a49594939291906144cd565b60405180910390a1600f83815481106130e6577f4e487b7100000000000000000000000000000000000000000000000000000000600052603260045260246000fd5b9060005260206000200160009054906101000a900473ffffffffffffffffffffffffffffffffffffffff168260010160006101000a81548173ffffffffffffffffffffffffffffffffffffffff021916908373ffffffffffffffffffffffffffffffffffffffff160217905550308260000160006101000a81548173ffffffffffffffffffffffffffffffffffffffff021916908373ffffffffffffffffffffffffffffffffffffffff160217905550600954826002018190555061320e600f84815481106131de577f4e487b7100000000000000000000000000000000000000000000000000000000600052603260045260246000fd5b9060005260206000200160009054906101000a900473ffffffffffffffffffffffffffffffffffffffff166114be565b826003019080519060200190613225929190613e65565b50601160035490806001815401808255809150506001900390600052602060002001600090919091909150556009546132c1600f8581548110613291577f4e487b7100000000000000000000000000000000000000000000000000000000600052603260045260246000fd5b9060005260206000200160009054906101000a900473ffffffffffffffffffffffffffffffffffffffff16610808565b6132cb91906147cf565b600e6000600f8681548110613309577f4e487b7100000000000000000000000000000000000000000000000000000000600052603260045260246000fd5b9060005260206000200160009054906101000a900473ffffffffffffffffffffffffffffffffffffffff1673ffffffffffffffffffffffffffffffffffffffff1673ffffffffffffffffffffffffffffffffffffffff168152602001908152602001600020600101819055506003600081548092919061338890614927565b91905055507fe3f5bacc77772aaf6927c3eb6e081dc61c95f4db128e4f8d14c4951b159bda47600e6000600f86815481106133ec577f4e487b7100000000000000000000000000000000000000000000000000000000600052603260045260246000fd5b9060005260206000200160009054906101000a900473ffffffffffffffffffffffffffffffffffffffff1673ffffffffffffffffffffffffffffffffffffffff1673ffffffffffffffffffffffffffffffffffffffff16815260200190815260200160002060000160009054906101000a900473ffffffffffffffffffffffffffffffffffffffff168260000160009054906101000a900473ffffffffffffffffffffffffffffffffffffffff1660095461350a600f88815481106134da577f4e487b7100000000000000000000000000000000000000000000000000000000600052603260045260246000fd5b9060005260206000200160009054906101000a900473ffffffffffffffffffffffffffffffffffffffff166114be565b60065460405161351e95949392919061444a565b60405180910390a150505b808061353490614927565b915050612d63565b5060005b600d80549050811015613d195760006135bc600d838154811061358c577f4e487b7100000000000000000000000000000000000000000000000000000000600052603260045260246000fd5b9060005260206000200160009054906101000a900473ffffffffffffffffffffffffffffffffffffffff1661172e565b1115613d065761362f600d82815481106135ff577f4e487b7100000000000000000000000000000000000000000000000000000000600052603260045260246000fd5b9060005260206000200160009054906101000a900473ffffffffffffffffffffffffffffffffffffffff1661172e565b600981905550600060106000600354815260200190815260200160002090506000600e60003073ffffffffffffffffffffffffffffffffffffffff1673ffffffffffffffffffffffffffffffffffffffff1681526020019081526020016000209050308160000160006101000a81548173ffffffffffffffffffffffffffffffffffffffff021916908373ffffffffffffffffffffffffffffffffffffffff16021790555060095481600101819055506001548160020181905550613757600d8481548110613727577f4e487b7100000000000000000000000000000000000000000000000000000000600052603260045260246000fd5b9060005260206000200160009054906101000a900473ffffffffffffffffffffffffffffffffffffffff16610854565b81600301908051906020019061376e929190613e65565b506000601260008360000160009054906101000a900473ffffffffffffffffffffffffffffffffffffffff1673ffffffffffffffffffffffffffffffffffffffff1673ffffffffffffffffffffffffffffffffffffffff168152602001908152602001600020819055507f09917a68336a99192d8c02947db77f80f66a2983652444e115534c65c8543e423060095460015461386d600d888154811061383d577f4e487b7100000000000000000000000000000000000000000000000000000000600052603260045260246000fd5b9060005260206000200160009054906101000a900473ffffffffffffffffffffffffffffffffffffffff16610854565b6006546040516138819594939291906144cd565b60405180910390a1600d83815481106138c3577f4e487b7100000000000000000000000000000000000000000000000000000000600052603260045260246000fd5b9060005260206000200160009054906101000a900473ffffffffffffffffffffffffffffffffffffffff168260000160006101000a81548173ffffffffffffffffffffffffffffffffffffffff021916908373ffffffffffffffffffffffffffffffffffffffff160217905550308260010160006101000a81548173ffffffffffffffffffffffffffffffffffffffff021916908373ffffffffffffffffffffffffffffffffffffffff16021790555060095482600201819055506139eb600d84815481106139bb577f4e487b7100000000000000000000000000000000000000000000000000000000600052603260045260246000fd5b9060005260206000200160009054906101000a900473ffffffffffffffffffffffffffffffffffffffff16610854565b826003019080519060200190613a02929190613e65565b5060116003549080600181540180825580915050600190039060005260206000200160009091909190915055600954613a9e600d8581548110613a6e577f4e487b7100000000000000000000000000000000000000000000000000000000600052603260045260246000fd5b9060005260206000200160009054906101000a900473ffffffffffffffffffffffffffffffffffffffff1661172e565b613aa891906147cf565b600c6000600d8681548110613ae6577f4e487b7100000000000000000000000000000000000000000000000000000000600052603260045260246000fd5b9060005260206000200160009054906101000a900473ffffffffffffffffffffffffffffffffffffffff1673ffffffffffffffffffffffffffffffffffffffff1673ffffffffffffffffffffffffffffffffffffffff1681526020019081526020016000206001018190555060036000815480929190613b6590614927565b91905055507fe3f5bacc77772aaf6927c3eb6e081dc61c95f4db128e4f8d14c4951b159bda478160000160009054906101000a900473ffffffffffffffffffffffffffffffffffffffff16600c6000600d8781548110613bee577f4e487b7100000000000000000000000000000000000000000000000000000000600052603260045260246000fd5b9060005260206000200160009054906101000a900473ffffffffffffffffffffffffffffffffffffffff1673ffffffffffffffffffffffffffffffffffffffff1673ffffffffffffffffffffffffffffffffffffffff16815260200190815260200160002060000160009054906101000a900473ffffffffffffffffffffffffffffffffffffffff16600954613ce7600d8881548110613cb7577f4e487b7100000000000000000000000000000000000000000000000000000000600052603260045260246000fd5b9060005260206000200160009054906101000a900473ffffffffffffffffffffffffffffffffffffffff16610854565b600654604051613cfb95949392919061444a565b60405180910390a150505b8080613d1190614927565b915050613540565b50565b600f6000613d2a9190613f99565b600d6000613d389190613f99565b6000600760006101000a81548160ff021916908360ff16021790555060066000815480929190613d6790614927565b9190505550565b600073ffffffffffffffffffffffffffffffffffffffff168173ffffffffffffffffffffffffffffffffffffffff161415613da857600080fd5b8073ffffffffffffffffffffffffffffffffffffffff1660008054906101000a900473ffffffffffffffffffffffffffffffffffffffff1673ffffffffffffffffffffffffffffffffffffffff167f8be0079c531659141344cd1fd0a4f28419497f9722a3daafe3b4186f6b6457e060405160405180910390a3806000806101000a81548173ffffffffffffffffffffffffffffffffffffffff021916908373ffffffffffffffffffffffffffffffffffffffff16021790555050565b828054613e71906148c4565b90600052602060002090601f016020900481019282613e935760008555613eda565b82601f10613eac57805160ff1916838001178555613eda565b82800160010185558215613eda579182015b82811115613ed9578251825591602001919060010190613ebe565b5b509050613ee79190613fba565b5090565b828054613ef7906148c4565b90600052602060002090601f016020900481019282613f195760008555613f67565b82601f10613f2a5780548555613f67565b82800160010185558215613f6757600052602060002091601f016020900482015b82811115613f66578254825591600101919060010190613f4b565b5b509050613f749190613fba565b5090565b5080546000825590600052602060002090810190613f969190613fba565b50565b5080546000825590600052602060002090810190613fb79190613fba565b50565b5b80821115613fd3576000816000905550600101613fbb565b5090565b6000613fea613fe584614660565b61463b565b90508281526020810184848401111561400257600080fd5b61400d848285614858565b509392505050565b60008135905061402481614a8a565b92915050565b60008151905061403981614aa1565b92915050565b600082601f83011261405057600080fd5b8135614060848260208601613fd7565b91505092915050565b60008135905061407881614ab8565b92915050565b60008151905061408d81614ab8565b92915050565b6000602082840312156140a557600080fd5b60006140b384828501614015565b91505092915050565b6000602082840312156140ce57600080fd5b60006140dc8482850161402a565b91505092915050565b6000602082840312156140f757600080fd5b600061410584828501614069565b91505092915050565b60006020828403121561412057600080fd5b600061412e8482850161407e565b91505092915050565b60008060006060848603121561414c57600080fd5b600061415a86828701614069565b935050602061416b86828701614069565b925050604084013567ffffffffffffffff81111561418857600080fd5b6141948682870161403f565b9150509250925092565b600080600080608085870312156141b457600080fd5b60006141c287828801614069565b94505060206141d387828801614069565b93505060406141e487828801614069565b925050606085013567ffffffffffffffff81111561420157600080fd5b61420d8782880161403f565b91505092959194509250565b60006142258383614249565b60208301905092915050565b600061423d83836143b1565b60208301905092915050565b61425281614803565b82525050565b61426181614803565b82525050565b6000614272826146b1565b61427c81856146ec565b935061428783614691565b8060005b838110156142b857815161429f8882614219565b97506142aa836146d2565b92505060018101905061428b565b5085935050505092915050565b60006142d0826146bc565b6142da81856146fd565b93506142e5836146a1565b8060005b838110156143165781516142fd8882614231565b9750614308836146df565b9250506001810190506142e9565b5085935050505092915050565b61432c81614815565b82525050565b600061433d826146c7565b614347818561470e565b9350614357818560208601614867565b61436081614a27565b840191505092915050565b600061437860118361470e565b915061438382614a38565b602082019050919050565b600061439b60108361470e565b91506143a682614a61565b602082019050919050565b6143ba81614841565b82525050565b6143c981614841565b82525050565b60006020820190506143e46000830184614258565b92915050565b60006040820190506143ff6000830185614258565b61440c6020830184614258565b9392505050565b60006060820190506144286000830186614258565b6144356020830185614258565b61444260408301846143c0565b949350505050565b600060a08201905061445f6000830188614258565b61446c6020830187614258565b61447960408301866143c0565b818103606083015261448b8185614332565b905061449a60808301846143c0565b9695505050505050565b60006040820190506144b96000830185614258565b6144c660208301846143c0565b9392505050565b600060a0820190506144e26000830188614258565b6144ef60208301876143c0565b6144fc60408301866143c0565b818103606083015261450e8185614332565b905061451d60808301846143c0565b9695505050505050565b600060208201905081810360008301526145418184614267565b905092915050565b6000602082019050818103600083015261456381846142c5565b905092915050565b60006020820190506145806000830184614323565b92915050565b600060208201905081810360008301526145a08184614332565b905092915050565b60006020820190506145bd60008301846143c0565b92915050565b60006060820190506145d860008301856143c0565b6145e560208301846143c0565b81810360408301526145f68161436b565b90509392505050565b600060608201905061461460008301856143c0565b61462160208301846143c0565b81810360408301526146328161438e565b90509392505050565b6000614645614656565b905061465182826148f6565b919050565b6000604051905090565b600067ffffffffffffffff82111561467b5761467a6149f8565b5b61468482614a27565b9050602081019050919050565b6000819050602082019050919050565b6000819050602082019050919050565b600081519050919050565b600081519050919050565b600081519050919050565b6000602082019050919050565b6000602082019050919050565b600082825260208201905092915050565b600082825260208201905092915050565b600082825260208201905092915050565b600061472a82614841565b915061473583614841565b9250827fffffffffffffffffffffffffffffffffffffffffffffffffffffffffffffffff0382111561476a5761476961499a565b5b828201905092915050565b600061478082614841565b915061478b83614841565b9250817fffffffffffffffffffffffffffffffffffffffffffffffffffffffffffffffff04831182151516156147c4576147c361499a565b5b828202905092915050565b60006147da82614841565b91506147e583614841565b9250828210156147f8576147f761499a565b5b828203905092915050565b600061480e82614821565b9050919050565b60008115159050919050565b600073ffffffffffffffffffffffffffffffffffffffff82169050919050565b6000819050919050565b600060ff82169050919050565b82818337600083830152505050565b60005b8381101561488557808201518184015260208101905061486a565b83811115614894576000848401525b50505050565b60006148a58261484b565b915060008214156148b9576148b861499a565b5b600182039050919050565b600060028204905060018216806148dc57607f821691505b602082108114156148f0576148ef6149c9565b5b50919050565b6148ff82614a27565b810181811067ffffffffffffffff8211171561491e5761491d6149f8565b5b80604052505050565b600061493282614841565b91507fffffffffffffffffffffffffffffffffffffffffffffffffffffffffffffffff8214156149655761496461499a565b5b600182019050919050565b600061497b8261484b565b915060ff82141561498f5761498e61499a565b5b600182019050919050565b7f4e487b7100000000000000000000000000000000000000000000000000000000600052601160045260246000fd5b7f4e487b7100000000000000000000000000000000000000000000000000000000600052602260045260246000fd5b7f4e487b7100000000000000000000000000000000000000000000000000000000600052604160045260246000fd5b6000601f19601f8301169050919050565b7f66616c6c6261636b707269636568696768000000000000000000000000000000600082015250565b7f66616c6c6261636b70726963656c6f7700000000000000000000000000000000600082015250565b614a9381614803565b8114614a9e57600080fd5b50565b614aaa81614815565b8114614ab557600080fd5b50565b614ac181614841565b8114614acc57600080fd5b5056fea26469706673582212204dc17989da4f5a5f5bfddf11e0e262dc85862682f7b545678bdd0bb0c8c8291264736f6c63430008010033",
  "immutableReferences": {},
  "source": "pragma solidity >=0.8.1 <0.9.0;\n\n//  allowing the market mechanism to use functions of the Energy Credits\ninterface EnergyCreditsInterface{\n  function totalSupply() external returns (uint);\n  function balanceOf(address tokenOwner) external returns (uint balance);\n  function transfer(address to, uint tokens) external returns (bool success);\n  function approve(address spender, uint tokens) external returns (bool success);\n  function transferFrom(address from, address to, uint tokens) external returns (bool success);\n  function allowance(address tokenOwner, address spender) external returns (uint remaining);\n  }\n// ----------------------------------------------------------------------------\n// @title Ownable\n//  The Ownable contract has an owner address, and provides basic authorization control\n// functions, this simplifies the implementation of \"user permissions\".\n// ----------------------------------------------------------------------------\ncontract Ownable {\n  address private _owner;\n\n  event OwnershipTransferred(address indexed previousOwner,address indexed newOwner);\n\n\n  //  The Ownable constructor sets the original `owner` of the contract to the sender\n  // account.\n  constructor() {\n    _owner = msg.sender;\n    emit OwnershipTransferred(address(0), _owner);\n  }\n\n\n  // @return the address of the owner.\n  function owner() public view returns(address) {\n    return _owner;\n  }\n\n\n  //  Throws if called by any account other than the owner.\n  modifier onlyOwner() {\n    require(isOwner());\n    _;\n  }\n\n\n  // @return true if `msg.sender` is the owner of the contract.\n  function isOwner() public view returns(bool) {\n    return msg.sender == _owner;\n  }\n\n\n  //  Allows the current owner to relinquish control of the contract.\n  // @notice Renouncing to ownership will leave the contract without an owner.\n  // It will not be possible to call the functions with the `onlyOwner`\n  // modifier anymore.\n  function renounceOwnership() public onlyOwner {\n    emit OwnershipTransferred(_owner, address(0));\n    _owner = address(0);\n  }\n\n\n  //  Allows the current owner to transfer control of the contract to a newOwner.\n  // @param newOwner The address to transfer ownership to.\n  function transferOwnership(address newOwner) public onlyOwner {\n    _transferOwnership(newOwner);\n  }\n\n\n  //  Transfers control of the contract to a newOwner.\n  // @param newOwner The address to transfer ownership to.\n  function _transferOwnership(address newOwner) internal {\n    require(newOwner != address(0));\n    emit OwnershipTransferred(_owner, newOwner);\n    _owner = newOwner;\n  }\n  }\n\ncontract EnergyMarket is Ownable{\nuint fallbackPriceHigh = 2367;  // 23,67 Cent\nuint fallbackPriceLow = 1200;   //12,00 Cent\nuint match_id=0;\nuint uniformprice = 0;\nuint uniformPriceBHKW = 0;\nuint tick = 0;\nuint8 pv  = 0;\nuint8 bhkw = 0;\nuint lastTriggerBlock = block.number;\nuint matchAmount = 0;\nuint trigger = 0;\naddress ckaddress = address(0); // <-- manually change the address to your token address\n\n\n// Structs\nstruct Ask {\n  address asker;\n  uint amount;\n  uint price;\n  string timestamp;\n  }\n\nstruct Bid {\n  address bidder;\n  uint amount;\n  uint price;\n  string timestamp;\n  }\n\nstruct Match{\n  address askaddress;\n  address bidaddress;\n  uint amount;\n  string timestamp;\n  }\n\n\n// Events\nevent AskPlaced (address asker, uint amount, uint price, string timestamp, uint tick);\nevent BidPlaced (address bidder, uint amount, uint price, string timestamp, uint tick);\nevent UniformPrice (uint uniformprice, string timestamp, uint tick);\nevent MatchMade (address asker, address bidder, uint amount, string timestamp, uint tick);\nevent Transaction(address from, address to, string what, uint amount, uint tick);\nevent UpdatePrice(uint oldprice, uint newprice, string which);\nevent ChangeofToken(address oldtoken, address ckaddress);\n\n\n// Mappings\n// Every placed ask or bid is connected to the senders address and the addresses\n// are stored in an array\nmapping(address => Ask) asks;\naddress[] public ask_ids;\n\nmapping(address => Bid) bids;\naddress[] public bid_ids;\n\n//  Every match made is connected to an ID which is stored in an array\nmapping(uint => Match) matches;\nuint[] public match_ids;\n\n//  Locked value of all market participants is connected to their address\nmapping(address => uint) remainingLockedValue;\n\n// Links KITEnergyTokenInterface to specific smart contract\nEnergyCreditsInterface EnergyCredits = EnergyCreditsInterface(ckaddress);\n\n//  Constructor of contract to equip the market place with ether\nconstructor() payable{}\n\n// Equip market place with more ether\nfunction sendEther() public payable returns (bool success){\n  return true;\n  }\n\n//  Throws if Bid does not include sufficient amount of ether\nmodifier hasethBalance(uint _amount, uint _price, uint price){\n    _price = price;\n    if (_price > price){\n      _price = _price;\n    }\n    if(fallbackPriceHigh>_price){\n      require((msg.value + remainingLockedValue[msg.sender])>=((fallbackPriceHigh)*_amount)*(10**14));\n    }\n    else{\n      require((msg.value + remainingLockedValue[msg.sender])>=((_price)*_amount)*(10**14));\n      }\n      _;\n    }\n\n//  Throws if Ask does not include sufficient amount of token\nmodifier hastokenBalance(uint _amount){\n      require((EnergyCredits.allowance(msg.sender,address(this)) + remainingLockedValue[msg.sender])>=_amount);\n  _;\n  }\n\n//  Throws if minimal amount of blocks in between to two auctions\n// has not been mined\nmodifier isTrigger(){\n  require(block.number>=lastTriggerBlock+trigger);\n  _;\n  }\n\n//  Creation of an Ask\n// @param _amount of electricity, _price which is asked for\n// _timestamp of ask\n// @notice A market participant can place an ask if no future bid has been made in\n// this trading period, empty asks are forbidden to be protected against DOS attacks\nfunction addAsk (uint _amount, uint _price, string memory _timestamp) public hastokenBalance(_amount){\n  require(bids[msg.sender].amount==0);\n  require(_amount > 0);\n  if(asks[msg.sender].amount==0){\n    Ask storage ask = asks[msg.sender];\n    ask.asker = msg.sender;\n    ask.amount = _amount;\n    ask.price = _price;\n    ask.timestamp = _timestamp;\n    ask_ids.push(msg.sender);\n    remainingLockedValue[ask.asker]=_amount;\n    EnergyCredits.transferFrom(msg.sender,address(this),_amount);\n  }\n  else {\n    Ask storage askUpdate = asks[msg.sender];\n    askUpdate.amount = _amount;\n    askUpdate.price = _price;\n    askUpdate.timestamp = _timestamp;\n    asks[msg.sender] = askUpdate;\n\n    if (_amount > remainingLockedValue[msg.sender]){\n      EnergyCredits.transferFrom(msg.sender,address(this),(_amount-remainingLockedValue[msg.sender]));\n    }\n    else{\n      EnergyCredits.transfer(msg.sender,(remainingLockedValue[msg.sender]-_amount));\n    }\n    remainingLockedValue[msg.sender]=_amount;\n    }\n    emit AskPlaced(msg.sender, _amount, _price,_timestamp,tick);\n  }\n\n//  Creation of a Bid\n// @param _amount of electricity, _price is the reservation price for PV-Energy,\n// _pricebhkw is the reservation price for CHP-Energy, _timestamp of bid\n// @notice A market participant can place an bid if no future ask has been made in t\n// his trading period, empty asks are forbidden to be protected against DOS attacks\nfunction addBid (uint _amount, uint _price, uint _pricebhkw, string memory _timestamp) public payable hasethBalance(_amount,_price,_pricebhkw) {\n    require(asks[msg.sender].amount==0);\n    if(bids[msg.sender].amount==0){\n      Bid storage bid = bids[msg.sender];\n      bid.bidder = msg.sender;\n      bid.amount = _amount;\n      bid.price = _price;\n      bid.timestamp = _timestamp;\n      if (_pricebhkw > _price){\n        bhkw++;\n      }\n      if (_price > _pricebhkw){\n        pv++;\n      }\n      bid_ids.push(msg.sender);\n      remainingLockedValue[msg.sender]=(msg.value);\n    }\n    else {\n      Bid storage bidUpdate= bids[msg.sender];\n      bidUpdate.amount = _amount;\n      bidUpdate.price = _price;\n      bidUpdate.timestamp = _timestamp;\n      if (_pricebhkw > _price){\n        bhkw++;\n        pv--;\n      }\n      if(_pricebhkw < _price){\n        pv++;\n        bhkw--;\n      }\n\n      bids[msg.sender] = bidUpdate;\n\n      uint _price = _pricebhkw;\n      if (_price > _pricebhkw){\n        _price = _price;\n      }\n      if(fallbackPriceHigh>_price){\n        _price = fallbackPriceHigh;\n      }\n\n      if ((_price * 10**14 * _amount) < remainingLockedValue[msg.sender]){\n        payable(msg.sender).transfer(remainingLockedValue[msg.sender] - (_price * 10**14 * _amount));\n        remainingLockedValue[msg.sender]= (_price * 10**14 * _amount);\n      }\n      else{\n        remainingLockedValue[msg.sender]=(remainingLockedValue[msg.sender]+msg.value);\n      }\n    }\n    emit BidPlaced (msg.sender, _amount, _price, _timestamp, tick);\n  }\n\n//Update Functions\nfunction changeTokenAddress(address _token) public onlyOwner returns (bool){\n  address oldtoken = ckaddress;\n  ckaddress = _token;\n  emit ChangeofToken(oldtoken,ckaddress);\n  return true;\n}\n\n// View functions\n//  Shows all current bids\n// @return array containing all bids\nfunction getAllBids() public view returns (address[] memory){\n  return bid_ids;\n  }\n\n// //  Shows PV-price of bid\n// // @param address of bidder\n// // @return uint being his PV-price in Cents*100\nfunction getBidPrice(address _address) public view returns (uint){\n  return bids[_address].price;\n  }\n\n// //  Shows electricity amount of bid\n// // @param address of bidder\n// // @return uint being the amount of electricity he wants to buy in kWh\nfunction getBidAmount(address _address) public view returns (uint){\n  return bids[_address].amount;\n  } \n\n// //  Shows point in time of bid\n// // @param address of bidder\n// // @return string reprensenting the timestamp of the bid\nfunction getBidTimestamp(address _address) public view returns (string memory){\n  return bids[_address].timestamp;\n}\n\n//  Shows all current asks\n// @return array containing all asks\nfunction getAllAsks() public view returns (address[] memory){\n      return ask_ids;\n    }\n\n// //  Shows preferred price of ask\n// // @param address of asker\n// // @return uint being the price preference in Cents*100\nfunction getAskPrice(address _address) public view returns (uint){\n  return asks[_address].price;\n  }\n\n// //  Shows electricity amount of ask\n// // @param address of asker\n// // @return uint being the amount of electricity he wants to sell in kWh\nfunction getAskAmount(address _address) public view returns (uint){\n  return asks[_address].amount;\n  }\n\n\n// //  Shows point in time of ask\n// // @param address of asker\n// // @return string reprensenting the timestamp of the bid\nfunction getAskTimestamp(address _address) public view returns (string memory){\n  return asks[_address].timestamp;\n}\n\n// //  Shows the remaining locked value\n// // @param address of bidder/bidder\n// // @return uint being the amount of electricity (asker) or the\n// // amount of ether that has been locked for the trading period\nfunction getremainingvalue (address _sender) public view returns(uint){\n  return remainingLockedValue[_sender];\n  }\n\n//  Shows the fallbackprice for buyers\n// @return the current fallbackprichigh in cent*100\nfunction getfallbackPriceHigh() public view returns(uint){\n  return fallbackPriceHigh;\n  }\n\n//  Shows the fallbackprice for sellers\n// @return the current fallbackpricelow in cent*100\nfunction getfallbackPriceLow() public view returns(uint){\n  return fallbackPriceLow;\n  }\n\n//  Shows all matches of trading period\n// @return array containing all match-IDs\nfunction getMatches() public view returns (uint[] memory){\n  return match_ids;\n  }\n\n//  Shows UniformPrice for PV of this trading period\n// @return uint being the uniformprice in cent*100\nfunction getUniformprice () public view returns (uint) {\n  return uniformprice;\n  }\n\n//function um bei Bids und Asks zu prfen, ob auch die Auction getriggered werden soll\nfunction getBoolean() public view returns(bool){\n    if(block.number>=lastTriggerBlock+trigger){\n        return true;\n    }\n  }\n\nfunction updateFallbackPriceHigh(uint _fallbackpricehigh) public onlyOwner returns (bool){ //reihenfolge checken und owner implementieren\n    uint r = fallbackPriceHigh;\n    fallbackPriceHigh = _fallbackpricehigh;\n    emit UpdatePrice(r,fallbackPriceHigh,\"fallbackpricehigh\");\n    return true;\n  }\n\nfunction updateFallbackPriceLow(uint _fallbackpricelow) public onlyOwner returns (bool) { //reihenfolge checken und owner implementieren\n    uint r = fallbackPriceLow;\n    fallbackPriceLow = _fallbackpricelow;\n    emit UpdatePrice(r,fallbackPriceLow,\"fallbackpricelow\");\n    return true;\n  }\n\n//Adjustment of the distance between two auctions\nfunction setTrigger(uint t) public onlyOwner returns(bool) {\n  trigger = t;\n  return true;\n  }\n\n\n//  Sorting array of asks upwards\nfunction sort_array() private{\n    uint256 l = bid_ids.length;\n    for(uint i = 0; i < l; i++) {\n        for(uint j = i+1; j < l ;j++) {\n            if(getBidPrice(bid_ids[i]) > getBidPrice(bid_ids[j])) {\n                address temp = bid_ids[i];\n                bid_ids[i] = bid_ids[j];\n                bid_ids[j] = temp;\n            }\n        }\n    }\n  }\n\nfunction try_to_auction() public isTrigger{\n  //Triggering the sorting of bids and asks, as well as triggering the auction\n  lastTriggerBlock=block.number;  //if the auction is triggered, then we save the current block\n  reset_before();\n  if(bhkw > pv){\n    sort_array(); // with function then call is trigger? But then the part here is executed every time. not like that!\n    pvmatching();\n    }\n  else{\n    sort_array();\n    pvmatching();\n    }\n  rest_of_auction();\n  //matchingTransactions();\n  reset_after();\n    }\n\n//Matching in the PV market\nfunction pvmatching() private{\n  for (uint i=0; i<bid_ids.length; i++) { //go through all bids\n      for(uint j = 0; j< ask_ids.length; j++){  //go through all the asks\n          if(getAskAmount(ask_ids[j]) > 0){\n          if(getBidPrice(bid_ids[i]) <= getAskPrice(ask_ids[j])){ //Offer price less than or equal to demand price\n             if(getAskAmount(ask_ids[j]) <= getBidAmount(bid_ids[i])){  //Demand quantity less than or equal to supply quantity\n                 matchAmount = getAskAmount(ask_ids[j]);  //then the demand quantity is the matched quantity\n             }else{\n                 matchAmount = getBidAmount(bid_ids[i]);  //otherwise the demand will be partially filled with the remaining supply\n             }\n             if(matchAmount > 0){ //if matchamount> 0 a match is created\n                 Match storage _matchPV = matches[match_id];\n                 _matchPV.bidaddress = bid_ids[i];\n                 _matchPV.askaddress = ask_ids[j];\n                 _matchPV.amount = matchAmount;\n                 _matchPV.timestamp = getBidTimestamp(bid_ids[i]);\n                 asks[ask_ids[j]].amount = getAskAmount(ask_ids[j]) - matchAmount; //matchAmount von Ask Amount abziehen\n                 bids[bid_ids[i]].amount = getBidAmount(bid_ids[i]) - matchAmount; //matchAmount von Bid Amount abziehen\n                 match_ids.push(match_id);\n                 match_id++;\n\n                 emit MatchMade(bid_ids[i],ask_ids[j],matchAmount,getBidTimestamp(bid_ids[i]),tick);\n             }\n          }\n          }\n      }\n    }\n  }\n\nfunction rest_of_auction() private{\n  //Matching in GreyMarket with the remaining offer quantities, Ask is provided here by GreyMarket\n  for(uint i = 0; i < bid_ids.length; i++){\n    if(getBidAmount(bid_ids[i]) > 0){\n      matchAmount = getBidAmount(bid_ids[i]);\n      Match storage matchGrey1 = matches[match_id];\n\n      Ask storage greyAsk = asks[address(this)];\n      greyAsk.asker = address(this);\n      greyAsk.amount = matchAmount;\n      greyAsk.price = fallbackPriceLow;\n      greyAsk.timestamp = getBidTimestamp(bid_ids[i]);\n      remainingLockedValue[greyAsk.asker] = 0;\n      emit AskPlaced(address(this),matchAmount,fallbackPriceLow,getBidTimestamp(bid_ids[i]),tick);\n\n      matchGrey1.bidaddress = bid_ids[i];\n      matchGrey1.askaddress = address(this);\n      matchGrey1.amount = matchAmount;\n      matchGrey1.timestamp = getBidTimestamp(bid_ids[i]);\n      match_ids.push(match_id);\n      bids[bid_ids[i]].amount = getBidAmount(bid_ids[i]) - matchAmount;\n      match_id++;\n\n      emit MatchMade(bids[bid_ids[i]].bidder,greyAsk.asker,matchAmount,getBidTimestamp(bid_ids[i]),tick);\n      }\n    }\n\n  //Matching in GreyMarket with the remaining demand, the bid is made here by GreyMarket\n  for(uint j = 0; j < ask_ids.length; j++){\n    if(getAskAmount(ask_ids[j]) > 0){\n      matchAmount = getAskAmount(ask_ids[j]);\n      Match storage matchGrey2 = matches[match_id];\n\n      Bid storage greyBid = bids[address(this)];\n      greyBid.bidder = address(this);\n      greyBid.amount = matchAmount;\n      greyBid.price = fallbackPriceHigh;\n      greyBid.timestamp = getAskTimestamp(ask_ids[j]);\n      remainingLockedValue[greyBid.bidder]=0;\n      emit BidPlaced(address(this),matchAmount,fallbackPriceHigh,getAskTimestamp(ask_ids[j]),tick);\n\n      matchGrey2.askaddress = ask_ids[j];\n      matchGrey2.bidaddress = address(this);\n      matchGrey2.amount = matchAmount;\n      matchGrey2.timestamp = getAskTimestamp(ask_ids[j]);\n      match_ids.push(match_id);\n      asks[ask_ids[j]].amount = getAskAmount(ask_ids[j]) - matchAmount;\n      match_id++;\n\n      emit MatchMade(greyBid.bidder,asks[ask_ids[j]].asker,matchAmount,getAskTimestamp(ask_ids[j]),tick);\n\n      }\n    }\n  }\n\n\n//divide by 100 possibly omit so there is no type force\n\n\n//Transactions\nfunction matchingTransactions() private {\n    //Transactions for PV\n    for(uint z = 0; z < match_ids.length; z++){\n        EnergyCredits.transfer(matches[match_ids[z]].askaddress,(matches[match_ids[z]].amount)); // Asker bekommt token vom contract (die wir vom Bidder bekommen haben)\n        payable(matches[match_ids[z]].bidaddress).transfer(matches[match_ids[z]].amount*getUniformprice()*(10**14)); //Bidder bekommt eth vom contract (die wir vom Asker bekommen haben)\n        remainingLockedValue[matches[match_ids[z]].askaddress] = remainingLockedValue[matches[match_ids[z]].askaddress] - (matches[match_ids[z]].amount * getUniformprice()* (10**14)); //remainingLockedValue wird um Transaktionsvolumen reduziert\n        emit Transaction(matches[match_ids[z]].askaddress,matches[match_ids[z]].bidaddress,\"Cent*100\",matches[match_ids[z]].amount*getUniformprice(),tick);\n        remainingLockedValue[matches[match_ids[z]].bidaddress] = remainingLockedValue[matches[match_ids[z]].bidaddress] - (matches[match_ids[z]].amount); //remainingLockedValue wird um Transaktionsvolumen reduziert\n        emit Transaction(matches[match_ids[z]].bidaddress,matches[match_ids[z]].askaddress,\"Token\",matches[match_ids[z]].amount,tick);\n      \n    }\n\n    //Transactions for Gray at GreyMarket as Ask\n    // for(uint z = 0; z < match_ids.length; z++){\n    //   if(getMatchPreference(z)==1){\n    //     emit Transaction(matches[match_ids[z]].bidaddress,matches[match_ids[z]].askaddress,\"Token\",matches[match_ids[z]].amount,tick);\n    //     matches[match_ids[z]].bidaddress.transfer(matches[match_ids[z]].amount*fallbackPriceLow*(10**14));\n    //     remainingLockedValue[matches[match_ids[z]].bidaddress] = remainingLockedValue[matches[match_ids[z]].bidaddress] - (matches[match_ids[z]].amount);\n    //     emit Transaction(matches[match_ids[z]].askaddress,matches[match_ids[z]].bidaddress,\"Cent*100\",matches[match_ids[z]].amount*fallbackPriceLow,tick);\n    //   }\n    // }\n\n    // //Transactions for Gray at GreyMarket as a bid\n    // for(uint z = 0; z < match_ids.length; z++){\n    //   if(getMatchPreference(z)==4){\n    //     energytoken.transfer(matches[match_ids[z]].askaddress,(matches[match_ids[z]].amount));\n    //     remainingLockedValue[matches[match_ids[z]].askaddress] = remainingLockedValue[matches[match_ids[z]].askaddress] - (matches[match_ids[z]].amount*fallbackPriceHigh*(10**14));\n    //     emit Transaction(matches[match_ids[z]].bidaddress,matches[match_ids[z]].askaddress,\"Token\",matches[match_ids[z]].amount,tick);\n    //     emit Transaction(matches[match_ids[z]].askaddress,matches[match_ids[z]].bidaddress,\"Cent*100\",matches[match_ids[z]].amount*fallbackPriceHigh,tick);\n    //   }\n    // }\n    \n\n\n    //Refunds if the blocked amount is higher than the amount actually paid and the mappings & arrays are deleted\n    for(uint z = 0; z < match_ids.length; z++){\n         if(remainingLockedValue[matches[match_ids[z]].askaddress]>0){\n           payable(matches[match_ids[z]].askaddress).transfer(remainingLockedValue[matches[match_ids[z]].askaddress]);\n           emit Transaction(address(this),matches[match_ids[z]].askaddress,\"Repayment Wei\",remainingLockedValue[matches[match_ids[z]].askaddress],tick);\n           remainingLockedValue[matches[match_ids[z]].askaddress] = 0;\n         }\n       }\n    }\n\nfunction reset_after() private {\n    delete bid_ids;\n    delete ask_ids;\n    pv = 0;\n    tick++;\n  }\n\nfunction reset_before() private{\n    delete match_ids;\n    match_id = 0;\n    uniformprice = 0;\n\n}\n\n}\n",
  "sourcePath": "C:/Users/batub/Documents/Energy Credits/contracts/energymarket.sol",
  "compiler": {
    "name": "solc",
    "version": "0.8.1+commit.df193b15.Emscripten.clang"
  },
  "schemaVersion": "3.4.1",
  "updatedAt": "2021-07-30T20:58:29.945Z",
  "networkType": "ethereum",
  "devdoc": {
    "kind": "dev",
    "methods": {},
    "version": 1
  },
  "userdoc": {
    "kind": "user",
    "methods": {},
    "version": 1
  }
}