{
  "contractName": "Ownable",
  "abi": [
    {
      "inputs": [],
      "stateMutability": "nonpayable",
      "type": "constructor"
    },
    {
      "anonymous": false,
      "inputs": [
        {
          "indexed": true,
          "internalType": "address",
          "name": "previousOwner",
          "type": "address"
        },
        {
          "indexed": true,
          "internalType": "address",
          "name": "newOwner",
          "type": "address"
        }
      ],
      "name": "OwnershipTransferred",
      "type": "event"
    },
    {
      "inputs": [],
      "name": "owner",
      "outputs": [
        {
          "internalType": "address",
          "name": "",
          "type": "address"
        }
      ],
      "stateMutability": "view",
      "type": "function"
    },
    {
      "inputs": [],
      "name": "isOwner",
      "outputs": [
        {
          "internalType": "bool",
          "name": "",
          "type": "bool"
        }
      ],
      "stateMutability": "view",
      "type": "function"
    },
    {
      "inputs": [],
      "name": "renounceOwnership",
      "outputs": [],
      "stateMutability": "nonpayable",
      "type": "function"
    },
    {
      "inputs": [
        {
          "internalType": "address",
          "name": "newOwner",
          "type": "address"
        }
      ],
      "name": "transferOwnership",
      "outputs": [],
      "stateMutability": "nonpayable",
      "type": "function"
    }
  ],
  "bytecode": "0x608060405234801561001057600080fd5b50336000806101000a81548173ffffffffffffffffffffffffffffffffffffffff021916908373ffffffffffffffffffffffffffffffffffffffff16021790555060008054906101000a900473ffffffffffffffffffffffffffffffffffffffff1673ffffffffffffffffffffffffffffffffffffffff16600073ffffffffffffffffffffffffffffffffffffffff167f8be0079c531659141344cd1fd0a4f28419497f9722a3daafe3b4186f6b6457e060405160405180910390a3610433806100db6000396000f3fe608060405234801561001057600080fd5b506004361061004c5760003560e01c8063715018a6146100515780638da5cb5b1461005b5780638f32d59b14610079578063f2fde38b14610097575b600080fd5b6100596100b3565b005b610063610182565b6040516100709190610372565b60405180910390f35b6100816101ab565b60405161008e919061038d565b60405180910390f35b6100b160048036038101906100ac919061032b565b610202565b005b6100bb6101ab565b6100c457600080fd5b600073ffffffffffffffffffffffffffffffffffffffff1660008054906101000a900473ffffffffffffffffffffffffffffffffffffffff1673ffffffffffffffffffffffffffffffffffffffff167f8be0079c531659141344cd1fd0a4f28419497f9722a3daafe3b4186f6b6457e060405160405180910390a360008060006101000a81548173ffffffffffffffffffffffffffffffffffffffff021916908373ffffffffffffffffffffffffffffffffffffffff160217905550565b60008060009054906101000a900473ffffffffffffffffffffffffffffffffffffffff16905090565b60008060009054906101000a900473ffffffffffffffffffffffffffffffffffffffff1673ffffffffffffffffffffffffffffffffffffffff163373ffffffffffffffffffffffffffffffffffffffff1614905090565b61020a6101ab565b61021357600080fd5b61021c8161021f565b50565b600073ffffffffffffffffffffffffffffffffffffffff168173ffffffffffffffffffffffffffffffffffffffff16141561025957600080fd5b8073ffffffffffffffffffffffffffffffffffffffff1660008054906101000a900473ffffffffffffffffffffffffffffffffffffffff1673ffffffffffffffffffffffffffffffffffffffff167f8be0079c531659141344cd1fd0a4f28419497f9722a3daafe3b4186f6b6457e060405160405180910390a3806000806101000a81548173ffffffffffffffffffffffffffffffffffffffff021916908373ffffffffffffffffffffffffffffffffffffffff16021790555050565b600081359050610325816103e6565b92915050565b60006020828403121561033d57600080fd5b600061034b84828501610316565b91505092915050565b61035d816103a8565b82525050565b61036c816103ba565b82525050565b60006020820190506103876000830184610354565b92915050565b60006020820190506103a26000830184610363565b92915050565b60006103b3826103c6565b9050919050565b60008115159050919050565b600073ffffffffffffffffffffffffffffffffffffffff82169050919050565b6103ef816103a8565b81146103fa57600080fd5b5056fea2646970667358221220881795a30398e4ff1edba80fd75d36d8f69a2d23fe3487df5c9b72d80fe9790264736f6c63430008010033",
  "immutableReferences": {},
  "source": "pragma solidity >=0.8.1 <0.9.0;\r\n\r\n//  allowing the market mechanism to use functions of the Energy Credits\r\ninterface EnergyCreditsInterface{\r\n  function totalSupply() external returns (uint);\r\n  function balanceOf(address tokenOwner) external returns (uint balance);\r\n  function transfer(address to, uint tokens) external returns (bool success);\r\n  function approve(address spender, uint tokens) external returns (bool success);\r\n  function transferFrom(address from, address to, uint tokens) external returns (bool success);\r\n  function allowance(address tokenOwner, address spender) external returns (uint remaining);\r\n  }\r\n// ----------------------------------------------------------------------------\r\n// @title Ownable\r\n//  The Ownable contract has an owner address, and provides basic authorization control\r\n// functions, this simplifies the implementation of \"user permissions\".\r\n// ----------------------------------------------------------------------------\r\ncontract Ownable {\r\n  address private _owner;\r\n\r\n  event OwnershipTransferred(address indexed previousOwner,address indexed newOwner);\r\n\r\n\r\n  //  The Ownable constructor sets the original `owner` of the contract to the sender\r\n  // account.\r\n  constructor() {\r\n    _owner = msg.sender;\r\n    emit OwnershipTransferred(address(0), _owner);\r\n  }\r\n\r\n\r\n  // @return the address of the owner.\r\n  function owner() public view returns(address) {\r\n    return _owner;\r\n  }\r\n\r\n\r\n  //  Throws if called by any account other than the owner.\r\n  modifier onlyOwner() {\r\n    require(isOwner());\r\n    _;\r\n  }\r\n\r\n\r\n  // @return true if `msg.sender` is the owner of the contract.\r\n  function isOwner() public view returns(bool) {\r\n    return msg.sender == _owner;\r\n  }\r\n\r\n\r\n  //  Allows the current owner to relinquish control of the contract.\r\n  // @notice Renouncing to ownership will leave the contract without an owner.\r\n  // It will not be possible to call the functions with the `onlyOwner`\r\n  // modifier anymore.\r\n  function renounceOwnership() public onlyOwner {\r\n    emit OwnershipTransferred(_owner, address(0));\r\n    _owner = address(0);\r\n  }\r\n\r\n\r\n  //  Allows the current owner to transfer control of the contract to a newOwner.\r\n  // @param newOwner The address to transfer ownership to.\r\n  function transferOwnership(address newOwner) public onlyOwner {\r\n    _transferOwnership(newOwner);\r\n  }\r\n\r\n\r\n  //  Transfers control of the contract to a newOwner.\r\n  // @param newOwner The address to transfer ownership to.\r\n  function _transferOwnership(address newOwner) internal {\r\n    require(newOwner != address(0));\r\n    emit OwnershipTransferred(_owner, newOwner);\r\n    _owner = newOwner;\r\n  }\r\n  }\r\n\r\ncontract EnergyMarket is Ownable{\r\nuint fallbackPriceHigh = 2367;  // 23,67 Cent\r\nuint fallbackPriceLow = 1200;   //12,00 Cent\r\nuint match_id=0;\r\nuint uniformprice = 0;\r\nuint uniformPriceBHKW = 0;\r\nuint tick = 0;\r\nuint8 pv  = 0;\r\nuint8 bhkw = 0;\r\nuint lastTriggerBlock = block.number;\r\nuint matchAmount = 0;\r\nuint trigger = 0;\r\naddress ckaddress = address(0); // <-- manually change the address to your token address\r\n\r\n\r\n// Structs\r\nstruct Ask {\r\n  address asker;\r\n  uint amount;\r\n  uint price;\r\n  string timestamp;\r\n  }\r\n\r\nstruct Bid {\r\n  address bidder;\r\n  uint amount;\r\n  uint price;\r\n  string timestamp;\r\n  }\r\n\r\nstruct Match{\r\n  address askaddress;\r\n  address bidaddress;\r\n  uint amount;\r\n  string timestamp;\r\n  }\r\n\r\n\r\n// Events\r\nevent AskPlaced (address asker, uint amount, uint price, string timestamp, uint tick);\r\nevent BidPlaced (address bidder, uint amount, uint price, string timestamp, uint tick);\r\nevent UniformPrice (uint uniformprice, string timestamp, uint tick);\r\nevent MatchMade (address asker, address bidder, uint amount, string timestamp, uint tick);\r\nevent Transaction(address from, address to, string what, uint amount, uint tick);\r\nevent UpdatePrice(uint oldprice, uint newprice, string which);\r\nevent ChangeofToken(address oldtoken, address ckaddress);\r\n\r\n\r\n// Mappings\r\n// Every placed ask or bid is connected to the senders address and the addresses\r\n// are stored in an array\r\nmapping(address => Ask) asks;\r\naddress[] public ask_ids;\r\n\r\nmapping(address => Bid) bids;\r\naddress[] public bid_ids;\r\n\r\n//  Every match made is connected to an ID which is stored in an array\r\nmapping(uint => Match) matches;\r\nuint[] public match_ids;\r\n\r\n//  Locked value of all market participants is connected to their address\r\nmapping(address => uint) remainingLockedValue;\r\n\r\n// Links KITEnergyTokenInterface to specific smart contract\r\nEnergyCreditsInterface EnergyCredits = EnergyCreditsInterface(ckaddress);\r\n\r\n//  Constructor of contract to equip the market place with ether\r\nconstructor() {}\r\n\r\n// Equip market place with more ether\r\nfunction sendEther() public payable returns (bool success){\r\n  return true;\r\n  }\r\n\r\n//  Throws if Bid does not include sufficient amount of ether\r\nmodifier hasethBalance(uint _amount, uint _price){\r\n    if(fallbackPriceHigh>_price){\r\n      require((msg.value + remainingLockedValue[msg.sender])>=((fallbackPriceHigh)*_amount)*(10**14));\r\n    }\r\n    else{\r\n      require((msg.value + remainingLockedValue[msg.sender])>=((_price)*_amount)*(10**14));\r\n      }\r\n      _;\r\n    }\r\n\r\n//  Throws if Ask does not include sufficient amount of token\r\nmodifier hastokenBalance(uint _amount){\r\n      require((EnergyCredits.allowance(msg.sender,address(this)) + remainingLockedValue[msg.sender])>=_amount);\r\n  _;\r\n  }\r\n\r\n//  Throws if minimal amount of blocks in between to two auctions\r\n// has not been mined\r\nmodifier isTrigger(){\r\n  require(block.number>=lastTriggerBlock+trigger);\r\n  _;\r\n  }\r\n\r\n// Creation of an Ask\r\n// _price which is asked for\r\n// _timestamp of ask\r\n// @notice A market participant can place an ask if no future bid has been made in\r\n// this trading period, empty asks are forbidden to be protected against DOS attacks\r\nfunction addAsk (uint _amount, uint _price, string memory _timestamp) public hastokenBalance(_amount){\r\n  require(bids[msg.sender].amount==0);\r\n  require(_amount > 0);\r\n  if(asks[msg.sender].amount==0){\r\n    Ask storage ask = asks[msg.sender];\r\n    ask.asker = msg.sender;\r\n    ask.amount = _amount;\r\n    ask.price = _price;\r\n    ask.timestamp = _timestamp;\r\n    ask_ids.push(msg.sender);\r\n    remainingLockedValue[ask.asker]=_amount;\r\n    EnergyCredits.transferFrom(msg.sender,address(this),_amount);\r\n  }\r\n  else {\r\n    Ask storage askUpdate = asks[msg.sender];\r\n    askUpdate.amount = _amount;\r\n    askUpdate.price = _price;\r\n    askUpdate.timestamp = _timestamp;\r\n    asks[msg.sender] = askUpdate;\r\n\r\n    if (_amount > remainingLockedValue[msg.sender]){\r\n      EnergyCredits.transferFrom(msg.sender,address(this),(_amount-remainingLockedValue[msg.sender]));\r\n    }\r\n    else{\r\n      EnergyCredits.transfer(msg.sender,(remainingLockedValue[msg.sender]-_amount));\r\n    }\r\n    remainingLockedValue[msg.sender]=_amount;\r\n    }\r\n    emit AskPlaced(msg.sender, _amount, _price,_timestamp,tick);\r\n  }\r\n\r\n//  Creation of a Bid\r\n// @param _amount of electricity, _price is the reservation price for PV-Energy,\r\n// _pricebhkw is the reservation price for CHP-Energy, _timestamp of bid\r\n// @notice A market participant can place an bid if no future ask has been made in t\r\n// his trading period, empty asks are forbidden to be protected against DOS attacks\r\nfunction addBid (uint _amount, uint _price, string memory _timestamp) public payable hasethBalance(_amount,_price) {\r\n    require(asks[msg.sender].amount==0);\r\n    if(bids[msg.sender].amount==0){\r\n      Bid storage bid = bids[msg.sender];\r\n      bid.bidder = msg.sender;\r\n      bid.amount = _amount;\r\n      bid.price = _price;\r\n      bid.timestamp = _timestamp;\r\n      bid_ids.push(msg.sender);\r\n      remainingLockedValue[msg.sender]=(msg.value);\r\n    }\r\n    else {\r\n      Bid storage bidUpdate= bids[msg.sender];\r\n      bidUpdate.amount = _amount;\r\n      bidUpdate.price = _price;\r\n      bidUpdate.timestamp = _timestamp;\r\n      bids[msg.sender] = bidUpdate;\r\n      if ((_price * 10**14 * _amount) < remainingLockedValue[msg.sender]){\r\n        payable(msg.sender).transfer(remainingLockedValue[msg.sender] - (_price * 10**14 * _amount));\r\n        remainingLockedValue[msg.sender]= (_price * 10**14 * _amount);\r\n      }\r\n      else{\r\n        remainingLockedValue[msg.sender]=(remainingLockedValue[msg.sender]+msg.value);\r\n      }\r\n    }\r\n    emit BidPlaced (msg.sender, _amount, _price, _timestamp, tick);\r\n  }\r\n\r\n//Update Functions\r\nfunction changeTokenAddress(address _token) public onlyOwner returns (bool){\r\n  address oldtoken = ckaddress;\r\n  ckaddress = _token;\r\n  emit ChangeofToken(oldtoken,ckaddress);\r\n  return true;\r\n}\r\n\r\n// View functions\r\n//  Shows all current bids\r\n// @return array containing all bids\r\nfunction getAllBids() public view returns (address[] memory){\r\n  return bid_ids;\r\n  }\r\n\r\n// //  Shows PV-price of bid\r\n// // @param address of bidder\r\n// // @return uint being his PV-price in Cents*100\r\nfunction getBidPrice(address _address) public view returns (uint){\r\n  return bids[_address].price;\r\n  }\r\n\r\n// //  Shows electricity amount of bid\r\n// // @param address of bidder\r\n// // @return uint being the amount of electricity he wants to buy in kWh\r\nfunction getBidAmount(address _address) public view returns (uint){\r\n  return bids[_address].amount;\r\n  } \r\n\r\n// //  Shows point in time of bid\r\n// // @param address of bidder\r\n// // @return string reprensenting the timestamp of the bid\r\nfunction getBidTimestamp(address _address) public view returns (string memory){\r\n  return bids[_address].timestamp;\r\n}\r\n\r\n//  Shows all current asks\r\n// @return array containing all asks\r\nfunction getAllAsks() public view returns (address[] memory){\r\n      return ask_ids;\r\n    }\r\n\r\n// //  Shows preferred price of ask\r\n// // @param address of asker\r\n// // @return uint being the price preference in Cents*100\r\nfunction getAskPrice(address _address) public view returns (uint){\r\n  return asks[_address].price;\r\n  }\r\n\r\n// //  Shows electricity amount of ask\r\n// // @param address of asker\r\n// // @return uint being the amount of electricity he wants to sell in kWh\r\nfunction getAskAmount(address _address) public view returns (uint){\r\n  return asks[_address].amount;\r\n  }\r\n\r\n\r\n// //  Shows point in time of ask\r\n// // @param address of asker\r\n// // @return string reprensenting the timestamp of the bid\r\nfunction getAskTimestamp(address _address) public view returns (string memory){\r\n  return asks[_address].timestamp;\r\n}\r\n\r\n// //  Shows the remaining locked value\r\n// // @param address of bidder/bidder\r\n// // @return uint being the amount of electricity (asker) or the\r\n// // amount of ether that has been locked for the trading period\r\nfunction getremainingvalue (address _sender) public view returns(uint){\r\n  return remainingLockedValue[_sender];\r\n  }\r\n\r\n//  Shows the fallbackprice for buyers\r\n// @return the current fallbackprichigh in cent*100\r\nfunction getfallbackPriceHigh() public view returns(uint){\r\n  return fallbackPriceHigh;\r\n  }\r\n\r\n//  Shows the fallbackprice for sellers\r\n// @return the current fallbackpricelow in cent*100\r\nfunction getfallbackPriceLow() public view returns(uint){\r\n  return fallbackPriceLow;\r\n  }\r\n\r\n//  Shows all matches of trading period\r\n// @return array containing all match-IDs\r\nfunction getMatches() public view returns (uint[] memory){\r\n  return match_ids;\r\n  }\r\n\r\n//  Shows UniformPrice for PV of this trading period\r\n// @return uint being the uniformprice in cent*100\r\nfunction getUniformprice () public view returns (uint) {\r\n  return uniformprice;\r\n  }\r\n\r\n//function um bei Bids und Asks zu prfen, ob auch die Auction getriggered werden soll\r\nfunction getBoolean() public view returns(bool){\r\n    if(block.number>=lastTriggerBlock+trigger){\r\n        return true;\r\n    }\r\n  }\r\n\r\nfunction updateFallbackPriceHigh(uint _fallbackpricehigh) public onlyOwner returns (bool){ //reihenfolge checken und owner implementieren\r\n    uint r = fallbackPriceHigh;\r\n    fallbackPriceHigh = _fallbackpricehigh;\r\n    emit UpdatePrice(r,fallbackPriceHigh,\"fallbackpricehigh\");\r\n    return true;\r\n  }\r\n\r\nfunction updateFallbackPriceLow(uint _fallbackpricelow) public onlyOwner returns (bool) { //reihenfolge checken und owner implementieren\r\n    uint r = fallbackPriceLow;\r\n    fallbackPriceLow = _fallbackpricelow;\r\n    emit UpdatePrice(r,fallbackPriceLow,\"fallbackpricelow\");\r\n    return true;\r\n  }\r\n\r\n//Adjustment of the distance between two auctions\r\nfunction setTrigger(uint t) public onlyOwner returns(bool) {\r\n  trigger = t;\r\n  return true;\r\n  }\r\n\r\n\r\n//  Sorting array of asks upwards\r\nfunction sort_array() private{\r\n    uint256 l = bid_ids.length;\r\n    for(uint i = 0; i < l; i++) {\r\n        for(uint j = i+1; j < l ;j++) {\r\n            if(getBidPrice(bid_ids[i]) > getBidPrice(bid_ids[j])) {\r\n                address temp = bid_ids[i];\r\n                bid_ids[i] = bid_ids[j];\r\n                bid_ids[j] = temp;\r\n            }\r\n        }\r\n    }\r\n  }\r\n\r\nfunction try_to_auction() public isTrigger{\r\n  //Triggering the sorting of bids and asks, as well as triggering the auction\r\n  lastTriggerBlock=block.number;  //if the auction is triggered, then we save the current block\r\n  reset_before();\r\n  if(bhkw > pv){\r\n    sort_array(); // with function then call is trigger? But then the part here is executed every time. not like that!\r\n    pvmatching();\r\n    }\r\n  else{\r\n    sort_array();\r\n    pvmatching();\r\n    }\r\n  rest_of_auction();\r\n  //matchingTransactions();\r\n  reset_after();\r\n    }\r\n\r\n//Matching in the PV market\r\nfunction pvmatching() private{\r\n  for (uint i=0; i<bid_ids.length; i++) { //go through all bids\r\n      for(uint j = 0; j< ask_ids.length; j++){  //go through all the asks\r\n          if(getAskAmount(ask_ids[j]) > 0){\r\n          if(getBidPrice(bid_ids[i]) <= getAskPrice(ask_ids[j])){ //Offer price less than or equal to demand price\r\n             if(getAskAmount(ask_ids[j]) <= getBidAmount(bid_ids[i])){  //Demand quantity less than or equal to supply quantity\r\n                 matchAmount = getAskAmount(ask_ids[j]);  //then the demand quantity is the matched quantity\r\n             }else{\r\n                 matchAmount = getBidAmount(bid_ids[i]);  //otherwise the demand will be partially filled with the remaining supply\r\n             }\r\n             if(matchAmount > 0){ //if matchamount> 0 a match is created\r\n                 Match storage _matchPV = matches[match_id];\r\n                 _matchPV.bidaddress = bid_ids[i];\r\n                 _matchPV.askaddress = ask_ids[j];\r\n                 _matchPV.amount = matchAmount;\r\n                 _matchPV.timestamp = getBidTimestamp(bid_ids[i]);\r\n                 asks[ask_ids[j]].amount = getAskAmount(ask_ids[j]) - matchAmount; //matchAmount von Ask Amount abziehen\r\n                 bids[bid_ids[i]].amount = getBidAmount(bid_ids[i]) - matchAmount; //matchAmount von Bid Amount abziehen\r\n                 match_ids.push(match_id);\r\n                 match_id++;\r\n\r\n                 emit MatchMade(bid_ids[i],ask_ids[j],matchAmount,getBidTimestamp(bid_ids[i]),tick);\r\n             }\r\n          }\r\n          }\r\n      }\r\n    }\r\n  }\r\n\r\nfunction rest_of_auction() private{\r\n  //Matching in GreyMarket with the remaining offer quantities, Ask is provided here by GreyMarket\r\n  for(uint i = 0; i < bid_ids.length; i++){\r\n    if(getBidAmount(bid_ids[i]) > 0){\r\n      matchAmount = getBidAmount(bid_ids[i]);\r\n      Match storage matchGrey1 = matches[match_id];\r\n\r\n      Ask storage greyAsk = asks[address(this)];\r\n      greyAsk.asker = address(this);\r\n      greyAsk.amount = matchAmount;\r\n      greyAsk.price = fallbackPriceLow;\r\n      greyAsk.timestamp = getBidTimestamp(bid_ids[i]);\r\n      remainingLockedValue[greyAsk.asker] = 0;\r\n      emit AskPlaced(address(this),matchAmount,fallbackPriceLow,getBidTimestamp(bid_ids[i]),tick);\r\n\r\n      matchGrey1.bidaddress = bid_ids[i];\r\n      matchGrey1.askaddress = address(this);\r\n      matchGrey1.amount = matchAmount;\r\n      matchGrey1.timestamp = getBidTimestamp(bid_ids[i]);\r\n      match_ids.push(match_id);\r\n      bids[bid_ids[i]].amount = getBidAmount(bid_ids[i]) - matchAmount;\r\n      match_id++;\r\n\r\n      emit MatchMade(bids[bid_ids[i]].bidder,greyAsk.asker,matchAmount,getBidTimestamp(bid_ids[i]),tick);\r\n      }\r\n    }\r\n\r\n  //Matching in GreyMarket with the remaining demand, the bid is made here by GreyMarket\r\n  for(uint j = 0; j < ask_ids.length; j++){\r\n    if(getAskAmount(ask_ids[j]) > 0){\r\n      matchAmount = getAskAmount(ask_ids[j]);\r\n      Match storage matchGrey2 = matches[match_id];\r\n\r\n      Bid storage greyBid = bids[address(this)];\r\n      greyBid.bidder = address(this);\r\n      greyBid.amount = matchAmount;\r\n      greyBid.price = fallbackPriceHigh;\r\n      greyBid.timestamp = getAskTimestamp(ask_ids[j]);\r\n      remainingLockedValue[greyBid.bidder]=0;\r\n      emit BidPlaced(address(this),matchAmount,fallbackPriceHigh,getAskTimestamp(ask_ids[j]),tick);\r\n\r\n      matchGrey2.askaddress = ask_ids[j];\r\n      matchGrey2.bidaddress = address(this);\r\n      matchGrey2.amount = matchAmount;\r\n      matchGrey2.timestamp = getAskTimestamp(ask_ids[j]);\r\n      match_ids.push(match_id);\r\n      asks[ask_ids[j]].amount = getAskAmount(ask_ids[j]) - matchAmount;\r\n      match_id++;\r\n\r\n      emit MatchMade(greyBid.bidder,asks[ask_ids[j]].asker,matchAmount,getAskTimestamp(ask_ids[j]),tick);\r\n\r\n      }\r\n    }\r\n  }\r\n\r\n\r\n//divide by 100 possibly omit so there is no type force\r\n\r\n\r\n//Transactions\r\nfunction matchingTransactions() private {\r\n    //Transactions for PV\r\n    for(uint z = 0; z < match_ids.length; z++){\r\n        EnergyCredits.transfer(matches[match_ids[z]].askaddress,(matches[match_ids[z]].amount)); // Asker bekommt token vom contract (die wir vom Bidder bekommen haben)\r\n        payable(matches[match_ids[z]].bidaddress).transfer(matches[match_ids[z]].amount*getUniformprice()*(10**14)); //Bidder bekommt eth vom contract (die wir vom Asker bekommen haben)\r\n        remainingLockedValue[matches[match_ids[z]].askaddress] = remainingLockedValue[matches[match_ids[z]].askaddress] - (matches[match_ids[z]].amount * getUniformprice()* (10**14)); //remainingLockedValue wird um Transaktionsvolumen reduziert\r\n        emit Transaction(matches[match_ids[z]].askaddress,matches[match_ids[z]].bidaddress,\"Cent*100\",matches[match_ids[z]].amount*getUniformprice(),tick);\r\n        remainingLockedValue[matches[match_ids[z]].bidaddress] = remainingLockedValue[matches[match_ids[z]].bidaddress] - (matches[match_ids[z]].amount); //remainingLockedValue wird um Transaktionsvolumen reduziert\r\n        emit Transaction(matches[match_ids[z]].bidaddress,matches[match_ids[z]].askaddress,\"Token\",matches[match_ids[z]].amount,tick);\r\n      \r\n    }\r\n\r\n    //Transactions for Gray at GreyMarket as Ask\r\n    // for(uint z = 0; z < match_ids.length; z++){\r\n    //   if(getMatchPreference(z)==1){\r\n    //     emit Transaction(matches[match_ids[z]].bidaddress,matches[match_ids[z]].askaddress,\"Token\",matches[match_ids[z]].amount,tick);\r\n    //     matches[match_ids[z]].bidaddress.transfer(matches[match_ids[z]].amount*fallbackPriceLow*(10**14));\r\n    //     remainingLockedValue[matches[match_ids[z]].bidaddress] = remainingLockedValue[matches[match_ids[z]].bidaddress] - (matches[match_ids[z]].amount);\r\n    //     emit Transaction(matches[match_ids[z]].askaddress,matches[match_ids[z]].bidaddress,\"Cent*100\",matches[match_ids[z]].amount*fallbackPriceLow,tick);\r\n    //   }\r\n    // }\r\n\r\n    // //Transactions for Gray at GreyMarket as a bid\r\n    // for(uint z = 0; z < match_ids.length; z++){\r\n    //   if(getMatchPreference(z)==4){\r\n    //     energytoken.transfer(matches[match_ids[z]].askaddress,(matches[match_ids[z]].amount));\r\n    //     remainingLockedValue[matches[match_ids[z]].askaddress] = remainingLockedValue[matches[match_ids[z]].askaddress] - (matches[match_ids[z]].amount*fallbackPriceHigh*(10**14));\r\n    //     emit Transaction(matches[match_ids[z]].bidaddress,matches[match_ids[z]].askaddress,\"Token\",matches[match_ids[z]].amount,tick);\r\n    //     emit Transaction(matches[match_ids[z]].askaddress,matches[match_ids[z]].bidaddress,\"Cent*100\",matches[match_ids[z]].amount*fallbackPriceHigh,tick);\r\n    //   }\r\n    // }\r\n    \r\n\r\n\r\n    //Refunds if the blocked amount is higher than the amount actually paid and the mappings & arrays are deleted\r\n    for(uint z = 0; z < match_ids.length; z++){\r\n         if(remainingLockedValue[matches[match_ids[z]].askaddress]>0){\r\n           payable(matches[match_ids[z]].askaddress).transfer(remainingLockedValue[matches[match_ids[z]].askaddress]);\r\n           emit Transaction(address(this),matches[match_ids[z]].askaddress,\"Repayment Wei\",remainingLockedValue[matches[match_ids[z]].askaddress],tick);\r\n           remainingLockedValue[matches[match_ids[z]].askaddress] = 0;\r\n         }\r\n       }\r\n    }\r\n\r\nfunction reset_after() private {\r\n    delete bid_ids;\r\n    delete ask_ids;\r\n    pv = 0;\r\n    tick++;\r\n  }\r\n\r\nfunction reset_before() private{\r\n    delete match_ids;\r\n    match_id = 0;\r\n    uniformprice = 0;\r\n\r\n}\r\n\r\n}\r\n",
  "sourcePath": "C:\\Users\\27PDM0\\Documents\\GitHub\\Energy-Credits\\contracts\\energymarket.sol",
  "compiler": {
    "name": "solc",
    "version": "0.8.1+commit.df193b15.Emscripten.clang"
  },
  "schemaVersion": "3.4.2",
  "updatedAt": "2021-08-01T10:24:51.425Z",
  "devdoc": {
    "kind": "dev",
    "methods": {},
    "version": 1
  },
  "userdoc": {
    "kind": "user",
    "methods": {},
    "version": 1
  }
}