{
  "contractName": "Owned",
  "abi": [
    {
      "inputs": [],
      "stateMutability": "nonpayable",
      "type": "constructor"
    },
    {
      "anonymous": false,
      "inputs": [
        {
          "indexed": true,
          "internalType": "address",
          "name": "_from",
          "type": "address"
        },
        {
          "indexed": true,
          "internalType": "address",
          "name": "_to",
          "type": "address"
        }
      ],
      "name": "OwnershipTransferred",
      "type": "event"
    },
    {
      "inputs": [],
      "name": "newOwner",
      "outputs": [
        {
          "internalType": "address",
          "name": "",
          "type": "address"
        }
      ],
      "stateMutability": "view",
      "type": "function"
    },
    {
      "inputs": [],
      "name": "owner",
      "outputs": [
        {
          "internalType": "address",
          "name": "",
          "type": "address"
        }
      ],
      "stateMutability": "view",
      "type": "function"
    },
    {
      "inputs": [
        {
          "internalType": "address",
          "name": "_newOwner",
          "type": "address"
        }
      ],
      "name": "transferOwnership",
      "outputs": [],
      "stateMutability": "nonpayable",
      "type": "function"
    },
    {
      "inputs": [],
      "name": "acceptOwnership",
      "outputs": [],
      "stateMutability": "nonpayable",
      "type": "function"
    }
  ],
  "bytecode": "0x608060405234801561001057600080fd5b50336000806101000a81548173ffffffffffffffffffffffffffffffffffffffff021916908373ffffffffffffffffffffffffffffffffffffffff16021790555061041c806100606000396000f3fe608060405234801561001057600080fd5b506004361061004c5760003560e01c806379ba5097146100515780638da5cb5b1461005b578063d4ee1d9014610079578063f2fde38b14610097575b600080fd5b6100596100b3565b005b61006361024f565b6040516100709190610382565b60405180910390f35b610081610273565b60405161008e9190610382565b60405180910390f35b6100b160048036038101906100ac919061034a565b610299565b005b600160009054906101000a900473ffffffffffffffffffffffffffffffffffffffff1673ffffffffffffffffffffffffffffffffffffffff163373ffffffffffffffffffffffffffffffffffffffff161461010d57600080fd5b600160009054906101000a900473ffffffffffffffffffffffffffffffffffffffff1673ffffffffffffffffffffffffffffffffffffffff1660008054906101000a900473ffffffffffffffffffffffffffffffffffffffff1673ffffffffffffffffffffffffffffffffffffffff167f8be0079c531659141344cd1fd0a4f28419497f9722a3daafe3b4186f6b6457e060405160405180910390a3600160009054906101000a900473ffffffffffffffffffffffffffffffffffffffff166000806101000a81548173ffffffffffffffffffffffffffffffffffffffff021916908373ffffffffffffffffffffffffffffffffffffffff1602179055506000600160006101000a81548173ffffffffffffffffffffffffffffffffffffffff021916908373ffffffffffffffffffffffffffffffffffffffff160217905550565b60008054906101000a900473ffffffffffffffffffffffffffffffffffffffff1681565b600160009054906101000a900473ffffffffffffffffffffffffffffffffffffffff1681565b60008054906101000a900473ffffffffffffffffffffffffffffffffffffffff1673ffffffffffffffffffffffffffffffffffffffff163373ffffffffffffffffffffffffffffffffffffffff16146102f157600080fd5b80600160006101000a81548173ffffffffffffffffffffffffffffffffffffffff021916908373ffffffffffffffffffffffffffffffffffffffff16021790555050565b600081359050610344816103cf565b92915050565b60006020828403121561035c57600080fd5b600061036a84828501610335565b91505092915050565b61037c8161039d565b82525050565b60006020820190506103976000830184610373565b92915050565b60006103a8826103af565b9050919050565b600073ffffffffffffffffffffffffffffffffffffffff82169050919050565b6103d88161039d565b81146103e357600080fd5b5056fea2646970667358221220a6a3d6a622d06322db54daa557c6c7801d45f87280b76de29f944c8fb65be52e64736f6c63430008010033",
  "immutableReferences": {},
  "source": "pragma solidity >=0.8.1 <0.9.0;\r\n\r\n// ----------------------------------------------------------------------------\r\n// Energy Credits\r\n// ERC20 Standard Token\r\n// Represents electricity in kWh\r\n//\r\n// Symbol      : EC\r\n// Name        : Energy Credits\r\n// Total supply: 1,000,000.000\r\n// Decimals    : 3\r\n// ----------------------------------------------------------------------------\r\n\r\n\r\n// ----------------------------------------------------------------------------\r\n// Safe maths\r\n// ----------------------------------------------------------------------------\r\nlibrary SafeMath {\r\n    function add(uint a, uint b) internal pure returns (uint c) {\r\n        c = a + b;\r\n        require(c >= a);\r\n    }\r\n    function sub(uint a, uint b) internal pure returns (uint c) {\r\n        require(b <= a);\r\n        c = a - b;\r\n    }\r\n    function mul(uint a, uint b) internal pure returns (uint c) {\r\n        c = a * b;\r\n        require(a == 0 || c / a == b);\r\n    }\r\n    function div(uint a, uint b) internal pure returns (uint c) {\r\n        require(b > 0);\r\n        c = a / b;\r\n    }\r\n}\r\n\r\n\r\n// ----------------------------------------------------------------------------\r\n// ERC Token Standard #20 Interface\r\n// https://github.com/ethereum/EIPs/blob/master/EIPS/eip-20.md\r\n// ----------------------------------------------------------------------------\r\ninterface IERC20 {\r\n    function totalSupply() external view returns (uint256);\r\n    function balanceOf(address tokenOwner) external view returns (uint256);\r\n    function allowance(address tokenOwner, address spender) external view returns (uint remaining);\r\n    function transfer(address recipient, uint256 amount) external returns (bool);\r\n    function approve(address spender, uint tokens) external returns (bool success);\r\n    function transferFrom(address from, address to, uint tokens) external returns (bool success);\r\n\r\n    event Transfer(address indexed from, address indexed to, uint tokens);\r\n    event Approval(address indexed tokenOwner, address indexed spender, uint tokens);\r\n    event Burn(address indexed from, uint256 value);\r\n}\r\n\r\n// ----------------------------------------------------------------------------\r\n// Owned contract\r\n// ----------------------------------------------------------------------------\r\ncontract Owned {\r\n    address public owner;\r\n    address public newOwner;\r\n\r\n    event OwnershipTransferred(address indexed _from, address indexed _to);\r\n\r\n    constructor() {\r\n        owner = msg.sender;\r\n    }\r\n\r\n    modifier onlyOwner {\r\n        require(msg.sender == owner);\r\n        _;\r\n    }\r\n\r\n    function transferOwnership(address _newOwner) public onlyOwner {\r\n        newOwner = _newOwner;\r\n    }\r\n    function acceptOwnership() public {\r\n        require(msg.sender == newOwner);\r\n        emit OwnershipTransferred(owner, newOwner);\r\n        owner = newOwner;\r\n        newOwner = address(0);\r\n    }\r\n}\r\n\r\n\r\n// ----------------------------------------------------------------------------\r\n// ERC20 Token, with the addition of symbol, name and decimals and a\r\n// fixed supply\r\n// ----------------------------------------------------------------------------\r\ncontract EnergyCredits is IERC20, Owned {\r\n    using SafeMath for uint;\r\n\r\n    string public symbol;\r\n    string public  name;\r\n    uint8 public decimals;\r\n    uint _totalSupply;\r\n\r\n    mapping(address => uint) public balances;\r\n    mapping(address => mapping(address => uint)) public allowed;\r\n    mapping (address => bool) public frozenAccount;\r\n\r\n    event FrozenFunds(address target, bool frozen);\r\n\r\n\r\n    // ------------------------------------------------------------------------\r\n    // Constructor\r\n    // ------------------------------------------------------------------------\r\n    constructor() {\r\n        symbol = \"EC\";\r\n        name = \"Energy Credits\";\r\n        decimals = 3;\r\n        _totalSupply = 1000000 * 10**uint(decimals);\r\n        balances[owner] = _totalSupply;\r\n        emit Transfer(address(0), owner, _totalSupply);\r\n    }\r\n\r\n\r\n    // ------------------------------------------------------------------------\r\n    // Total supply\r\n    // ------------------------------------------------------------------------\r\n    function totalSupply() public view override returns (uint) {\r\n        return _totalSupply.sub(balances[address(0)]);\r\n    }\r\n\r\n\r\n    // ------------------------------------------------------------------------\r\n    // Get the token balance for account `tokenOwner`\r\n    // ------------------------------------------------------------------------\r\n    function balanceOf(address tokenOwner) public view override returns (uint balance) {\r\n        return balances[tokenOwner];\r\n    }\r\n\r\n    // ------------------------------------------------------------------------\r\n    // Internal transfer function with all requirements\r\n    // ------------------------------------------------------------------------\r\n    function _transfer(address _from, address _to, uint _value) internal {\r\n        // Prevent transfer to 0x0 address. Use burn() instead\r\n        require(_to != address(0));\r\n        // Check if the sender has enough\r\n        require(balances[_from] >= _value);\r\n        //Check for empty transfer\r\n        require(_value>0);\r\n        // Check for overflows\r\n        require(balances[_to].add(_value) > balances[_to]);\r\n        // Check if sender is frozen\r\n        require(!frozenAccount[_from]);\r\n        // Check if reciever is frozen\r\n        require(!frozenAccount[_to]);\r\n        // Save this for an assertion in the future\r\n        uint previousBalances = balances[_from].add(balances[_to]);\r\n        // Subtract from the sender\r\n        balances[_from] = balances[_from].sub(_value);\r\n        // Add the same to the recipient\r\n        balances[_to] = balances[_to].add(_value);\r\n        // Asserts are used to use static analysis to find bugs in your code. They should never fail\r\n        assert(balances[_from].add(balances[_to]) == previousBalances);\r\n\r\n        emit Transfer(_from, _to, _value);\r\n    }\r\n\r\n\r\n    // ------------------------------------------------------------------------\r\n    // Transfer the balance from token owner's account to `to` account\r\n    // ------------------------------------------------------------------------\r\n    function transfer(address to, uint tokens) public virtual override returns (bool success) {\r\n        _transfer(msg.sender,to,tokens);\r\n        return true;\r\n    }\r\n\r\n\r\n    // ------------------------------------------------------------------------\r\n    // Token owner can approve for `spender` to transferFrom(...) `tokens`\r\n    // from the token owner's account\r\n    // ------------------------------------------------------------------------\r\n    function approve(address spender, uint tokens) public virtual override returns (bool success) {\r\n        allowed[msg.sender][spender] = tokens;\r\n        emit Approval(msg.sender, spender, tokens);\r\n        return true;\r\n    }\r\n\r\n\r\n    // ------------------------------------------------------------------------\r\n    // Transfer `tokens` from the `from` account to the `to` account\r\n    //\r\n    // The calling account must already have sufficient tokens approve(...)-d\r\n    // for spending from the `from` account and\r\n    // ------------------------------------------------------------------------\r\n    function transferFrom(address from, address to, uint tokens) public virtual override returns (bool success) {\r\n        require(tokens <= allowed[from][msg.sender]);\r\n        allowed[from][msg.sender] = allowed[from][msg.sender].sub(tokens);\r\n        _transfer(from,to,tokens);\r\n        return true;\r\n    }\r\n\r\n\r\n    // ------------------------------------------------------------------------\r\n    // Returns the amount of tokens approved by the owner that can be\r\n    // transferred to the spender's account\r\n    // ------------------------------------------------------------------------\r\n    function allowance(address tokenOwner, address spender) public view override returns (uint remaining) {\r\n        return allowed[tokenOwner][spender];\r\n    }\r\n\r\n\r\n    // ------------------------------------------------------------------------\r\n    // Creates new tokens and puts them in target´s account\r\n    // ------------------------------------------------------------------------\r\n    function mintToken(address target,uint amount) public onlyOwner returns(bool success){\r\n      balances[target] = balances[target].add(amount);\r\n      _totalSupply = _totalSupply.add(amount);\r\n      emit Transfer(address(0), owner, amount);\r\n      emit Transfer(owner, target, amount);\r\n      return true;\r\n    }\r\n\r\n    // ------------------------------------------------------------------------\r\n    // Burns tokens\r\n    // ------------------------------------------------------------------------\r\n    function burn(uint256 _value) public onlyOwner returns (bool success) {\r\n    require(balances[msg.sender] >= _value);\r\n    balances[msg.sender] = balances[msg.sender].sub(_value);\r\n    _totalSupply = _totalSupply.sub(_value);\r\n    emit Burn(msg.sender, _value);\r\n    return true;\r\n}\r\n\r\n\r\n    // ------------------------------------------------------------------------\r\n    // Freezes certain account. Tokens cannot be moved anymore\r\n    // ------------------------------------------------------------------------\r\n    function freezeAccount(address target, bool freeze) public onlyOwner returns(bool success){\r\n        frozenAccount[target] = freeze;\r\n        emit FrozenFunds(target, freeze);\r\n        return true;\r\n    }\r\n\r\n\r\n    // ------------------------------------------------------------------------\r\n    // Owner can transfer out any accidentally sent ERC20 tokens\r\n    // ------------------------------------------------------------------------\r\n    function transferAnyERC20Token(address tokenAddress, uint tokens) public onlyOwner returns (bool success) {\r\n        return IERC20(tokenAddress).transfer(owner, tokens);\r\n    }\r\n}\r\n",
  "sourcePath": "C:\\Users\\batub\\Documents\\GitHub\\Energy-Credits\\contracts\\EnergyCredits.sol",
  "compiler": {
    "name": "solc",
    "version": "0.8.1+commit.df193b15.Emscripten.clang"
  },
  "schemaVersion": "3.4.2",
  "updatedAt": "2021-08-01T18:12:55.450Z",
  "devdoc": {
    "kind": "dev",
    "methods": {},
    "version": 1
  },
  "userdoc": {
    "kind": "user",
    "methods": {},
    "version": 1
  }
}